{
  "_format": "hh-sol-artifact-1",
  "contractName": "AaveAdapter",
  "sourceName": "contracts/release/extensions/integration-manager/integrations/adapters/AaveAdapter.sol",
  "abi": [
    {
      "inputs": [
        {
          "internalType": "address",
          "name": "_integrationManager",
          "type": "address"
        },
        {
          "internalType": "address",
          "name": "_lendingPoolAddressProvider",
          "type": "address"
        },
        {
          "internalType": "address",
          "name": "_aavePriceFeed",
          "type": "address"
        }
      ],
      "stateMutability": "nonpayable",
      "type": "constructor"
    },
    {
      "inputs": [],
      "name": "CLAIM_REWARDS_SELECTOR",
      "outputs": [
        {
          "internalType": "bytes4",
          "name": "",
          "type": "bytes4"
        }
      ],
      "stateMutability": "view",
      "type": "function"
    },
    {
      "inputs": [],
      "name": "LEND_AND_STAKE_SELECTOR",
      "outputs": [
        {
          "internalType": "bytes4",
          "name": "",
          "type": "bytes4"
        }
      ],
      "stateMutability": "view",
      "type": "function"
    },
    {
      "inputs": [],
      "name": "LEND_SELECTOR",
      "outputs": [
        {
          "internalType": "bytes4",
          "name": "",
          "type": "bytes4"
        }
      ],
      "stateMutability": "view",
      "type": "function"
    },
    {
      "inputs": [],
      "name": "REDEEM_SELECTOR",
      "outputs": [
        {
          "internalType": "bytes4",
          "name": "",
          "type": "bytes4"
        }
      ],
      "stateMutability": "view",
      "type": "function"
    },
    {
      "inputs": [],
      "name": "STAKE_SELECTOR",
      "outputs": [
        {
          "internalType": "bytes4",
          "name": "",
          "type": "bytes4"
        }
      ],
      "stateMutability": "view",
      "type": "function"
    },
    {
      "inputs": [],
      "name": "TAKE_ORDER_SELECTOR",
      "outputs": [
        {
          "internalType": "bytes4",
          "name": "",
          "type": "bytes4"
        }
      ],
      "stateMutability": "view",
      "type": "function"
    },
    {
      "inputs": [],
      "name": "UNSTAKE_AND_REDEEM_SELECTOR",
      "outputs": [
        {
          "internalType": "bytes4",
          "name": "",
          "type": "bytes4"
        }
      ],
      "stateMutability": "view",
      "type": "function"
    },
    {
      "inputs": [],
      "name": "UNSTAKE_SELECTOR",
      "outputs": [
        {
          "internalType": "bytes4",
          "name": "",
          "type": "bytes4"
        }
      ],
      "stateMutability": "view",
      "type": "function"
    },
    {
      "inputs": [],
      "name": "getAaveLendingPoolAddressProvider",
      "outputs": [
        {
          "internalType": "address",
          "name": "aaveLendingPoolAddressProvider_",
          "type": "address"
        }
      ],
      "stateMutability": "view",
      "type": "function"
    },
    {
      "inputs": [],
      "name": "getAavePriceFeed",
      "outputs": [
        {
          "internalType": "address",
          "name": "aavePriceFeed_",
          "type": "address"
        }
      ],
      "stateMutability": "view",
      "type": "function"
    },
    {
      "inputs": [],
      "name": "getAaveReferralCode",
      "outputs": [
        {
          "internalType": "uint16",
          "name": "aaveReferralCode_",
          "type": "uint16"
        }
      ],
      "stateMutability": "pure",
      "type": "function"
    },
    {
      "inputs": [],
      "name": "getIntegrationManager",
      "outputs": [
        {
          "internalType": "address",
          "name": "integrationManager_",
          "type": "address"
        }
      ],
      "stateMutability": "view",
      "type": "function"
    },
    {
      "inputs": [
        {
          "internalType": "address",
          "name": "_vaultProxy",
          "type": "address"
        },
        {
          "internalType": "bytes",
          "name": "",
          "type": "bytes"
        },
        {
          "internalType": "bytes",
          "name": "_assetData",
          "type": "bytes"
        }
      ],
      "name": "lend",
      "outputs": [],
      "stateMutability": "nonpayable",
      "type": "function"
    },
    {
      "inputs": [
        {
          "internalType": "address",
          "name": "",
          "type": "address"
        },
        {
          "internalType": "bytes4",
          "name": "_selector",
          "type": "bytes4"
        },
        {
          "internalType": "bytes",
          "name": "_actionData",
          "type": "bytes"
        }
      ],
      "name": "parseAssetsForAction",
      "outputs": [
        {
          "internalType": "enum IIntegrationManager.SpendAssetsHandleType",
          "name": "spendAssetsHandleType_",
          "type": "uint8"
        },
        {
          "internalType": "address[]",
          "name": "spendAssets_",
          "type": "address[]"
        },
        {
          "internalType": "uint256[]",
          "name": "spendAssetAmounts_",
          "type": "uint256[]"
        },
        {
          "internalType": "address[]",
          "name": "incomingAssets_",
          "type": "address[]"
        },
        {
          "internalType": "uint256[]",
          "name": "minIncomingAssetAmounts_",
          "type": "uint256[]"
        }
      ],
      "stateMutability": "view",
      "type": "function"
    },
    {
      "inputs": [
        {
          "internalType": "address",
          "name": "_vaultProxy",
          "type": "address"
        },
        {
          "internalType": "bytes",
          "name": "",
          "type": "bytes"
        },
        {
          "internalType": "bytes",
          "name": "_assetData",
          "type": "bytes"
        }
      ],
      "name": "redeem",
      "outputs": [],
      "stateMutability": "nonpayable",
      "type": "function"
    }
  ],
  "bytecode": "0x60e060405234801561001057600080fd5b506040516117d03803806117d08339818101604052606081101561003357600080fd5b50805160208201516040909201516001600160601b0319606092831b811660805292821b831660a052901b1660c05260805160601c60a05160601c60c05160601c61171b6100b5600039806108bc5280610d645280610fac5250806106d35280610ae75280610bf0525080610539528061072452806108e0525061171b6000f3fe608060405234801561001057600080fd5b50600436106100f55760003560e01c8063863e5ad011610097578063c54efee511610066578063c54efee514610330578063d4e5b16e146104f2578063e7c45690146104fa578063f7d882b514610502576100f5565b8063863e5ad01461022e5780639a134a4c14610236578063b23228cf1461025a578063c29fa9dd14610262576100f5565b8063257cb1a3116100d3578063257cb1a3146101f75780633ffc1591146101ff57806340da225d146102075780637f8d8ba81461020f576100f5565b8063080456c1146100fa578063099f75151461011f578063131461c0146101ef575b600080fd5b61010261050a565b604080516001600160e01b03199092168252519081900360200190f35b6101ed6004803603606081101561013557600080fd5b6001600160a01b038235169190810190604081016020820135600160201b81111561015f57600080fd5b82018360208201111561017157600080fd5b803590602001918460018302840111600160201b8311171561019257600080fd5b919390929091602081019035600160201b8111156101af57600080fd5b8201836020820111156101c157600080fd5b803590602001918460018302840111600160201b831117156101e257600080fd5b50909250905061052e565b005b610102610618565b61010261063c565b610102610660565b610102610684565b6102176106a8565b6040805161ffff9092168252519081900360200190f35b6101026106ad565b61023e6106d1565b604080516001600160a01b039092168252519081900360200190f35b6101026106f5565b6101ed6004803603606081101561027857600080fd5b6001600160a01b038235169190810190604081016020820135600160201b8111156102a257600080fd5b8201836020820111156102b457600080fd5b803590602001918460018302840111600160201b831117156102d557600080fd5b919390929091602081019035600160201b8111156102f257600080fd5b82018360208201111561030457600080fd5b803590602001918460018302840111600160201b8311171561032557600080fd5b509092509050610719565b6103bd6004803603606081101561034657600080fd5b6001600160a01b03823516916001600160e01b031960208201351691810190606081016040820135600160201b81111561037f57600080fd5b82018360208201111561039157600080fd5b803590602001918460018302840111600160201b831117156103b257600080fd5b50909250905061081c565b604051808660028111156103cd57fe5b815260200180602001806020018060200180602001858103855289818151815260200191508051906020019060200280838360005b8381101561041a578181015183820152602001610402565b50505050905001858103845288818151815260200191508051906020019060200280838360005b83811015610459578181015183820152602001610441565b50505050905001858103835287818151815260200191508051906020019060200280838360005b83811015610498578181015183820152602001610480565b50505050905001858103825286818151815260200191508051906020019060200280838360005b838110156104d75781810151838201526020016104bf565b50505050905001995050505050505050505060405180910390f35b61023e6108ba565b61023e6108de565b610102610902565b7f8334eb99be0145865eba9889fca2ee920288090caefff4cc776038e20ad9259a81565b336001600160a01b037f000000000000000000000000000000000000000000000000000000000000000016146105955760405162461bcd60e51b81526004018080602001828103825260328152602001806115cd6032913960400191505060405180910390fd5b6060806105d784848080601f01602080910402602001604051908101604052809392919081815260200183838082843760009201919091525061092692505050565b509150915061060f87836000815181106105ed57fe5b60200260200101518360008151811061060257fe5b6020026020010151610ae3565b50505050505050565b7f29fa046e79524c3c5ac4c01df692c35e217802b2b13b21121b76cf0ef02b138c81565b7f099f75155f0e997bf83a7993a71d5e7e7540bd386fe1e84643a09ce6b412521981565b7ffa7dd04da627f433da73c4355ead9c75682a67a8fc84d3f6170ef0922f402d2481565b7fb9dfbaccbe5cd2a84fdcf1d15f23ef25d23086f5afbaa99516065ed4a5bbc7a381565b609e90565b7f03e38a2bd7063d45c897edeafc330e71657502dd86434d3c37a489caf116af6981565b7f000000000000000000000000000000000000000000000000000000000000000090565b7f68e30677f607df46e87da13e15b637784cfa62374b653f35ab43d10361a2f83081565b336001600160a01b037f000000000000000000000000000000000000000000000000000000000000000016146107805760405162461bcd60e51b81526004018080602001828103825260328152602001806115cd6032913960400191505060405180910390fd5b60608060606107c485858080601f01602080910402602001604051908101604052809392919081815260200183838082843760009201919091525061092692505050565b92509250925061081288846000815181106107db57fe5b6020026020010151846000815181106107f057fe5b60200260200101518460008151811061080557fe5b6020026020010151610bec565b5050505050505050565b600060608080806001600160e01b0319881663099f751560e01b1415610855576108468787610d12565b945094509450945094506108af565b6001600160e01b0319881663c29fa9dd60e01b1415610878576108468787610f5a565b60405162461bcd60e51b81526004018080602001828103825260278152602001806116bf6027913960400191505060405180910390fd5b945094509450945094565b7f000000000000000000000000000000000000000000000000000000000000000090565b7f000000000000000000000000000000000000000000000000000000000000000090565b7fc29fa9dde84204c2908778afd0613d802d31cf046179b88f6d2b4a4e507ea2d581565b606080606083806020019051606081101561094057600080fd5b8101908080516040519392919084600160201b82111561095f57600080fd5b90830190602082018581111561097457600080fd5b82518660208202830111600160201b8211171561099057600080fd5b82525081516020918201928201910280838360005b838110156109bd5781810151838201526020016109a5565b5050505090500160405260200180516040519392919084600160201b8211156109e557600080fd5b9083019060208201858111156109fa57600080fd5b82518660208202830111600160201b82111715610a1657600080fd5b82525081516020918201928201910280838360005b83811015610a43578181015183820152602001610a2b565b5050505090500160405260200180516040519392919084600160201b821115610a6b57600080fd5b908301906020820185811115610a8057600080fd5b82518660208202830111600160201b82111715610a9c57600080fd5b82525081516020918201928201910280838360005b83811015610ac9578181015183820152602001610ab1565b505050509050016040525050509250925092509193909250565b60007f00000000000000000000000000000000000000000000000000000000000000006001600160a01b0316630261bf8b6040518163ffffffff1660e01b815260040160206040518083038186803b158015610b3e57600080fd5b505afa158015610b52573d6000803e3d6000fd5b505050506040513d6020811015610b6857600080fd5b50519050610b77838284611137565b6040805163e8eda9df60e01b81526001600160a01b038581166004830152602482018590528681166044830152609e606483015291519183169163e8eda9df9160848082019260009290919082900301818387803b158015610bd857600080fd5b505af1158015610812573d6000803e3d6000fd5b60007f00000000000000000000000000000000000000000000000000000000000000006001600160a01b0316630261bf8b6040518163ffffffff1660e01b815260040160206040518083038186803b158015610c4757600080fd5b505afa158015610c5b573d6000803e3d6000fd5b505050506040513d6020811015610c7157600080fd5b50519050610c80848285611137565b806001600160a01b03166369328dec8385886040518463ffffffff1660e01b815260040180846001600160a01b03168152602001838152602001826001600160a01b031681526020019350505050602060405180830381600087803b158015610ce857600080fd5b505af1158015610cfc573d6000803e3d6000fd5b505050506040513d602081101561060f57600080fd5b6000606080606080600080610d5c89898080601f01602080910402602001604051908101604052809392919081815260200183838082843760009201919091525061137c92505050565b9150915060007f00000000000000000000000000000000000000000000000000000000000000006001600160a01b03166366adb867846040518263ffffffff1660e01b815260040180826001600160a01b0316815260200191505060206040518083038186803b158015610dcf57600080fd5b505afa158015610de3573d6000803e3d6000fd5b505050506040513d6020811015610df957600080fd5b505190506001600160a01b038116610e425760405162461bcd60e51b81526004018080602001828103825260288152602001806116296028913960400191505060405180910390fd5b60408051600180825281830190925290602080830190803683370190505096508087600081518110610e7057fe5b6001600160a01b03929092166020928302919091018201526040805160018082528183019092529182810190803683370190505095508186600081518110610eb457fe5b6020908102919091010152604080516001808252818301909252908160200160208202803683370190505094508285600081518110610eef57fe5b6001600160a01b0392909216602092830291909101820152604080516001808252818301909252918281019080368337019050509350610f308260026113a7565b84600081518110610f3d57fe5b602002602001018181525050600297505050509295509295909350565b6000606080606080600080610fa489898080601f01602080910402602001604051908101604052809392919081815260200183838082843760009201919091525061137c92505050565b9150915060007f00000000000000000000000000000000000000000000000000000000000000006001600160a01b03166366adb867846040518263ffffffff1660e01b815260040180826001600160a01b0316815260200191505060206040518083038186803b15801561101757600080fd5b505afa15801561102b573d6000803e3d6000fd5b505050506040513d602081101561104157600080fd5b505190506001600160a01b03811661108a5760405162461bcd60e51b815260040180806020018281038252602a8152602001806115ff602a913960400191505060405180910390fd5b604080516001808252818301909252906020808301908036833701905050965082876000815181106110b857fe5b6001600160a01b039290921660209283029190910182015260408051600180825281830190925291828101908036833701905050955081866000815181106110fc57fe5b6020908102919091010152604080516001808252818301909252908160200160208202803683370190505094508085600081518110610eef57fe5b60408051636eb1769f60e11b81523060048201526001600160a01b038481166024830152915160009286169163dd62ed3e916044808301926020929190829003018186803b15801561118857600080fd5b505afa15801561119c573d6000803e3d6000fd5b505050506040513d60208110156111b257600080fd5b5051604080516060810190915260268082529192506111d991611675602083013982611404565b8181101561135557611202604051806060016040528060288152602001611581602891396114b6565b80156112ae57836001600160a01b031663095ea7b38460006040518363ffffffff1660e01b815260040180836001600160a01b0316815260200182815260200192505050602060405180830381600087803b15801561126057600080fd5b505af1158015611274573d6000803e3d6000fd5b505050506040513d602081101561128a57600080fd5b5050604080516060810190915260248082526112ae919061169b60208301396114b6565b836001600160a01b031663095ea7b3846000196040518363ffffffff1660e01b815260040180836001600160a01b0316815260200182815260200192505050602060405180830381600087803b15801561130757600080fd5b505af115801561131b573d6000803e3d6000fd5b505050506040513d602081101561133157600080fd5b505060408051606081019091526024808252611355919061165160208301396114b6565b6113766040518060600160405280602481526020016115a9602491396114b6565b50505050565b60008082806020019051604081101561139457600080fd5b5080516020909101519092509050915091565b6000828211156113fe576040805162461bcd60e51b815260206004820152601e60248201527f536166654d6174683a207375627472616374696f6e206f766572666c6f770000604482015290519081900360640190fd5b50900390565b6114b282826040516024018080602001838152602001828103825284818151815260200191508051906020019080838360005b8381101561144f578181015183820152602001611437565b50505050905090810190601f16801561147c5780820380516001836020036101000a031916815260200191505b5060408051601f198184030181529190526020810180516001600160e01b03166309710a9d60e41b179052935061155f92505050565b5050565b61155c816040516024018080602001828103825283818151815260200191508051906020019080838360005b838110156114fa5781810151838201526020016114e2565b50505050905090810190601f1680156115275780820380516001836020036101000a031916815260200191505b5060408051601f198184030181529190526020810180516001600160e01b031663104c13eb60e21b179052925061155f915050565b50565b80516a636f6e736f6c652e6c6f67602083016000808483855afa505050505056fe5f5f617070726f766541737365744d617841734e65656465643a6265666f726520617070726f76655f5f617070726f766541737365744d617841734e65656465643a617070726f76656420334f6e6c792074686520496e746567726174696f6e4d616e616765722063616e2063616c6c20746869732066756e6374696f6e5f5f7061727365417373657473466f7252656465656d3a20556e737570706f727465642061546f6b656e5f5f7061727365417373657473466f724c656e643a20556e737570706f727465642061546f6b656e5f5f617070726f766541737365744d617841734e65656465643a617070726f76656420325f5f617070726f766541737365744d617841734e65656465643a616c6c6f77616e63653a25645f5f617070726f766541737365744d617841734e65656465643a617070726f76656420317061727365417373657473466f72416374696f6e3a205f73656c6563746f7220696e76616c6964a2646970667358221220161913b173b4230823d8b9f46d8b8f6c824d7fb1001bd3a49b71dba73eae0f3a64736f6c634300060c0033",
  "linkReferences": {},
  "deployedLinkReferences": {}
}