{
  "_format": "hh-sol-artifact-1",
  "contractName": "DepositWrapper",
  "sourceName": "contracts/release/peripheral/DepositWrapper.sol",
  "abi": [
    {
      "inputs": [
        {
          "internalType": "address",
          "name": "_weth",
          "type": "address"
        }
      ],
      "stateMutability": "nonpayable",
      "type": "constructor"
    },
    {
      "inputs": [
        {
          "internalType": "address",
          "name": "_comptrollerProxy",
          "type": "address"
        },
        {
          "internalType": "address",
          "name": "_denominationAsset",
          "type": "address"
        },
        {
          "internalType": "uint256",
          "name": "_minSharesQuantity",
          "type": "uint256"
        },
        {
          "internalType": "address",
          "name": "_exchange",
          "type": "address"
        },
        {
          "internalType": "address",
          "name": "_exchangeApproveTarget",
          "type": "address"
        },
        {
          "internalType": "bytes",
          "name": "_exchangeData",
          "type": "bytes"
        },
        {
          "internalType": "uint256",
          "name": "_minInvestmentAmount",
          "type": "uint256"
        }
      ],
      "name": "exchangeEthAndBuyShares",
      "outputs": [
        {
          "internalType": "uint256",
          "name": "sharesReceived_",
          "type": "uint256"
        }
      ],
      "stateMutability": "payable",
      "type": "function"
    },
    {
      "inputs": [],
      "name": "getWethToken",
      "outputs": [
        {
          "internalType": "address",
          "name": "wethToken_",
          "type": "address"
        }
      ],
      "stateMutability": "view",
      "type": "function"
    },
    {
      "stateMutability": "payable",
      "type": "receive"
    }
  ],
  "bytecode": "0x60a060405234801561001057600080fd5b50604051610b3e380380610b3e8339818101604052602081101561003357600080fd5b5051606081901b6001600160601b0319166080526001600160a01b0316610ad76100676000398061011d5250610ad76000f3fe60806040526004361061002d5760003560e01c80634c252f91146100395780635ba6f8ea1461006a57610034565b3661003457005b600080fd5b34801561004557600080fd5b5061004e61011b565b604080516001600160a01b039092168252519081900360200190f35b610109600480360360e081101561008057600080fd5b6001600160a01b0382358116926020810135821692604082013592606083013581169260808101359091169181019060c0810160a08201356401000000008111156100ca57600080fd5b8201836020820111156100dc57600080fd5b803590602001918460018302840111640100000000831117156100fe57600080fd5b91935091503561013f565b60408051918252519081900360200190f35b7f000000000000000000000000000000000000000000000000000000000000000090565b600061014961011b565b6001600160a01b031663d0e30db0346040518263ffffffff1660e01b81526004016000604051808303818588803b15801561018357600080fd5b505af1158015610197573d6000803e3d6000fd5b50505050506101a461011b565b6001600160a01b0316886001600160a01b031614156101e2576101cf6101c861011b565b8a34610559565b6101db8933348a61079e565b905061054d565b6101f46101ed61011b565b8634610559565b60006060876001600160a01b03168686604051808383808284376040519201945060009350909150508083038183865af19150503d8060008114610254576040519150601f19603f3d011682016040523d82523d6000602084013e610259565b606091505b50915091508181906102e95760405162461bcd60e51b81526004018080602001828103825283818151815260200191508051906020019080838360005b838110156102ae578181015183820152602001610296565b50505050905090810190601f1680156102db5780820380516001836020036101000a031916815260200191505b509250505060405180910390fd5b5060008a6001600160a01b03166370a08231306040518263ffffffff1660e01b815260040180826001600160a01b0316815260200191505060206040518083038186803b15801561033957600080fd5b505afa15801561034d573d6000803e3d6000fd5b505050506040513d602081101561036357600080fd5b50519050848110156103a65760405162461bcd60e51b8152600401808060200182810382526032815260200180610a026032913960400191505060405180910390fd5b6103b18b8d83610559565b6103bd8c33838d61079e565b935060006103c961011b565b6001600160a01b03166370a08231306040518263ffffffff1660e01b815260040180826001600160a01b0316815260200191505060206040518083038186803b15801561041557600080fd5b505afa158015610429573d6000803e3d6000fd5b505050506040513d602081101561043f57600080fd5b5051905080156105485761045161011b565b6001600160a01b0316632e1a7d4d826040518263ffffffff1660e01b815260040180828152602001915050600060405180830381600087803b15801561049657600080fd5b505af11580156104aa573d6000803e3d6000fd5b5050604051339250839150600081818185875af1925050503d80600081146104ee576040519150601f19603f3d011682016040523d82523d6000602084013e6104f3565b606091505b50909450925082846105465760405162461bcd60e51b81526020600482018181528351602484015283519092839260449091019190850190808383600083156102ae578181015183820152602001610296565b505b505050505b98975050505050505050565b60408051636eb1769f60e11b81523060048201526001600160a01b038481166024830152915160009286169163dd62ed3e916044808301926020929190829003018186803b1580156105aa57600080fd5b505afa1580156105be573d6000803e3d6000fd5b505050506040513d60208110156105d457600080fd5b5051604080516060810190915260268082529192506105fb91610a58602083013982610839565b81811015610777576106246040518060600160405280602881526020016109b6602891396108eb565b80156106d057836001600160a01b031663095ea7b38460006040518363ffffffff1660e01b815260040180836001600160a01b0316815260200182815260200192505050602060405180830381600087803b15801561068257600080fd5b505af1158015610696573d6000803e3d6000fd5b505050506040513d60208110156106ac57600080fd5b5050604080516060810190915260248082526106d09190610a7e60208301396108eb565b836001600160a01b031663095ea7b3846000196040518363ffffffff1660e01b815260040180836001600160a01b0316815260200182815260200192505050602060405180830381600087803b15801561072957600080fd5b505af115801561073d573d6000803e3d6000fd5b505050506040513d602081101561075357600080fd5b5050604080516060810190915260248082526107779190610a3460208301396108eb565b6107986040518060600160405280602481526020016109de602491396108eb565b50505050565b600080859050806001600160a01b031663877fd8948686866040518463ffffffff1660e01b815260040180846001600160a01b031681526020018381526020018281526020019350505050602060405180830381600087803b15801561080357600080fd5b505af1158015610817573d6000803e3d6000fd5b505050506040513d602081101561082d57600080fd5b50519695505050505050565b6108e782826040516024018080602001838152602001828103825284818151815260200191508051906020019080838360005b8381101561088457818101518382015260200161086c565b50505050905090810190601f1680156108b15780820380516001836020036101000a031916815260200191505b5060408051601f198184030181529190526020810180516001600160e01b03166309710a9d60e41b179052935061099492505050565b5050565b610991816040516024018080602001828103825283818151815260200191508051906020019080838360005b8381101561092f578181015183820152602001610917565b50505050905090810190601f16801561095c5780820380516001836020036101000a031916815260200191505b5060408051601f198184030181529190526020810180516001600160e01b031663104c13eb60e21b1790529250610994915050565b50565b80516a636f6e736f6c652e6c6f67602083016000808483855afa505050505056fe5f5f617070726f766541737365744d617841734e65656465643a6265666f726520617070726f76655f5f617070726f766541737365744d617841734e65656465643a617070726f766564203365786368616e6765416e644275795368617265733a205f6d696e496e766573746d656e74416d6f756e74206e6f74206d65745f5f617070726f766541737365744d617841734e65656465643a617070726f76656420325f5f617070726f766541737365744d617841734e65656465643a616c6c6f77616e63653a25645f5f617070726f766541737365744d617841734e65656465643a617070726f7665642031a2646970667358221220fb8087b57856e01ea592d7d04b5d927967ba67208726ddd716d43dae1ff9001d64736f6c634300060c0033",
  "linkReferences": {},
  "deployedLinkReferences": {}
}