{
  "contracts/mocks/MockChainlinkPriceSource.sol": {
    "MockChainlinkPriceSource": {
      "abi": [
        {
          "inputs": [
            {
              "internalType": "uint256",
              "name": "_decimals",
              "type": "uint256"
            }
          ],
          "stateMutability": "nonpayable",
          "type": "constructor"
        },
        {
          "anonymous": false,
          "inputs": [
            {
              "indexed": true,
              "internalType": "int256",
              "name": "current",
              "type": "int256"
            },
            {
              "indexed": true,
              "internalType": "uint256",
              "name": "roundId",
              "type": "uint256"
            },
            {
              "indexed": false,
              "internalType": "uint256",
              "name": "timestamp",
              "type": "uint256"
            }
          ],
          "name": "AnswerUpdated",
          "type": "event"
        },
        {
          "inputs": [],
          "name": "DECIMALS",
          "outputs": [
            {
              "internalType": "uint256",
              "name": "",
              "type": "uint256"
            }
          ],
          "stateMutability": "view",
          "type": "function"
        },
        {
          "inputs": [],
          "name": "aggregator",
          "outputs": [
            {
              "internalType": "address",
              "name": "",
              "type": "address"
            }
          ],
          "stateMutability": "view",
          "type": "function"
        },
        {
          "inputs": [],
          "name": "decimals",
          "outputs": [
            {
              "internalType": "uint256",
              "name": "",
              "type": "uint256"
            }
          ],
          "stateMutability": "view",
          "type": "function"
        },
        {
          "inputs": [],
          "name": "latestAnswer",
          "outputs": [
            {
              "internalType": "int256",
              "name": "",
              "type": "int256"
            }
          ],
          "stateMutability": "view",
          "type": "function"
        },
        {
          "inputs": [],
          "name": "latestTimestamp",
          "outputs": [
            {
              "internalType": "uint256",
              "name": "",
              "type": "uint256"
            }
          ],
          "stateMutability": "view",
          "type": "function"
        },
        {
          "inputs": [],
          "name": "roundId",
          "outputs": [
            {
              "internalType": "uint256",
              "name": "",
              "type": "uint256"
            }
          ],
          "stateMutability": "view",
          "type": "function"
        },
        {
          "inputs": [
            {
              "internalType": "address",
              "name": "_nextAggregator",
              "type": "address"
            }
          ],
          "name": "setAggregator",
          "outputs": [],
          "stateMutability": "nonpayable",
          "type": "function"
        },
        {
          "inputs": [
            {
              "internalType": "int256",
              "name": "_nextAnswer",
              "type": "int256"
            },
            {
              "internalType": "uint256",
              "name": "_nextTimestamp",
              "type": "uint256"
            }
          ],
          "name": "setLatestAnswer",
          "outputs": [],
          "stateMutability": "nonpayable",
          "type": "function"
        }
      ],
      "devdoc": {
        "kind": "dev",
        "methods": {},
        "version": 1
      },
      "evm": {
        "bytecode": {
          "linkReferences": {},
          "object": "608060405234801561001057600080fd5b506040516102743803806102748339818101604052602081101561003357600080fd5b50516000819055600a0a600190815542600255600355600480546001600160a01b0319163017905561020a8061006a6000396000f3fe608060405234801561001057600080fd5b50600436106100885760003560e01c80638205bf6a1161005b5780638205bf6a146100db5780638cd221c9146100e3578063e9c58f85146100eb578063f9120af61461011057610088565b8063245a7bfc1461008d5780632e0f2625146100b1578063313ce567146100cb57806350d25bcd146100d3575b600080fd5b610095610136565b604080516001600160a01b039092168252519081900360200190f35b6100b9610145565b60408051918252519081900360200190f35b6100b961014b565b6100b9610151565b6100b9610157565b6100b961015d565b61010e6004803603604081101561010157600080fd5b5080359060200135610163565b005b61010e6004803603602081101561012657600080fd5b50356001600160a01b03166101b2565b6004546001600160a01b031681565b60005481565b60005490565b60015481565b60025481565b60035481565b60018281556002829055600380549091019081905560408051838152905184917f0559884fd3a460db3073b7fc896cc77986f16e378210ded43186175bf646fc5f919081900360200190a35050565b600480546001600160a01b0319166001600160a01b039290921691909117905556fea26469706673582212204c984a595393ebec1a0577acc4f8511fb165625f552f71249e14999c0bbd79ba64736f6c634300060c0033",
          "opcodes": "PUSH1 0x80 PUSH1 0x40 MSTORE CALLVALUE DUP1 ISZERO PUSH2 0x10 JUMPI PUSH1 0x0 DUP1 REVERT JUMPDEST POP PUSH1 0x40 MLOAD PUSH2 0x274 CODESIZE SUB DUP1 PUSH2 0x274 DUP4 CODECOPY DUP2 DUP2 ADD PUSH1 0x40 MSTORE PUSH1 0x20 DUP2 LT ISZERO PUSH2 0x33 JUMPI PUSH1 0x0 DUP1 REVERT JUMPDEST POP MLOAD PUSH1 0x0 DUP2 SWAP1 SSTORE PUSH1 0xA EXP PUSH1 0x1 SWAP1 DUP2 SSTORE TIMESTAMP PUSH1 0x2 SSTORE PUSH1 0x3 SSTORE PUSH1 0x4 DUP1 SLOAD PUSH1 0x1 PUSH1 0x1 PUSH1 0xA0 SHL SUB NOT AND ADDRESS OR SWAP1 SSTORE PUSH2 0x20A DUP1 PUSH2 0x6A PUSH1 0x0 CODECOPY PUSH1 0x0 RETURN INVALID PUSH1 0x80 PUSH1 0x40 MSTORE CALLVALUE DUP1 ISZERO PUSH2 0x10 JUMPI PUSH1 0x0 DUP1 REVERT JUMPDEST POP PUSH1 0x4 CALLDATASIZE LT PUSH2 0x88 JUMPI PUSH1 0x0 CALLDATALOAD PUSH1 0xE0 SHR DUP1 PUSH4 0x8205BF6A GT PUSH2 0x5B JUMPI DUP1 PUSH4 0x8205BF6A EQ PUSH2 0xDB JUMPI DUP1 PUSH4 0x8CD221C9 EQ PUSH2 0xE3 JUMPI DUP1 PUSH4 0xE9C58F85 EQ PUSH2 0xEB JUMPI DUP1 PUSH4 0xF9120AF6 EQ PUSH2 0x110 JUMPI PUSH2 0x88 JUMP JUMPDEST DUP1 PUSH4 0x245A7BFC EQ PUSH2 0x8D JUMPI DUP1 PUSH4 0x2E0F2625 EQ PUSH2 0xB1 JUMPI DUP1 PUSH4 0x313CE567 EQ PUSH2 0xCB JUMPI DUP1 PUSH4 0x50D25BCD EQ PUSH2 0xD3 JUMPI JUMPDEST PUSH1 0x0 DUP1 REVERT JUMPDEST PUSH2 0x95 PUSH2 0x136 JUMP JUMPDEST PUSH1 0x40 DUP1 MLOAD PUSH1 0x1 PUSH1 0x1 PUSH1 0xA0 SHL SUB SWAP1 SWAP3 AND DUP3 MSTORE MLOAD SWAP1 DUP2 SWAP1 SUB PUSH1 0x20 ADD SWAP1 RETURN JUMPDEST PUSH2 0xB9 PUSH2 0x145 JUMP JUMPDEST PUSH1 0x40 DUP1 MLOAD SWAP2 DUP3 MSTORE MLOAD SWAP1 DUP2 SWAP1 SUB PUSH1 0x20 ADD SWAP1 RETURN JUMPDEST PUSH2 0xB9 PUSH2 0x14B JUMP JUMPDEST PUSH2 0xB9 PUSH2 0x151 JUMP JUMPDEST PUSH2 0xB9 PUSH2 0x157 JUMP JUMPDEST PUSH2 0xB9 PUSH2 0x15D JUMP JUMPDEST PUSH2 0x10E PUSH1 0x4 DUP1 CALLDATASIZE SUB PUSH1 0x40 DUP2 LT ISZERO PUSH2 0x101 JUMPI PUSH1 0x0 DUP1 REVERT JUMPDEST POP DUP1 CALLDATALOAD SWAP1 PUSH1 0x20 ADD CALLDATALOAD PUSH2 0x163 JUMP JUMPDEST STOP JUMPDEST PUSH2 0x10E PUSH1 0x4 DUP1 CALLDATASIZE SUB PUSH1 0x20 DUP2 LT ISZERO PUSH2 0x126 JUMPI PUSH1 0x0 DUP1 REVERT JUMPDEST POP CALLDATALOAD PUSH1 0x1 PUSH1 0x1 PUSH1 0xA0 SHL SUB AND PUSH2 0x1B2 JUMP JUMPDEST PUSH1 0x4 SLOAD PUSH1 0x1 PUSH1 0x1 PUSH1 0xA0 SHL SUB AND DUP2 JUMP JUMPDEST PUSH1 0x0 SLOAD DUP2 JUMP JUMPDEST PUSH1 0x0 SLOAD SWAP1 JUMP JUMPDEST PUSH1 0x1 SLOAD DUP2 JUMP JUMPDEST PUSH1 0x2 SLOAD DUP2 JUMP JUMPDEST PUSH1 0x3 SLOAD DUP2 JUMP JUMPDEST PUSH1 0x1 DUP3 DUP2 SSTORE PUSH1 0x2 DUP3 SWAP1 SSTORE PUSH1 0x3 DUP1 SLOAD SWAP1 SWAP2 ADD SWAP1 DUP2 SWAP1 SSTORE PUSH1 0x40 DUP1 MLOAD DUP4 DUP2 MSTORE SWAP1 MLOAD DUP5 SWAP2 PUSH32 0x559884FD3A460DB3073B7FC896CC77986F16E378210DED43186175BF646FC5F SWAP2 SWAP1 DUP2 SWAP1 SUB PUSH1 0x20 ADD SWAP1 LOG3 POP POP JUMP JUMPDEST PUSH1 0x4 DUP1 SLOAD PUSH1 0x1 PUSH1 0x1 PUSH1 0xA0 SHL SUB NOT AND PUSH1 0x1 PUSH1 0x1 PUSH1 0xA0 SHL SUB SWAP3 SWAP1 SWAP3 AND SWAP2 SWAP1 SWAP2 OR SWAP1 SSTORE JUMP INVALID LOG2 PUSH5 0x6970667358 0x22 SLT KECCAK256 0x4C SWAP9 0x4A MSIZE MSTORE8 SWAP4 0xEB 0xEC BYTE SDIV PUSH24 0xACC4F8511FB165625F552F71249E14999C0BBD79BA64736F PUSH13 0x634300060C0033000000000000 "
        },
        "gasEstimates": {
          "creation": {
            "codeDepositCost": "104400",
            "executionCost": "infinite",
            "totalCost": "infinite"
          },
          "external": {
            "DECIMALS()": "1021",
            "aggregator()": "1038",
            "decimals()": "1043",
            "latestAnswer()": "1065",
            "latestTimestamp()": "998",
            "roundId()": "1020",
            "setAggregator(address)": "21139",
            "setLatestAnswer(int256,uint256)": "62910"
          }
        },
        "methodIdentifiers": {
          "DECIMALS()": "2e0f2625",
          "aggregator()": "245a7bfc",
          "decimals()": "313ce567",
          "latestAnswer()": "50d25bcd",
          "latestTimestamp()": "8205bf6a",
          "roundId()": "8cd221c9",
          "setAggregator(address)": "f9120af6",
          "setLatestAnswer(int256,uint256)": "e9c58f85"
        }
      },
      "storageLayout": {
        "storage": [
          {
            "astId": 11,
            "contract": "contracts/mocks/MockChainlinkPriceSource.sol:MockChainlinkPriceSource",
            "label": "DECIMALS",
            "offset": 0,
            "slot": "0",
            "type": "t_uint256"
          },
          {
            "astId": 13,
            "contract": "contracts/mocks/MockChainlinkPriceSource.sol:MockChainlinkPriceSource",
            "label": "latestAnswer",
            "offset": 0,
            "slot": "1",
            "type": "t_int256"
          },
          {
            "astId": 15,
            "contract": "contracts/mocks/MockChainlinkPriceSource.sol:MockChainlinkPriceSource",
            "label": "latestTimestamp",
            "offset": 0,
            "slot": "2",
            "type": "t_uint256"
          },
          {
            "astId": 17,
            "contract": "contracts/mocks/MockChainlinkPriceSource.sol:MockChainlinkPriceSource",
            "label": "roundId",
            "offset": 0,
            "slot": "3",
            "type": "t_uint256"
          },
          {
            "astId": 19,
            "contract": "contracts/mocks/MockChainlinkPriceSource.sol:MockChainlinkPriceSource",
            "label": "aggregator",
            "offset": 0,
            "slot": "4",
            "type": "t_address"
          }
        ],
        "types": {
          "t_address": {
            "encoding": "inplace",
            "label": "address",
            "numberOfBytes": "20"
          },
          "t_int256": {
            "encoding": "inplace",
            "label": "int256",
            "numberOfBytes": "32"
          },
          "t_uint256": {
            "encoding": "inplace",
            "label": "uint256",
            "numberOfBytes": "32"
          }
        }
      },
      "userdoc": {
        "kind": "user",
        "methods": {},
        "version": 1
      }
    }
  }
}