{
  "_format": "hh-sol-artifact-1",
  "contractName": "FeeManager",
  "sourceName": "contracts/release/extensions/fee-manager/FeeManager.sol",
  "abi": [
    {
      "inputs": [
        {
          "internalType": "address",
          "name": "_fundDeployer",
          "type": "address"
        }
      ],
      "stateMutability": "nonpayable",
      "type": "constructor"
    },
    {
      "anonymous": false,
      "inputs": [
        {
          "indexed": true,
          "internalType": "address",
          "name": "comptrollerProxy",
          "type": "address"
        },
        {
          "indexed": true,
          "internalType": "address",
          "name": "fee",
          "type": "address"
        },
        {
          "indexed": false,
          "internalType": "bytes",
          "name": "settingsData",
          "type": "bytes"
        }
      ],
      "name": "FeeEnabledForFund",
      "type": "event"
    },
    {
      "anonymous": false,
      "inputs": [
        {
          "indexed": true,
          "internalType": "address",
          "name": "comptrollerProxy",
          "type": "address"
        },
        {
          "indexed": true,
          "internalType": "address",
          "name": "fee",
          "type": "address"
        },
        {
          "indexed": true,
          "internalType": "enum IFeeManager.SettlementType",
          "name": "settlementType",
          "type": "uint8"
        },
        {
          "indexed": false,
          "internalType": "address",
          "name": "payer",
          "type": "address"
        },
        {
          "indexed": false,
          "internalType": "address",
          "name": "payee",
          "type": "address"
        },
        {
          "indexed": false,
          "internalType": "uint256",
          "name": "sharesDue",
          "type": "uint256"
        }
      ],
      "name": "FeeSettledForFund",
      "type": "event"
    },
    {
      "anonymous": false,
      "inputs": [
        {
          "indexed": true,
          "internalType": "address",
          "name": "comptrollerProxy",
          "type": "address"
        },
        {
          "indexed": true,
          "internalType": "address",
          "name": "fee",
          "type": "address"
        },
        {
          "indexed": true,
          "internalType": "address",
          "name": "payee",
          "type": "address"
        },
        {
          "indexed": false,
          "internalType": "uint256",
          "name": "sharesDue",
          "type": "uint256"
        }
      ],
      "name": "SharesOutstandingPaidForFund",
      "type": "event"
    },
    {
      "anonymous": false,
      "inputs": [
        {
          "indexed": true,
          "internalType": "address",
          "name": "comptrollerProxy",
          "type": "address"
        },
        {
          "indexed": true,
          "internalType": "address",
          "name": "vaultProxy",
          "type": "address"
        }
      ],
      "name": "ValidatedVaultProxySetForFund",
      "type": "event"
    },
    {
      "inputs": [
        {
          "internalType": "bool",
          "name": "",
          "type": "bool"
        }
      ],
      "name": "activateForFund",
      "outputs": [],
      "stateMutability": "nonpayable",
      "type": "function"
    },
    {
      "inputs": [],
      "name": "deactivateForFund",
      "outputs": [],
      "stateMutability": "nonpayable",
      "type": "function"
    },
    {
      "inputs": [
        {
          "internalType": "address",
          "name": "_comptrollerProxy",
          "type": "address"
        }
      ],
      "name": "getEnabledFeesForFund",
      "outputs": [
        {
          "internalType": "address[]",
          "name": "enabledFees_",
          "type": "address[]"
        }
      ],
      "stateMutability": "view",
      "type": "function"
    },
    {
      "inputs": [
        {
          "internalType": "address",
          "name": "_comptrollerProxy",
          "type": "address"
        },
        {
          "internalType": "address",
          "name": "_fee",
          "type": "address"
        }
      ],
      "name": "getFeeSharesOutstandingForFund",
      "outputs": [
        {
          "internalType": "uint256",
          "name": "sharesOutstanding_",
          "type": "uint256"
        }
      ],
      "stateMutability": "view",
      "type": "function"
    },
    {
      "inputs": [],
      "name": "getFundDeployer",
      "outputs": [
        {
          "internalType": "address",
          "name": "fundDeployer_",
          "type": "address"
        }
      ],
      "stateMutability": "view",
      "type": "function"
    },
    {
      "inputs": [],
      "name": "getOwner",
      "outputs": [
        {
          "internalType": "address",
          "name": "owner_",
          "type": "address"
        }
      ],
      "stateMutability": "view",
      "type": "function"
    },
    {
      "inputs": [
        {
          "internalType": "address",
          "name": "_comptrollerProxy",
          "type": "address"
        }
      ],
      "name": "getVaultProxyForFund",
      "outputs": [
        {
          "internalType": "address",
          "name": "vaultProxy_",
          "type": "address"
        }
      ],
      "stateMutability": "view",
      "type": "function"
    },
    {
      "inputs": [
        {
          "internalType": "enum IFeeManager.FeeHook",
          "name": "_hook",
          "type": "uint8"
        },
        {
          "internalType": "bytes",
          "name": "_settlementData",
          "type": "bytes"
        },
        {
          "internalType": "uint256",
          "name": "_gav",
          "type": "uint256"
        }
      ],
      "name": "invokeHook",
      "outputs": [],
      "stateMutability": "nonpayable",
      "type": "function"
    },
    {
      "inputs": [
        {
          "internalType": "address",
          "name": "",
          "type": "address"
        },
        {
          "internalType": "uint256",
          "name": "_actionId",
          "type": "uint256"
        },
        {
          "internalType": "bytes",
          "name": "_callArgs",
          "type": "bytes"
        }
      ],
      "name": "receiveCallFromComptroller",
      "outputs": [],
      "stateMutability": "nonpayable",
      "type": "function"
    },
    {
      "inputs": [
        {
          "internalType": "address",
          "name": "_comptrollerProxy",
          "type": "address"
        },
        {
          "internalType": "address",
          "name": "_vaultProxy",
          "type": "address"
        },
        {
          "internalType": "bytes",
          "name": "_configData",
          "type": "bytes"
        }
      ],
      "name": "setConfigForFund",
      "outputs": [],
      "stateMutability": "nonpayable",
      "type": "function"
    }
  ],
  "bytecode": "0x60a06040523480156200001157600080fd5b50604051620022393803806200223983398101604081905262000034916200005d565b60601b6001600160601b031916608052620000b2565b8051620000578162000098565b92915050565b6000602082840312156200007057600080fd5b60006200007e84846200004a565b949350505050565b60006001600160a01b03821662000057565b620000a38162000086565b8114620000af57600080fd5b50565b60805160601c61215f620000da6000398061032352806103d752806103fe525061215f6000f3fe608060405234801561001057600080fd5b506004361061009e5760003560e01c806397c0ac871161006657806397c0ac871461010f578063a9f3b42f14610117578063aa051c2c14610137578063bd8e959a14610157578063f067cc111461015f5761009e565b80631bee801e146100a357806346790346146100b85780637759c164146100e157806380d57063146100f4578063893d20e814610107575b600080fd5b6100b66100b13660046117b8565b610172565b005b6100cb6100c63660046116d2565b61020b565b6040516100d89190611c0a565b60405180910390f35b6100b66100ef3660046118d4565b61022c565b6100b6610102366004611868565b610272565b6100cb61031f565b6100cb6103b7565b61012a6101253660046116d2565b610420565b6040516100d89190611cdf565b61014a610145366004611716565b610496565b6040516100d89190611dcb565b6100b66104c3565b6100b661016d366004611750565b610510565b8261019b5761019633600060405180602001604052806000815250600060016108da565b610205565b82600114156101e4576101963383838080601f01602080910402602001604051908101604052809392919081815260200183838082843760009201919091525061095a92505050565b60405162461bcd60e51b81526004016101fc90611d7b565b60405180910390fd5b50505050565b6001600160a01b03808216600090815260208190526040902054165b919050565b610205338585858080601f016020809104026020016040519081016040528093929190818152602001838380828437600092019190915250879250600191506108da9050565b33600061027e8261020b565b9050606061028b83610420565b905060005b8151811015610318578181815181106102a557fe5b60200260200101516001600160a01b0316633146d05885856040518363ffffffff1660e01b81526004016102da929190611c18565b600060405180830381600087803b1580156102f457600080fd5b505af1158015610308573d6000803e3d6000fd5b5050600190920191506102909050565b5050505050565b60007f00000000000000000000000000000000000000000000000000000000000000006001600160a01b031663893d20e86040518163ffffffff1660e01b815260040160206040518083038186803b15801561037a57600080fd5b505afa15801561038e573d6000803e3d6000fd5b505050506040513d601f19601f820116820180604052508101906103b291906116f8565b905090565b60006103fb604051806060016040528060298152602001611fd5602991397f0000000000000000000000000000000000000000000000000000000000000000610a3c565b507f000000000000000000000000000000000000000000000000000000000000000090565b6001600160a01b03811660009081526001602090815260409182902080548351818402810184019094528084526060939283018282801561048a57602002820191906000526020600020905b81546001600160a01b0316815260019091019060200180831161046c575b50505050509050919050565b6001600160a01b038083166000908152600260209081526040808320938516835292905220545b92915050565b3360006104cf8261020b565b905060606104dc83610420565b905060005b81518110156102055761050884848484815181106104fb57fe5b6020026020010151610a85565b6001016104e1565b6105326040518060600160405280602d8152602001611f5a602d913933610a3c565b61053a6103b7565b6001600160a01b0316336001600160a01b03161461056a5760405162461bcd60e51b81526004016101fc90611d9b565b61058c604051806060016040528060268152602001611ffe6026913933610a3c565b6105968484610b3e565b6105b76040518060600160405280603481526020016120d260349139610b95565b6105f682828080601f016020809104026020016040519081016040528093929190818152602001838380828437600092019190915250610bdb92505050565b6105fe61146b565b610606611489565b610612838501856117eb565b9150915061064c604051806040016040528060158152602001744665654d616e616765723a616269206465636f646560581b815250610b95565b60005b60038110156106ab5761068a604051806060016040528060248152602001611fb16024913984836003811061068057fe5b6020020151610a3c565b6106a382826003811061069957fe5b6020020151610bdb565b60010161064f565b506106cd6040518060600160405280602881526020016120aa60289139610b95565b6106ee60405180606001604052806029815260200161202460299139610b95565b61070f6040518060600160405280602a8152602001611f87602a9139610b95565b60005b60038110156108d15761073d6040518060600160405280602481526020016121066024913982610c1e565b82816003811061074957fe5b60200201516001600160a01b0316630f5f6b4f8884846003811061076957fe5b60200201516040518363ffffffff1660e01b815260040161078b929190611ca4565b600060405180830381600087803b1580156107a557600080fd5b505af11580156107b9573d6000803e3d6000fd5b505050506107de6040518060600160405280602b815260200161207f602b9139610b95565b6001600160a01b038716600090815260016020526040902083826003811061080257fe5b60209081029190910151825460018101845560009384529282902090920180546001600160a01b0319166001600160a01b03909316929092179091556040805160608101909152603280825261085e9261204d90830139610b95565b82816003811061086a57fe5b60200201516001600160a01b0316876001600160a01b03167f62b7814f137868e44c7a83c2b0a340fc5dacef8f3e748867d0f5f879fc0ef6da8484600381106108af57fe5b60200201516040516108c19190611cfe565b60405180910390a3600101610712565b50505050505050565b60606108e586610420565b90508051600014156108f75750610318565b60006109028761020b565b90506001600160a01b03811661092a5760405162461bcd60e51b81526004016101fc90611dbb565b600061093a8883858a8a8a610c63565b90508315610950576109508883858a8a86610d5c565b5050505050505050565b6060818060200190518101906109709190611833565b9050600061097d3361020b565b905060005b82518110156103185782818151811061099757fe5b60200260200101516001600160a01b031663b78b481386846040518363ffffffff1660e01b81526004016109cc929190611c18565b602060405180830381600087803b1580156109e657600080fd5b505af11580156109fa573d6000803e3d6000fd5b505050506040513d601f19601f82011682018060405250810190610a1e9190611886565b15610a3457610a3485838584815181106104fb57fe5b600101610982565b610a818282604051602401610a52929190611d2b565b60408051601f198184030181529190526020810180516001600160e01b031663319af33360e01b179052610ea1565b5050565b6000610a918483610496565b905080610a9e5750610b39565b6001600160a01b0380851660009081526002602090815260408083209386168352929052908120819055610ad3858585610ec2565b9050610ae185858385610fcc565b806001600160a01b0316836001600160a01b0316866001600160a01b03167f4e6eff738a7af3dbd4288f753eb551833c09a82d6c3dfaf07a23c3fcc82a352285604051610b2e9190611dcb565b60405180910390a450505b505050565b6001600160a01b0382811660008181526020819052604080822080546001600160a01b0319169486169485179055517f8852dcaa71340ea616a65ffac013450dfb238607481fb9d78346c667fe256c139190a35050565b610bd881604051602401610ba99190611cfe565b60408051601f198184030181529190526020810180516001600160e01b031663104c13eb60e21b179052610ea1565b50565b610bd881604051602401610bef9190611cfe565b60408051601f198184030181529190526020810180516001600160e01b03166305f3bfab60e11b179052610ea1565b610a818282604051602401610c34929190611d4b565b60408051601f198184030181529190526020810180516001600160e01b03166309710a9d60e41b179052610ea1565b8060005b8551811015610d5057600080878381518110610c7f57fe5b60200260200101516001600160a01b031663320f0ddd886040518263ffffffff1660e01b8152600401610cb29190611d0f565b604080518083038186803b158015610cc957600080fd5b505afa158015610cdd573d6000803e3d6000fd5b505050506040513d601f19601f82011682018060405250810190610d0191906118a4565b9150915081610d11575050610d48565b8015610d2457610d218a8561104c565b93505b610d458a8a8a8681518110610d3557fe5b60200260200101518a8a896110e0565b50505b600101610c67565b505b9695505050505050565b8060005b855181101561095057600080878381518110610d7857fe5b60200260200101516001600160a01b031663e337a91f886040518263ffffffff1660e01b8152600401610dab9190611d0f565b604080518083038186803b158015610dc257600080fd5b505afa158015610dd6573d6000803e3d6000fd5b505050506040513d601f19601f82011682018060405250810190610dfa91906118a4565b9150915081610e0a575050610e99565b8015610e1d57610e1a8a8561104c565b93505b878381518110610e2957fe5b60200260200101516001600160a01b031663233faf5f8b8b8a8a896040518663ffffffff1660e01b8152600401610e64959493929190611c33565b600060405180830381600087803b158015610e7e57600080fd5b505af1158015610e92573d6000803e3d6000fd5b5050505050505b600101610d60565b80516a636f6e736f6c652e6c6f67602083016000808483855afa5050505050565b60405163189e02cf60e21b81526000906001600160a01b038316906362780b3c90610ef1908790600401611c0a565b60206040518083038186803b158015610f0957600080fd5b505afa158015610f1d573d6000803e3d6000fd5b505050506040513d601f19601f82011682018060405250810190610f4191906116f8565b90506001600160a01b038116610fc557826001600160a01b031663893d20e86040518163ffffffff1660e01b815260040160206040518083038186803b158015610f8a57600080fd5b505afa158015610f9e573d6000803e3d6000fd5b505050506040513d601f19601f82011682018060405250810190610fc291906116f8565b90505b9392505050565b836001600160a01b03166310acd06d6003858585604051602001610ff293929190611c7c565b6040516020818303038152906040526040518363ffffffff1660e01b815260040161101e929190611d1d565b600060405180830381600087803b15801561103857600080fd5b505af1158015610950573d6000803e3d6000fd5b6000816110d957604051637a89e49360e11b81526001600160a01b0384169063f513c9269061108090600090600401611cf0565b602060405180830381600087803b15801561109a57600080fd5b505af11580156110ae573d6000803e3d6000fd5b505050506040513d601f19601f820116820180604052508101906110d2919061198b565b90506104bd565b50806104bd565b6000806000866001600160a01b03166341892d7e8a8a8989896040518663ffffffff1660e01b8152600401611119959493929190611c33565b606060405180830381600087803b15801561113357600080fd5b505af1158015611147573d6000803e3d6000fd5b505050506040513d601f19601f8201168201806040525081019061116b919061193e565b91945092509050600083600581111561118057fe5b141561118e57505050611374565b6000600184600581111561119e57fe5b14156111c2576111af8a8a8a610ec2565b90506111bd8a848385610fcc565b611314565b60028460058111156111d057fe5b14156111ee576111e18a8a8a610ec2565b90506111bd8a828461137c565b60038460058111156111fc57fe5b141561120d576111bd8a84846113fa565b600484600581111561121b57fe5b1415611284576001600160a01b03808b166000908152600260209081526040808320938c1683529290522054611251908361141e565b6001600160a01b03808c166000908152600260209081526040808320938d168352929052205550876111bd8a828461137c565b600584600581111561129257fe5b14156112fc576001600160a01b03808b166000908152600260209081526040808320938c16835292905220546112c89083611443565b6001600160a01b03808c166000908152600260209081526040808320938d16835292905220558892506111bd8a84846113fa565b60405162461bcd60e51b81526004016101fc90611dab565b83600581111561132057fe5b886001600160a01b03168b6001600160a01b03167fef7da7c40d1fc52df907f6fed0e539680d5fb491c3b8f94db234a360dafe1d6286858760405161136793929190611c7c565b60405180910390a4505050505b505050505050565b826001600160a01b03166310acd06d600284846040516020016113a0929190611cc4565b6040516020818303038152906040526040518363ffffffff1660e01b81526004016113cc929190611d1d565b600060405180830381600087803b1580156113e657600080fd5b505af11580156108d1573d6000803e3d6000fd5b826001600160a01b03166310acd06d600184846040516020016113a0929190611cc4565b600082820183811015610fc55760405162461bcd60e51b81526004016101fc90611d6b565b6000828211156114655760405162461bcd60e51b81526004016101fc90611d8b565b50900390565b60405180606001604052806003906020820280368337509192915050565b60405180606001604052806003905b60608152602001906001900390816114985790505090565b80356104bd81611f19565b80516104bd81611f19565b600082601f8301126114d757600080fd5b60036114ea6114e582611e00565b611dd9565b9150818385602084028201111561150057600080fd5b60005b8381101561152c578161151688826114b0565b8452506020928301929190910190600101611503565b5050505092915050565b600082601f83011261154757600080fd5b81516115556114e582611e1e565b9150818183526020840193506020810190508385602084028201111561157a57600080fd5b60005b8381101561152c578161159088826114bb565b845250602092830192919091019060010161157d565b600082601f8301126115b757600080fd5b60036115c56114e582611e00565b9150818360005b8381101561152c57813586016115e28882611657565b84525060209283019291909101906001016115cc565b80356104bd81611f2d565b80516104bd81611f2d565b60008083601f84011261162057600080fd5b50813567ffffffffffffffff81111561163857600080fd5b60208301915083600182028301111561165057600080fd5b9250929050565b600082601f83011261166857600080fd5b81356116766114e582611e3f565b9150808252602083016020830185838301111561169257600080fd5b61169d838284611ec3565b50505092915050565b80356104bd81611f36565b80516104bd81611f43565b80356104bd81611f50565b80516104bd81611f50565b6000602082840312156116e457600080fd5b60006116f084846114b0565b949350505050565b60006020828403121561170a57600080fd5b60006116f084846114bb565b6000806040838503121561172957600080fd5b600061173585856114b0565b9250506020611746858286016114b0565b9150509250929050565b6000806000806060858703121561176657600080fd5b600061177287876114b0565b9450506020611783878288016114b0565b935050604085013567ffffffffffffffff8111156117a057600080fd5b6117ac8782880161160e565b95989497509550505050565b600080600080606085870312156117ce57600080fd5b60006117da87876114b0565b9450506020611783878288016116bc565b600080608083850312156117fe57600080fd5b600061180a85856114c6565b925050606083013567ffffffffffffffff81111561182757600080fd5b611746858286016115a6565b60006020828403121561184557600080fd5b815167ffffffffffffffff81111561185c57600080fd5b6116f084828501611536565b60006020828403121561187a57600080fd5b60006116f084846115f8565b60006020828403121561189857600080fd5b60006116f08484611603565b600080604083850312156118b757600080fd5b60006118c38585611603565b925050602061174685828601611603565b600080600080606085870312156118ea57600080fd5b60006118f687876116a6565b945050602085013567ffffffffffffffff81111561191357600080fd5b61191f8782880161160e565b93509350506040611932878288016116bc565b91505092959194509250565b60008060006060848603121561195357600080fd5b600061195f86866116b1565b9350506020611970868287016114bb565b9250506040611981868287016116c7565b9150509250925092565b60006020828403121561199d57600080fd5b60006116f084846116c7565b60006119b583836119bd565b505060200190565b6119c681611e7a565b82525050565b60006119d782611e6d565b6119e18185611e71565b93506119ec83611e67565b8060005b83811015611a1a578151611a0488826119a9565b9750611a0f83611e67565b9250506001016119f0565b509495945050505050565b6119c681611e85565b6000611a3982611e6d565b611a438185611e71565b9350611a53818560208601611ecf565b611a5c81611efb565b9093019392505050565b6119c681611ead565b6119c681611eb8565b6000611a85601b83611e71565b7f536166654d6174683a206164646974696f6e206f766572666c6f770000000000815260200192915050565b6000611abe602d83611e71565b7f7265636569766543616c6c46726f6d436f6d7074726f6c6c65723a20496e766181526c1b1a590817d858dd1a5bdb9259609a1b602082015260400192915050565b6000611b0d601e83611e71565b7f536166654d6174683a207375627472616374696f6e206f766572666c6f770000815260200192915050565b6000611b46602883611e71565b7f4f6e6c79207468652046756e644465706c6f7965722063616e206d616b6520748152671a1a5cc818d85b1b60c21b602082015260400192915050565b6000611b90602383611e71565b7f5f5f736574746c654665653a20496e76616c696420536574746c656d656e745481526279706560e81b602082015260400192915050565b6000611bd5602083611e71565b7f5f5f696e766f6b65486f6f6b3a2046756e64206973206e6f7420616374697665815260200192915050565b6119c681611eaa565b602081016104bd82846119bd565b60408101611c2682856119bd565b610fc560208301846119bd565b60a08101611c4182886119bd565b611c4e60208301876119bd565b611c5b6040830186611a66565b8181036060830152611c6d8185611a2e565b9050610d526080830184611c01565b60608101611c8a82866119bd565b611c9760208301856119bd565b6116f06040830184611c01565b60408101611cb282856119bd565b8181036020830152610fc28184611a2e565b60408101611cd282856119bd565b610fc56020830184611c01565b60208082528101610fc581846119cc565b602081016104bd8284611a25565b60208082528101610fc58184611a2e565b602081016104bd8284611a66565b60408101611cb28285611a6f565b60408082528101611d3c8185611a2e565b9050610fc560208301846119bd565b60408082528101611d5c8185611a2e565b9050610fc56020830184611c01565b602080825281016104bd81611a78565b602080825281016104bd81611ab1565b602080825281016104bd81611b00565b602080825281016104bd81611b39565b602080825281016104bd81611b83565b602080825281016104bd81611bc8565b602081016104bd8284611c01565b60405181810167ffffffffffffffff81118282101715611df857600080fd5b604052919050565b600067ffffffffffffffff821115611e1757600080fd5b5060200290565b600067ffffffffffffffff821115611e3557600080fd5b5060209081020190565b600067ffffffffffffffff821115611e5657600080fd5b506020601f91909101601f19160190565b60200190565b5190565b90815260200190565b60006104bd82611e9e565b151590565b8061022781611f05565b8061022781611f0f565b6001600160a01b031690565b90565b60006104bd82611e8a565b60006104bd82611e94565b82818337506000910152565b60005b83811015611eea578181015183820152602001611ed2565b838111156102055750506000910152565b601f01601f191690565b60048110610bd857fe5b600b8110610bd857fe5b611f2281611e7a565b8114610bd857600080fd5b611f2281611e85565b60048110610bd857600080fd5b60068110610bd857600080fd5b611f2281611eaa56fe457874656e73696f6e426173653a6f6e6c7946756e644465706c6f7965723a6d73672e73656e6465723a2025734665654d616e616765723a736574436f6e666967466f7246756e643a7365636f6e6420726571756972654665654d616e616765723a736574436f6e666967466f7246756e643a666565733a20257346756e644465706c6f7965724f776e65724d6978696e3a67657446756e644465706c6f7965723a25734665654d616e616765723a736574436f6e666967466f7246756e643a73656e646572202025734665654d616e616765723a736574436f6e666967466f7246756e643a666972737420726571756972654665654d616e616765723a736574436f6e666967466f7246756e643a636f6d7074726f6c6c657250726f7879546f466565734665654d616e616765723a736574436f6e666967466f7246756e643a61646446756e6453657474696e67734665654d616e616765723a736574436f6e666967466f7246756e643a73657474696e6773446174614665654d616e616765723a736574436f6e666967466f7246756e643a5f5f73657456616c6964617465645661756c7450726f78794665654d616e616765723a736574436f6e666967466f7246756e643a6c6f6f703a202564a26469706673582212200d2b49e1dfd73bf612012fd8e8434d746518c7fa0f18789f62d7e9d52698562e64736f6c634300060c0033",
  "linkReferences": {},
  "deployedLinkReferences": {}
}