{
  "_format": "hh-sol-artifact-1",
  "contractName": "ProtocolFeeReserveLib",
  "sourceName": "contracts/persistent/protocol-fee-reserve/ProtocolFeeReserveLib.sol",
  "abi": [
    {
      "anonymous": false,
      "inputs": [
        {
          "indexed": false,
          "internalType": "address",
          "name": "nextProtocolFeeReserveLib",
          "type": "address"
        }
      ],
      "name": "ProtocolFeeReserveLibSet",
      "type": "event"
    },
    {
      "anonymous": false,
      "inputs": [
        {
          "indexed": true,
          "internalType": "address",
          "name": "vaultProxy",
          "type": "address"
        },
        {
          "indexed": false,
          "internalType": "uint256",
          "name": "sharesAmount",
          "type": "uint256"
        },
        {
          "indexed": false,
          "internalType": "uint256",
          "name": "mlnValue",
          "type": "uint256"
        },
        {
          "indexed": false,
          "internalType": "uint256",
          "name": "mlnBurned",
          "type": "uint256"
        }
      ],
      "name": "SharesBoughtBack",
      "type": "event"
    },
    {
      "inputs": [
        {
          "internalType": "uint256",
          "name": "_sharesAmount",
          "type": "uint256"
        },
        {
          "internalType": "uint256",
          "name": "_mlnValue",
          "type": "uint256"
        },
        {
          "internalType": "uint256",
          "name": "",
          "type": "uint256"
        }
      ],
      "name": "buyBackSharesViaTrustedVaultProxy",
      "outputs": [
        {
          "internalType": "uint256",
          "name": "mlnAmountToBurn_",
          "type": "uint256"
        }
      ],
      "stateMutability": "nonpayable",
      "type": "function"
    },
    {
      "inputs": [],
      "name": "getDispatcher",
      "outputs": [
        {
          "internalType": "address",
          "name": "dispatcher_",
          "type": "address"
        }
      ],
      "stateMutability": "view",
      "type": "function"
    },
    {
      "inputs": [],
      "name": "getProtocolFeeReserveLib",
      "outputs": [
        {
          "internalType": "address",
          "name": "protocolFeeReserveLib_",
          "type": "address"
        }
      ],
      "stateMutability": "view",
      "type": "function"
    },
    {
      "inputs": [
        {
          "internalType": "address",
          "name": "_dispatcher",
          "type": "address"
        }
      ],
      "name": "init",
      "outputs": [],
      "stateMutability": "nonpayable",
      "type": "function"
    },
    {
      "inputs": [],
      "name": "proxiableUUID",
      "outputs": [
        {
          "internalType": "bytes32",
          "name": "uuid_",
          "type": "bytes32"
        }
      ],
      "stateMutability": "pure",
      "type": "function"
    },
    {
      "inputs": [
        {
          "internalType": "address",
          "name": "_nextProtocolFeeReserveLib",
          "type": "address"
        }
      ],
      "name": "setProtocolFeeReserveLib",
      "outputs": [],
      "stateMutability": "nonpayable",
      "type": "function"
    }
  ],
  "bytecode": "0x608060405234801561001057600080fd5b50610598806100206000396000f3fe608060405234801561001057600080fd5b50600436106100625760003560e01c806319ab453c1461006757806352d1902d1461008f57806396c45aec146100a9578063b3e2546b146100d2578063c75a882a146100f6578063ebb3d5891461011c575b600080fd5b61008d6004803603602081101561007d57600080fd5b50356001600160a01b0316610124565b005b6100976101eb565b60408051918252519081900360200190f35b610097600480360360608110156100bf57600080fd5b508035906020810135906040013561020f565b6100da610276565b604080516001600160a01b039092168252519081900360200190f35b61008d6004803603602081101561010c57600080fd5b50356001600160a01b031661029b565b6100da610395565b600061012e610395565b6001600160a01b031614610189576040805162461bcd60e51b815260206004820152601f60248201527f696e69743a2050726f787920616c726561647920696e697469616c697a656400604482015290519081900360640190fd5b600080546001600160a01b0319166001600160a01b0383161790557f637d0ba5806b2c873952a12cd23e7cf28669dba115b2ded43df3d2d75c71e8c16101cd610276565b604080516001600160a01b039092168252519081900360200190a150565b7fbc966524590ce702cc9340e80d86ea9095afa6b8eecbb5d6213f57633223918190565b600061021c8360026103a4565b90508061022b5750600061026f565b6040805185815260208101859052808201839052905133917f6b63e290827c0f9226da4ffa1b681a509f0764acfc1ab99503a4f55012ec3c19919081900360600190a25b9392505050565b7f360894a13ba1a3210667c828492db98dca3e2076cc3735a920a3ca505d382bbc5490565b6102a3610395565b6001600160a01b031663893d20e86040518163ffffffff1660e01b815260040160206040518083038186803b1580156102db57600080fd5b505afa1580156102ef573d6000803e3d6000fd5b505050506040513d602081101561030557600080fd5b50516001600160a01b0316331461034d5760405162461bcd60e51b81526004018080602001828103825260308152602001806105336030913960400191505060405180910390fd5b6103568161040b565b604080516001600160a01b038316815290517f637d0ba5806b2c873952a12cd23e7cf28669dba115b2ded43df3d2d75c71e8c19181900360200190a150565b6000546001600160a01b031690565b60008082116103fa576040805162461bcd60e51b815260206004820152601a60248201527f536166654d6174683a206469766973696f6e206279207a65726f000000000000604482015290519081900360640190fd5b81838161040357fe5b049392505050565b7fbc966524590ce702cc9340e80d86ea9095afa6b8eecbb5d6213f57633223918160001b816001600160a01b03166352d1902d6040518163ffffffff1660e01b815260040160206040518083038186803b15801561046857600080fd5b505afa15801561047c573d6000803e3d6000fd5b505050506040513d602081101561049257600080fd5b5051146104d05760405162461bcd60e51b815260040180806020018281038252603e8152602001806104f5603e913960400191505060405180910390fd5b7f360894a13ba1a3210667c828492db98dca3e2076cc3735a920a3ca505d382bbc5556fe5f5f757064617465436f6465416464726573733a205f6e65787450726f746f636f6c466565526573657276654c6962206e6f7420636f6d70617469626c654f6e6c79207468652044697370617463686572206f776e65722063616e2063616c6c20746869732066756e6374696f6ea2646970667358221220a6bbb356c35f1587e32c08f03a822e61c462c84e238085c81ed8a8984b75614964736f6c634300060c0033",
  "linkReferences": {},
  "deployedLinkReferences": {}
}