{
  "_format": "hh-sol-artifact-1",
  "contractName": "CurveLiquidityEursAdapter",
  "sourceName": "contracts/release/extensions/integration-manager/integrations/adapters/CurveLiquidityEursAdapter.sol",
  "abi": [
    {
      "inputs": [
        {
          "internalType": "address",
          "name": "_integrationManager",
          "type": "address"
        },
        {
          "internalType": "address",
          "name": "_liquidityGaugeToken",
          "type": "address"
        },
        {
          "internalType": "address",
          "name": "_lpToken",
          "type": "address"
        },
        {
          "internalType": "address",
          "name": "_minter",
          "type": "address"
        },
        {
          "internalType": "address",
          "name": "_pool",
          "type": "address"
        },
        {
          "internalType": "address",
          "name": "_crvToken",
          "type": "address"
        },
        {
          "internalType": "address",
          "name": "_eursToken",
          "type": "address"
        },
        {
          "internalType": "address",
          "name": "_seurToken",
          "type": "address"
        }
      ],
      "stateMutability": "nonpayable",
      "type": "constructor"
    },
    {
      "inputs": [],
      "name": "CLAIM_REWARDS_SELECTOR",
      "outputs": [
        {
          "internalType": "bytes4",
          "name": "",
          "type": "bytes4"
        }
      ],
      "stateMutability": "view",
      "type": "function"
    },
    {
      "inputs": [],
      "name": "LEND_AND_STAKE_SELECTOR",
      "outputs": [
        {
          "internalType": "bytes4",
          "name": "",
          "type": "bytes4"
        }
      ],
      "stateMutability": "view",
      "type": "function"
    },
    {
      "inputs": [],
      "name": "LEND_SELECTOR",
      "outputs": [
        {
          "internalType": "bytes4",
          "name": "",
          "type": "bytes4"
        }
      ],
      "stateMutability": "view",
      "type": "function"
    },
    {
      "inputs": [],
      "name": "REDEEM_SELECTOR",
      "outputs": [
        {
          "internalType": "bytes4",
          "name": "",
          "type": "bytes4"
        }
      ],
      "stateMutability": "view",
      "type": "function"
    },
    {
      "inputs": [],
      "name": "STAKE_SELECTOR",
      "outputs": [
        {
          "internalType": "bytes4",
          "name": "",
          "type": "bytes4"
        }
      ],
      "stateMutability": "view",
      "type": "function"
    },
    {
      "inputs": [],
      "name": "TAKE_ORDER_SELECTOR",
      "outputs": [
        {
          "internalType": "bytes4",
          "name": "",
          "type": "bytes4"
        }
      ],
      "stateMutability": "view",
      "type": "function"
    },
    {
      "inputs": [],
      "name": "UNSTAKE_AND_REDEEM_SELECTOR",
      "outputs": [
        {
          "internalType": "bytes4",
          "name": "",
          "type": "bytes4"
        }
      ],
      "stateMutability": "view",
      "type": "function"
    },
    {
      "inputs": [],
      "name": "UNSTAKE_SELECTOR",
      "outputs": [
        {
          "internalType": "bytes4",
          "name": "",
          "type": "bytes4"
        }
      ],
      "stateMutability": "view",
      "type": "function"
    },
    {
      "inputs": [
        {
          "internalType": "address",
          "name": "_vaultProxy",
          "type": "address"
        },
        {
          "internalType": "bytes",
          "name": "",
          "type": "bytes"
        },
        {
          "internalType": "bytes",
          "name": "",
          "type": "bytes"
        }
      ],
      "name": "claimRewards",
      "outputs": [],
      "stateMutability": "nonpayable",
      "type": "function"
    },
    {
      "inputs": [],
      "name": "getCurveEursLiquidityPool",
      "outputs": [
        {
          "internalType": "address",
          "name": "pool_",
          "type": "address"
        }
      ],
      "stateMutability": "view",
      "type": "function"
    },
    {
      "inputs": [],
      "name": "getCurveGaugeV2RewardsHandlerCrvToken",
      "outputs": [
        {
          "internalType": "address",
          "name": "crvToken_",
          "type": "address"
        }
      ],
      "stateMutability": "view",
      "type": "function"
    },
    {
      "inputs": [],
      "name": "getCurveGaugeV2RewardsHandlerMinter",
      "outputs": [
        {
          "internalType": "address",
          "name": "minter_",
          "type": "address"
        }
      ],
      "stateMutability": "view",
      "type": "function"
    },
    {
      "inputs": [],
      "name": "getEursToken",
      "outputs": [
        {
          "internalType": "address",
          "name": "eursToken_",
          "type": "address"
        }
      ],
      "stateMutability": "view",
      "type": "function"
    },
    {
      "inputs": [],
      "name": "getIntegrationManager",
      "outputs": [
        {
          "internalType": "address",
          "name": "integrationManager_",
          "type": "address"
        }
      ],
      "stateMutability": "view",
      "type": "function"
    },
    {
      "inputs": [],
      "name": "getLiquidityGaugeToken",
      "outputs": [
        {
          "internalType": "address",
          "name": "liquidityGaugeToken_",
          "type": "address"
        }
      ],
      "stateMutability": "view",
      "type": "function"
    },
    {
      "inputs": [],
      "name": "getLpToken",
      "outputs": [
        {
          "internalType": "address",
          "name": "lpToken_",
          "type": "address"
        }
      ],
      "stateMutability": "view",
      "type": "function"
    },
    {
      "inputs": [],
      "name": "getSeurToken",
      "outputs": [
        {
          "internalType": "address",
          "name": "seurToken_",
          "type": "address"
        }
      ],
      "stateMutability": "view",
      "type": "function"
    },
    {
      "inputs": [
        {
          "internalType": "address",
          "name": "_vaultProxy",
          "type": "address"
        },
        {
          "internalType": "bytes",
          "name": "_actionData",
          "type": "bytes"
        },
        {
          "internalType": "bytes",
          "name": "_assetData",
          "type": "bytes"
        }
      ],
      "name": "lend",
      "outputs": [],
      "stateMutability": "nonpayable",
      "type": "function"
    },
    {
      "inputs": [
        {
          "internalType": "address",
          "name": "_vaultProxy",
          "type": "address"
        },
        {
          "internalType": "bytes",
          "name": "_actionData",
          "type": "bytes"
        },
        {
          "internalType": "bytes",
          "name": "_assetData",
          "type": "bytes"
        }
      ],
      "name": "lendAndStake",
      "outputs": [],
      "stateMutability": "nonpayable",
      "type": "function"
    },
    {
      "inputs": [
        {
          "internalType": "address",
          "name": "",
          "type": "address"
        },
        {
          "internalType": "bytes4",
          "name": "_selector",
          "type": "bytes4"
        },
        {
          "internalType": "bytes",
          "name": "_actionData",
          "type": "bytes"
        }
      ],
      "name": "parseAssetsForAction",
      "outputs": [
        {
          "internalType": "enum IIntegrationManager.SpendAssetsHandleType",
          "name": "spendAssetsHandleType_",
          "type": "uint8"
        },
        {
          "internalType": "address[]",
          "name": "spendAssets_",
          "type": "address[]"
        },
        {
          "internalType": "uint256[]",
          "name": "spendAssetAmounts_",
          "type": "uint256[]"
        },
        {
          "internalType": "address[]",
          "name": "incomingAssets_",
          "type": "address[]"
        },
        {
          "internalType": "uint256[]",
          "name": "minIncomingAssetAmounts_",
          "type": "uint256[]"
        }
      ],
      "stateMutability": "view",
      "type": "function"
    },
    {
      "inputs": [
        {
          "internalType": "address",
          "name": "_vaultProxy",
          "type": "address"
        },
        {
          "internalType": "bytes",
          "name": "_actionData",
          "type": "bytes"
        },
        {
          "internalType": "bytes",
          "name": "_assetData",
          "type": "bytes"
        }
      ],
      "name": "redeem",
      "outputs": [],
      "stateMutability": "nonpayable",
      "type": "function"
    },
    {
      "inputs": [
        {
          "internalType": "address",
          "name": "_vaultProxy",
          "type": "address"
        },
        {
          "internalType": "bytes",
          "name": "_actionData",
          "type": "bytes"
        },
        {
          "internalType": "bytes",
          "name": "_assetData",
          "type": "bytes"
        }
      ],
      "name": "stake",
      "outputs": [],
      "stateMutability": "nonpayable",
      "type": "function"
    },
    {
      "inputs": [
        {
          "internalType": "address",
          "name": "_vaultProxy",
          "type": "address"
        },
        {
          "internalType": "bytes",
          "name": "_actionData",
          "type": "bytes"
        },
        {
          "internalType": "bytes",
          "name": "_assetData",
          "type": "bytes"
        }
      ],
      "name": "unstake",
      "outputs": [],
      "stateMutability": "nonpayable",
      "type": "function"
    },
    {
      "inputs": [
        {
          "internalType": "address",
          "name": "_vaultProxy",
          "type": "address"
        },
        {
          "internalType": "bytes",
          "name": "_actionData",
          "type": "bytes"
        },
        {
          "internalType": "bytes",
          "name": "_assetData",
          "type": "bytes"
        }
      ],
      "name": "unstakeAndRedeem",
      "outputs": [],
      "stateMutability": "nonpayable",
      "type": "function"
    }
  ],
  "bytecode": "0x6101806040523480156200001257600080fd5b50604051620037b1380380620037b183398181016040526101008110156200003957600080fd5b508051602080830151604084015160608086015160808088015160a0808a015160c0808c015160e09c8d01516001600160601b03198d8a1b811690975283891b871690945286881b86169091529583901b9093169099529697949693959194909291849083908390620000c6906001600160a01b038416908590600019906200142862000152821b17901c565b620000ed83600019836001600160a01b03166200015260201b62001428179092919060201c565b505050606082811b6001600160601b03199081166101005288821b81166101205287821b8116610140529082901b1661016052620001446001600160a01b0387168860001962000152602090811b6200142817901c565b505050505050505062000565565b801580620001dc575060408051636eb1769f60e11b81523060048201526001600160a01b03848116602483015291519185169163dd62ed3e91604480820192602092909190829003018186803b158015620001ac57600080fd5b505afa158015620001c1573d6000803e3d6000fd5b505050506040513d6020811015620001d857600080fd5b5051155b620002195760405162461bcd60e51b81526004018080602001828103825260368152602001806200377b6036913960400191505060405180910390fd5b604080516001600160a01b038416602482015260448082018490528251808303909101815260649091019091526020810180516001600160e01b0390811663095ea7b360e01b17909152620002719185916200027616565b505050565b6060620002d2826040518060400160405280602081526020017f5361666545524332303a206c6f772d6c6576656c2063616c6c206661696c6564815250856001600160a01b03166200033260201b62001540179092919060201c565b8051909150156200027157808060200190516020811015620002f357600080fd5b5051620002715760405162461bcd60e51b815260040180806020018281038252602a81526020018062003751602a913960400191505060405180910390fd5b60606200034384846000856200034d565b90505b9392505050565b606082471015620003905760405162461bcd60e51b81526004018080602001828103825260268152602001806200372b6026913960400191505060405180910390fd5b6200039b85620004b5565b620003ed576040805162461bcd60e51b815260206004820152601d60248201527f416464726573733a2063616c6c20746f206e6f6e2d636f6e7472616374000000604482015290519081900360640190fd5b60006060866001600160a01b031685876040518082805190602001908083835b602083106200042e5780518252601f1990920191602091820191016200040d565b6001836020036101000a03801982511681845116808217855250505050505090500191505060006040518083038185875af1925050503d806000811462000492576040519150601f19603f3d011682016040523d82523d6000602084013e62000497565b606091505b509092509050620004aa828286620004bb565b979650505050505050565b3b151590565b60608315620004cc57508162000346565b825115620004dd5782518084602001fd5b8160405162461bcd60e51b81526004018080602001828103825283818151815260200191508051906020019080838360005b83811015620005295781810151838201526020016200050f565b50505050905090810190601f168015620005575780820380516001836020036101000a031916815260200191505b509250505060405180910390fd5b60805160601c60a05160601c60c05160601c60e05160601c6101005160601c6101205160601c6101405160601c6101605160601c6131146200061760003980610fbe525080610e3c525080610e18525080610adf525080610f9a528061158f5280611ab85280611b915280611c0d5250806112ea5280611cf2525080610cb15250806109ab5280610b305280610d265280610e69528061100f528061108e52806112c6528061133b52506131146000f3fe608060405234801561001057600080fd5b50600436106101585760003560e01c80638334eb99116100c3578063c29fa9dd1161007c578063c29fa9dd14610606578063c54efee5146106d4578063e7c4569014610896578063f003eb851461089e578063f7d882b5146108a6578063fa7dd04d146108ae57610158565b80638334eb991461044a578063863e5ad014610518578063a1c52b1c14610520578063a9fad30a14610528578063b23228cf14610530578063b9dfbacc1461053857610158565b8063332d709f11610115578063332d709f146103545780633ffc15911461035c57806340da225d1461036457806368e306771461036c5780637240b2251461043a5780638214f5a41461044257610158565b8063080456c11461015d578063099f751514610182578063131461c0146102525780631f0a882f1461025a578063257cb1a31461027e57806329fa046e14610286575b600080fd5b61016561097c565b604080516001600160e01b03199092168252519081900360200190f35b6102506004803603606081101561019857600080fd5b6001600160a01b038235169190810190604081016020820135600160201b8111156101c257600080fd5b8201836020820111156101d457600080fd5b803590602001918460018302840111600160201b831117156101f557600080fd5b919390929091602081019035600160201b81111561021257600080fd5b82018360208201111561022457600080fd5b803590602001918460018302840111600160201b8311171561024557600080fd5b5090925090506109a0565b005b610165610ab9565b610262610add565b604080516001600160a01b039092168252519081900360200190f35b610165610b01565b6102506004803603606081101561029c57600080fd5b6001600160a01b038235169190810190604081016020820135600160201b8111156102c657600080fd5b8201836020820111156102d857600080fd5b803590602001918460018302840111600160201b831117156102f957600080fd5b919390929091602081019035600160201b81111561031657600080fd5b82018360208201111561032857600080fd5b803590602001918460018302840111600160201b8311171561034957600080fd5b509092509050610b25565b610262610caf565b610165610cd3565b610165610cf7565b6102506004803603606081101561038257600080fd5b6001600160a01b038235169190810190604081016020820135600160201b8111156103ac57600080fd5b8201836020820111156103be57600080fd5b803590602001918460018302840111600160201b831117156103df57600080fd5b919390929091602081019035600160201b8111156103fc57600080fd5b82018360208201111561040e57600080fd5b803590602001918460018302840111600160201b8311171561042f57600080fd5b509092509050610d1b565b610262610e16565b610262610e3a565b6102506004803603606081101561046057600080fd5b6001600160a01b038235169190810190604081016020820135600160201b81111561048a57600080fd5b82018360208201111561049c57600080fd5b803590602001918460018302840111600160201b831117156104bd57600080fd5b919390929091602081019035600160201b8111156104da57600080fd5b8201836020820111156104ec57600080fd5b803590602001918460018302840111600160201b8311171561050d57600080fd5b509092509050610e5e565b610165610f74565b610262610f98565b610262610fbc565b610165610fe0565b6102506004803603606081101561054e57600080fd5b6001600160a01b038235169190810190604081016020820135600160201b81111561057857600080fd5b82018360208201111561058a57600080fd5b803590602001918460018302840111600160201b831117156105ab57600080fd5b919390929091602081019035600160201b8111156105c857600080fd5b8201836020820111156105da57600080fd5b803590602001918460018302840111600160201b831117156105fb57600080fd5b509092509050611004565b6102506004803603606081101561061c57600080fd5b6001600160a01b038235169190810190604081016020820135600160201b81111561064657600080fd5b82018360208201111561065857600080fd5b803590602001918460018302840111600160201b8311171561067957600080fd5b919390929091602081019035600160201b81111561069657600080fd5b8201836020820111156106a857600080fd5b803590602001918460018302840111600160201b831117156106c957600080fd5b509092509050611083565b610761600480360360608110156106ea57600080fd5b6001600160a01b03823516916001600160e01b031960208201351691810190606081016040820135600160201b81111561072357600080fd5b82018360208201111561073557600080fd5b803590602001918460018302840111600160201b8311171561075657600080fd5b509092509050611179565b6040518086600281111561077157fe5b815260200180602001806020018060200180602001858103855289818151815260200191508051906020019060200280838360005b838110156107be5781810151838201526020016107a6565b50505050905001858103845288818151815260200191508051906020019060200280838360005b838110156107fd5781810151838201526020016107e5565b50505050905001858103835287818151815260200191508051906020019060200280838360005b8381101561083c578181015183820152602001610824565b50505050905001858103825286818151815260200191508051906020019060200280838360005b8381101561087b578181015183820152602001610863565b50505050905001995050505050505050505060405180910390f35b6102626112c4565b6102626112e8565b61016561130c565b610250600480360360608110156108c457600080fd5b6001600160a01b038235169190810190604081016020820135600160201b8111156108ee57600080fd5b82018360208201111561090057600080fd5b803590602001918460018302840111600160201b8311171561092157600080fd5b919390929091602081019035600160201b81111561093e57600080fd5b82018360208201111561095057600080fd5b803590602001918460018302840111600160201b8311171561097157600080fd5b509092509050611330565b7f8334eb99be0145865eba9889fca2ee920288090caefff4cc776038e20ad9259a81565b336001600160a01b037f00000000000000000000000000000000000000000000000000000000000000001614610a075760405162461bcd60e51b8152600401808060200182810382526032815260200180612f256032913960400191505060405180910390fd5b8482828080601f0160208091040260200160405190810160405280939291908181526020018383808284376000920182905250604080516020601f8c018190048102820181019092528a8152919450849350839250610a8191908b908b908190840183828082843760009201919091525061155992505050565b925092509250610a9283838361158d565b5050506060610aa08261165e565b92505050610aae838261181b565b505050505050505050565b7f29fa046e79524c3c5ac4c01df692c35e217802b2b13b21121b76cf0ef02b138c81565b7f000000000000000000000000000000000000000000000000000000000000000090565b7f099f75155f0e997bf83a7993a71d5e7e7540bd386fe1e84643a09ce6b412521981565b336001600160a01b037f00000000000000000000000000000000000000000000000000000000000000001614610b8c5760405162461bcd60e51b8152600401808060200182810382526032815260200180612f256032913960400191505060405180910390fd5b8482828080601f0160208091040260200160405190810160405280939291908181526020018383808284376000920182905250604080516020601f8c018190048102820181019092528a8152919450849350839250610c0691908b908b908190840183828082843760009201919091525061155992505050565b925092509250610c1783838361158d565b610a92610c22610e16565b610c2a610e3a565b610c32610e3a565b6001600160a01b03166370a08231306040518263ffffffff1660e01b815260040180826001600160a01b0316815260200191505060206040518083038186803b158015610c7e57600080fd5b505afa158015610c92573d6000803e3d6000fd5b505050506040513d6020811015610ca857600080fd5b5051611976565b7f000000000000000000000000000000000000000000000000000000000000000090565b7ffa7dd04da627f433da73c4355ead9c75682a67a8fc84d3f6170ef0922f402d2481565b7fb9dfbaccbe5cd2a84fdcf1d15f23ef25d23086f5afbaa99516065ed4a5bbc7a381565b336001600160a01b037f00000000000000000000000000000000000000000000000000000000000000001614610d825760405162461bcd60e51b8152600401808060200182810382526032815260200180612f256032913960400191505060405180910390fd5b8482828080601f016020809104026020016040519081016040528093929190818152602001838380828437600092019190915250610e0b9250610dc79150610e169050565b610e0688888080601f0160208091040260200160405190810160405280939291908181526020018383808284376000920191909152506119ec92505050565b611a0b565b6060610aa08261165e565b7f000000000000000000000000000000000000000000000000000000000000000090565b7f000000000000000000000000000000000000000000000000000000000000000090565b336001600160a01b037f00000000000000000000000000000000000000000000000000000000000000001614610ec55760405162461bcd60e51b8152600401808060200182810382526032815260200180612f256032913960400191505060405180910390fd5b8482828080601f0160208091040260200160405190810160405280939291908181526020018383808284376000920182905250604080516020601f8c018190048102820181019092528a81529194508493508392508291610f40918c908c9081908401838280828437600092019190915250611a6d92505050565b9350935093509350610f59610f53610e16565b85611a0b565b610f6584848484611aaa565b505050506060610aa08261165e565b7f03e38a2bd7063d45c897edeafc330e71657502dd86434d3c37a489caf116af6981565b7f000000000000000000000000000000000000000000000000000000000000000090565b7f000000000000000000000000000000000000000000000000000000000000000090565b7f68e30677f607df46e87da13e15b637784cfa62374b653f35ab43d10361a2f83081565b336001600160a01b037f0000000000000000000000000000000000000000000000000000000000000000161461106b5760405162461bcd60e51b8152600401808060200182810382526032815260200180612f256032913960400191505060405180910390fd5b61107c611076610e16565b86611cf0565b5050505050565b336001600160a01b037f000000000000000000000000000000000000000000000000000000000000000016146110ea5760405162461bcd60e51b8152600401808060200182810382526032815260200180612f256032913960400191505060405180910390fd5b8482828080601f0160208091040260200160405190810160405280939291908181526020018383808284376000920182905250604080516020601f8c018190048102820181019092528a81529194508493508392508291611165918c908c9081908401838280828437600092019190915250611a6d92505050565b9350935093509350610f6584848484611aaa565b600060608080806001600160e01b03198816632e77eeb360e21b14156111b0576111a1611d96565b945094509450945094506112b9565b6001600160e01b0319881663099f751560e01b14156111d3576111a18787611df6565b6001600160e01b031988166314fd023760e11b14156111f6576111a18787611eed565b6001600160e01b0319881663c29fa9dd60e01b1415611219576111a18787611f76565b6001600160e01b0319881663fa7dd04d60e01b141561123c576111a18787612073565b6001600160e01b031988166368e3067760e01b141561125f576111a187876121d8565b6001600160e01b03198816638334eb9960e01b1415611282576111a187876122d1565b60405162461bcd60e51b81526004018080602001828103825260278152602001806130b86027913960400191505060405180910390fd5b945094509450945094565b7f000000000000000000000000000000000000000000000000000000000000000090565b7f000000000000000000000000000000000000000000000000000000000000000090565b7fc29fa9dde84204c2908778afd0613d802d31cf046179b88f6d2b4a4e507ea2d581565b336001600160a01b037f000000000000000000000000000000000000000000000000000000000000000016146113975760405162461bcd60e51b8152600401808060200182810382526032815260200180612f256032913960400191505060405180910390fd5b8482828080601f016020809104026020016040519081016040528093929190818152602001838380828437600092019190915250610e0b92506113dc9150610e169050565b6113e4610e3a565b61142389898080601f0160208091040260200160405190810160405280939291908181526020018383808284376000920191909152506119ec92505050565b611976565b8015806114ae575060408051636eb1769f60e11b81523060048201526001600160a01b03848116602483015291519185169163dd62ed3e91604480820192602092909190829003018186803b15801561148057600080fd5b505afa158015611494573d6000803e3d6000fd5b505050506040513d60208110156114aa57600080fd5b5051155b6114e95760405162461bcd60e51b81526004018080602001828103825260368152602001806130146036913960400191505060405180910390fd5b604080516001600160a01b038416602482015260448082018490528251808303909101815260649091019091526020810180516001600160e01b031663095ea7b360e01b17905261153b908490612350565b505050565b606061154f8484600085612401565b90505b9392505050565b600080600083806020019051606081101561157357600080fd5b508051602082015160409092015190969195509350915050565b7f00000000000000000000000000000000000000000000000000000000000000006001600160a01b0316630b4c7e4d604051806040016040528086815260200185815250836040518363ffffffff1660e01b81526004018083600260200280838360005b838110156116095781810151838201526020016115f1565b5050505090500182815260200192505050602060405180830381600087803b15801561163457600080fd5b505af1158015611648573d6000803e3d6000fd5b505050506040513d602081101561107c57600080fd5b606080606083806020019051606081101561167857600080fd5b8101908080516040519392919084600160201b82111561169757600080fd5b9083019060208201858111156116ac57600080fd5b82518660208202830111600160201b821117156116c857600080fd5b82525081516020918201928201910280838360005b838110156116f55781810151838201526020016116dd565b5050505090500160405260200180516040519392919084600160201b82111561171d57600080fd5b90830190602082018581111561173257600080fd5b82518660208202830111600160201b8211171561174e57600080fd5b82525081516020918201928201910280838360005b8381101561177b578181015183820152602001611763565b5050505090500160405260200180516040519392919084600160201b8211156117a357600080fd5b9083019060208201858111156117b857600080fd5b82518660208202830111600160201b821117156117d457600080fd5b82525081516020918201928201910280838360005b838110156118015781810151838201526020016117e9565b505050509050016040525050509250925092509193909250565b6060815167ffffffffffffffff8111801561183557600080fd5b5060405190808252806020026020018201604052801561185f578160200160208202803683370190505b50905060005b825181101561196f57600083828151811061187c57fe5b60200260200101519050806001600160a01b03166370a08231306040518263ffffffff1660e01b815260040180826001600160a01b0316815260200191505060206040518083038186803b1580156118d357600080fd5b505afa1580156118e7573d6000803e3d6000fd5b505050506040513d60208110156118fd57600080fd5b5051835184908490811061190d57fe5b602002602001018181525050600083838151811061192757fe5b60200260200101511115611966576119668584848151811061194557fe5b6020026020010151836001600160a01b031661255d9092919063ffffffff16565b50600101611865565b5092915050565b6119818284836125af565b60408051636e553f6560e01b81526004810183905230602482015290516001600160a01b03851691636e553f6591604480830192600092919082900301818387803b1580156119cf57600080fd5b505af11580156119e3573d6000803e3d6000fd5b50505050505050565b6000818060200190516020811015611a0357600080fd5b505192915050565b816001600160a01b0316632e1a7d4d826040518263ffffffff1660e01b815260040180828152602001915050600060405180830381600087803b158015611a5157600080fd5b505af1158015611a65573d6000803e3d6000fd5b505050505050565b600080600080848060200190516080811015611a8857600080fd5b5080516020820151604083015160609093015191989097509195509350915050565b8015611c0b578215611b62577f00000000000000000000000000000000000000000000000000000000000000006001600160a01b0316631a4d01d2856000866040518463ffffffff1660e01b81526004018084815260200183600f0b81526020018281526020019350505050602060405180830381600087803b158015611b3057600080fd5b505af1158015611b44573d6000803e3d6000fd5b505050506040513d6020811015611b5a57600080fd5b50611c069050565b60408051630d2680e960e11b815260048101869052600160248201526044810184905290516001600160a01b037f00000000000000000000000000000000000000000000000000000000000000001691631a4d01d29160648083019260209291908290030181600087803b158015611bd957600080fd5b505af1158015611bed573d6000803e3d6000fd5b505050506040513d6020811015611c0357600080fd5b50505b611cea565b7f00000000000000000000000000000000000000000000000000000000000000006001600160a01b0316635b36389c856040518060400160405280878152602001868152506040518363ffffffff1660e01b81526004018083815260200182600260200280838360005b83811015611c8d578181015183820152602001611c75565b50505050905001925050506040805180830381600087803b158015611cb157600080fd5b505af1158015611cc5573d6000803e3d6000fd5b505050506040513d601f19601f820116820180604052506040811015611a6557600080fd5b50505050565b7f00000000000000000000000000000000000000000000000000000000000000006001600160a01b03166327f18ae383836040518363ffffffff1660e01b815260040180836001600160a01b03168152602001826001600160a01b0316815260200192505050600060405180830381600087803b158015611d7057600080fd5b505af1158015611d84573d6000803e3d6000fd5b50505050611d9282826127ee565b5050565b600060608080808480604051908082528060200260200182016040528015611dc8578160200160208202803683370190505b5060408051600080825260208201818152828401918252606083019093529399929850965094509092509050565b60006060806060806000806000611e428a8a8080601f01602080910402602001604051908101604052809392919081815260200183838082843760009201919091525061155992505050565b925092509250611e52838361283d565b60408051600180825281830190925292995090975060208083019080368337019050509450611e7f610e3a565b85600081518110611e8c57fe5b6001600160a01b03929092166020928302919091018201526040805160018082528183019092529182810190803683370190505093508084600081518110611ed057fe5b602002602001018181525050600297505050509295509295909350565b60006060806060806000806000611f398a8a8080601f01602080910402602001604051908101604052809392919081815260200183838082843760009201919091525061155992505050565b925092509250611f49838361283d565b60408051600180825281830190925292995090975060208083019080368337019050509450611e7f610e16565b6000606080606080600080600080611fc38b8b8080601f016020809104026020016040519081016040528093929190818152602001838380828437600092019190915250611a6d92505050565b604080516001808252818301909252949850929650909450925060208083019080368337019050509750611ff5610e3a565b8860008151811061200257fe5b6001600160a01b0392909216602092830291909101820152604080516001808252818301909252918281019080368337019050509650838760008151811061204657fe5b60200260200101818152505061205d838383612a3d565b60029d999c50979a509850959695505050505050565b600060608060608060006120bc88888080601f0160208091040260200160405190810160405280939291908181526020018383808284376000920191909152506119ec92505050565b604080516001808252818301909252919250602080830190803683370190505094506120e6610e3a565b856000815181106120f357fe5b6001600160a01b0392909216602092830291909101820152604080516001808252818301909252918281019080368337019050509350808460008151811061213757fe5b60209081029190910101526040805160018082528183019092529081602001602082028036833701905050925061216c610e16565b8360008151811061217957fe5b6001600160a01b039290921660209283029190910182015260408051600180825281830190925291828101908036833701905050915080826000815181106121bd57fe5b60200260200101818152505060029550509295509295909350565b6000606080606080600061222188888080601f0160208091040260200160405190810160405280939291908181526020018383808284376000920191909152506119ec92505050565b6040805160018082528183019092529192506020808301908036833701905050945061224b610e16565b8560008151811061225857fe5b6001600160a01b0392909216602092830291909101820152604080516001808252818301909252918281019080368337019050509350808460008151811061229c57fe5b60209081029190910101526040805160018082528183019092529081602001602082028036833701905050925061216c610e3a565b600060608060608060008060008061231e8b8b8080601f016020809104026020016040519081016040528093929190818152602001838380828437600092019190915250611a6d92505050565b604080516001808252818301909252949850929650909450925060208083019080368337019050509750611ff5610e16565b60606123a5826040518060400160405280602081526020017f5361666545524332303a206c6f772d6c6576656c2063616c6c206661696c6564815250856001600160a01b03166115409092919063ffffffff16565b80519091501561153b578080602001905160208110156123c457600080fd5b505161153b5760405162461bcd60e51b815260040180806020018281038252602a815260200180612fea602a913960400191505060405180910390fd5b6060824710156124425760405162461bcd60e51b8152600401808060200182810382526026815260200180612edb6026913960400191505060405180910390fd5b61244b85612c90565b61249c576040805162461bcd60e51b815260206004820152601d60248201527f416464726573733a2063616c6c20746f206e6f6e2d636f6e7472616374000000604482015290519081900360640190fd5b60006060866001600160a01b031685876040518082805190602001908083835b602083106124db5780518252601f1990920191602091820191016124bc565b6001836020036101000a03801982511681845116808217855250505050505090500191505060006040518083038185875af1925050503d806000811461253d576040519150601f19603f3d011682016040523d82523d6000602084013e612542565b606091505b5091509150612552828286612c96565b979650505050505050565b604080516001600160a01b038416602482015260448082018490528251808303909101815260649091019091526020810180516001600160e01b031663a9059cbb60e01b17905261153b908490612350565b60408051636eb1769f60e11b81523060048201526001600160a01b038481166024830152915160009286169163dd62ed3e916044808301926020929190829003018186803b15801561260057600080fd5b505afa158015612614573d6000803e3d6000fd5b505050506040513d602081101561262a57600080fd5b5051604080516060810190915260268082529192506126519161306e602083013982612d3a565b818110156127cd5761267a604051806060016040528060288152602001612eb360289139612de8565b801561272657836001600160a01b031663095ea7b38460006040518363ffffffff1660e01b815260040180836001600160a01b0316815260200182815260200192505050602060405180830381600087803b1580156126d857600080fd5b505af11580156126ec573d6000803e3d6000fd5b505050506040513d602081101561270257600080fd5b50506040805160608101909152602480825261272691906130946020830139612de8565b836001600160a01b031663095ea7b3846000196040518363ffffffff1660e01b815260040180836001600160a01b0316815260200182815260200192505050602060405180830381600087803b15801561277f57600080fd5b505af1158015612793573d6000803e3d6000fd5b505050506040513d60208110156127a957600080fd5b5050604080516060810190915260248082526127cd919061304a6020830139612de8565b611cea604051806060016040528060248152602001612f0160249139612de8565b816001600160a01b03166384e9bd7e826040518263ffffffff1660e01b815260040180826001600160a01b03168152602001915050600060405180830381600087803b158015611a5157600080fd5b6060806000841180156128505750600083115b1561293157604080516002808252606082018352909160208301908036833701905050915061287d610add565b8260008151811061288a57fe5b60200260200101906001600160a01b031690816001600160a01b0316815250506128b2610fbc565b826001815181106128bf57fe5b6001600160a01b0392909216602092830291909101820152604080516002808252606082018352909290919083019080368337019050509050838160008151811061290657fe5b602002602001018181525050828160018151811061292057fe5b602002602001018181525050612a36565b83156129b057604080516001808252818301909252906020808301908036833701905050915061295f610add565b8260008151811061296c57fe5b6001600160a01b0392909216602092830291909101820152604080516001808252818301909252918281019080368337019050509050838160008151811061292057fe5b60408051600180825281830190925290602080830190803683370190505091506129d8610fbc565b826000815181106129e557fe5b6001600160a01b03929092166020928302919091018201526040805160018082528183019092529182810190803683370190505090508281600081518110612a2957fe5b6020026020010181815250505b9250929050565b6060808215612bb0576040805160018082528183019092529060208083019080368337505060408051600180825281830190925292945090506020808301908036833701905050905084612b1e5760008411612aca5760405162461bcd60e51b8152600401808060200182810382526046815260200180612fa46046913960600191505060405180910390fd5b612ad2610fbc565b82600081518110612adf57fe5b60200260200101906001600160a01b031690816001600160a01b0316815250508381600081518110612b0d57fe5b602002602001018181525050612bab565b8315612b5b5760405162461bcd60e51b815260040180806020018281038252604d815260200180612f57604d913960600191505060405180910390fd5b612b63610add565b82600081518110612b7057fe5b60200260200101906001600160a01b031690816001600160a01b0316815250508481600081518110612b9e57fe5b6020026020010181815250505b612c88565b6040805160028082526060820183529091602083019080368337019050509150612bd8610add565b82600081518110612be557fe5b60200260200101906001600160a01b031690816001600160a01b031681525050612c0d610fbc565b82600181518110612c1a57fe5b6001600160a01b03929092166020928302919091018201526040805160028082526060820183529092909190830190803683370190505090508481600081518110612c6157fe5b6020026020010181815250508381600181518110612c7b57fe5b6020026020010181815250505b935093915050565b3b151590565b60608315612ca5575081611552565b825115612cb55782518084602001fd5b8160405162461bcd60e51b81526004018080602001828103825283818151815260200191508051906020019080838360005b83811015612cff578181015183820152602001612ce7565b50505050905090810190601f168015612d2c5780820380516001836020036101000a031916815260200191505b509250505060405180910390fd5b611d9282826040516024018080602001838152602001828103825284818151815260200191508051906020019080838360005b83811015612d85578181015183820152602001612d6d565b50505050905090810190601f168015612db25780820380516001836020036101000a031916815260200191505b5060408051601f198184030181529190526020810180516001600160e01b03166309710a9d60e41b1790529350612e9192505050565b612e8e816040516024018080602001828103825283818151815260200191508051906020019080838360005b83811015612e2c578181015183820152602001612e14565b50505050905090810190601f168015612e595780820380516001836020036101000a031916815260200191505b5060408051601f198184030181529190526020810180516001600160e01b031663104c13eb60e21b1790529250612e91915050565b50565b80516a636f6e736f6c652e6c6f67602083016000808483855afa505050505056fe5f5f617070726f766541737365744d617841734e65656465643a6265666f726520617070726f7665416464726573733a20696e73756666696369656e742062616c616e636520666f722063616c6c5f5f617070726f766541737365744d617841734e65656465643a617070726f76656420334f6e6c792074686520496e746567726174696f6e4d616e616765722063616e2063616c6c20746869732066756e6374696f6e5f5f7061727365496e636f6d696e67417373657473466f72526564656d7074696f6e43616c6c733a20546f6f206d616e79206d696e20617373657420616d6f756e7473207370656369666965645f5f7061727365496e636f6d696e67417373657473466f72526564656d7074696f6e43616c6c733a204e6f206d696e20617373657420616d6f756e74207370656369666965645361666545524332303a204552433230206f7065726174696f6e20646964206e6f7420737563636565645361666545524332303a20617070726f76652066726f6d206e6f6e2d7a65726f20746f206e6f6e2d7a65726f20616c6c6f77616e63655f5f617070726f766541737365744d617841734e65656465643a617070726f76656420325f5f617070726f766541737365744d617841734e65656465643a616c6c6f77616e63653a25645f5f617070726f766541737365744d617841734e65656465643a617070726f76656420317061727365417373657473466f72416374696f6e3a205f73656c6563746f7220696e76616c6964a264697066735822122015de23d8eef252a543dc37c45341ba963a0f27ef1f7fd2e4e5d17cd3b686f8b964736f6c634300060c0033416464726573733a20696e73756666696369656e742062616c616e636520666f722063616c6c5361666545524332303a204552433230206f7065726174696f6e20646964206e6f7420737563636565645361666545524332303a20617070726f76652066726f6d206e6f6e2d7a65726f20746f206e6f6e2d7a65726f20616c6c6f77616e6365",
  "linkReferences": {},
  "deployedLinkReferences": {}
}