{
  "_format": "hh-sol-artifact-1",
  "contractName": "EntranceRateDirectFee",
  "sourceName": "contracts/release/extensions/fee-manager/fees/EntranceRateDirectFee.sol",
  "abi": [
    {
      "inputs": [
        {
          "internalType": "address",
          "name": "_feeManager",
          "type": "address"
        }
      ],
      "stateMutability": "nonpayable",
      "type": "constructor"
    },
    {
      "anonymous": false,
      "inputs": [
        {
          "indexed": true,
          "internalType": "address",
          "name": "comptrollerProxy",
          "type": "address"
        },
        {
          "indexed": false,
          "internalType": "uint256",
          "name": "rate",
          "type": "uint256"
        }
      ],
      "name": "FundSettingsAdded",
      "type": "event"
    },
    {
      "anonymous": false,
      "inputs": [
        {
          "indexed": true,
          "internalType": "address",
          "name": "comptrollerProxy",
          "type": "address"
        },
        {
          "indexed": true,
          "internalType": "address",
          "name": "recipient",
          "type": "address"
        }
      ],
      "name": "RecipientSetForFund",
      "type": "event"
    },
    {
      "anonymous": false,
      "inputs": [
        {
          "indexed": true,
          "internalType": "address",
          "name": "comptrollerProxy",
          "type": "address"
        },
        {
          "indexed": true,
          "internalType": "address",
          "name": "payer",
          "type": "address"
        },
        {
          "indexed": false,
          "internalType": "uint256",
          "name": "sharesQuantity",
          "type": "uint256"
        }
      ],
      "name": "Settled",
      "type": "event"
    },
    {
      "inputs": [
        {
          "internalType": "address",
          "name": "",
          "type": "address"
        },
        {
          "internalType": "address",
          "name": "",
          "type": "address"
        }
      ],
      "name": "activateForFund",
      "outputs": [],
      "stateMutability": "nonpayable",
      "type": "function"
    },
    {
      "inputs": [
        {
          "internalType": "address",
          "name": "_comptrollerProxy",
          "type": "address"
        },
        {
          "internalType": "bytes",
          "name": "_settingsData",
          "type": "bytes"
        }
      ],
      "name": "addFundSettings",
      "outputs": [],
      "stateMutability": "nonpayable",
      "type": "function"
    },
    {
      "inputs": [],
      "name": "getFeeManager",
      "outputs": [
        {
          "internalType": "address",
          "name": "feeManager_",
          "type": "address"
        }
      ],
      "stateMutability": "view",
      "type": "function"
    },
    {
      "inputs": [
        {
          "internalType": "address",
          "name": "_comptrollerProxy",
          "type": "address"
        }
      ],
      "name": "getRateForFund",
      "outputs": [
        {
          "internalType": "uint256",
          "name": "rate_",
          "type": "uint256"
        }
      ],
      "stateMutability": "view",
      "type": "function"
    },
    {
      "inputs": [
        {
          "internalType": "address",
          "name": "_comptrollerProxy",
          "type": "address"
        }
      ],
      "name": "getRecipientForFund",
      "outputs": [
        {
          "internalType": "address",
          "name": "recipient_",
          "type": "address"
        }
      ],
      "stateMutability": "view",
      "type": "function"
    },
    {
      "inputs": [],
      "name": "getSettlementType",
      "outputs": [
        {
          "internalType": "enum IFeeManager.SettlementType",
          "name": "settlementType_",
          "type": "uint8"
        }
      ],
      "stateMutability": "view",
      "type": "function"
    },
    {
      "inputs": [
        {
          "internalType": "address",
          "name": "",
          "type": "address"
        },
        {
          "internalType": "address",
          "name": "",
          "type": "address"
        }
      ],
      "name": "payout",
      "outputs": [
        {
          "internalType": "bool",
          "name": "",
          "type": "bool"
        }
      ],
      "stateMutability": "nonpayable",
      "type": "function"
    },
    {
      "inputs": [
        {
          "internalType": "address",
          "name": "_comptrollerProxy",
          "type": "address"
        },
        {
          "internalType": "address",
          "name": "_recipient",
          "type": "address"
        }
      ],
      "name": "setRecipientForFund",
      "outputs": [],
      "stateMutability": "nonpayable",
      "type": "function"
    },
    {
      "inputs": [
        {
          "internalType": "address",
          "name": "_comptrollerProxy",
          "type": "address"
        },
        {
          "internalType": "address",
          "name": "",
          "type": "address"
        },
        {
          "internalType": "enum IFeeManager.FeeHook",
          "name": "",
          "type": "uint8"
        },
        {
          "internalType": "bytes",
          "name": "_settlementData",
          "type": "bytes"
        },
        {
          "internalType": "uint256",
          "name": "",
          "type": "uint256"
        }
      ],
      "name": "settle",
      "outputs": [
        {
          "internalType": "enum IFeeManager.SettlementType",
          "name": "settlementType_",
          "type": "uint8"
        },
        {
          "internalType": "address",
          "name": "payer_",
          "type": "address"
        },
        {
          "internalType": "uint256",
          "name": "sharesDue_",
          "type": "uint256"
        }
      ],
      "stateMutability": "nonpayable",
      "type": "function"
    },
    {
      "inputs": [
        {
          "internalType": "enum IFeeManager.FeeHook",
          "name": "_hook",
          "type": "uint8"
        }
      ],
      "name": "settlesOnHook",
      "outputs": [
        {
          "internalType": "bool",
          "name": "settles_",
          "type": "bool"
        },
        {
          "internalType": "bool",
          "name": "usesGav_",
          "type": "bool"
        }
      ],
      "stateMutability": "view",
      "type": "function"
    },
    {
      "inputs": [
        {
          "internalType": "address",
          "name": "",
          "type": "address"
        },
        {
          "internalType": "address",
          "name": "",
          "type": "address"
        },
        {
          "internalType": "enum IFeeManager.FeeHook",
          "name": "",
          "type": "uint8"
        },
        {
          "internalType": "bytes",
          "name": "",
          "type": "bytes"
        },
        {
          "internalType": "uint256",
          "name": "",
          "type": "uint256"
        }
      ],
      "name": "update",
      "outputs": [],
      "stateMutability": "nonpayable",
      "type": "function"
    },
    {
      "inputs": [
        {
          "internalType": "enum IFeeManager.FeeHook",
          "name": "",
          "type": "uint8"
        }
      ],
      "name": "updatesOnHook",
      "outputs": [
        {
          "internalType": "bool",
          "name": "updates_",
          "type": "bool"
        },
        {
          "internalType": "bool",
          "name": "usesGav_",
          "type": "bool"
        }
      ],
      "stateMutability": "view",
      "type": "function"
    }
  ],
  "bytecode": "0x60c060405234801561001057600080fd5b50604051610fbb380380610fbb8339818101604052602081101561003357600080fd5b5051606081901b6001600160601b031916608052600160f81b60a0526001600160a01b03166001610f356100866000398061061e52806106615250806104e552806107b852806107e55250610f356000f3fe608060405234801561001057600080fd5b50600436106100b45760003560e01c806362780b3c1161007157806362780b3c1461033a5780637bdd5b1d1461037c5780638c55f80f146103a5578063b78b4813146103d3578063e337a91f14610415578063f2d6382614610435576100b4565b80630f5f6b4f146100b9578063233faf5f1461013b5780633146d058146101ce578063320f0ddd146101fc5780633eecc2bf1461023757806341892d7e1461026f575b600080fd5b610139600480360360408110156100cf57600080fd5b6001600160a01b0382351691908101906040810160208201356401000000008111156100fa57600080fd5b82018360208201111561010c57600080fd5b8035906020019184600183028401116401000000008311171561012e57600080fd5b50909250905061043d565b005b610139600480360360a081101561015157600080fd5b6001600160a01b03823581169260208101359091169160ff604083013516919081019060808101606082013564010000000081111561018f57600080fd5b8201836020820111156101a157600080fd5b803590602001918460018302840111640100000000831117156101c357600080fd5b919350915035610480565b610139600480360360408110156101e457600080fd5b506001600160a01b0381358116916020013516610488565b61021c6004803603602081101561021257600080fd5b503560ff1661048c565b60408051921515835290151560208301528051918290030190f35b61025d6004803603602081101561024d57600080fd5b50356001600160a01b03166104bb565b60408051918252519081900360200190f35b610302600480360360a081101561028557600080fd5b6001600160a01b03823581169260208101359091169160ff60408301351691908101906080810160608201356401000000008111156102c357600080fd5b8201836020820111156102d557600080fd5b803590602001918460018302840111640100000000831117156102f757600080fd5b9193509150356104d6565b6040518084600581111561031257fe5b8152602001836001600160a01b03168152602001828152602001935050505060405180910390f35b6103606004803603602081101561035057600080fd5b50356001600160a01b031661064e565b604080516001600160a01b039092168252519081900360200190f35b61038461065f565b6040518082600581111561039457fe5b815260200191505060405180910390f35b610139600480360360408110156103bb57600080fd5b506001600160a01b0381358116916020013516610683565b610401600480360360408110156103e957600080fd5b506001600160a01b03813581169160200135166107a6565b604080519115158252519081900360200190f35b61021c6004803603602081101561042b57600080fd5b503560ff166107ae565b6103606107b6565b6104488383836107da565b60008282604081101561045a57600080fd5b50602001356001600160a01b03169050801561047a5761047a8482610a11565b50505050565b505050505050565b5050565b600080600283600381111561049d57fe5b14156104af57506001905060006104b6565b5060009050805b915091565b6001600160a01b031660009081526020819052604090205490565b60008080336001600160a01b037f000000000000000000000000000000000000000000000000000000000000000016146105415760405162461bcd60e51b8152600401808060200182810382526025815260200180610de06025913960400191505060405180910390fd5b600061058287878080601f016020809104026020016040519081016040528093929190818152602001838380828437600092019190915250610a6892505050565b6001600160a01b038d1660009081526020819052604090205492955092506105b890506127106105b28484610a9c565b90610afc565b9250826105d15760008060009450945094505050610642565b836001600160a01b03168b6001600160a01b03167f7e79a2206061184e05985ae0578dec52f817756a441996f984cdc817efc25a68856040518082815260200191505060405180910390a37f0000000000000000000000000000000000000000000000000000000000000000945050505b96509650969350505050565b600061065982610b63565b92915050565b7f000000000000000000000000000000000000000000000000000000000000000090565b816001600160a01b031663c98091876040518163ffffffff1660e01b815260040160206040518083038186803b1580156106bc57600080fd5b505afa1580156106d0573d6000803e3d6000fd5b505050506040513d60208110156106e657600080fd5b505160408051631127a41d60e31b815290516001600160a01b039092169163893d20e891600480820192602092909190829003018186803b15801561072a57600080fd5b505afa15801561073e573d6000803e3d6000fd5b505050506040513d602081101561075457600080fd5b50516001600160a01b0316331461079c5760405162461bcd60e51b8152600401808060200182810382526030815260200180610ea66030913960400191505060405180910390fd5b6104888282610a11565b600092915050565b600080915091565b7f000000000000000000000000000000000000000000000000000000000000000090565b336001600160a01b037f000000000000000000000000000000000000000000000000000000000000000016146108415760405162461bcd60e51b8152600401808060200182810382526025815260200180610de06025913960400191505060405180910390fd5b61087f6040518060400160405280601881526020017f456e7472616365526174654665654261736520626567696e0000000000000000815250610b81565b60008282602081101561089157600080fd5b5060408051808201909152601a81527f456e7472616365526174654665654261736520726174653a25640000000000006020820152903591506108d49082610c2a565b600081116109135760405162461bcd60e51b8152600401808060200182810382526024815260200180610e826024913960400191505060405180910390fd5b61271081106109535760405162461bcd60e51b8152600401808060200182810382526026815260200180610e5c6026913960400191505060405180910390fd5b610975604051806060016040528060368152602001610e266036913985610cd8565b6001600160a01b03841660009081526020818152604091829020839055815160608101909252602f8083526109b19291610db190830139610b81565b6040805182815290516001600160a01b038616917f90b7d1516011c1da1279f3ae0ed052b1416e7c373d4ec40cf515aa53c5f839df919081900360200190a261047a6040518060600160405280602a8152602001610ed6602a9139610b81565b6001600160a01b0382811660008181526001602052604080822080546001600160a01b0319169486169485179055517fa11fc98cfb391622348acc16de92f0efb77d55f71a6e9fa18bfef387ae8d19ce9190a35050565b6000806000838060200190516060811015610a8257600080fd5b508051602082015160409092015190969195509350915050565b600082610aab57506000610659565b82820282848281610ab857fe5b0414610af55760405162461bcd60e51b8152600401808060200182810382526021815260200180610e056021913960400191505060405180910390fd5b9392505050565b6000808211610b52576040805162461bcd60e51b815260206004820152601a60248201527f536166654d6174683a206469766973696f6e206279207a65726f000000000000604482015290519081900360640190fd5b818381610b5b57fe5b049392505050565b6001600160a01b039081166000908152600160205260409020541690565b610c27816040516024018080602001828103825283818151815260200191508051906020019080838360005b83811015610bc5578181015183820152602001610bad565b50505050905090810190601f168015610bf25780820380516001836020036101000a031916815260200191505b5060408051601f198184030181529190526020810180516001600160e01b031663104c13eb60e21b1790529250610d8f915050565b50565b61048882826040516024018080602001838152602001828103825284818151815260200191508051906020019080838360005b83811015610c75578181015183820152602001610c5d565b50505050905090810190601f168015610ca25780820380516001836020036101000a031916815260200191505b5060408051601f198184030181529190526020810180516001600160e01b03166309710a9d60e41b1790529350610d8f92505050565b61048882826040516024018080602001836001600160a01b03168152602001828103825284818151815260200191508051906020019080838360005b83811015610d2c578181015183820152602001610d14565b50505050905090810190601f168015610d595780820380516001836020036101000a031916815260200191505b5060408051601f198184030181529190526020810180516001600160e01b031663319af33360e01b1790529350610d8f92505050565b80516a636f6e736f6c652e6c6f67602083016000808483855afa505050505056fe456e7472616365526174654665654261736520616674657220636f6d7074726f6c6c657250726f7879546f526174654f6e6c7920746865204665654d616e6765722063616e206d616b6520746869732063616c6c536166654d6174683a206d756c7469706c69636174696f6e206f766572666c6f77456e74726163655261746546656542617365206166746572207265717569726573205f636f6d7074726f6c6c657250726f78793a257361646446756e6453657474696e67733a204665652072617465206d617820657863656564656461646446756e6453657474696e67733a204665652072617465206d757374206265203e305f5f736574526563697069656e74466f7246756e643a204f6e6c79207661756c74206f776e65722063616c6c61626c65456e747261636552617465466565426173652061667465722046756e6453657474696e67734164646564a264697066735822122085603ad3e6b8eb3261916ae021680daa692f1106f55e5b5f33399484e88b38ec64736f6c634300060c0033",
  "linkReferences": {},
  "deployedLinkReferences": {}
}