{
  "_format": "hh-sol-artifact-1",
  "contractName": "MockGenericExternalPositionLib",
  "sourceName": "contracts/mocks/MockGenericExternalPositionLib.sol",
  "abi": [
    {
      "inputs": [],
      "name": "getDebtAssets",
      "outputs": [
        {
          "internalType": "address[]",
          "name": "assets_",
          "type": "address[]"
        },
        {
          "internalType": "uint256[]",
          "name": "amounts_",
          "type": "uint256[]"
        }
      ],
      "stateMutability": "nonpayable",
      "type": "function"
    },
    {
      "inputs": [],
      "name": "getManagedAssets",
      "outputs": [
        {
          "internalType": "address[]",
          "name": "assets_",
          "type": "address[]"
        },
        {
          "internalType": "uint256[]",
          "name": "amounts_",
          "type": "uint256[]"
        }
      ],
      "stateMutability": "nonpayable",
      "type": "function"
    },
    {
      "inputs": [
        {
          "internalType": "bytes",
          "name": "",
          "type": "bytes"
        }
      ],
      "name": "init",
      "outputs": [],
      "stateMutability": "nonpayable",
      "type": "function"
    },
    {
      "inputs": [
        {
          "internalType": "bytes",
          "name": "_actionData",
          "type": "bytes"
        }
      ],
      "name": "receiveCallFromVault",
      "outputs": [],
      "stateMutability": "nonpayable",
      "type": "function"
    }
  ],
  "bytecode": "0x608060405234801561001057600080fd5b50610ba1806100206000396000f3fe608060405234801561001057600080fd5b506004361061004c5760003560e01c80634ddf47d41461005157806380daddb8146100f7578063e5c23a9714610198578063ecd658b41461023c575b600080fd5b6100f56004803603602081101561006757600080fd5b810190602081018135600160201b81111561008157600080fd5b82018360208201111561009357600080fd5b803590602001918460018302840111600160201b831117156100b457600080fd5b91908080601f016020809104026020016040519081016040528093929190818152602001838380828437600092019190915250929550610244945050505050565b005b6100ff610247565b604051808060200180602001838103835285818151815260200191508051906020019060200280838360005b8381101561014357818101518382015260200161012b565b50505050905001838103825284818151815260200191508051906020019060200280838360005b8381101561018257818101518382015260200161016a565b5050505090500194505050505060405180910390f35b6100f5600480360360208110156101ae57600080fd5b810190602081018135600160201b8111156101c857600080fd5b8201836020820111156101da57600080fd5b803590602001918460018302840111600160201b831117156101fb57600080fd5b91908080601f01602080910402602001604051908101604052809392919081815260200183838082843760009201919091525092955061039a945050505050565b6100ff610630565b50565b600154606090819067ffffffffffffffff8111801561026557600080fd5b5060405190808252806020026020018201604052801561028f578160200160208202803683370190505b5060015490925067ffffffffffffffff811180156102ac57600080fd5b506040519080825280602002602001820160405280156102d6578160200160208202803683370190505b50905060005b60015481101561039557600181815481106102f357fe5b9060005260206000200160009054906101000a90046001600160a01b031683828151811061031d57fe5b60200260200101906001600160a01b031690816001600160a01b0316815250506003600084838151811061034d57fe5b60200260200101516001600160a01b03166001600160a01b031681526020019081526020016000205482828151811061038257fe5b60209081029190910101526001016102dc565b509091565b600060608280602001905160408110156103b357600080fd5b815160208301805160405192949293830192919084600160201b8211156103d957600080fd5b9083019060208201858111156103ee57600080fd5b8251600160201b81118282018810171561040757600080fd5b82525081516020918201929091019080838360005b8381101561043457818101518382015260200161041c565b50505050905090810190601f1680156104615780820380516001836020036101000a031916815260200191505b506040525050509150915060608082806020019051604081101561048457600080fd5b8101908080516040519392919084600160201b8211156104a357600080fd5b9083019060208201858111156104b857600080fd5b82518660208202830111600160201b821117156104d457600080fd5b82525081516020918201928201910280838360005b838110156105015781810151838201526020016104e9565b5050505090500160405260200180516040519392919084600160201b82111561052957600080fd5b90830190602082018581111561053e57600080fd5b82518660208202830111600160201b8211171561055a57600080fd5b82525081516020918201928201910280838360005b8381101561058757818101518382015260200161056f565b5050505090500160405250505091509150600060038111156105a557fe5b8414156105bb576105b6828261077e565b610629565b60018414156105cd576105b68261082a565b60028414156105e0576105b682826108ea565b60038414156105f2576105b682610991565b60405162461bcd60e51b8152600401808060200182810382526026815260200180610b466026913960400191505060405180910390fd5b5050505050565b600054606090819067ffffffffffffffff8111801561064e57600080fd5b50604051908082528060200260200182016040528015610678578160200160208202803683370190505b5060005490925067ffffffffffffffff8111801561069557600080fd5b506040519080825280602002602001820160405280156106bf578160200160208202803683370190505b50905060005b60005481101561039557600081815481106106dc57fe5b9060005260206000200160009054906101000a90046001600160a01b031683828151811061070657fe5b60200260200101906001600160a01b031690816001600160a01b0316815250506002600084838151811061073657fe5b60200260200101516001600160a01b03166001600160a01b031681526020019081526020016000205482828151811061076b57fe5b60209081029190910101526001016106c5565b60005b825181101561082557600183828151811061079857fe5b60209081029190910181015182546001810184556000938452919092200180546001600160a01b0319166001600160a01b0390921691909117905581518290829081106107e157fe5b6020026020010151600360008584815181106107f957fe5b6020908102919091018101516001600160a01b0316825281019190915260400160002055600101610781565b505050565b60005b81518110156108e65760006003600084848151811061084857fe5b60200260200101516001600160a01b03166001600160a01b031681526020019081526020016000205411156108de5761089e82828151811061088657fe5b60200260200101516001610a4d90919063ffffffff16565b506000600360008484815181106108b157fe5b60200260200101516001600160a01b03166001600160a01b03168152602001908152602001600020819055505b60010161082d565b5050565b60005b825181101561082557600083828151811061090457fe5b60209081029190910181015182546001810184556000938452919092200180546001600160a01b0319166001600160a01b03909216919091179055815182908290811061094d57fe5b60200260200101516002600085848151811061096557fe5b6020908102919091018101516001600160a01b03168252810191909152604001600020556001016108ed565b60005b81518110156108e6576000600260008484815181106109af57fe5b60200260200101516001600160a01b03166001600160a01b03168152602001908152602001600020541115610a4557610a058282815181106109ed57fe5b60200260200101516000610a4d90919063ffffffff16565b50600060026000848481518110610a1857fe5b60200260200101516001600160a01b03166001600160a01b03168152602001908152602001600020819055505b600101610994565b8154600090815b81811015610b3d57836001600160a01b0316858281548110610a7257fe5b6000918252602090912001546001600160a01b03161415610b355760018203811015610b0057846001830381548110610aa757fe5b9060005260206000200160009054906101000a90046001600160a01b0316858281548110610ad157fe5b9060005260206000200160006101000a8154816001600160a01b0302191690836001600160a01b031602179055505b84805480610b0a57fe5b600082815260209020810160001990810180546001600160a01b031916905501905560019250610b3d565b600101610a54565b50509291505056fe7265636569766543616c6c46726f6d5661756c743a20496e76616c696420616374696f6e4964a26469706673582212207cecd720d15b8ed494fd5b052c0e99dabe90f1e0ddb6d9f1061104df7442073864736f6c634300060c0033",
  "linkReferences": {},
  "deployedLinkReferences": {}
}