{
  "address": "0xA56F946D6398Dd7d9D4D9B337Cf9E0F68982ca5B",
  "abi": [
    {
      "inputs": [
        {
          "internalType": "address",
          "name": "_fundDeployer",
          "type": "address"
        },
        {
          "internalType": "address",
          "name": "_synthetixPriceFeed",
          "type": "address"
        },
        {
          "internalType": "address",
          "name": "_synthetixAddressResolver",
          "type": "address"
        }
      ],
      "stateMutability": "nonpayable",
      "type": "constructor"
    },
    {
      "anonymous": false,
      "inputs": [
        {
          "indexed": false,
          "internalType": "address",
          "name": "nextSynthetixPriceFeed",
          "type": "address"
        }
      ],
      "name": "SynthetixPriceFeedSet",
      "type": "event"
    },
    {
      "inputs": [
        {
          "internalType": "address",
          "name": "_target",
          "type": "address"
        },
        {
          "internalType": "address[]",
          "name": "_assets",
          "type": "address[]"
        }
      ],
      "name": "finalizeAssets",
      "outputs": [],
      "stateMutability": "nonpayable",
      "type": "function"
    },
    {
      "inputs": [],
      "name": "getFundDeployer",
      "outputs": [
        {
          "internalType": "address",
          "name": "fundDeployer_",
          "type": "address"
        }
      ],
      "stateMutability": "view",
      "type": "function"
    },
    {
      "inputs": [],
      "name": "getOwner",
      "outputs": [
        {
          "internalType": "address",
          "name": "owner_",
          "type": "address"
        }
      ],
      "stateMutability": "view",
      "type": "function"
    },
    {
      "inputs": [],
      "name": "getSynthetixAddressResolver",
      "outputs": [
        {
          "internalType": "address",
          "name": "synthetixAddressResolver_",
          "type": "address"
        }
      ],
      "stateMutability": "view",
      "type": "function"
    },
    {
      "inputs": [],
      "name": "getSynthetixPriceFeed",
      "outputs": [
        {
          "internalType": "address",
          "name": "synthetixPriceFeed_",
          "type": "address"
        }
      ],
      "stateMutability": "view",
      "type": "function"
    },
    {
      "inputs": [
        {
          "internalType": "address",
          "name": "_nextSynthetixPriceFeed",
          "type": "address"
        }
      ],
      "name": "setSynthetixPriceFeed",
      "outputs": [],
      "stateMutability": "nonpayable",
      "type": "function"
    }
  ],
  "transactionHash": "0x9cf78e1e2bc272786f124f0d6c4ae06da76d7b8b2c60f7873a5b9eb6a919472a",
  "args": [
    "0xaca81583840B1bf2dDF6CDe824ada250C1936B4D",
    "0x70bDA08DBe07363968e9EE53d899dFE48560605B",
    "0x4E3b31eB0E5CB73641EE1E65E7dCEFe520bA3ef2"
  ],
  "solcInputHash": "e128c99a7ad98ab17bfe5eac6103458b",
  "bytecode": "0x60c060405234801561001057600080fd5b50604051610b90380380610b908339818101604052606081101561003357600080fd5b50805160208201516040909201516001600160601b0319606083811b821660805282901b1660a0529091906100678261006f565b50505061021b565b604080516000808252602080830193849052633c13fa7b60e11b8452602483018181528351604485018190526001600160a01b03871695637827f4f69594929384936064870193909102908190849084905b838110156100d95781810151838201526020016100c1565b505050509050019250505060006040518083038186803b1580156100fc57600080fd5b505afa158015610110573d6000803e3d6000fd5b505050506040513d6000823e601f3d908101601f19168201604052602081101561013957600080fd5b810190808051604051939291908464010000000082111561015957600080fd5b90830190602082018581111561016e57600080fd5b825186602082028301116401000000008211171561018b57600080fd5b82525081516020918201928201910280838360005b838110156101b85781810151838201526020016101a0565b50505050919091016040818152600080546001600160a01b038a166001600160a01b031990911681179091558252517fd7bee1dae36b6371ba22945d9f438fa4a99acccbe9c364b2fa4607d903a400c6965090819003602001945092505050a150565b60805160601c60a05160601c61094261024e600039806105605250806104c752806105a252806105c952506109426000f3fe608060405234801561001057600080fd5b50600436106100625760003560e01c806306da67e814610067578063762063051461008f578063893d20e8146101425780638d064eae1461016657806396471b081461016e57806397c0ac8714610176575b600080fd5b61008d6004803603602081101561007d57600080fd5b50356001600160a01b031661017e565b005b61008d600480360360408110156100a557600080fd5b6001600160a01b0382351691908101906040810160208201356401000000008111156100d057600080fd5b8201836020820111156100e257600080fd5b8035906020019184602083028401116401000000008311171561010457600080fd5b9190808060200260200160405190810160405280939291908181526020018383602002808284376000920191909152509295506101e1945050505050565b61014a6104c3565b604080516001600160a01b039092168252519081900360200190f35b61014a61054f565b61014a61055e565b61014a610582565b6101866104c3565b6001600160a01b0316336001600160a01b0316146101d55760405162461bcd60e51b815260040180806020018281038252604981526020018061089b6049913960600191505060405180910390fd5b6101de816105eb565b50565b80516101ec576104bf565b60606101f661054f565b6001600160a01b0316637827f4f6836040518263ffffffff1660e01b81526004018080602001828103825283818151815260200191508051906020019060200280838360005b8381101561025457818101518382015260200161023c565b505050509050019250505060006040518083038186803b15801561027757600080fd5b505afa15801561028b573d6000803e3d6000fd5b505050506040513d6000823e601f3d908101601f1916820160405260208110156102b457600080fd5b81019080805160405193929190846401000000008211156102d457600080fd5b9083019060208201858111156102e957600080fd5b825186602082028301116401000000008211171561030657600080fd5b82525081516020918201928201910280838360005b8381101561033357818101518382015260200161031b565b5050505090500160405250505090506000805b83518110156104bb5782818151811061035b57fe5b60200260200101516000801b146104b3576001600160a01b03821661041c5761038261055e565b6001600160a01b031663dacb2d016040518163ffffffff1660e01b815260040180806822bc31b430b733b2b960b91b815250602001806020018281038252602b815260200180610870602b913960400191505060206040518083038186803b1580156103ed57600080fd5b505afa158015610401573d6000803e3d6000fd5b505050506040513d602081101561041757600080fd5b505191505b816001600160a01b0316631b16802c8685848151811061043857fe5b60200260200101516040518363ffffffff1660e01b815260040180836001600160a01b0316815260200182815260200192505050606060405180830381600087803b15801561048657600080fd5b505af115801561049a573d6000803e3d6000fd5b505050506040513d60608110156104b057600080fd5b50505b600101610346565b5050505b5050565b60007f00000000000000000000000000000000000000000000000000000000000000006001600160a01b031663893d20e86040518163ffffffff1660e01b815260040160206040518083038186803b15801561051e57600080fd5b505afa158015610532573d6000803e3d6000fd5b505050506040513d602081101561054857600080fd5b5051905090565b6000546001600160a01b031690565b7f000000000000000000000000000000000000000000000000000000000000000090565b60006105c66040518060600160405280602981526020016108e4602991397f0000000000000000000000000000000000000000000000000000000000000000610797565b507f000000000000000000000000000000000000000000000000000000000000000090565b604080516000808252602080830193849052633c13fa7b60e11b8452602483018181528351604485018190526001600160a01b03871695637827f4f69594929384936064870193909102908190849084905b8381101561065557818101518382015260200161063d565b505050509050019250505060006040518083038186803b15801561067857600080fd5b505afa15801561068c573d6000803e3d6000fd5b505050506040513d6000823e601f3d908101601f1916820160405260208110156106b557600080fd5b81019080805160405193929190846401000000008211156106d557600080fd5b9083019060208201858111156106ea57600080fd5b825186602082028301116401000000008211171561070757600080fd5b82525081516020918201928201910280838360005b8381101561073457818101518382015260200161071c565b50505050919091016040818152600080546001600160a01b038a166001600160a01b031990911681179091558252517fd7bee1dae36b6371ba22945d9f438fa4a99acccbe9c364b2fa4607d903a400c6965090819003602001945092505050a150565b6104bf82826040516024018080602001836001600160a01b03168152602001828103825284818151815260200191508051906020019080838360005b838110156107eb5781810151838201526020016107d3565b50505050905090810190601f1680156108185780820380516001836020036101000a031916815260200191505b5060408051601f198184030181529190526020810180516001600160e01b031663319af33360e01b179052935061084e92505050565b80516a636f6e736f6c652e6c6f67602083016000808483855afa505050505056fe66696e616c697a654173736574733a204d697373696e672053796e7468657469782045786368616e6765726f6e6c7946756e644465706c6f7965724f776e65723a204f6e6c79207468652046756e644465706c6f796572206f776e65722063616e2063616c6c20746869732066756e6374696f6e46756e644465706c6f7965724f776e65724d6978696e3a67657446756e644465706c6f7965723a2573a26469706673582212207f3f82edecc1caf8c3743d88ec88a82e6f4082e93dc4280ea9e89f731237625e64736f6c634300060c0033",
  "devdoc": {
    "author": "Enzyme Council <security@enzyme.finance>",
    "kind": "dev",
    "methods": {
      "finalizeAssets(address,address[])": {
        "details": "Currently only handles Synths, and uses the SynthetixPriceFeed as a shortcut to validate supported Synths",
        "params": {
          "_assets": "The assets to finalize",
          "_target": "The account that the assets belong to"
        }
      },
      "getFundDeployer()": {
        "returns": {
          "fundDeployer_": "The `FUND_DEPLOYER` variable value"
        }
      },
      "getOwner()": {
        "details": "Ownership is deferred to the owner of the FundDeployer contract",
        "returns": {
          "owner_": "The owner"
        }
      },
      "getSynthetixAddressResolver()": {
        "returns": {
          "synthetixAddressResolver_": "The `SYNTHETIX_ADDRESS_RESOLVER` variable value"
        }
      },
      "getSynthetixPriceFeed()": {
        "returns": {
          "synthetixPriceFeed_": "The `synthetixPriceFeed` variable value"
        }
      },
      "setSynthetixPriceFeed(address)": {
        "params": {
          "_nextSynthetixPriceFeed": "The address of the SynthetixPriceFeed contract"
        }
      }
    },
    "title": "AssetFinalityResolver Contract",
    "version": 1
  },
  "userdoc": {
    "kind": "user",
    "methods": {
      "finalizeAssets(address,address[])": {
        "notice": "Helper to finalize asset balances according to the procedures of their protocols"
      },
      "getFundDeployer()": {
        "notice": "Gets the `FUND_DEPLOYER` variable"
      },
      "getOwner()": {
        "notice": "Gets the owner of this contract"
      },
      "getSynthetixAddressResolver()": {
        "notice": "Gets the `SYNTHETIX_ADDRESS_RESOLVER` variable"
      },
      "getSynthetixPriceFeed()": {
        "notice": "Gets the `synthetixPriceFeed` variable"
      },
      "setSynthetixPriceFeed(address)": {
        "notice": "Sets a new SynthetixPriceFeed for use within the contract"
      }
    },
    "notice": "A contract that helps achieve asset finality",
    "version": 1
  },
  "storageLayout": {
    "storage": [
      {
        "astId": 40276,
        "contract": "contracts/release/infrastructure/asset-finality/AssetFinalityResolver.sol:AssetFinalityResolver",
        "label": "synthetixPriceFeed",
        "offset": 0,
        "slot": "0",
        "type": "t_address"
      }
    ],
    "types": {
      "t_address": {
        "encoding": "inplace",
        "label": "address",
        "numberOfBytes": "20"
      }
    }
  }
}