{
  "address": "0xD6b040736e948621c5b6E0a494473c47a6113eA8",
  "abi": [
    {
      "inputs": [
        {
          "internalType": "address",
          "name": "_integrationManager",
          "type": "address"
        },
        {
          "internalType": "address",
          "name": "_compoundPriceFeed",
          "type": "address"
        },
        {
          "internalType": "address",
          "name": "_wethToken",
          "type": "address"
        }
      ],
      "stateMutability": "nonpayable",
      "type": "constructor"
    },
    {
      "inputs": [],
      "name": "CLAIM_REWARDS_SELECTOR",
      "outputs": [
        {
          "internalType": "bytes4",
          "name": "",
          "type": "bytes4"
        }
      ],
      "stateMutability": "view",
      "type": "function"
    },
    {
      "inputs": [],
      "name": "LEND_AND_STAKE_SELECTOR",
      "outputs": [
        {
          "internalType": "bytes4",
          "name": "",
          "type": "bytes4"
        }
      ],
      "stateMutability": "view",
      "type": "function"
    },
    {
      "inputs": [],
      "name": "LEND_SELECTOR",
      "outputs": [
        {
          "internalType": "bytes4",
          "name": "",
          "type": "bytes4"
        }
      ],
      "stateMutability": "view",
      "type": "function"
    },
    {
      "inputs": [],
      "name": "REDEEM_SELECTOR",
      "outputs": [
        {
          "internalType": "bytes4",
          "name": "",
          "type": "bytes4"
        }
      ],
      "stateMutability": "view",
      "type": "function"
    },
    {
      "inputs": [],
      "name": "STAKE_SELECTOR",
      "outputs": [
        {
          "internalType": "bytes4",
          "name": "",
          "type": "bytes4"
        }
      ],
      "stateMutability": "view",
      "type": "function"
    },
    {
      "inputs": [],
      "name": "TAKE_ORDER_SELECTOR",
      "outputs": [
        {
          "internalType": "bytes4",
          "name": "",
          "type": "bytes4"
        }
      ],
      "stateMutability": "view",
      "type": "function"
    },
    {
      "inputs": [],
      "name": "UNSTAKE_AND_REDEEM_SELECTOR",
      "outputs": [
        {
          "internalType": "bytes4",
          "name": "",
          "type": "bytes4"
        }
      ],
      "stateMutability": "view",
      "type": "function"
    },
    {
      "inputs": [],
      "name": "UNSTAKE_SELECTOR",
      "outputs": [
        {
          "internalType": "bytes4",
          "name": "",
          "type": "bytes4"
        }
      ],
      "stateMutability": "view",
      "type": "function"
    },
    {
      "inputs": [],
      "name": "getCompoundPriceFeed",
      "outputs": [
        {
          "internalType": "address",
          "name": "compoundPriceFeed_",
          "type": "address"
        }
      ],
      "stateMutability": "view",
      "type": "function"
    },
    {
      "inputs": [],
      "name": "getCompoundWethToken",
      "outputs": [
        {
          "internalType": "address",
          "name": "compoundWethToken_",
          "type": "address"
        }
      ],
      "stateMutability": "view",
      "type": "function"
    },
    {
      "inputs": [],
      "name": "getIntegrationManager",
      "outputs": [
        {
          "internalType": "address",
          "name": "integrationManager_",
          "type": "address"
        }
      ],
      "stateMutability": "view",
      "type": "function"
    },
    {
      "inputs": [
        {
          "internalType": "address",
          "name": "_vaultProxy",
          "type": "address"
        },
        {
          "internalType": "bytes",
          "name": "",
          "type": "bytes"
        },
        {
          "internalType": "bytes",
          "name": "_assetData",
          "type": "bytes"
        }
      ],
      "name": "lend",
      "outputs": [],
      "stateMutability": "nonpayable",
      "type": "function"
    },
    {
      "inputs": [
        {
          "internalType": "address",
          "name": "",
          "type": "address"
        },
        {
          "internalType": "bytes4",
          "name": "_selector",
          "type": "bytes4"
        },
        {
          "internalType": "bytes",
          "name": "_actionData",
          "type": "bytes"
        }
      ],
      "name": "parseAssetsForAction",
      "outputs": [
        {
          "internalType": "enum IIntegrationManager.SpendAssetsHandleType",
          "name": "spendAssetsHandleType_",
          "type": "uint8"
        },
        {
          "internalType": "address[]",
          "name": "spendAssets_",
          "type": "address[]"
        },
        {
          "internalType": "uint256[]",
          "name": "spendAssetAmounts_",
          "type": "uint256[]"
        },
        {
          "internalType": "address[]",
          "name": "incomingAssets_",
          "type": "address[]"
        },
        {
          "internalType": "uint256[]",
          "name": "minIncomingAssetAmounts_",
          "type": "uint256[]"
        }
      ],
      "stateMutability": "view",
      "type": "function"
    },
    {
      "inputs": [
        {
          "internalType": "address",
          "name": "_vaultProxy",
          "type": "address"
        },
        {
          "internalType": "bytes",
          "name": "",
          "type": "bytes"
        },
        {
          "internalType": "bytes",
          "name": "_assetData",
          "type": "bytes"
        }
      ],
      "name": "redeem",
      "outputs": [],
      "stateMutability": "nonpayable",
      "type": "function"
    },
    {
      "stateMutability": "payable",
      "type": "receive"
    }
  ],
  "transactionHash": "0xbe00e383e89a9611dd5fe056590a74e2f739fb60f5eb301235c24fbb154867b7",
  "args": [
    "0xe70f935c32dA4dB13e7876795f1e175465e6458e",
    "0xddE78e6202518FF4936b5302cC2891ec180E8bFf",
    "0xc02aaa39b223fe8d0a0e5c4f27ead9083c756cc2"
  ],
  "linkedData": {
    "nonSlippageAdapter": true,
    "type": "ADAPTER"
  },
  "solcInputHash": "e128c99a7ad98ab17bfe5eac6103458b",
  "bytecode": "0x60e060405234801561001057600080fd5b50604051611e01380380611e018339818101604052606081101561003357600080fd5b50805160208201516040909201516001600160601b0319606092831b811660805290821b811660a05291901b1660c05260805160601c60a05160601c60c05160601c611d416100c060003980610759528061107152806112b45250806107c55280610c045280610c3e5280610f655280610f9a5250806105c3528061083a52806109ff5250611d416000f3fe6080604052600436106100e15760003560e01c806371dce8501161007f578063c29fa9dd11610059578063c29fa9dd146102c0578063c54efee51461039b578063e7c456901461056a578063f7d882b51461057f576100e8565b806371dce85014610281578063863e5ad014610296578063b23228cf146102ab576100e8565b8063257cb1a3116100bb578063257cb1a31461021157806332bf8227146102265780633ffc15911461025757806340da225d1461026c576100e8565b8063080456c1146100ed578063099f75151461011f578063131461c0146101fc576100e8565b366100e857005b600080fd5b3480156100f957600080fd5b50610102610594565b604080516001600160e01b03199092168252519081900360200190f35b34801561012b57600080fd5b506101fa6004803603606081101561014257600080fd5b6001600160a01b038235169190810190604081016020820135600160201b81111561016c57600080fd5b82018360208201111561017e57600080fd5b803590602001918460018302840111600160201b8311171561019f57600080fd5b919390929091602081019035600160201b8111156101bc57600080fd5b8201836020820111156101ce57600080fd5b803590602001918460018302840111600160201b831117156101ef57600080fd5b5090925090506105b8565b005b34801561020857600080fd5b5061010261070f565b34801561021d57600080fd5b50610102610733565b34801561023257600080fd5b5061023b610757565b604080516001600160a01b039092168252519081900360200190f35b34801561026357600080fd5b5061010261077b565b34801561027857600080fd5b5061010261079f565b34801561028d57600080fd5b5061023b6107c3565b3480156102a257600080fd5b506101026107e7565b3480156102b757600080fd5b5061010261080b565b3480156102cc57600080fd5b506101fa600480360360608110156102e357600080fd5b6001600160a01b038235169190810190604081016020820135600160201b81111561030d57600080fd5b82018360208201111561031f57600080fd5b803590602001918460018302840111600160201b8311171561034057600080fd5b919390929091602081019035600160201b81111561035d57600080fd5b82018360208201111561036f57600080fd5b803590602001918460018302840111600160201b8311171561039057600080fd5b50909250905061082f565b3480156103a757600080fd5b50610435600480360360608110156103be57600080fd5b6001600160a01b03823516916001600160e01b031960208201351691810190606081016040820135600160201b8111156103f757600080fd5b82018360208201111561040957600080fd5b803590602001918460018302840111600160201b8311171561042a57600080fd5b50909250905061095f565b6040518086600281111561044557fe5b815260200180602001806020018060200180602001858103855289818151815260200191508051906020019060200280838360005b8381101561049257818101518382015260200161047a565b50505050905001858103845288818151815260200191508051906020019060200280838360005b838110156104d15781810151838201526020016104b9565b50505050905001858103835287818151815260200191508051906020019060200280838360005b838110156105105781810151838201526020016104f8565b50505050905001858103825286818151815260200191508051906020019060200280838360005b8381101561054f578181015183820152602001610537565b50505050905001995050505050505050505060405180910390f35b34801561057657600080fd5b5061023b6109fd565b34801561058b57600080fd5b50610102610a21565b7f8334eb99be0145865eba9889fca2ee920288090caefff4cc776038e20ad9259a81565b336001600160a01b037f0000000000000000000000000000000000000000000000000000000000000000161461061f5760405162461bcd60e51b8152600401808060200182810382526032815260200180611bc96032913960400191505060405180910390fd5b8482828080601f01602080910402602001604051908101604052809392919081815260200183838082843760009201919091525050604080516020601f880181900481028201810190925286815260609350839250829161069b91908990899081908401838280828437600092019190915250610a4592505050565b9250925092506106e8836000815181106106b157fe5b6020026020010151836000815181106106c657fe5b6020026020010151836000815181106106db57fe5b6020026020010151610c02565b50505060606106f682610a45565b925050506107048382610d96565b505050505050505050565b7f29fa046e79524c3c5ac4c01df692c35e217802b2b13b21121b76cf0ef02b138c81565b7f099f75155f0e997bf83a7993a71d5e7e7540bd386fe1e84643a09ce6b412521981565b7f000000000000000000000000000000000000000000000000000000000000000090565b7ffa7dd04da627f433da73c4355ead9c75682a67a8fc84d3f6170ef0922f402d2481565b7fb9dfbaccbe5cd2a84fdcf1d15f23ef25d23086f5afbaa99516065ed4a5bbc7a381565b7f000000000000000000000000000000000000000000000000000000000000000090565b7f03e38a2bd7063d45c897edeafc330e71657502dd86434d3c37a489caf116af6981565b7f68e30677f607df46e87da13e15b637784cfa62374b653f35ab43d10361a2f83081565b336001600160a01b037f000000000000000000000000000000000000000000000000000000000000000016146108965760405162461bcd60e51b8152600401808060200182810382526032815260200180611bc96032913960400191505060405180910390fd5b8482828080601f01602080910402602001604051908101604052809392919081815260200183838082843760009201919091525050604080516020601f880181900481028201810190925286815260609350839250829161091291908990899081908401838280828437600092019190915250610a4592505050565b9250925092506106e88360008151811061092857fe5b60200260200101518360008151811061093d57fe5b60200260200101518360008151811061095257fe5b6020026020010151610ef1565b600060608080806001600160e01b0319881663099f751560e01b141561099857610989878761101b565b945094509450945094506109f2565b6001600160e01b0319881663c29fa9dd60e01b14156109bb57610989878761125e565b60405162461bcd60e51b8152600401808060200182810382526027815260200180611ce56027913960400191505060405180910390fd5b945094509450945094565b7f000000000000000000000000000000000000000000000000000000000000000090565b7fc29fa9dde84204c2908778afd0613d802d31cf046179b88f6d2b4a4e507ea2d581565b6060806060838060200190516060811015610a5f57600080fd5b8101908080516040519392919084600160201b821115610a7e57600080fd5b908301906020820185811115610a9357600080fd5b82518660208202830111600160201b82111715610aaf57600080fd5b82525081516020918201928201910280838360005b83811015610adc578181015183820152602001610ac4565b5050505090500160405260200180516040519392919084600160201b821115610b0457600080fd5b908301906020820185811115610b1957600080fd5b82518660208202830111600160201b82111715610b3557600080fd5b82525081516020918201928201910280838360005b83811015610b62578181015183820152602001610b4a565b5050505090500160405260200180516040519392919084600160201b821115610b8a57600080fd5b908301906020820185811115610b9f57600080fd5b82518660208202830111600160201b82111715610bbb57600080fd5b82525081516020918201928201910280838360005b83811015610be8578181015183820152602001610bd0565b505050509050016040525050509250925092509193909250565b7f00000000000000000000000000000000000000000000000000000000000000006001600160a01b0316836001600160a01b03161415610d13577f00000000000000000000000000000000000000000000000000000000000000006001600160a01b0316632e1a7d4d836040518263ffffffff1660e01b815260040180828152602001915050600060405180830381600087803b158015610ca257600080fd5b505af1158015610cb6573d6000803e3d6000fd5b50505050806001600160a01b0316631249c58b836040518263ffffffff1660e01b81526004016000604051808303818588803b158015610cf557600080fd5b505af1158015610d09573d6000803e3d6000fd5b5050505050610d91565b610d1e83828461143f565b806001600160a01b031663a0712d68836040518263ffffffff1660e01b815260040180828152602001915050602060405180830381600087803b158015610d6457600080fd5b505af1158015610d78573d6000803e3d6000fd5b505050506040513d6020811015610d8e57600080fd5b50505b505050565b6060815167ffffffffffffffff81118015610db057600080fd5b50604051908082528060200260200182016040528015610dda578160200160208202803683370190505b50905060005b8251811015610eea576000838281518110610df757fe5b60200260200101519050806001600160a01b03166370a08231306040518263ffffffff1660e01b815260040180826001600160a01b0316815260200191505060206040518083038186803b158015610e4e57600080fd5b505afa158015610e62573d6000803e3d6000fd5b505050506040513d6020811015610e7857600080fd5b50518351849084908110610e8857fe5b6020026020010181815250506000838381518110610ea257fe5b60200260200101511115610ee157610ee185848481518110610ec057fe5b6020026020010151836001600160a01b03166116849092919063ffffffff16565b50600101610de0565b5092915050565b826001600160a01b031663db006a75836040518263ffffffff1660e01b815260040180828152602001915050602060405180830381600087803b158015610f3757600080fd5b505af1158015610f4b573d6000803e3d6000fd5b505050506040513d6020811015610f6157600080fd5b50507f00000000000000000000000000000000000000000000000000000000000000006001600160a01b039081169082161415610d91577f00000000000000000000000000000000000000000000000000000000000000006001600160a01b031663d0e30db0306001600160a01b0316316040518263ffffffff1660e01b81526004016000604051808303818588803b158015610ffd57600080fd5b505af1158015611011573d6000803e3d6000fd5b5050505050505050565b600060608060608060008060006110678a8a8080601f0160208091040260200160405190810160405280939291908181526020018383808284376000920191909152506116d692505050565b92509250925060007f00000000000000000000000000000000000000000000000000000000000000006001600160a01b0316634cae3ad7856040518263ffffffff1660e01b815260040180826001600160a01b0316815260200191505060206040518083038186803b1580156110dc57600080fd5b505afa1580156110f0573d6000803e3d6000fd5b505050506040513d602081101561110657600080fd5b505190506001600160a01b03811661114f5760405162461bcd60e51b8152600401808060200182810382526028815260200180611c256028913960400191505060405180910390fd5b6040805160018082528183019092529060208083019080368337019050509750808860008151811061117d57fe5b6001600160a01b039290921660209283029190910182015260408051600180825281830190925291828101908036833701905050965082876000815181106111c157fe5b60209081029190910101526040805160018082528183019092529081602001602082028036833701905050955083866000815181106111fc57fe5b6001600160a01b0392909216602092830291909101820152604080516001808252818301909252918281019080368337019050509450818560008151811061124057fe5b60200260200101818152505060029850505050509295509295909350565b600060608060608060008060006112aa8a8a8080601f0160208091040260200160405190810160405280939291908181526020018383808284376000920191909152506116d692505050565b92509250925060007f00000000000000000000000000000000000000000000000000000000000000006001600160a01b0316634cae3ad7856040518263ffffffff1660e01b815260040180826001600160a01b0316815260200191505060206040518083038186803b15801561131f57600080fd5b505afa158015611333573d6000803e3d6000fd5b505050506040513d602081101561134957600080fd5b505190506001600160a01b0381166113925760405162461bcd60e51b815260040180806020018281038252602a815260200180611bfb602a913960400191505060405180910390fd5b604080516001808252818301909252906020808301908036833701905050975083886000815181106113c057fe5b6001600160a01b0392909216602092830291909101820152604080516001808252818301909252918281019080368337019050509650828760008151811061140457fe5b60209081029190910101526040805160018082528183019092529081602001602082028036833701905050955080866000815181106111fc57fe5b60408051636eb1769f60e11b81523060048201526001600160a01b038481166024830152915160009286169163dd62ed3e916044808301926020929190829003018186803b15801561149057600080fd5b505afa1580156114a4573d6000803e3d6000fd5b505050506040513d60208110156114ba57600080fd5b5051604080516060810190915260268082529192506114e191611c9b60208301398261170a565b8181101561165d5761150a604051806060016040528060288152602001611b57602891396117bc565b80156115b657836001600160a01b031663095ea7b38460006040518363ffffffff1660e01b815260040180836001600160a01b0316815260200182815260200192505050602060405180830381600087803b15801561156857600080fd5b505af115801561157c573d6000803e3d6000fd5b505050506040513d602081101561159257600080fd5b5050604080516060810190915260248082526115b69190611cc160208301396117bc565b836001600160a01b031663095ea7b3846000196040518363ffffffff1660e01b815260040180836001600160a01b0316815260200182815260200192505050602060405180830381600087803b15801561160f57600080fd5b505af1158015611623573d6000803e3d6000fd5b505050506040513d602081101561163957600080fd5b50506040805160608101909152602480825261165d9190611c7760208301396117bc565b61167e604051806060016040528060248152602001611ba5602491396117bc565b50505050565b604080516001600160a01b038416602482015260448082018490528251808303909101815260649091019091526020810180516001600160e01b031663a9059cbb60e01b179052610d91908490611865565b60008060008380602001905160608110156116f057600080fd5b508051602082015160409092015190969195509350915050565b6117b882826040516024018080602001838152602001828103825284818151815260200191508051906020019080838360005b8381101561175557818101518382015260200161173d565b50505050905090810190601f1680156117825780820380516001836020036101000a031916815260200191505b5060408051601f198184030181529190526020810180516001600160e01b03166309710a9d60e41b179052935061191692505050565b5050565b611862816040516024018080602001828103825283818151815260200191508051906020019080838360005b838110156118005781810151838201526020016117e8565b50505050905090810190601f16801561182d5780820380516001836020036101000a031916815260200191505b5060408051601f198184030181529190526020810180516001600160e01b031663104c13eb60e21b1790529250611916915050565b50565b60606118ba826040518060400160405280602081526020017f5361666545524332303a206c6f772d6c6576656c2063616c6c206661696c6564815250856001600160a01b03166119379092919063ffffffff16565b805190915015610d91578080602001905160208110156118d957600080fd5b5051610d915760405162461bcd60e51b815260040180806020018281038252602a815260200180611c4d602a913960400191505060405180910390fd5b80516a636f6e736f6c652e6c6f67602083016000808483855afa5050505050565b60606119468484600085611950565b90505b9392505050565b6060824710156119915760405162461bcd60e51b8152600401808060200182810382526026815260200180611b7f6026913960400191505060405180910390fd5b61199a85611aac565b6119eb576040805162461bcd60e51b815260206004820152601d60248201527f416464726573733a2063616c6c20746f206e6f6e2d636f6e7472616374000000604482015290519081900360640190fd5b60006060866001600160a01b031685876040518082805190602001908083835b60208310611a2a5780518252601f199092019160209182019101611a0b565b6001836020036101000a03801982511681845116808217855250505050505090500191505060006040518083038185875af1925050503d8060008114611a8c576040519150601f19603f3d011682016040523d82523d6000602084013e611a91565b606091505b5091509150611aa1828286611ab2565b979650505050505050565b3b151590565b60608315611ac1575081611949565b825115611ad15782518084602001fd5b8160405162461bcd60e51b81526004018080602001828103825283818151815260200191508051906020019080838360005b83811015611b1b578181015183820152602001611b03565b50505050905090810190601f168015611b485780820380516001836020036101000a031916815260200191505b509250505060405180910390fdfe5f5f617070726f766541737365744d617841734e65656465643a6265666f726520617070726f7665416464726573733a20696e73756666696369656e742062616c616e636520666f722063616c6c5f5f617070726f766541737365744d617841734e65656465643a617070726f76656420334f6e6c792074686520496e746567726174696f6e4d616e616765722063616e2063616c6c20746869732066756e6374696f6e5f5f7061727365417373657473466f7252656465656d3a20556e737570706f727465642063546f6b656e5f5f7061727365417373657473466f724c656e643a20556e737570706f727465642063546f6b656e5361666545524332303a204552433230206f7065726174696f6e20646964206e6f7420737563636565645f5f617070726f766541737365744d617841734e65656465643a617070726f76656420325f5f617070726f766541737365744d617841734e65656465643a616c6c6f77616e63653a25645f5f617070726f766541737365744d617841734e65656465643a617070726f76656420317061727365417373657473466f72416374696f6e3a205f73656c6563746f7220696e76616c6964a264697066735822122087c06be6729f02d981d685822ccbe8c413dc9541d8ff28d4ff2463cd8e82ce1e64736f6c634300060c0033",
  "devdoc": {
    "author": "Enzyme Council <security@enzyme.finance>",
    "kind": "dev",
    "methods": {
      "getCompoundPriceFeed()": {
        "returns": {
          "compoundPriceFeed_": "The `COMPOUND_PRICE_FEED` variable value"
        }
      },
      "getCompoundWethToken()": {
        "returns": {
          "compoundWethToken_": "The `COMPOUND_WETH_TOKEN` variable value"
        }
      },
      "getIntegrationManager()": {
        "returns": {
          "integrationManager_": "The `INTEGRATION_MANAGER` variable value"
        }
      },
      "lend(address,bytes,bytes)": {
        "params": {
          "_assetData": "Parsed spend assets and incoming assets data for this action",
          "_vaultProxy": "The VaultProxy of the calling fund"
        }
      },
      "parseAssetsForAction(address,bytes4,bytes)": {
        "params": {
          "_actionData": "Data specific to this action",
          "_selector": "The function selector for the callOnIntegration"
        },
        "returns": {
          "incomingAssets_": "The assets to receive in the call",
          "minIncomingAssetAmounts_": "The min asset amounts to receive in the call",
          "spendAssetAmounts_": "The max asset amounts to spend in the call",
          "spendAssetsHandleType_": "A type that dictates how to handle granting the adapter access to spend assets (`None` by default)",
          "spendAssets_": "The assets to spend in the call"
        }
      },
      "redeem(address,bytes,bytes)": {
        "params": {
          "_assetData": "Parsed spend assets and incoming assets data for this action",
          "_vaultProxy": "The VaultProxy of the calling fund"
        }
      }
    },
    "title": "CompoundAdapter Contract",
    "version": 1
  },
  "userdoc": {
    "kind": "user",
    "methods": {
      "getCompoundPriceFeed()": {
        "notice": "Gets the `COMPOUND_PRICE_FEED` variable"
      },
      "getCompoundWethToken()": {
        "notice": "Gets the `COMPOUND_WETH_TOKEN` variable"
      },
      "getIntegrationManager()": {
        "notice": "Gets the `INTEGRATION_MANAGER` variable"
      },
      "lend(address,bytes,bytes)": {
        "notice": "Lends an amount of a token to Compound"
      },
      "parseAssetsForAction(address,bytes4,bytes)": {
        "notice": "Parses the expected assets in a particular action"
      },
      "redeem(address,bytes,bytes)": {
        "notice": "Redeems an amount of cTokens from Compound"
      }
    },
    "notice": "Adapter for Compound <https://compound.finance/>",
    "version": 1
  },
  "storageLayout": {
    "storage": [],
    "types": null
  }
}