{
  "address": "0x5D42EBdBBa61412295D7b0302d6F50aC449Ddb4F",
  "abi": [
    {
      "inputs": [
        {
          "internalType": "address",
          "name": "_compoundComptroller",
          "type": "address"
        },
        {
          "internalType": "address",
          "name": "_compToken",
          "type": "address"
        },
        {
          "internalType": "address",
          "name": "_weth",
          "type": "address"
        }
      ],
      "stateMutability": "nonpayable",
      "type": "constructor"
    },
    {
      "anonymous": false,
      "inputs": [
        {
          "indexed": true,
          "internalType": "address",
          "name": "asset",
          "type": "address"
        },
        {
          "indexed": false,
          "internalType": "uint256",
          "name": "amount",
          "type": "uint256"
        }
      ],
      "name": "AssetBorrowed",
      "type": "event"
    },
    {
      "anonymous": false,
      "inputs": [
        {
          "indexed": true,
          "internalType": "address",
          "name": "asset",
          "type": "address"
        },
        {
          "indexed": false,
          "internalType": "uint256",
          "name": "amount",
          "type": "uint256"
        }
      ],
      "name": "BorrowedAssetRepaid",
      "type": "event"
    },
    {
      "anonymous": false,
      "inputs": [
        {
          "indexed": true,
          "internalType": "address",
          "name": "asset",
          "type": "address"
        },
        {
          "indexed": false,
          "internalType": "uint256",
          "name": "amount",
          "type": "uint256"
        }
      ],
      "name": "CollateralAssetAdded",
      "type": "event"
    },
    {
      "anonymous": false,
      "inputs": [
        {
          "indexed": true,
          "internalType": "address",
          "name": "asset",
          "type": "address"
        },
        {
          "indexed": false,
          "internalType": "uint256",
          "name": "amount",
          "type": "uint256"
        }
      ],
      "name": "CollateralAssetRemoved",
      "type": "event"
    },
    {
      "inputs": [
        {
          "internalType": "address",
          "name": "_asset",
          "type": "address"
        }
      ],
      "name": "assetIsCollateral",
      "outputs": [
        {
          "internalType": "bool",
          "name": "isCollateral",
          "type": "bool"
        }
      ],
      "stateMutability": "view",
      "type": "function"
    },
    {
      "inputs": [
        {
          "internalType": "address",
          "name": "_borrowedAsset",
          "type": "address"
        }
      ],
      "name": "getCTokenFromBorrowedAsset",
      "outputs": [
        {
          "internalType": "address",
          "name": "cToken_",
          "type": "address"
        }
      ],
      "stateMutability": "view",
      "type": "function"
    },
    {
      "inputs": [],
      "name": "getCompToken",
      "outputs": [
        {
          "internalType": "address",
          "name": "compToken_",
          "type": "address"
        }
      ],
      "stateMutability": "view",
      "type": "function"
    },
    {
      "inputs": [],
      "name": "getCompoundComptroller",
      "outputs": [
        {
          "internalType": "address",
          "name": "compoundComptroller_",
          "type": "address"
        }
      ],
      "stateMutability": "view",
      "type": "function"
    },
    {
      "inputs": [],
      "name": "getDebtAssets",
      "outputs": [
        {
          "internalType": "address[]",
          "name": "assets_",
          "type": "address[]"
        },
        {
          "internalType": "uint256[]",
          "name": "amounts_",
          "type": "uint256[]"
        }
      ],
      "stateMutability": "nonpayable",
      "type": "function"
    },
    {
      "inputs": [],
      "name": "getManagedAssets",
      "outputs": [
        {
          "internalType": "address[]",
          "name": "assets_",
          "type": "address[]"
        },
        {
          "internalType": "uint256[]",
          "name": "amounts_",
          "type": "uint256[]"
        }
      ],
      "stateMutability": "nonpayable",
      "type": "function"
    },
    {
      "inputs": [],
      "name": "getWethToken",
      "outputs": [
        {
          "internalType": "address",
          "name": "wethToken_",
          "type": "address"
        }
      ],
      "stateMutability": "view",
      "type": "function"
    },
    {
      "inputs": [
        {
          "internalType": "bytes",
          "name": "",
          "type": "bytes"
        }
      ],
      "name": "init",
      "outputs": [],
      "stateMutability": "nonpayable",
      "type": "function"
    },
    {
      "inputs": [
        {
          "internalType": "bytes",
          "name": "_actionData",
          "type": "bytes"
        }
      ],
      "name": "receiveCallFromVault",
      "outputs": [],
      "stateMutability": "nonpayable",
      "type": "function"
    }
  ],
  "transactionHash": "0xdf5e1020d10db14d5663a5e1d5384966d9b45ad4ff883e1b6953360da152a6cb",
  "args": [
    "0x3d9819210A31b4961b30EF54bE2aeD79B9c9Cd3B",
    "0xc00e94Cb662C3520282E6f5717214004A7f26888",
    "0xc02aaa39b223fe8d0a0e5c4f27ead9083c756cc2"
  ],
  "solcInputHash": "e128c99a7ad98ab17bfe5eac6103458b",
  "bytecode": "0x60e060405234801561001057600080fd5b506040516122c93803806122c98339818101604052606081101561003357600080fd5b50805160208201516040909201516001600160601b0319606092831b811660a05292821b8316608052901b1660c05260805160601c60a05160601c60c05160601c612232610097600039806103215250806104f052508061036652506122326000f3fe608060405234801561001057600080fd5b50600436106100935760003560e01c806380daddb81161006657806380daddb8146101a45780639e209ad114610245578063d889378e1461024d578063e5c23a9714610273578063ecd658b41461031757610093565b80634c252f91146100985780634ddf47d4146100bc5780634eeb4a161461016257806370a58ec61461019c575b600080fd5b6100a061031f565b604080516001600160a01b039092168252519081900360200190f35b610160600480360360208110156100d257600080fd5b810190602081018135600160201b8111156100ec57600080fd5b8201836020820111156100fe57600080fd5b803590602001918460018302840111600160201b8311171561011f57600080fd5b91908080601f016020809104026020016040519081016040528093929190818152602001838380828437600092019190915250929550610343945050505050565b005b6101886004803603602081101561017857600080fd5b50356001600160a01b0316610346565b604080519115158252519081900360200190f35b6100a0610364565b6101ac610388565b604051808060200180602001838103835285818151815260200191508051906020019060200280838360005b838110156101f05781810151838201526020016101d8565b50505050905001838103825284818151815260200191508051906020019060200280838360005b8381101561022f578181015183820152602001610217565b5050505090500194505050505060405180910390f35b6100a06104ee565b6100a06004803603602081101561026357600080fd5b50356001600160a01b0316610512565b6101606004803603602081101561028957600080fd5b810190602081018135600160201b8111156102a357600080fd5b8201836020820111156102b557600080fd5b803590602001918460018302840111600160201b831117156102d657600080fd5b91908080601f016020809104026020016040519081016040528093929190818152602001838380828437600092019190915250929550610530945050505050565b6101ac61088a565b7f000000000000000000000000000000000000000000000000000000000000000090565b50565b6001600160a01b031660009081526002602052604090205460ff1690565b7f000000000000000000000000000000000000000000000000000000000000000090565b60608060018054806020026020016040519081016040528092919081815260200182805480156103e157602002820191906000526020600020905b81546001600160a01b031681526001909101906020018083116103c3575b50506001549395505067ffffffffffffffff8311915050801561040357600080fd5b5060405190808252806020026020018201604052801561042d578160200160208202803683370190505b50905060005b82518110156104e95782818151811061044857fe5b60200260200101516001600160a01b03166370a08231306040518263ffffffff1660e01b815260040180826001600160a01b0316815260200191505060206040518083038186803b15801561049c57600080fd5b505afa1580156104b0573d6000803e3d6000fd5b505050506040513d60208110156104c657600080fd5b505182518390839081106104d657fe5b6020908102919091010152600101610433565b509091565b7f000000000000000000000000000000000000000000000000000000000000000090565b6001600160a01b039081166000908152600360205260409020541690565b6000606082806020019051604081101561054957600080fd5b815160208301805160405192949293830192919084600160201b82111561056f57600080fd5b90830190602082018581111561058457600080fd5b8251600160201b81118282018810171561059d57600080fd5b82525081516020918201929091019080838360005b838110156105ca5781810151838201526020016105b2565b50505050905090810190601f1680156105f75780820380516001836020036101000a031916815260200191505b5060405250505091509150606080606083806020019051606081101561061c57600080fd5b8101908080516040519392919084600160201b82111561063b57600080fd5b90830190602082018581111561065057600080fd5b82518660208202830111600160201b8211171561066c57600080fd5b82525081516020918201928201910280838360005b83811015610699578181015183820152602001610681565b5050505090500160405260200180516040519392919084600160201b8211156106c157600080fd5b9083019060208201858111156106d657600080fd5b82518660208202830111600160201b821117156106f257600080fd5b82525081516020918201928201910280838360005b8381101561071f578181015183820152602001610707565b5050505090500160405260200180516040519392919084600160201b82111561074757600080fd5b90830190602082018581111561075c57600080fd5b8251600160201b81118282018810171561077557600080fd5b82525081516020918201929091019080838360005b838110156107a257818101518382015260200161078a565b50505050905090810190601f1680156107cf5780820380516001836020036101000a031916815260200191505b50604052505050925092509250600060048111156107e957fe5b8514156107ff576107fa83836109f6565b610882565b6001851415610812576107fa8383610cda565b6002851415610826576107fa838383610f08565b600385141561083a576107fa8383836112ab565b600485141561084b576107fa6117ad565b60405162461bcd60e51b815260040180806020018281038252602681526020018061209e6026913960400191505060405180910390fd5b505050505050565b60608060008054806020026020016040519081016040528092919081815260200182805480156108e357602002820191906000526020600020905b81546001600160a01b031681526001909101906020018083116108c5575b50505050509150815167ffffffffffffffff8111801561090257600080fd5b5060405190808252806020026020018201604052801561092c578160200160208202803683370190505b50905060005b82518110156104e957600061095984838151811061094c57fe5b6020026020010151610512565b9050806001600160a01b03166395dd9193306040518263ffffffff1660e01b815260040180826001600160a01b0316815260200191505060206040518083038186803b1580156109a857600080fd5b505afa1580156109bc573d6000803e3d6000fd5b505050506040513d60208110156109d257600080fd5b505183518490849081106109e257fe5b602090810291909101015250600101610932565b6060610a006104ee565b6001600160a01b031663c2998238846040518263ffffffff1660e01b81526004018080602001828103825283818151815260200191508051906020019060200280838360005b83811015610a5e578181015183820152602001610a46565b5050505090500192505050600060405180830381600087803b158015610a8357600080fd5b505af1158015610a97573d6000803e3d6000fd5b505050506040513d6000823e601f3d908101601f191682016040526020811015610ac057600080fd5b8101908080516040519392919084600160201b821115610adf57600080fd5b908301906020820185811115610af457600080fd5b82518660208202830111600160201b82111715610b1057600080fd5b82525081516020918201928201910280838360005b83811015610b3d578181015183820152602001610b25565b50505050905001604052505050905060005b8351811015610cd457818181518110610b6457fe5b6020026020010151600014610baa5760405162461bcd60e51b81526004018080602001828103825260438152602001806120fd6043913960600191505060405180910390fd5b610bc6848281518110610bb957fe5b6020026020010151610346565b610c6557600160026000868481518110610bdc57fe5b60200260200101516001600160a01b03166001600160a01b0316815260200190815260200160002060006101000a81548160ff0219169083151502179055506001848281518110610c2957fe5b60209081029190910181015182546001810184556000938452919092200180546001600160a01b0319166001600160a01b039092169190911790555b838181518110610c7157fe5b60200260200101516001600160a01b03167fde38363fe42a9cae1654e31132bb3736927f007235cf41265805b96de98cf59f848381518110610caf57fe5b60200260200101516040518082815260200191505060405180910390a2600101610b4f565b50505050565b60005b8251811015610f0357610cf5838281518110610bb957fe5b610d305760405162461bcd60e51b8152600401808060200182810382526031815260200180611fe16031913960400191505060405180910390fd5b818181518110610d3c57fe5b6020026020010151838281518110610d5057fe5b60200260200101516001600160a01b03166370a08231306040518263ffffffff1660e01b815260040180826001600160a01b0316815260200191505060206040518083038186803b158015610da457600080fd5b505afa158015610db8573d6000803e3d6000fd5b505050506040513d6020811015610dce57600080fd5b50511415610e5057600060026000858481518110610de857fe5b60200260200101516001600160a01b03166001600160a01b0316815260200190815260200160002060006101000a81548160ff021916908315150217905550610e4e838281518110610e3657fe5b602002602001015160016118b590919063ffffffff16565b505b610e9433838381518110610e6057fe5b6020026020010151858481518110610e7457fe5b60200260200101516001600160a01b03166119ad9092919063ffffffff16565b828181518110610ea057fe5b60200260200101516001600160a01b03167ffb7cd2a565112408eb382485bb381cf1fc961858030a24b6d20de0a749c2f78a838381518110610ede57fe5b60200260200101516040518082815260200191505060405180910390a2600101610cdd565b505050565b6060818060200190516020811015610f1f57600080fd5b8101908080516040519392919084600160201b821115610f3e57600080fd5b908301906020820185811115610f5357600080fd5b82518660208202830111600160201b82111715610f6f57600080fd5b82525081516020918201928201910280838360005b83811015610f9c578181015183820152602001610f84565b50505050905001604052505050905060005b84518110156112a457818181518110610fc357fe5b60200260200101516001600160a01b031663c5ebeaec858381518110610fe557fe5b60200260200101516040518263ffffffff1660e01b815260040180828152602001915050602060405180830381600087803b15801561102357600080fd5b505af1158015611037573d6000803e3d6000fd5b505050506040513d602081101561104d57600080fd5b50511561108b5760405162461bcd60e51b81526004018080602001828103825260358152602001806120696035913960400191505060405180910390fd5b60006001600160a01b03166110a586838151811061094c57fe5b6001600160a01b0316141561116e578181815181106110c057fe5b6020026020010151600360008784815181106110d857fe5b60200260200101516001600160a01b03166001600160a01b0316815260200190815260200160002060006101000a8154816001600160a01b0302191690836001600160a01b03160217905550600085828151811061113257fe5b60209081029190910181015182546001810184556000938452919092200180546001600160a01b0319166001600160a01b039092169190911790555b61117661031f565b6001600160a01b031685828151811061118b57fe5b60200260200101516001600160a01b03161415611211576111aa61031f565b6001600160a01b031663d0e30db08583815181106111c457fe5b60200260200101516040518263ffffffff1660e01b81526004016000604051808303818588803b1580156111f757600080fd5b505af115801561120b573d6000803e3d6000fd5b50505050505b6112353385838151811061122157fe5b6020026020010151878481518110610e7457fe5b84818151811061124157fe5b60200260200101516001600160a01b03167f03c44a7ddb65ca5f1bbeffda35ba96457c370e957138d14005ff3e55551ab50f85838151811061127f57fe5b60200260200101516040518082815260200191505060405180910390a2600101610fae565b5050505050565b60608180602001905160208110156112c257600080fd5b8101908080516040519392919084600160201b8211156112e157600080fd5b9083019060208201858111156112f657600080fd5b82518660208202830111600160201b8211171561131257600080fd5b82525081516020918201928201910280838360005b8381101561133f578181015183820152602001611327565b50505050905001604052505050905060005b84518110156112a45760006001600160a01b031661137486838151811061094c57fe5b6001600160a01b031614156113ba5760405162461bcd60e51b81526004018080602001828103825260328152602001806121406032913960400191505060405180910390fd5b8381815181106113c657fe5b60200260200101518582815181106113da57fe5b60200260200101516001600160a01b03166370a08231306040518263ffffffff1660e01b815260040180826001600160a01b0316815260200191505060206040518083038186803b15801561142e57600080fd5b505afa158015611442573d6000803e3d6000fd5b505050506040513d602081101561145857600080fd5b505110156114975760405162461bcd60e51b815260040180806020018281038252602b81526020018061219c602b913960400191505060405180910390fd5b8181815181106114a357fe5b60200260200101516001600160a01b031663a6afed956040518163ffffffff1660e01b8152600401602060405180830381600087803b1580156114e557600080fd5b505af11580156114f9573d6000803e3d6000fd5b505050506040513d602081101561150f57600080fd5b50511561154d5760405162461bcd60e51b81526004018080602001828103825260398152602001806120c46039913960400191505060405180910390fd5b600082828151811061155b57fe5b60200260200101516001600160a01b03166395dd9193306040518263ffffffff1660e01b815260040180826001600160a01b0316815260200191505060206040518083038186803b1580156115af57600080fd5b505afa1580156115c3573d6000803e3d6000fd5b505050506040513d60208110156115d957600080fd5b5051855190915081908690849081106115ee57fe5b602002602001015110156116455761164083838151811061160b57fe5b602002602001015187848151811061161f57fe5b602002602001015187858151811061163357fe5b60200260200101516119ff565b61173d565b61167683838151811061165457fe5b602002602001015187848151811061166857fe5b6020026020010151836119ff565b6003600087848151811061168657fe5b60200260200101516001600160a01b03166001600160a01b0316815260200190815260200160002060006101000a8154906001600160a01b0302191690556116eb8683815181106116d357fe5b602002602001015160006118b590919063ffffffff16565b50808583815181106116f957fe5b6020026020010151111561173d5761173d336117318388868151811061171b57fe5b6020026020010151611ba090919063ffffffff16565b888581518110610e7457fe5b85828151811061174957fe5b60200260200101516001600160a01b03167fb3ef5936c6a45fc10d27f174d569533c42819c98975f3da26d592c63e94415fe86848151811061178757fe5b60200260200101516040518082815260200191505060405180910390a250600101611351565b6117b56104ee565b6001600160a01b031663e9af0292306040518263ffffffff1660e01b815260040180826001600160a01b03168152602001915050600060405180830381600087803b15801561180357600080fd5b505af1158015611817573d6000803e3d6000fd5b505050506000611825610364565b905061034333826001600160a01b03166370a08231306040518263ffffffff1660e01b815260040180826001600160a01b0316815260200191505060206040518083038186803b15801561187857600080fd5b505afa15801561188c573d6000803e3d6000fd5b505050506040513d60208110156118a257600080fd5b50516001600160a01b03841691906119ad565b8154600090815b818110156119a557836001600160a01b03168582815481106118da57fe5b6000918252602090912001546001600160a01b0316141561199d57600182038110156119685784600183038154811061190f57fe5b9060005260206000200160009054906101000a90046001600160a01b031685828154811061193957fe5b9060005260206000200160006101000a8154816001600160a01b0302191690836001600160a01b031602179055505b8480548061197257fe5b600082815260209020810160001990810180546001600160a01b0319169055019055600192506119a5565b6001016118bc565b505092915050565b604080516001600160a01b038416602482015260448082018490528251808303909101815260649091019091526020810180516001600160e01b031663a9059cbb60e01b179052610f03908490611bfd565b611a0761031f565b6001600160a01b0316826001600160a01b03161415611ade57611a2861031f565b6001600160a01b0316632e1a7d4d826040518263ffffffff1660e01b815260040180828152602001915050600060405180830381600087803b158015611a6d57600080fd5b505af1158015611a81573d6000803e3d6000fd5b50505050826001600160a01b0316634e4d9fea826040518263ffffffff1660e01b81526004016000604051808303818588803b158015611ac057600080fd5b505af1158015611ad4573d6000803e3d6000fd5b5050505050610f03565b611af26001600160a01b0383168483611cae565b826001600160a01b0316630e752702826040518263ffffffff1660e01b815260040180828152602001915050602060405180830381600087803b158015611b3857600080fd5b505af1158015611b4c573d6000803e3d6000fd5b505050506040513d6020811015611b6257600080fd5b505115610f035760405162461bcd60e51b81526004018080602001828103825260318152602001806120126031913960400191505060405180910390fd5b600082821115611bf7576040805162461bcd60e51b815260206004820152601e60248201527f536166654d6174683a207375627472616374696f6e206f766572666c6f770000604482015290519081900360640190fd5b50900390565b6060611c52826040518060400160405280602081526020017f5361666545524332303a206c6f772d6c6576656c2063616c6c206661696c6564815250856001600160a01b0316611dc19092919063ffffffff16565b805190915015610f0357808060200190516020811015611c7157600080fd5b5051610f035760405162461bcd60e51b815260040180806020018281038252602a815260200180612172602a913960400191505060405180910390fd5b801580611d34575060408051636eb1769f60e11b81523060048201526001600160a01b03848116602483015291519185169163dd62ed3e91604480820192602092909190829003018186803b158015611d0657600080fd5b505afa158015611d1a573d6000803e3d6000fd5b505050506040513d6020811015611d3057600080fd5b5051155b611d6f5760405162461bcd60e51b81526004018080602001828103825260368152602001806121c76036913960400191505060405180910390fd5b604080516001600160a01b038416602482015260448082018490528251808303909101815260649091019091526020810180516001600160e01b031663095ea7b360e01b179052610f03908490611bfd565b6060611dd08484600085611dda565b90505b9392505050565b606082471015611e1b5760405162461bcd60e51b81526004018080602001828103825260268152602001806120436026913960400191505060405180910390fd5b611e2485611f36565b611e75576040805162461bcd60e51b815260206004820152601d60248201527f416464726573733a2063616c6c20746f206e6f6e2d636f6e7472616374000000604482015290519081900360640190fd5b60006060866001600160a01b031685876040518082805190602001908083835b60208310611eb45780518252601f199092019160209182019101611e95565b6001836020036101000a03801982511681845116808217855250505050505090500191505060006040518083038185875af1925050503d8060008114611f16576040519150601f19603f3d011682016040523d82523d6000602084013e611f1b565b606091505b5091509150611f2b828286611f3c565b979650505050505050565b3b151590565b60608315611f4b575081611dd3565b825115611f5b5782518084602001fd5b8160405162461bcd60e51b81526004018080602001828103825283818151815260200191508051906020019080838360005b83811015611fa5578181015183820152602001611f8d565b50505050905090810190601f168015611fd25780820380516001836020036101000a031916815260200191505b509250505060405180910390fdfe5f5f72656d6f7665436f6c6c61746572616c4173736574733a204173736574206973206e6f7420636f6c6c61746572616c5f5f7265706179426f72726f77656441737365743a204572726f72207768696c65207265706179696e6720626f72726f77416464726573733a20696e73756666696369656e742062616c616e636520666f722063616c6c5f5f626f72726f774173736574733a2050726f626c656d207768696c6520626f72726f77696e672066726f6d20436f6d706f756e647265636569766543616c6c46726f6d5661756c743a20496e76616c696420616374696f6e49645f5f7265706179426f72726f7765644173736574733a204572726f72207768696c652063616c6c696e6720616363727565496e7465726573745f5f616464436f6c6c61746572616c4173736574733a204572726f72207768696c652063616c6c696e6720656e7465724d61726b657473206f6e20436f6d706f756e645f5f7265706179426f72726f7765644173736574733a20417373657420686173206e6f74206265656e20626f72726f7765645361666545524332303a204552433230206f7065726174696f6e20646964206e6f7420737563636565645f5f7265706179426f72726f7765644173736574733a20496e73756666696369656e742062616c616e63655361666545524332303a20617070726f76652066726f6d206e6f6e2d7a65726f20746f206e6f6e2d7a65726f20616c6c6f77616e6365a2646970667358221220d36337fb930ae674a157cb5e38081d4304f8f91c83dac9e0685c3acdd6a5a8c664736f6c634300060c0033",
  "devdoc": {
    "author": "Enzyme Council <security@enzyme.finance>",
    "kind": "dev",
    "methods": {
      "assetIsCollateral(address)": {
        "returns": {
          "isCollateral": "True if the asset is part of the collateral assets of the external position"
        }
      },
      "getCTokenFromBorrowedAsset(address)": {
        "params": {
          "_borrowedAsset": "The token for which to get the cToken"
        },
        "returns": {
          "cToken_": "The cToken"
        }
      },
      "getCompToken()": {
        "returns": {
          "compToken_": "The `COMP_TOKEN` variable value"
        }
      },
      "getCompoundComptroller()": {
        "returns": {
          "compoundComptroller_": "The `COMPOUND_COMPTROLLER` variable value"
        }
      },
      "getDebtAssets()": {
        "returns": {
          "amounts_": "Amount of assets in external",
          "assets_": "Assets with an active loan"
        }
      },
      "getManagedAssets()": {
        "returns": {
          "amounts_": "Amount of assets being used as collateral",
          "assets_": "Assets with balance > 0 that are being used as collateral"
        }
      },
      "getWethToken()": {
        "returns": {
          "wethToken_": "The `WETH_TOKEN` variable value"
        }
      },
      "init(bytes)": {
        "details": "Nothing to initialize for this contract"
      },
      "receiveCallFromVault(bytes)": {
        "params": {
          "_actionData": "Encoded data to execute the action"
        }
      }
    },
    "title": "CompoundDebtPositionLib Contract",
    "version": 1
  },
  "userdoc": {
    "kind": "user",
    "methods": {
      "assetIsCollateral(address)": {
        "notice": "Checks whether an asset is collateral"
      },
      "getCTokenFromBorrowedAsset(address)": {
        "notice": "Returns the cToken of a given borrowed asset"
      },
      "getCompToken()": {
        "notice": "Gets the `COMP_TOKEN` variable"
      },
      "getCompoundComptroller()": {
        "notice": "Gets the `COMPOUND_COMPTROLLER` variable"
      },
      "getDebtAssets()": {
        "notice": "Retrieves the borrowed assets and balances of the current external position"
      },
      "getManagedAssets()": {
        "notice": "Retrieves the collateral assets and balances of the current external position"
      },
      "getWethToken()": {
        "notice": "Gets the `WETH_TOKEN` variable"
      },
      "init(bytes)": {
        "notice": "Initializes the external position"
      },
      "receiveCallFromVault(bytes)": {
        "notice": "Receives and executes a call from the Vault"
      }
    },
    "notice": "An External Position library contract for Compound debt positions",
    "version": 1
  },
  "storageLayout": {
    "storage": [
      {
        "astId": 6140,
        "contract": "contracts/release/extensions/external-position-manager/external-positions/compound-debt/CompoundDebtPositionLib.sol:CompoundDebtPositionLib",
        "label": "borrowedAssets",
        "offset": 0,
        "slot": "0",
        "type": "t_array(t_address)dyn_storage"
      },
      {
        "astId": 6143,
        "contract": "contracts/release/extensions/external-position-manager/external-positions/compound-debt/CompoundDebtPositionLib.sol:CompoundDebtPositionLib",
        "label": "collateralAssets",
        "offset": 0,
        "slot": "1",
        "type": "t_array(t_address)dyn_storage"
      },
      {
        "astId": 6147,
        "contract": "contracts/release/extensions/external-position-manager/external-positions/compound-debt/CompoundDebtPositionLib.sol:CompoundDebtPositionLib",
        "label": "assetToIsCollateral",
        "offset": 0,
        "slot": "2",
        "type": "t_mapping(t_address,t_bool)"
      },
      {
        "astId": 6151,
        "contract": "contracts/release/extensions/external-position-manager/external-positions/compound-debt/CompoundDebtPositionLib.sol:CompoundDebtPositionLib",
        "label": "borrowedAssetToCToken",
        "offset": 0,
        "slot": "3",
        "type": "t_mapping(t_address,t_address)"
      }
    ],
    "types": {
      "t_address": {
        "encoding": "inplace",
        "label": "address",
        "numberOfBytes": "20"
      },
      "t_array(t_address)dyn_storage": {
        "base": "t_address",
        "encoding": "dynamic_array",
        "label": "address[]",
        "numberOfBytes": "32"
      },
      "t_bool": {
        "encoding": "inplace",
        "label": "bool",
        "numberOfBytes": "1"
      },
      "t_mapping(t_address,t_address)": {
        "encoding": "mapping",
        "key": "t_address",
        "label": "mapping(address => address)",
        "numberOfBytes": "32",
        "value": "t_address"
      },
      "t_mapping(t_address,t_bool)": {
        "encoding": "mapping",
        "key": "t_address",
        "label": "mapping(address => bool)",
        "numberOfBytes": "32",
        "value": "t_bool"
      }
    }
  }
}