{
  "address": "0xaca81583840B1bf2dDF6CDe824ada250C1936B4D",
  "abi": [
    {
      "inputs": [
        {
          "internalType": "address",
          "name": "_dispatcher",
          "type": "address"
        },
        {
          "internalType": "address",
          "name": "_gasRelayPaymasterFactory",
          "type": "address"
        }
      ],
      "stateMutability": "nonpayable",
      "type": "constructor"
    },
    {
      "anonymous": false,
      "inputs": [
        {
          "indexed": false,
          "internalType": "address",
          "name": "caller",
          "type": "address"
        }
      ],
      "name": "BuySharesOnBehalfCallerDeregistered",
      "type": "event"
    },
    {
      "anonymous": false,
      "inputs": [
        {
          "indexed": false,
          "internalType": "address",
          "name": "caller",
          "type": "address"
        }
      ],
      "name": "BuySharesOnBehalfCallerRegistered",
      "type": "event"
    },
    {
      "anonymous": false,
      "inputs": [
        {
          "indexed": false,
          "internalType": "address",
          "name": "comptrollerLib",
          "type": "address"
        }
      ],
      "name": "ComptrollerLibSet",
      "type": "event"
    },
    {
      "anonymous": false,
      "inputs": [
        {
          "indexed": true,
          "internalType": "address",
          "name": "creator",
          "type": "address"
        },
        {
          "indexed": false,
          "internalType": "address",
          "name": "comptrollerProxy",
          "type": "address"
        },
        {
          "indexed": true,
          "internalType": "address",
          "name": "denominationAsset",
          "type": "address"
        },
        {
          "indexed": false,
          "internalType": "uint256",
          "name": "sharesActionTimelock",
          "type": "uint256"
        }
      ],
      "name": "ComptrollerProxyDeployed",
      "type": "event"
    },
    {
      "anonymous": false,
      "inputs": [
        {
          "indexed": false,
          "internalType": "uint256",
          "name": "nextDeactivateFeeManagerGasLimit",
          "type": "uint256"
        },
        {
          "indexed": false,
          "internalType": "uint256",
          "name": "nextPayProtocolFeeGasLimit",
          "type": "uint256"
        }
      ],
      "name": "GasLimitsForDestructCallSet",
      "type": "event"
    },
    {
      "anonymous": false,
      "inputs": [
        {
          "indexed": true,
          "internalType": "address",
          "name": "creator",
          "type": "address"
        },
        {
          "indexed": true,
          "internalType": "address",
          "name": "vaultProxy",
          "type": "address"
        },
        {
          "indexed": false,
          "internalType": "address",
          "name": "comptrollerProxy",
          "type": "address"
        }
      ],
      "name": "MigrationRequestCreated",
      "type": "event"
    },
    {
      "anonymous": false,
      "inputs": [
        {
          "indexed": true,
          "internalType": "address",
          "name": "creator",
          "type": "address"
        },
        {
          "indexed": false,
          "internalType": "address",
          "name": "vaultProxy",
          "type": "address"
        },
        {
          "indexed": false,
          "internalType": "address",
          "name": "comptrollerProxy",
          "type": "address"
        }
      ],
      "name": "NewFundCreated",
      "type": "event"
    },
    {
      "anonymous": false,
      "inputs": [
        {
          "indexed": false,
          "internalType": "address",
          "name": "protocolFeeTracker",
          "type": "address"
        }
      ],
      "name": "ProtocolFeeTrackerSet",
      "type": "event"
    },
    {
      "anonymous": false,
      "inputs": [
        {
          "indexed": true,
          "internalType": "address",
          "name": "vaultProxy",
          "type": "address"
        },
        {
          "indexed": true,
          "internalType": "address",
          "name": "nextComptrollerProxy",
          "type": "address"
        }
      ],
      "name": "ReconfigurationRequestCancelled",
      "type": "event"
    },
    {
      "anonymous": false,
      "inputs": [
        {
          "indexed": true,
          "internalType": "address",
          "name": "creator",
          "type": "address"
        },
        {
          "indexed": true,
          "internalType": "address",
          "name": "vaultProxy",
          "type": "address"
        },
        {
          "indexed": false,
          "internalType": "address",
          "name": "comptrollerProxy",
          "type": "address"
        },
        {
          "indexed": false,
          "internalType": "uint256",
          "name": "executableTimestamp",
          "type": "uint256"
        }
      ],
      "name": "ReconfigurationRequestCreated",
      "type": "event"
    },
    {
      "anonymous": false,
      "inputs": [
        {
          "indexed": true,
          "internalType": "address",
          "name": "vaultProxy",
          "type": "address"
        },
        {
          "indexed": true,
          "internalType": "address",
          "name": "prevComptrollerProxy",
          "type": "address"
        },
        {
          "indexed": true,
          "internalType": "address",
          "name": "nextComptrollerProxy",
          "type": "address"
        }
      ],
      "name": "ReconfigurationRequestExecuted",
      "type": "event"
    },
    {
      "anonymous": false,
      "inputs": [
        {
          "indexed": false,
          "internalType": "uint256",
          "name": "nextTimelock",
          "type": "uint256"
        }
      ],
      "name": "ReconfigurationTimelockSet",
      "type": "event"
    },
    {
      "anonymous": false,
      "inputs": [],
      "name": "ReleaseIsLive",
      "type": "event"
    },
    {
      "anonymous": false,
      "inputs": [
        {
          "indexed": true,
          "internalType": "address",
          "name": "contractAddress",
          "type": "address"
        },
        {
          "indexed": false,
          "internalType": "bytes4",
          "name": "selector",
          "type": "bytes4"
        },
        {
          "indexed": false,
          "internalType": "bytes32",
          "name": "dataHash",
          "type": "bytes32"
        }
      ],
      "name": "VaultCallDeregistered",
      "type": "event"
    },
    {
      "anonymous": false,
      "inputs": [
        {
          "indexed": true,
          "internalType": "address",
          "name": "contractAddress",
          "type": "address"
        },
        {
          "indexed": false,
          "internalType": "bytes4",
          "name": "selector",
          "type": "bytes4"
        },
        {
          "indexed": false,
          "internalType": "bytes32",
          "name": "dataHash",
          "type": "bytes32"
        }
      ],
      "name": "VaultCallRegistered",
      "type": "event"
    },
    {
      "anonymous": false,
      "inputs": [
        {
          "indexed": false,
          "internalType": "address",
          "name": "vaultLib",
          "type": "address"
        }
      ],
      "name": "VaultLibSet",
      "type": "event"
    },
    {
      "inputs": [
        {
          "internalType": "address",
          "name": "_vaultProxy",
          "type": "address"
        },
        {
          "internalType": "bool",
          "name": "_bypassPrevReleaseFailure",
          "type": "bool"
        }
      ],
      "name": "cancelMigration",
      "outputs": [],
      "stateMutability": "nonpayable",
      "type": "function"
    },
    {
      "inputs": [
        {
          "internalType": "address",
          "name": "_vaultProxy",
          "type": "address"
        }
      ],
      "name": "cancelReconfiguration",
      "outputs": [],
      "stateMutability": "nonpayable",
      "type": "function"
    },
    {
      "inputs": [
        {
          "internalType": "address",
          "name": "_vaultProxy",
          "type": "address"
        },
        {
          "internalType": "address",
          "name": "_denominationAsset",
          "type": "address"
        },
        {
          "internalType": "uint256",
          "name": "_sharesActionTimelock",
          "type": "uint256"
        },
        {
          "internalType": "bytes",
          "name": "_feeManagerConfigData",
          "type": "bytes"
        },
        {
          "internalType": "bytes",
          "name": "_policyManagerConfigData",
          "type": "bytes"
        },
        {
          "internalType": "bool",
          "name": "_bypassPrevReleaseFailure",
          "type": "bool"
        }
      ],
      "name": "createMigrationRequest",
      "outputs": [
        {
          "internalType": "address",
          "name": "comptrollerProxy_",
          "type": "address"
        }
      ],
      "stateMutability": "nonpayable",
      "type": "function"
    },
    {
      "inputs": [
        {
          "internalType": "address",
          "name": "_fundOwner",
          "type": "address"
        },
        {
          "internalType": "string",
          "name": "_fundName",
          "type": "string"
        },
        {
          "internalType": "address",
          "name": "_denominationAsset",
          "type": "address"
        },
        {
          "internalType": "uint256",
          "name": "_sharesActionTimelock",
          "type": "uint256"
        },
        {
          "internalType": "bytes",
          "name": "_feeManagerConfigData",
          "type": "bytes"
        },
        {
          "internalType": "bytes",
          "name": "_policyManagerConfigData",
          "type": "bytes"
        }
      ],
      "name": "createNewFund",
      "outputs": [
        {
          "internalType": "address",
          "name": "comptrollerProxy_",
          "type": "address"
        },
        {
          "internalType": "address",
          "name": "vaultProxy_",
          "type": "address"
        }
      ],
      "stateMutability": "nonpayable",
      "type": "function"
    },
    {
      "inputs": [
        {
          "internalType": "address",
          "name": "_vaultProxy",
          "type": "address"
        },
        {
          "internalType": "address",
          "name": "_denominationAsset",
          "type": "address"
        },
        {
          "internalType": "uint256",
          "name": "_sharesActionTimelock",
          "type": "uint256"
        },
        {
          "internalType": "bytes",
          "name": "_feeManagerConfigData",
          "type": "bytes"
        },
        {
          "internalType": "bytes",
          "name": "_policyManagerConfigData",
          "type": "bytes"
        }
      ],
      "name": "createReconfigurationRequest",
      "outputs": [
        {
          "internalType": "address",
          "name": "comptrollerProxy_",
          "type": "address"
        }
      ],
      "stateMutability": "nonpayable",
      "type": "function"
    },
    {
      "inputs": [
        {
          "internalType": "address[]",
          "name": "_callers",
          "type": "address[]"
        }
      ],
      "name": "deregisterBuySharesOnBehalfCallers",
      "outputs": [],
      "stateMutability": "nonpayable",
      "type": "function"
    },
    {
      "inputs": [
        {
          "internalType": "address[]",
          "name": "_contracts",
          "type": "address[]"
        },
        {
          "internalType": "bytes4[]",
          "name": "_selectors",
          "type": "bytes4[]"
        },
        {
          "internalType": "bytes32[]",
          "name": "_dataHashes",
          "type": "bytes32[]"
        }
      ],
      "name": "deregisterVaultCalls",
      "outputs": [],
      "stateMutability": "nonpayable",
      "type": "function"
    },
    {
      "inputs": [
        {
          "internalType": "address",
          "name": "_vaultProxy",
          "type": "address"
        },
        {
          "internalType": "bool",
          "name": "_bypassPrevReleaseFailure",
          "type": "bool"
        }
      ],
      "name": "executeMigration",
      "outputs": [],
      "stateMutability": "nonpayable",
      "type": "function"
    },
    {
      "inputs": [
        {
          "internalType": "address",
          "name": "_vaultProxy",
          "type": "address"
        }
      ],
      "name": "executeReconfiguration",
      "outputs": [],
      "stateMutability": "nonpayable",
      "type": "function"
    },
    {
      "inputs": [],
      "name": "getComptrollerLib",
      "outputs": [
        {
          "internalType": "address",
          "name": "comptrollerLib_",
          "type": "address"
        }
      ],
      "stateMutability": "view",
      "type": "function"
    },
    {
      "inputs": [],
      "name": "getCreator",
      "outputs": [
        {
          "internalType": "address",
          "name": "creator_",
          "type": "address"
        }
      ],
      "stateMutability": "view",
      "type": "function"
    },
    {
      "inputs": [],
      "name": "getDispatcher",
      "outputs": [
        {
          "internalType": "address",
          "name": "dispatcher_",
          "type": "address"
        }
      ],
      "stateMutability": "view",
      "type": "function"
    },
    {
      "inputs": [],
      "name": "getGasLimitsForDestructCall",
      "outputs": [
        {
          "internalType": "uint256",
          "name": "deactivateFeeManagerGasLimit_",
          "type": "uint256"
        },
        {
          "internalType": "uint256",
          "name": "payProtocolFeeGasLimit_",
          "type": "uint256"
        }
      ],
      "stateMutability": "view",
      "type": "function"
    },
    {
      "inputs": [],
      "name": "getGasRelayPaymasterFactory",
      "outputs": [
        {
          "internalType": "address",
          "name": "gasRelayPaymasterFactory_",
          "type": "address"
        }
      ],
      "stateMutability": "view",
      "type": "function"
    },
    {
      "inputs": [],
      "name": "getGasRelayTrustedForwarder",
      "outputs": [
        {
          "internalType": "address",
          "name": "trustedForwarder_",
          "type": "address"
        }
      ],
      "stateMutability": "view",
      "type": "function"
    },
    {
      "inputs": [],
      "name": "getOwner",
      "outputs": [
        {
          "internalType": "address",
          "name": "owner_",
          "type": "address"
        }
      ],
      "stateMutability": "view",
      "type": "function"
    },
    {
      "inputs": [],
      "name": "getProtocolFeeTracker",
      "outputs": [
        {
          "internalType": "address",
          "name": "protocolFeeTracker_",
          "type": "address"
        }
      ],
      "stateMutability": "view",
      "type": "function"
    },
    {
      "inputs": [
        {
          "internalType": "address",
          "name": "_vaultProxy",
          "type": "address"
        }
      ],
      "name": "getReconfigurationRequestForVaultProxy",
      "outputs": [
        {
          "components": [
            {
              "internalType": "address",
              "name": "nextComptrollerProxy",
              "type": "address"
            },
            {
              "internalType": "uint256",
              "name": "executableTimestamp",
              "type": "uint256"
            }
          ],
          "internalType": "struct FundDeployer.ReconfigurationRequest",
          "name": "reconfigurationRequest_",
          "type": "tuple"
        }
      ],
      "stateMutability": "view",
      "type": "function"
    },
    {
      "inputs": [],
      "name": "getReconfigurationTimelock",
      "outputs": [
        {
          "internalType": "uint256",
          "name": "reconfigurationTimelock_",
          "type": "uint256"
        }
      ],
      "stateMutability": "view",
      "type": "function"
    },
    {
      "inputs": [],
      "name": "getVaultLib",
      "outputs": [
        {
          "internalType": "address",
          "name": "vaultLib_",
          "type": "address"
        }
      ],
      "stateMutability": "view",
      "type": "function"
    },
    {
      "inputs": [
        {
          "internalType": "address",
          "name": "_vaultProxy",
          "type": "address"
        }
      ],
      "name": "hasReconfigurationRequest",
      "outputs": [
        {
          "internalType": "bool",
          "name": "hasReconfigurationRequest_",
          "type": "bool"
        }
      ],
      "stateMutability": "view",
      "type": "function"
    },
    {
      "inputs": [
        {
          "internalType": "address",
          "name": "",
          "type": "address"
        },
        {
          "internalType": "address",
          "name": "",
          "type": "address"
        },
        {
          "internalType": "address",
          "name": "_nextComptrollerProxy",
          "type": "address"
        },
        {
          "internalType": "address",
          "name": "",
          "type": "address"
        }
      ],
      "name": "invokeMigrationInCancelHook",
      "outputs": [],
      "stateMutability": "nonpayable",
      "type": "function"
    },
    {
      "inputs": [
        {
          "internalType": "enum IMigrationHookHandler.MigrationOutHook",
          "name": "_hook",
          "type": "uint8"
        },
        {
          "internalType": "address",
          "name": "_vaultProxy",
          "type": "address"
        },
        {
          "internalType": "address",
          "name": "",
          "type": "address"
        },
        {
          "internalType": "address",
          "name": "",
          "type": "address"
        },
        {
          "internalType": "address",
          "name": "",
          "type": "address"
        }
      ],
      "name": "invokeMigrationOutHook",
      "outputs": [],
      "stateMutability": "nonpayable",
      "type": "function"
    },
    {
      "inputs": [
        {
          "internalType": "address",
          "name": "_who",
          "type": "address"
        }
      ],
      "name": "isAllowedBuySharesOnBehalfCaller",
      "outputs": [
        {
          "internalType": "bool",
          "name": "isAllowed_",
          "type": "bool"
        }
      ],
      "stateMutability": "view",
      "type": "function"
    },
    {
      "inputs": [
        {
          "internalType": "address",
          "name": "_contract",
          "type": "address"
        },
        {
          "internalType": "bytes4",
          "name": "_selector",
          "type": "bytes4"
        },
        {
          "internalType": "bytes32",
          "name": "_dataHash",
          "type": "bytes32"
        }
      ],
      "name": "isAllowedVaultCall",
      "outputs": [
        {
          "internalType": "bool",
          "name": "isAllowed_",
          "type": "bool"
        }
      ],
      "stateMutability": "view",
      "type": "function"
    },
    {
      "inputs": [
        {
          "internalType": "address",
          "name": "_contract",
          "type": "address"
        },
        {
          "internalType": "bytes4",
          "name": "_selector",
          "type": "bytes4"
        },
        {
          "internalType": "bytes32",
          "name": "_dataHash",
          "type": "bytes32"
        }
      ],
      "name": "isRegisteredVaultCall",
      "outputs": [
        {
          "internalType": "bool",
          "name": "isRegistered_",
          "type": "bool"
        }
      ],
      "stateMutability": "view",
      "type": "function"
    },
    {
      "inputs": [
        {
          "internalType": "address[]",
          "name": "_callers",
          "type": "address[]"
        }
      ],
      "name": "registerBuySharesOnBehalfCallers",
      "outputs": [],
      "stateMutability": "nonpayable",
      "type": "function"
    },
    {
      "inputs": [
        {
          "internalType": "address[]",
          "name": "_contracts",
          "type": "address[]"
        },
        {
          "internalType": "bytes4[]",
          "name": "_selectors",
          "type": "bytes4[]"
        },
        {
          "internalType": "bytes32[]",
          "name": "_dataHashes",
          "type": "bytes32[]"
        }
      ],
      "name": "registerVaultCalls",
      "outputs": [],
      "stateMutability": "nonpayable",
      "type": "function"
    },
    {
      "inputs": [],
      "name": "releaseIsLive",
      "outputs": [
        {
          "internalType": "bool",
          "name": "isLive_",
          "type": "bool"
        }
      ],
      "stateMutability": "view",
      "type": "function"
    },
    {
      "inputs": [
        {
          "internalType": "address",
          "name": "_comptrollerLib",
          "type": "address"
        }
      ],
      "name": "setComptrollerLib",
      "outputs": [],
      "stateMutability": "nonpayable",
      "type": "function"
    },
    {
      "inputs": [
        {
          "internalType": "uint32",
          "name": "_nextDeactivateFeeManagerGasLimit",
          "type": "uint32"
        },
        {
          "internalType": "uint32",
          "name": "_nextPayProtocolFeeGasLimit",
          "type": "uint32"
        }
      ],
      "name": "setGasLimitsForDestructCall",
      "outputs": [],
      "stateMutability": "nonpayable",
      "type": "function"
    },
    {
      "inputs": [
        {
          "internalType": "address",
          "name": "_protocolFeeTracker",
          "type": "address"
        }
      ],
      "name": "setProtocolFeeTracker",
      "outputs": [],
      "stateMutability": "nonpayable",
      "type": "function"
    },
    {
      "inputs": [
        {
          "internalType": "uint256",
          "name": "_nextTimelock",
          "type": "uint256"
        }
      ],
      "name": "setReconfigurationTimelock",
      "outputs": [],
      "stateMutability": "nonpayable",
      "type": "function"
    },
    {
      "inputs": [],
      "name": "setReleaseLive",
      "outputs": [],
      "stateMutability": "nonpayable",
      "type": "function"
    },
    {
      "inputs": [
        {
          "internalType": "address",
          "name": "_vaultLib",
          "type": "address"
        }
      ],
      "name": "setVaultLib",
      "outputs": [],
      "stateMutability": "nonpayable",
      "type": "function"
    }
  ],
  "transactionHash": "0x86246a626ee4b15223c8b8243902b002dffa64dd7f9b72ae07c257e3d0d7cf86",
  "args": [
    "0xc582Bc0317dbb0908203541971a358c44b1F3766",
    "0xefAB0Beb0A557E452b398035eA964948c750b2Fd"
  ],
  "solcInputHash": "e128c99a7ad98ab17bfe5eac6103458b",
  "bytecode": "0x60e06040523480156200001157600080fd5b5060405162004f9238038062004f9283398101604081905262000034916200011a565b6001600160601b0319606082901b166080526040516200005790602001620001d1565b604051602081830303815290604052805190602001207f5bf1898dd28c4d29f33c4c1bb9b8a7e2f6322847d70be63e8f89de024d08a66960001b14620000ba5760405162461bcd60e51b8152600401620000b190620001de565b60405180910390fd5b5033606090811b60a0521b6001600160601b03191660c0526002805463ffffffff60a01b191661249f60a51b1763ffffffff60c01b1916610c3560c61b1790556202a3006003556200022a565b8051620001148162000210565b92915050565b600080604083850312156200012e57600080fd5b60006200013c858562000107565b92505060206200014f8582860162000107565b9150509250929050565b600062000168601183620001f9565b706d6c6e2e7661756c7443616c6c2e616e7960781b815260110192915050565b600062000197602583620001f0565b7f636f6e7374727563746f723a20496e636f727265637420414e595f5641554c5481526417d0d0531360da1b602082015260400192915050565b6000620001148262000159565b60208082528101620001148162000188565b90815260200190565b919050565b60006001600160a01b03821662000114565b6200021b81620001fe565b81146200022757600080fd5b50565b60805160601c60a05160601c60c05160601c614d286200026a60003980610a5752806119be5280611a5b52508061060e5250806115e95250614d286000f3fe60806040523480156200001157600080fd5b5060043610620002445760003560e01c806372eb5f2b1162000141578063b8f8a84c11620000bd578063ebb3d5891162000087578063ebb3d58914620004c3578063ed9eeb7f14620004cd578063efcde9e314620004e4578063f0bb66ac14620004fb578063ff84571814620005225762000244565b8063b8f8a84c1462000465578063cebffb58146200047c578063d5189add1462000495578063df369ba714620004ac5762000244565b806393a2ecd9116200010b57806393a2ecd9146200041957806398f0d4bb14620004235780639c9d48da146200042d5780639f9df7851462000444578063ac259456146200045b5762000244565b806372eb5f2b14620003c8578063749cc8f514620003ee578063893d20e814620003f85780638c500ea314620004025762000244565b80634140d60711620001d1578063575403dc116200019b578063575403dc146200036f578063682cea1914620003865780636c579e5714620003905780636ea2114314620003a75780636f2b757414620003b15762000244565b80634140d60714620003135780634348ab62146200032a5780634bacc5f7146200034157806354391f0914620003585762000244565b806338b3eb1b116200021357806338b3eb1b14620002b45780633b30dce714620002cb5780633d0d4abb14620002e25780633f84c12c14620002fc5762000244565b80630d2fcd7614620002495780630ee2cb101462000262578063164dd2d4146200028457806336b4ea4f146200028e575b600080fd5b620002606200025a3660046200322f565b62000539565b005b6200026c6200060c565b6040516200027b919062004221565b60405180910390f35b6200026062000631565b620002a56200029f36600462003507565b62000778565b6040516200027b91906200437e565b62000260620002c5366004620034c8565b620007d1565b62000260620002dc366004620037e4565b620009af565b620002ec62000a2e565b6040516200027b92919062004616565b620002606200030d36600462003771565b62000a4c565b62000260620003243660046200322f565b62000b3f565b6200026c6200033b36600462003341565b62000bfd565b620002606200035236600462003645565b62000e8e565b620002a5620003693660046200322f565b62000fda565b620002606200038036600462003805565b62000ff8565b6200026c620010dd565b620002a5620003a13660046200322f565b620010ec565b6200026c6200110c565b62000260620003c236600462003645565b62001205565b620003df620003d93660046200322f565b62001336565b6040516200027b9190620045f6565b6200026c6200137d565b6200026c6200138c565b620002a56200041336600462003507565b620013f2565b6200026c6200148b565b620002a56200149a565b620002606200043e366004620034c8565b620014aa565b62000260620004553660046200322f565b62001529565b6200026c620015e7565b6200026c62000476366004620033fa565b6200160b565b62000486620018ab565b6040516200027b919062004606565b62000260620004a63660046200322f565b620018b1565b62000260620004bd36600462003279565b620019b3565b6200026c62001a59565b62000260620004de3660046200368a565b62001a7d565b62000260620004f53660046200368a565b62001d04565b620005126200050c3660046200355b565b62001f36565b6040516200027b92919062004231565b62000260620005333660046200322f565b62002464565b620005436200138c565b6001600160a01b0316336001600160a01b0316146200057f5760405162461bcd60e51b815260040162000576906200448e565b60405180910390fd5b620005896200148b565b6001600160a01b03811615620005b35760405162461bcd60e51b815260040162000576906200446a565b600080546001600160a01b0319166001600160a01b0384161790556040517f38e37d5fdf60e4358769c3b616594ad451626b1e023c65eaa1062116feadacf8906200060090849062004221565b60405180910390a15050565b7f00000000000000000000000000000000000000000000000000000000000000005b90565b6200063b6200060c565b6001600160a01b0316336001600160a01b0316146200066e5760405162461bcd60e51b81526004016200057690620045c0565b620006786200149a565b15620006985760405162461bcd60e51b81526004016200057690620044fa565b6000620006a46200148b565b6001600160a01b03161415620006ce5760405162461bcd60e51b8152600401620005769062004458565b6000620006da6200137d565b6001600160a01b03161415620007045760405162461bcd60e51b8152600401620005769062004542565b600062000710620010dd565b6001600160a01b031614156200073a5760405162461bcd60e51b8152600401620005769062004434565b6002805460ff60e01b1916600160e01b1790556040517f0356d4f8f825c1c2803d9e1f15724b6b8eea8992d04fad04da8bcbe6ff30296f90600090a1565b600060056000858560405160200162000793929190620041f7565b60408051601f1981840301815291815281516020928301208352828201939093529082016000908120858252909152205460ff1690505b9392505050565b81620007de813362002832565b6000620007ea62001a59565b90506000816001600160a01b0316637dad9fc8866040518263ffffffff1660e01b81526004016200081c919062004221565b60806040518083038186803b1580156200083557600080fd5b505afa1580156200084a573d6000803e3d6000fd5b505050506040513d601f19601f82011682018060405250810190620008709190620032e3565b50506040516338b3eb1b60e01b81529092506001600160a01b03841691506338b3eb1b90620008a6908890889060040162004340565b600060405180830381600087803b158015620008c157600080fd5b505af1158015620008d6573d6000803e3d6000fd5b505060405163ce5e84a360e01b81526001600160a01b038416925063ce5e84a3915062000909906001906004016200437e565b600060405180830381600087803b1580156200092457600080fd5b505af115801562000939573d6000803e3d6000fd5b50505050620009476200137d565b6001600160a01b0316630a48e041866040518263ffffffff1660e01b815260040162000974919062004221565b600060405180830381600087803b1580156200098f57600080fd5b505af1158015620009a4573d6000803e3d6000fd5b505050505050505050565b620009b96200138c565b6001600160a01b0316336001600160a01b031614620009ec5760405162461bcd60e51b815260040162000576906200448e565b60038190556040517fa12f25dbb69b970318f8cc02d37f8cfe5bb3fec3a55630fd7e419d6dc42f1d919062000a2390839062004606565b60405180910390a150565b60025463ffffffff600160a01b8204811691600160c01b9004169091565b336001600160a01b037f0000000000000000000000000000000000000000000000000000000000000000161462000a975760405162461bcd60e51b81526004016200057690620044d6565b600285600481111562000aa657fe5b1462000ab25762000b38565b6000846001600160a01b0316635a53e3486040518163ffffffff1660e01b815260040160206040518083038186803b15801562000aee57600080fd5b505afa15801562000b03573d6000803e3d6000fd5b505050506040513d601f19601f8201168201806040525081019062000b29919062003258565b905062000b3681620028d7565b505b5050505050565b62000b496200138c565b6001600160a01b0316336001600160a01b03161462000b7c5760405162461bcd60e51b815260040162000576906200448e565b62000b86620010dd565b6001600160a01b0381161562000bb05760405162461bcd60e51b815260040162000576906200446a565b600280546001600160a01b0319166001600160a01b0384161790556040517f1e01982aac1b1376985c41ed48c69e04ff4c75107bfe0b8a4827693d2ddba04e906200060090849062004221565b60008062000c0a62002919565b905062000c18898262002832565b3062000c2362001a59565b6001600160a01b0316633d7c74f88b6040518263ffffffff1660e01b815260040162000c50919062004221565b60206040518083038186803b15801562000c6957600080fd5b505afa15801562000c7e573d6000803e3d6000fd5b505050506040513d601f19601f8201168201806040525081019062000ca4919062003258565b6001600160a01b03161462000ccd5760405162461bcd60e51b81526004016200057690620044a0565b62000cd889620010ec565b1562000cf85760405162461bcd60e51b81526004016200057690620045ae565b62000d0581898962002962565b60405163397bfe5560e01b81529092506001600160a01b0383169063397bfe559062000d36908c9060040162004221565b600060405180830381600087803b15801562000d5157600080fd5b505af115801562000d66573d6000803e3d6000fd5b5050505062000de1828a88888080601f01602080910402602001604051908101604052809392919081815260200183838082843760009201919091525050604080516020601f8c018190048102820181019092528a815292508a915089908190840183828082843760009201919091525062002a5492505050565b600062000ded620018ab565b6040805180820182526001600160a01b038681168252429390930160208083018281528f86166000818152600690935291859020935184546001600160a01b031916908716178455516001909301929092559151919350918416907fbc4a5bba58d663a7e6752f3a72d2737260a60caeec28e0bf880ee25711f7fe1e9062000e7990879086906200435f565b60405180910390a35050979650505050505050565b62000e986200138c565b6001600160a01b0316336001600160a01b03161462000ecb5760405162461bcd60e51b815260040162000576906200448e565b60005b8181101562000fd55762000eff83838381811062000ee857fe5b90506020020160208101906200036991906200322f565b62000f1e5760405162461bcd60e51b8152600401620005769062004566565b60006004600085858581811062000f3157fe5b905060200201602081019062000f4891906200322f565b6001600160a01b031681526020810191909152604001600020805460ff19169115159190911790557fe49a33dc7a73a9833a0358b29ef8d5fecbfff419af0c4fd9219f57a7147009c683838381811062000f9e57fe5b905060200201602081019062000fb591906200322f565b60405162000fc4919062004221565b60405180910390a160010162000ece565b505050565b6001600160a01b031660009081526004602052604090205460ff1690565b620010026200138c565b6001600160a01b0316336001600160a01b031614620010355760405162461bcd60e51b815260040162000576906200448e565b60008263ffffffff1611801562001052575060008163ffffffff16115b620010715760405162461bcd60e51b815260040162000576906200451e565b6002805463ffffffff838116600160c01b0263ffffffff60c01b19918616600160a01b0263ffffffff60a01b1990931692909217161790556040517f09069ba7f5bded3e9f9f7d353e606ae6ee8496309d9cbe09241d1c741e1dceed9062000600908490849062004626565b6002546001600160a01b031690565b6001600160a01b0390811660009081526006602052604090205416151590565b600062001118620015e7565b6001600160a01b03166398a7c4c76040518163ffffffff1660e01b815260040160206040518083038186803b1580156200115157600080fd5b505afa15801562001166573d6000803e3d6000fd5b505050506040513d601f19601f820116820180604052508101906200118c919062003258565b6001600160a01b0316637da0a8776040518163ffffffff1660e01b815260040160206040518083038186803b158015620011c557600080fd5b505afa158015620011da573d6000803e3d6000fd5b505050506040513d601f19601f8201168201806040525081019062001200919062003258565b905090565b6200120f6200138c565b6001600160a01b0316336001600160a01b031614620012425760405162461bcd60e51b815260040162000576906200448e565b60005b8181101562000fd5576200125f83838381811062000ee857fe5b156200127f5760405162461bcd60e51b815260040162000576906200447c565b6001600460008585858181106200129257fe5b9050602002016020810190620012a991906200322f565b6001600160a01b031681526020810191909152604001600020805460ff19169115159190911790557f7b322f508cd6b0cc569822d5a028bb23e6698192d88a7b9669ab48fd68916eda838383818110620012ff57fe5b90506020020160208101906200131691906200322f565b60405162001325919062004221565b60405180910390a160010162001245565b6200134062003077565b506001600160a01b039081166000908152600660209081526040918290208251808401909352805490931682526001909201549181019190915290565b6001546001600160a01b031690565b6000620013986200149a565b620013af57620013a76200060c565b90506200062e565b620013b962001a59565b6001600160a01b031663893d20e86040518163ffffffff1660e01b815260040160206040518083038186803b158015620011c557600080fd5b60008084846040516020016200140a929190620041f7565b60408051601f19818403018152918152815160209283012060008181526005845282812087825290935291205490915060ff168062001482575060008181526005602090815260408083207f5bf1898dd28c4d29f33c4c1bb9b8a7e2f6322847d70be63e8f89de024d08a669845290915290205460ff165b95945050505050565b6000546001600160a01b031690565b600254600160e01b900460ff1690565b81620014b7813362002832565b620014c162001a59565b6001600160a01b0316639c9d48da84846040518363ffffffff1660e01b8152600401620014f092919062004340565b600060405180830381600087803b1580156200150b57600080fd5b505af115801562001520573d6000803e3d6000fd5b50505050505050565b620015336200138c565b6001600160a01b0316336001600160a01b031614620015665760405162461bcd60e51b815260040162000576906200448e565b620015706200137d565b6001600160a01b038116156200159a5760405162461bcd60e51b815260040162000576906200446a565b600180546001600160a01b0319166001600160a01b0384161790556040517f1a8919bc714742db0ed6eb86960768bdd5103c1dabb914651aaec5796907db15906200060090849062004221565b7f000000000000000000000000000000000000000000000000000000000000000090565b6000620016176200149a565b620016365760405162461bcd60e51b8152600401620005769062004530565b8862001643813362002832565b6200164d62001a59565b6001600160a01b031663d0449d3d8b6040518263ffffffff1660e01b81526004016200167a919062004221565b60206040518083038186803b1580156200169357600080fd5b505afa158015620016a8573d6000803e3d6000fd5b505050506040513d601f19601f82011682018060405250810190620016ce91906200372f565b15620016ee5760405162461bcd60e51b81526004016200057690620044e8565b620016fb338a8a62002962565b60405163397bfe5560e01b81529092506001600160a01b0383169063397bfe55906200172c908d9060040162004221565b600060405180830381600087803b1580156200174757600080fd5b505af11580156200175c573d6000803e3d6000fd5b50505050620017d7828b89898080601f01602080910402602001604051908101604052809392919081815260200183838082843760009201919091525050604080516020601f8d018190048102820181019092528b815292508b91508a908190840183828082843760009201919091525062002a5492505050565b620017e162001a59565b6001600160a01b031663d15f9b9c8b84620017fb620010dd565b876040518563ffffffff1660e01b81526004016200181d949392919062004250565b600060405180830381600087803b1580156200183857600080fd5b505af11580156200184d573d6000803e3d6000fd5b50505050896001600160a01b0316336001600160a01b03167f7cb609d1845028175b74ce1b27f0b41ba93711f8699a747463f0cf89c5c95b818460405162001896919062004221565b60405180910390a35098975050505050505050565b60035490565b80620018c781620018c162002919565b62002832565b6001600160a01b038083166000908152600660205260409020541680620019025760405162461bcd60e51b8152600401620005769062004422565b806001600160a01b031663e53a73b96040518163ffffffff1660e01b8152600401600060405180830381600087803b1580156200193e57600080fd5b505af115801562001953573d6000803e3d6000fd5b505050506001600160a01b0383811660008181526006602052604080822080546001600160a01b031916815560010182905551928416927f8eae645f408f18cb738736a49846a7ccb7a4ed8cdf9b960624ea965ffbe96e919190a3505050565b336001600160a01b037f00000000000000000000000000000000000000000000000000000000000000001614620019fe5760405162461bcd60e51b81526004016200057690620044d6565b816001600160a01b031663e53a73b96040518163ffffffff1660e01b8152600401600060405180830381600087803b15801562001a3a57600080fd5b505af115801562001a4f573d6000803e3d6000fd5b5050505050505050565b7f000000000000000000000000000000000000000000000000000000000000000090565b62001a876200138c565b6001600160a01b0316336001600160a01b03161462001aba5760405162461bcd60e51b815260040162000576906200448e565b8362001ada5760405162461bcd60e51b815260040162000576906200459c565b838214801562001aea5750805184145b62001b095760405162461bcd60e51b81526004016200057690620045e4565b60005b8481101562000b365762001b7c86868381811062001b2657fe5b905060200201602081019062001b3d91906200322f565b85858481811062001b4a57fe5b905060200201602081019062001b61919062003750565b84848151811062001b6e57fe5b602002602001015162000778565b62001b9b5760405162461bcd60e51b81526004016200057690620044b2565b60006005600088888581811062001bae57fe5b905060200201602081019062001bc591906200322f565b87878681811062001bd257fe5b905060200201602081019062001be9919062003750565b60405160200162001bfc929190620041f7565b604051602081830303815290604052805190602001208152602001908152602001600020600084848151811062001c2f57fe5b6020026020010151815260200190815260200160002060006101000a81548160ff02191690831515021790555085858281811062001c6957fe5b905060200201602081019062001c8091906200322f565b6001600160a01b03167f845c9ef356cc5570a54e9eb6be3e6d95a2aaad4c4c7d7b2c0cf8c7cdd78d614d85858481811062001cb757fe5b905060200201602081019062001cce919062003750565b84848151811062001cdb57fe5b602002602001015160405162001cf39291906200438e565b60405180910390a260010162001b0c565b62001d0e6200138c565b6001600160a01b0316336001600160a01b03161462001d415760405162461bcd60e51b815260040162000576906200448e565b8362001d615760405162461bcd60e51b8152600401620005769062004554565b838214801562001d715750805184145b62001d905760405162461bcd60e51b815260040162000576906200458a565b60005b8481101562000b365762001dad86868381811062001b2657fe5b1562001dcd5760405162461bcd60e51b8152600401620005769062004578565b60016005600088888581811062001de057fe5b905060200201602081019062001df791906200322f565b87878681811062001e0457fe5b905060200201602081019062001e1b919062003750565b60405160200162001e2e929190620041f7565b604051602081830303815290604052805190602001208152602001908152602001600020600084848151811062001e6157fe5b6020026020010151815260200190815260200160002060006101000a81548160ff02191690831515021790555085858281811062001e9b57fe5b905060200201602081019062001eb291906200322f565b6001600160a01b03167fb1fbe377864edcbf521713f906125bd99a3638c7a9e4087f6a70019686a741d185858481811062001ee957fe5b905060200201602081019062001f00919062003750565b84848151811062001f0d57fe5b602002602001015160405162001f259291906200438e565b60405180910390a260010162001d93565b60008062001f436200149a565b62001f625760405162461bcd60e51b8152600401620005769062004530565b62001f936040518060400160405280600d81526020016c66756e64204f776e65723a257360981b8152508c62002f36565b62001ff96040518060400160405280600c81526020016b66756e64206e616d653a257360a01b8152508b8b8080601f01602080910402602001604051908101604052809392919081815260200183838082843760009201919091525062002f7f92505050565b620020256040518060400160405280600881526020016761737365743a257360c01b8152508962002f36565b60006200203162002919565b905062002040818a8a62002962565b92506200206760405180606001604052806022815260200162004cab602291398462002f36565b6200207162001a59565b6001600160a01b03166322a0c08b62002089620010dd565b8e868f8f6040518663ffffffff1660e01b8152600401620020af9594939291906200428d565b602060405180830381600087803b158015620020ca57600080fd5b505af1158015620020df573d6000803e3d6000fd5b505050506040513d601f19601f8201168201806040525081019062002105919062003258565b9150620021486040518060400160405280601c81526020017f6372656174654e657746756e643a7661756c7450726f78795f3a2573000000008152508362002f36565b60008390506200217260405180606001604052806024815260200162004ae6602491398262002f36565b60405163397bfe5560e01b81526001600160a01b0382169063397bfe5590620021a090869060040162004221565b600060405180830381600087803b158015620021bb57600080fd5b505af1158015620021d0573d6000803e3d6000fd5b50505050620022146040518060400160405280601b81526020017f6372656174654e657746756e643a7365745661756c7450726f7879000000000081525062002fc8565b6200228b84848a8a8080601f01602080910402602001604051908101604052809392919081815260200183838082843760009201919091525050604080516020601f8e018190048102820181019092528c815292508c91508b908190840183828082843760009201919091525062002a5492505050565b620022af60405180606001604052806023815260200162004c226023913962002fc8565b60405163ce5e84a360e01b81526001600160a01b0382169063ce5e84a390620022de906000906004016200437e565b600060405180830381600087803b158015620022f957600080fd5b505af11580156200230e573d6000803e3d6000fd5b50505050620023366040518060600160405280602a815260200162004bf8602a913962002fc8565b620023406200137d565b6001600160a01b0316630a48e041846040518263ffffffff1660e01b81526004016200236d919062004221565b600060405180830381600087803b1580156200238857600080fd5b505af11580156200239d573d6000803e3d6000fd5b50505050620023c560405180606001604052806021815260200162004bb26021913962002fc8565b816001600160a01b03167f04dab3bc63cc7e4b52aa28a026644559e2937d78dbf7b81e26dfecdd8bbe33b984866040516200240292919062004231565b60405180910390a26200242f60405180606001604052806031815260200162004c45603191398562002f36565b620024546040518060600160405280602b815260200162004a95602b91398462002f36565b5050995099975050505050505050565b806200247481620018c162002919565b6200247e62003077565b620024898362001336565b80519091506001600160a01b0316620024b65760405162461bcd60e51b8152600401620005769062004446565b8060200151421015620024dd5760405162461bcd60e51b81526004016200057690620045d2565b30620024e862001a59565b6001600160a01b0316633d7c74f8856040518263ffffffff1660e01b815260040162002515919062004221565b60206040518083038186803b1580156200252e57600080fd5b505afa15801562002543573d6000803e3d6000fd5b505050506040513d601f19601f8201168201806040525081019062002569919062003258565b6001600160a01b031614620025925760405162461bcd60e51b815260040162000576906200450c565b6000836001600160a01b0316635a53e3486040518163ffffffff1660e01b815260040160206040518083038186803b158015620025ce57600080fd5b505afa158015620025e3573d6000803e3d6000fd5b505050506040513d601f19601f8201168201806040525081019062002609919062003258565b90506000816001600160a01b031663faf9096b6040518163ffffffff1660e01b815260040160206040518083038186803b1580156200264757600080fd5b505afa1580156200265c573d6000803e3d6000fd5b505050506040513d601f19601f8201168201806040525081019062002682919062003258565b90506200268f82620028d7565b8251604051633a0795ad60e11b81526001600160a01b0387169163740f2b5a91620026be919060040162004221565b600060405180830381600087803b158015620026d957600080fd5b505af1158015620026ee573d6000803e3d6000fd5b5050845160405163ce5e84a360e01b81526001600160a01b03909116925063ce5e84a3915062002724906001906004016200437e565b600060405180830381600087803b1580156200273f57600080fd5b505af115801562002754573d6000803e3d6000fd5b505050506001600160a01b03811615620027ce5782516040516373eecf4760e01b81526001600160a01b03909116906373eecf47906200279990849060040162004221565b600060405180830381600087803b158015620027b457600080fd5b505af1158015620027c9573d6000803e3d6000fd5b505050505b6001600160a01b0380861660008181526006602052604080822080546001600160a01b03191681556001018290558651905190841693861692917fa587629d93edeac6431610facaeec919890c8bc040ef849f720e42315148d7d991a45050505050565b604051633ef03e7560e11b81526001600160a01b03831690637de07cea906200286090849060040162004221565b60206040518083038186803b1580156200287957600080fd5b505afa1580156200288e573d6000803e3d6000fd5b505050506040513d601f19601f82011682018060405250810190620028b491906200372f565b620028d35760405162461bcd60e51b81526004016200057690620044c4565b5050565b600080620028e462000a2e565b60405163495abadb60e11b815291935091506001600160a01b038416906392b575b690620014f0908590859060040162004616565b600060183610801590620029475750620029326200110c565b6001600160a01b0316336001600160a01b0316145b156200295d575060131936013560601c6200062e565b503390565b6000606063399ae72460e01b8484604051602401620029839291906200435f565b60408051601f198184030181529190526020810180516001600160e01b03166001600160e01b031990931692909217909152905080620029c26200148b565b604051620029d0906200308e565b620029dd9291906200439e565b604051809103906000f080158015620029fa573d6000803e3d6000fd5b509150836001600160a01b0316856001600160a01b03167f19dbe5ac5bcfdc5074f78d1e907e1dce6f6e3b50a56b50d990926abaf9c55057848660405162002a449291906200435f565b60405180910390a3509392505050565b62002a7d60405180606001604052806035815260200162004c7660359139600084511162003012565b62002aa26040518060600160405280602c815260200162004b65602c91398562002f36565b62002ac760405180606001604052806026815260200162004ccd602691398462002f36565b81511562002bfa576000846001600160a01b031663f2d638266040518163ffffffff1660e01b815260040160206040518083038186803b15801562002b0b57600080fd5b505afa15801562002b20573d6000803e3d6000fd5b505050506040513d601f19601f8201168201806040525081019062002b46919062003258565b905062002b6d60405180606001604052806025815260200162004bd3602591398262002f36565b62002b9260405180606001604052806021815260200162004b91602191393362002f36565b60405163f067cc1160e01b81526001600160a01b0382169063f067cc119062002bc490889088908890600401620042db565b600060405180830381600087803b15801562002bdf57600080fd5b505af115801562002bf4573d6000803e3d6000fd5b50505050505b62002c3a6040518060400160405280602081526020017f5f5f636f6e666967757265457874656e73696f6e73206669727374207374657081525062002fc8565b836001600160a01b031663b3fc38e96040518163ffffffff1660e01b815260040160206040518083038186803b15801562002c7457600080fd5b505afa15801562002c89573d6000803e3d6000fd5b505050506040513d601f19601f8201168201806040525081019062002caf919062003258565b6001600160a01b031663f067cc1185856040518363ffffffff1660e01b815260040162002cde9291906200430e565b600060405180830381600087803b15801562002cf957600080fd5b505af115801562002d0e573d6000803e3d6000fd5b5050505062002d3660405180606001604052806030815260200162004b0a6030913962002fc8565b836001600160a01b031663e7c456906040518163ffffffff1660e01b815260040160206040518083038186803b15801562002d7057600080fd5b505afa15801562002d85573d6000803e3d6000fd5b505050506040513d601f19601f8201168201806040525081019062002dab919062003258565b6001600160a01b031663f067cc1185856040518363ffffffff1660e01b815260040162002dda9291906200430e565b600060405180830381600087803b15801562002df557600080fd5b505af115801562002e0a573d6000803e3d6000fd5b5050505062002e326040518060600160405280602b815260200162004b3a602b913962002fc8565b836001600160a01b031663d44ad6cb6040518163ffffffff1660e01b815260040160206040518083038186803b15801562002e6c57600080fd5b505afa15801562002e81573d6000803e3d6000fd5b505050506040513d601f19601f8201168201806040525081019062002ea7919062003258565b6001600160a01b031663f067cc118585846040518463ffffffff1660e01b815260040162002ed893929190620042db565b600060405180830381600087803b15801562002ef357600080fd5b505af115801562002f08573d6000803e3d6000fd5b5050505062002f3060405180606001604052806026815260200162004ac06026913962002fc8565b50505050565b620028d3828260405160240162002f4f9291906200439e565b60408051601f198184030181529190526020810180516001600160e01b031663319af33360e01b17905262003056565b620028d3828260405160240162002f98929190620043f9565b60408051601f198184030181529190526020810180516001600160e01b0316634b5c427760e01b17905262003056565b6200300f8160405160240162002fdf9190620043c2565b60408051601f198184030181529190526020810180516001600160e01b031663104c13eb60e21b17905262003056565b50565b620028d382826040516024016200302b929190620043d5565b60408051601f198184030181529190526020810180516001600160e01b031663c3b5563560e01b1790525b80516a636f6e736f6c652e6c6f67602083016000808483855afa5050505050565b604080518082019091526000808252602082015290565b610309806200478c83390190565b8035620030a9816200473a565b92915050565b8051620030a9816200473a565b60008083601f840112620030cf57600080fd5b5081356001600160401b03811115620030e757600080fd5b6020830191508360208202830111156200310057600080fd5b9250929050565b600082601f8301126200311957600080fd5b8135620031306200312a826200466c565b62004645565b915081818352602084019350602081019050838560208402820111156200315657600080fd5b60005b838110156200318657816200316f8882620031aa565b845250602092830192919091019060010162003159565b5050505092915050565b8035620030a98162004751565b8051620030a98162004751565b8035620030a9816200475c565b8035620030a98162004767565b60008083601f840112620031d757600080fd5b5081356001600160401b03811115620031ef57600080fd5b6020830191508360018202830111156200310057600080fd5b8035620030a98162004772565b8051620030a9816200475c565b8035620030a98162004780565b6000602082840312156200324257600080fd5b60006200325084846200309c565b949350505050565b6000602082840312156200326b57600080fd5b6000620032508484620030af565b600080600080608085870312156200329057600080fd5b60006200329e87876200309c565b9450506020620032b1878288016200309c565b9350506040620032c4878288016200309c565b9250506060620032d7878288016200309c565b91505092959194509250565b60008060008060808587031215620032fa57600080fd5b6000620033088787620030af565b94505060206200331b87828801620030af565b93505060406200332e87828801620030af565b9250506060620032d78782880162003215565b600080600080600080600060a0888a0312156200335d57600080fd5b60006200336b8a8a6200309c565b97505060206200337e8a828b016200309c565b9650506040620033918a828b01620031aa565b95505060608801356001600160401b03811115620033ae57600080fd5b620033bc8a828b01620031c4565b945094505060808801356001600160401b03811115620033db57600080fd5b620033e98a828b01620031c4565b925092505092959891949750929550565b60008060008060008060008060c0898b0312156200341757600080fd5b6000620034258b8b6200309c565b9850506020620034388b828c016200309c565b97505060406200344b8b828c01620031aa565b96505060608901356001600160401b038111156200346857600080fd5b620034768b828c01620031c4565b955095505060808901356001600160401b038111156200349557600080fd5b620034a38b828c01620031c4565b935093505060a0620034b88b828c0162003190565b9150509295985092959890939650565b60008060408385031215620034dc57600080fd5b6000620034ea85856200309c565b9250506020620034fd8582860162003190565b9150509250929050565b6000806000606084860312156200351d57600080fd5b60006200352b86866200309c565b93505060206200353e86828701620031b7565b92505060406200355186828701620031aa565b9150509250925092565b600080600080600080600080600060c08a8c0312156200357a57600080fd5b6000620035888c8c6200309c565b99505060208a01356001600160401b03811115620035a557600080fd5b620035b38c828d01620031c4565b98509850506040620035c88c828d016200309c565b9650506060620035db8c828d01620031aa565b95505060808a01356001600160401b03811115620035f857600080fd5b620036068c828d01620031c4565b945094505060a08a01356001600160401b038111156200362557600080fd5b620036338c828d01620031c4565b92509250509295985092959850929598565b600080602083850312156200365957600080fd5b82356001600160401b038111156200367057600080fd5b6200367e85828601620030bc565b92509250509250929050565b600080600080600060608688031215620036a357600080fd5b85356001600160401b03811115620036ba57600080fd5b620036c888828901620030bc565b955095505060208601356001600160401b03811115620036e757600080fd5b620036f588828901620030bc565b935093505060408601356001600160401b038111156200371457600080fd5b620037228882890162003107565b9150509295509295909350565b6000602082840312156200374257600080fd5b60006200325084846200319d565b6000602082840312156200376357600080fd5b6000620032508484620031b7565b600080600080600060a086880312156200378a57600080fd5b600062003798888862003208565b9550506020620037ab888289016200309c565b9450506040620037be888289016200309c565b9350506060620037d1888289016200309c565b925050608062003722888289016200309c565b600060208284031215620037f757600080fd5b6000620032508484620031aa565b600080604083850312156200381957600080fd5b600062003827858562003222565b9250506020620034fd8582860162003222565b62003845816200469a565b82525050565b620038456200385a826200469a565b62004716565b6200384581620046a7565b62003845816200062e565b6200384581620046ac565b620038456200389082620046ac565b6200062e565b6000620038a3826200468d565b620038af818562004691565b9350620038c1818560208601620046e7565b620038cc816200472a565b9093019392505050565b6000620038e4838562004691565b9350620038f3838584620046db565b620038cc836200472a565b60006200390d60488362004691565b7f63616e63656c5265636f6e66696775726174696f6e3a204e6f207265636f6e6681527f696775726174696f6e20726571756573742065786973747320666f72205f7661602082015267756c7450726f787960c01b604082015260600192915050565b60006200397f60238362004691565b7f73657452656c656173654c6976653a207661756c744c6962206973206e6f74208152621cd95d60ea1b602082015260400192915050565b6000620039c660498362004691565b7f657865637574655265636f6e66696775726174696f6e3a204e6f207265636f6e81527f66696775726174696f6e20726571756573742065786973747320666f72205f7660208201526861756c7450726f787960b81b604082015260600192915050565b600062003a3960298362004691565b7f73657452656c656173654c6976653a20636f6d7074726f6c6c65724c696220698152681cc81b9bdd081cd95d60ba1b602082015260400192915050565b600062003a86601f8362004691565b7f546869732076616c75652063616e206f6e6c7920626520736574206f6e636500815260200192915050565b600062003ac1603b8362004691565b7f72656769737465724275795368617265734f6e426568616c6643616c6c65727381527f3a2043616c6c657220616c726561647920726567697374657265640000000000602082015260400192915050565b600062003b22602e8362004691565b7f4f6e6c792074686520636f6e7472616374206f776e65722063616e2063616c6c81526d103a3434b990333ab731ba34b7b760911b602082015260400192915050565b600062003b74603c8362004691565b7f6372656174655265636f6e66696775726174696f6e526571756573743a20566181527f756c7450726f7879206e6f74206f6e20746869732072656c6561736500000000602082015260400192915050565b600062003bd560298362004691565b7f646572656769737465725661756c7443616c6c733a2043616c6c206e6f7420728152681959da5cdd195c995960ba1b602082015260400192915050565b600062003c2260338362004691565b7f4f6e6c792061207065726d697373696f6e6564206d69677261746f722063616e8152721031b0b636103a3434b990333ab731ba34b7b760691b602082015260400192915050565b600062003c7960268362004691565b7f4f6e6c7920446973706174636865722063616e2063616c6c20746869732066758152653731ba34b7b760d11b602082015260400192915050565b600062003cc360398362004691565b7f6372656174654d6967726174696f6e526571756573743a2041204d696772617481527f696f6e5265717565737420616c72656164792065786973747300000000000000602082015260400192915050565b600062003d24601c8362004691565b7f73657452656c656173654c6976653a20416c7265616479206c69766500000000815260200192915050565b600062003d5f60408362004691565b7f657865637574655265636f6e66696775726174696f6e3a205f7661756c74507281527f6f7879206973206e6f206c6f6e676572206f6e20746869732072656c65617365602082015260400192915050565b600062003dc060338362004691565b7f7365744761734c696d697473466f72446573747275637443616c6c3a205a65728152721bc81d985b1d59481b9bdd08185b1b1bddd959606a1b602082015260400192915050565b600062003e1760178362004691565b7f52656c65617365206973206e6f7420796574206c697665000000000000000000815260200192915050565b600062003e52602d8362004691565b7f73657452656c656173654c6976653a2070726f746f636f6c466565547261636b81526c195c881a5cc81b9bdd081cd95d609a1b602082015260400192915050565b600062003ea360248362004691565b7f72656769737465725661756c7443616c6c733a20456d707479205f636f6e74728152636163747360e01b602082015260400192915050565b6000620030a960008362004691565b600062003efa60398362004691565b7f646572656769737465724275795368617265734f6e426568616c6643616c6c6581527f72733a2043616c6c6572206e6f74207265676973746572656400000000000000602082015260400192915050565b600062003f5b602b8362004691565b7f72656769737465725661756c7443616c6c733a2043616c6c20616c726561647981526a081c9959da5cdd195c995960aa1b602082015260400192915050565b600062003faa60278362004691565b7f72656769737465725661756c7443616c6c733a20556e6576656e20696e7075748152662061727261797360c81b602082015260400192915050565b600062003ff560268362004691565b7f646572656769737465725661756c7443616c6c733a20456d707479205f636f6e81526574726163747360d01b602082015260400192915050565b60006200403f604e8362004691565b7f6372656174655265636f6e66696775726174696f6e526571756573743a20566181527f756c7450726f78792068617320612070656e64696e67207265636f6e6669677560208201526d1c985d1a5bdb881c995c5d595cdd60921b604082015260600192915050565b6000620040b760378362004691565b7f73657452656c656173654c6976653a204f6e6c79207468652063726561746f7281527f2063616e2063616c6c20746869732066756e6374696f6e000000000000000000602082015260400192915050565b60006200411860448362004691565b7f657865637574655265636f6e66696775726174696f6e3a20546865207265636f81527f6e66696775726174696f6e2074696d656c6f636b20686173206e6f7420656c616020820152631c1cd95960e21b604082015260600192915050565b60006200418660298362004691565b7f646572656769737465725661756c7443616c6c733a20556e6576656e20696e7081526875742061727261797360b81b602082015260400192915050565b80516040830190620041d784826200383a565b50602082015162002f3060208501826200386b565b6200384581620046ce565b60006200420582856200384b565b60148201915062004217828462003881565b5060040192915050565b60208101620030a982846200383a565b604081016200424182856200383a565b620007ca60208301846200383a565b608081016200426082876200383a565b6200426f60208301866200383a565b6200427e60408301856200383a565b62001482606083018462003860565b608081016200429d82886200383a565b620042ac60208301876200383a565b620042bb60408301866200383a565b8181036060830152620042d0818486620038d6565b979650505050505050565b60608101620042eb82866200383a565b620042fa60208301856200383a565b818103604083015262001482818462003896565b606081016200431e82856200383a565b6200432d60208301846200383a565b8181036040830152620032508162003edc565b604081016200435082856200383a565b620007ca602083018462003860565b604081016200436f82856200383a565b620007ca60208301846200386b565b60208101620030a9828462003860565b604081016200436f828562003876565b60408082528101620043b1818562003896565b9050620007ca60208301846200383a565b60208082528101620007ca818462003896565b60408082528101620043e8818562003896565b9050620007ca602083018462003860565b604080825281016200440c818562003896565b9050818103602083015262003250818462003896565b60208082528101620030a981620038fe565b60208082528101620030a98162003970565b60208082528101620030a981620039b7565b60208082528101620030a98162003a2a565b60208082528101620030a98162003a77565b60208082528101620030a98162003ab2565b60208082528101620030a98162003b13565b60208082528101620030a98162003b65565b60208082528101620030a98162003bc6565b60208082528101620030a98162003c13565b60208082528101620030a98162003c6a565b60208082528101620030a98162003cb4565b60208082528101620030a98162003d15565b60208082528101620030a98162003d50565b60208082528101620030a98162003db1565b60208082528101620030a98162003e08565b60208082528101620030a98162003e43565b60208082528101620030a98162003e94565b60208082528101620030a98162003eeb565b60208082528101620030a98162003f4c565b60208082528101620030a98162003f9b565b60208082528101620030a98162003fe6565b60208082528101620030a98162004030565b60208082528101620030a981620040a8565b60208082528101620030a98162004109565b60208082528101620030a98162004177565b60408101620030a98284620041c4565b60208101620030a982846200386b565b604081016200436f82856200386b565b60408101620046368285620041ec565b620007ca6020830184620041ec565b6040518181016001600160401b03811182821017156200466457600080fd5b604052919050565b60006001600160401b038211156200468357600080fd5b5060209081020190565b5190565b90815260200190565b6000620030a982620046b9565b151590565b6001600160e01b03191690565b6001600160a01b031690565b63ffffffff1690565b6000620030a982620046c5565b82818337506000910152565b60005b8381101562004704578181015183820152602001620046ea565b8381111562002f305750506000910152565b6000620030a9826000620030a98262004734565b601f01601f191690565b60601b90565b62004745816200469a565b81146200300f57600080fd5b6200474581620046a7565b62004745816200062e565b6200474581620046ac565b600581106200300f57600080fd5b6200474581620046c556fe60a060405234801561001057600080fd5b506040516103093803806103098339818101604052604081101561003357600080fd5b810190808051604051939291908464010000000082111561005357600080fd5b90830190602082018581111561006857600080fd5b825164010000000081118282018810171561008257600080fd5b82525081516020918201929091019080838360005b838110156100af578181015183820152602001610097565b50505050905090810190601f1680156100dc5780820380516001836020036101000a031916815260200191505b50604052602001805190602001909291905050508181806001600160a01b03166080816001600160a01b031660601b81525050807f360894a13ba1a3210667c828492db98dca3e2076cc3735a920a3ca505d382bbc5560006060826001600160a01b0316846040518082805190602001908083835b602083106101705780518252601f199092019160209182019101610151565b6001836020036101000a038019825116818451168082178552505050505050905001915050600060405180830381855af49150503d80600081146101d0576040519150601f19603f3d011682016040523d82523d6000602084013e6101d5565b606091505b50915091508181906102655760405162461bcd60e51b81526004018080602001828103825283818151815260200191508051906020019080838360005b8381101561022a578181015183820152602001610212565b50505050905090810190601f1680156102575780820380516001836020036101000a031916815260200191505b509250505060405180910390fd5b5050505050505060805160601c6083610286600039806006525060836000f3fe60806040527f00000000000000000000000000000000000000000000000000000000000000003660008037600080366000846127105a03f43d806000803e818015604857816000f35b816000fdfea2646970667358221220af3fa506b4585d3105feda3d44f2fc3c9f0ebf4c6a5e5924e3a86b53bce8828564736f6c634300060c00336372656174654e657746756e643a4e657746756e64437265617465643a7661756c7450726f78795f3a25735f5f636f6e666967757265457874656e73696f6e7320676574506f6c6963794d616e616765726372656174654e657746756e643a636f6d7074726f6c6c6572436f6e74726163743a25735f5f636f6e666967757265457874656e73696f6e732067657445787465726e616c506f736974696f6e4d616e616765725f5f636f6e666967757265457874656e73696f6e7320676574496e746567726174696f6e4d616e61676572205f5f636f6e666967757265457874656e73696f6e733a205f636f6d7074726f6c6c657250726f7879202573205f5f636f6e666967757265457874656e73696f6e733a2073656e6465722025736372656174654e657746756e643a4950726f746f636f6c466565547261636b6572205f5f636f6e666967757265457874656e73696f6e733a206665654d616e616765722025736372656174654e657746756e643a636f6d7074726f6c6c6572436f6e74726163742e61637469766174656372656174654e657746756e643a5f5f636f6e666967757265457874656e73696f6e736372656174654e657746756e643a4e657746756e64437265617465643a636f6d7074726f6c6c657250726f78795f3a25735f5f636f6e666967757265457874656e73696f6e73205f6665654d616e61676572436f6e666967446174612e6c656e6774683a25736372656174654e657746756e643a636f6d7074726f6c6c657250726f78795f3a2573205f5f636f6e666967757265457874656e73696f6e733a205f7661756c7450726f7879202573a26469706673582212200fbcc6b44fe84a4ce04fc1c5a1f592a7ba31220551fc06fde1304614f271279064736f6c634300060c0033",
  "devdoc": {
    "author": "Enzyme Council <security@enzyme.finance>",
    "kind": "dev",
    "methods": {
      "cancelMigration(address,bool)": {
        "params": {
          "_bypassPrevReleaseFailure": "True if should override a failure in the previous release while canceling migration",
          "_vaultProxy": "The VaultProxy for which to cancel migration"
        }
      },
      "cancelReconfiguration(address)": {
        "params": {
          "_vaultProxy": "The VaultProxy contract for which to cancel the reconfiguration request"
        }
      },
      "createMigrationRequest(address,address,uint256,bytes,bytes,bool)": {
        "params": {
          "_bypassPrevReleaseFailure": "True if should override a failure in the previous release while signaling migration",
          "_denominationAsset": "The contract address of the denomination asset for the fund",
          "_feeManagerConfigData": "Bytes data for the fees to be enabled for the fund",
          "_policyManagerConfigData": "Bytes data for the policies to be enabled for the fund",
          "_sharesActionTimelock": "The minimum number of seconds between any two \"shares actions\" (buying or selling shares) by the same user",
          "_vaultProxy": "The VaultProxy to migrate"
        },
        "returns": {
          "comptrollerProxy_": "The address of the ComptrollerProxy deployed during this action"
        }
      },
      "createNewFund(address,string,address,uint256,bytes,bytes)": {
        "params": {
          "_denominationAsset": "The contract address of the denomination asset for the fund",
          "_feeManagerConfigData": "Bytes data for the fees to be enabled for the fund",
          "_fundName": "The name of the fund",
          "_fundOwner": "The address of the owner for the fund",
          "_policyManagerConfigData": "Bytes data for the policies to be enabled for the fund",
          "_sharesActionTimelock": "The minimum number of seconds between any two \"shares actions\" (buying or selling shares) by the same user"
        },
        "returns": {
          "comptrollerProxy_": "The address of the ComptrollerProxy deployed during this action"
        }
      },
      "createReconfigurationRequest(address,address,uint256,bytes,bytes)": {
        "params": {
          "_denominationAsset": "The contract address of the denomination asset for the fund",
          "_feeManagerConfigData": "Bytes data for the fees to be enabled for the fund",
          "_policyManagerConfigData": "Bytes data for the policies to be enabled for the fund",
          "_sharesActionTimelock": "The minimum number of seconds between any two \"shares actions\" (buying or selling shares) by the same user",
          "_vaultProxy": "The VaultProxy to reconfigure"
        },
        "returns": {
          "comptrollerProxy_": "The address of the ComptrollerProxy deployed during this action"
        }
      },
      "deregisterBuySharesOnBehalfCallers(address[])": {
        "params": {
          "_callers": "The callers to deregister"
        }
      },
      "deregisterVaultCalls(address[],bytes4[],bytes32[])": {
        "details": "ANY_VAULT_CALL is a wildcard that allows any payload",
        "params": {
          "_contracts": "The contracts of the calls to de-register",
          "_dataHashes": "The keccak call data hashes of the calls to de-register",
          "_selectors": "The selectors of the calls to de-register"
        }
      },
      "executeMigration(address,bool)": {
        "params": {
          "_bypassPrevReleaseFailure": "True if should override a failure in the previous release while executing migration",
          "_vaultProxy": "The VaultProxy for which to execute the migration"
        }
      },
      "executeReconfiguration(address)": {
        "details": "ProtocolFeeTracker.initializeForVault() does not need to be included in a reconfiguration, as it refers to the vault and not the new ComptrollerProxy",
        "params": {
          "_vaultProxy": "The VaultProxy contract for which to execute the reconfiguration request"
        }
      },
      "getComptrollerLib()": {
        "returns": {
          "comptrollerLib_": "The `comptrollerLib` variable value"
        }
      },
      "getCreator()": {
        "returns": {
          "creator_": "The `CREATOR` variable value"
        }
      },
      "getDispatcher()": {
        "returns": {
          "dispatcher_": "The `DISPATCHER` variable value"
        }
      },
      "getGasLimitsForDestructCall()": {
        "returns": {
          "deactivateFeeManagerGasLimit_": "The amount of gas to forward to deactivate the FeeManager",
          "payProtocolFeeGasLimit_": "The amount of gas to forward to pay the protocol fee"
        }
      },
      "getGasRelayPaymasterFactory()": {
        "returns": {
          "gasRelayPaymasterFactory_": "The `GAS_RELAY_PAYMASTER_FACTORY` variable value"
        }
      },
      "getGasRelayTrustedForwarder()": {
        "returns": {
          "trustedForwarder_": "The trusted forwarder"
        }
      },
      "getOwner()": {
        "details": "The owner is initially the contract's creator, for convenience in setting up configuration. Ownership is handed-off when the creator calls setReleaseLive().",
        "returns": {
          "owner_": "The contract owner address"
        }
      },
      "getProtocolFeeTracker()": {
        "returns": {
          "protocolFeeTracker_": "The `protocolFeeTracker` variable value"
        }
      },
      "getReconfigurationRequestForVaultProxy(address)": {
        "params": {
          "_vaultProxy": "The VaultProxy instance"
        },
        "returns": {
          "reconfigurationRequest_": "The pending ReconfigurationRequest"
        }
      },
      "getReconfigurationTimelock()": {
        "returns": {
          "reconfigurationTimelock_": "The timelock value (in seconds)"
        }
      },
      "getVaultLib()": {
        "returns": {
          "vaultLib_": "The `vaultLib` variable value"
        }
      },
      "hasReconfigurationRequest(address)": {
        "params": {
          "_vaultProxy": "The VaultProxy instance"
        },
        "returns": {
          "hasReconfigurationRequest_": "True if a ReconfigurationRequest exists"
        }
      },
      "invokeMigrationInCancelHook(address,address,address,address)": {
        "params": {
          "_nextComptrollerProxy": "The ComptrollerProxy created on this release"
        }
      },
      "invokeMigrationOutHook(uint8,address,address,address,address)": {
        "params": {
          "_vaultProxy": "The VaultProxy being migrated"
        }
      },
      "isAllowedBuySharesOnBehalfCaller(address)": {
        "params": {
          "_who": "The account to check"
        },
        "returns": {
          "isAllowed_": "True if the account is an allowed caller"
        }
      },
      "isAllowedVaultCall(address,bytes4,bytes32)": {
        "details": "A vault call is allowed if the _dataHash is specifically allowed, or if any _dataHash is allowed",
        "params": {
          "_contract": "The contract of the call to check",
          "_dataHash": "The keccak call data hash of the call to check",
          "_selector": "The selector of the call to check"
        },
        "returns": {
          "isAllowed_": "True if the call is allowed"
        }
      },
      "isRegisteredVaultCall(address,bytes4,bytes32)": {
        "params": {
          "_contract": "The contract of the call to check",
          "_dataHash": "The keccak call data hash of the call to check",
          "_selector": "The selector of the call to check"
        },
        "returns": {
          "isRegistered_": "True if the call is registered"
        }
      },
      "registerBuySharesOnBehalfCallers(address[])": {
        "details": "Validate that each registered caller only forwards requests to buy shares that originate from the same _buyer passed into buySharesOnBehalf(). This is critical to the integrity of VaultProxy.freelyTransferableShares.",
        "params": {
          "_callers": "The allowed callers"
        }
      },
      "registerVaultCalls(address[],bytes4[],bytes32[])": {
        "details": "ANY_VAULT_CALL is a wildcard that allows any payload",
        "params": {
          "_contracts": "The contracts of the calls to register",
          "_dataHashes": "The keccak call data hashes of the calls to register",
          "_selectors": "The selectors of the calls to register"
        }
      },
      "releaseIsLive()": {
        "returns": {
          "isLive_": "The `isLive` variable value"
        }
      },
      "setComptrollerLib(address)": {
        "params": {
          "_comptrollerLib": "The ComptrollerLib contract address"
        }
      },
      "setGasLimitsForDestructCall(uint32,uint32)": {
        "params": {
          "_nextDeactivateFeeManagerGasLimit": "The amount of gas to forward to deactivate the FeeManager",
          "_nextPayProtocolFeeGasLimit": "The amount of gas to forward to pay the protocol fee"
        }
      },
      "setProtocolFeeTracker(address)": {
        "params": {
          "_protocolFeeTracker": "The ProtocolFeeTracker contract address"
        }
      },
      "setReconfigurationTimelock(uint256)": {
        "params": {
          "_nextTimelock": "The number of seconds for the new timelock"
        }
      },
      "setReleaseLive()": {
        "details": "A live release allows funds to be created and migrated once this contract is set as the Dispatcher.currentFundDeployer"
      },
      "setVaultLib(address)": {
        "params": {
          "_vaultLib": "The VaultLib contract address"
        }
      }
    },
    "title": "FundDeployer Contract",
    "version": 1
  },
  "userdoc": {
    "kind": "user",
    "methods": {
      "cancelMigration(address,bool)": {
        "notice": "Cancels fund migration"
      },
      "cancelReconfiguration(address)": {
        "notice": "Cancels a pending reconfiguration request"
      },
      "createMigrationRequest(address,address,uint256,bytes,bytes,bool)": {
        "notice": "Creates a fully-configured ComptrollerProxy instance for a VaultProxy and signals the migration process"
      },
      "createNewFund(address,string,address,uint256,bytes,bytes)": {
        "notice": "Creates a new fund"
      },
      "createReconfigurationRequest(address,address,uint256,bytes,bytes)": {
        "notice": "Creates a fully-configured ComptrollerProxy instance for a VaultProxy and signals the reconfiguration process"
      },
      "deregisterBuySharesOnBehalfCallers(address[])": {
        "notice": "Deregisters allowed callers of ComptrollerProxy.buySharesOnBehalf()"
      },
      "deregisterVaultCalls(address[],bytes4[],bytes32[])": {
        "notice": "De-registers allowed arbitrary contract calls that can be sent from the VaultProxy"
      },
      "executeMigration(address,bool)": {
        "notice": "Executes fund migration"
      },
      "executeReconfiguration(address)": {
        "notice": "Executes a pending reconfiguration request"
      },
      "getComptrollerLib()": {
        "notice": "Gets the `comptrollerLib` variable value"
      },
      "getCreator()": {
        "notice": "Gets the `CREATOR` variable value"
      },
      "getDispatcher()": {
        "notice": "Gets the `DISPATCHER` variable value"
      },
      "getGasLimitsForDestructCall()": {
        "notice": "Gets the amounts of gas to forward to each of the ComptrollerLib.destructActivated() external calls"
      },
      "getGasRelayPaymasterFactory()": {
        "notice": "Gets the `GAS_RELAY_PAYMASTER_FACTORY` variable"
      },
      "getGasRelayTrustedForwarder()": {
        "notice": "Gets the trusted forwarder for GSN relaying"
      },
      "getOwner()": {
        "notice": "Gets the current owner of the contract"
      },
      "getProtocolFeeTracker()": {
        "notice": "Gets the `protocolFeeTracker` variable value"
      },
      "getReconfigurationRequestForVaultProxy(address)": {
        "notice": "Gets the pending ReconfigurationRequest for a given VaultProxy"
      },
      "getReconfigurationTimelock()": {
        "notice": "Gets the amount of time that must pass before executing a ReconfigurationRequest"
      },
      "getVaultLib()": {
        "notice": "Gets the `vaultLib` variable value"
      },
      "hasReconfigurationRequest(address)": {
        "notice": "Checks whether a ReconfigurationRequest exists for a given VaultProxy"
      },
      "invokeMigrationInCancelHook(address,address,address,address)": {
        "notice": "Executes logic when a migration is canceled on the Dispatcher"
      },
      "invokeMigrationOutHook(uint8,address,address,address,address)": {
        "notice": "Allows \"hooking into\" specific moments in the migration pipeline to execute arbitrary logic during a migration out of this release"
      },
      "isAllowedBuySharesOnBehalfCaller(address)": {
        "notice": "Checks if an account is an allowed caller of ComptrollerProxy.buySharesOnBehalf()"
      },
      "isAllowedVaultCall(address,bytes4,bytes32)": {
        "notice": "Checks if a contract call is allowed"
      },
      "isRegisteredVaultCall(address,bytes4,bytes32)": {
        "notice": "Checks if a contract call is registered"
      },
      "registerBuySharesOnBehalfCallers(address[])": {
        "notice": "Registers allowed callers of ComptrollerProxy.buySharesOnBehalf()"
      },
      "registerVaultCalls(address[],bytes4[],bytes32[])": {
        "notice": "Registers allowed arbitrary contract calls that can be sent from the VaultProxy"
      },
      "releaseIsLive()": {
        "notice": "Gets the `isLive` variable value"
      },
      "setComptrollerLib(address)": {
        "notice": "Sets the ComptrollerLib"
      },
      "setGasLimitsForDestructCall(uint32,uint32)": {
        "notice": "Sets the amounts of gas to forward to each of the ComptrollerLib.destructActivated() external calls"
      },
      "setProtocolFeeTracker(address)": {
        "notice": "Sets the ProtocolFeeTracker"
      },
      "setReconfigurationTimelock(uint256)": {
        "notice": "Sets a new reconfiguration timelock"
      },
      "setReleaseLive()": {
        "notice": "Sets the release as live"
      },
      "setVaultLib(address)": {
        "notice": "Sets the VaultLib"
      }
    },
    "notice": "The top-level contract of the release. It primarily coordinates fund deployment and fund migration, but it is also deferred to for contract access control and for allowed calls that can be made with a fund's VaultProxy as the msg.sender.",
    "version": 1
  },
  "storageLayout": {
    "storage": [
      {
        "astId": 8426,
        "contract": "contracts/release/core/fund-deployer/FundDeployer.sol:FundDeployer",
        "label": "comptrollerLib",
        "offset": 0,
        "slot": "0",
        "type": "t_address"
      },
      {
        "astId": 8428,
        "contract": "contracts/release/core/fund-deployer/FundDeployer.sol:FundDeployer",
        "label": "protocolFeeTracker",
        "offset": 0,
        "slot": "1",
        "type": "t_address"
      },
      {
        "astId": 8430,
        "contract": "contracts/release/core/fund-deployer/FundDeployer.sol:FundDeployer",
        "label": "vaultLib",
        "offset": 0,
        "slot": "2",
        "type": "t_address"
      },
      {
        "astId": 8432,
        "contract": "contracts/release/core/fund-deployer/FundDeployer.sol:FundDeployer",
        "label": "gasLimitForDestructCallToDeactivateFeeManager",
        "offset": 20,
        "slot": "2",
        "type": "t_uint32"
      },
      {
        "astId": 8434,
        "contract": "contracts/release/core/fund-deployer/FundDeployer.sol:FundDeployer",
        "label": "gasLimitForDestructCallToPayProtocolFee",
        "offset": 24,
        "slot": "2",
        "type": "t_uint32"
      },
      {
        "astId": 8436,
        "contract": "contracts/release/core/fund-deployer/FundDeployer.sol:FundDeployer",
        "label": "isLive",
        "offset": 28,
        "slot": "2",
        "type": "t_bool"
      },
      {
        "astId": 8438,
        "contract": "contracts/release/core/fund-deployer/FundDeployer.sol:FundDeployer",
        "label": "reconfigurationTimelock",
        "offset": 0,
        "slot": "3",
        "type": "t_uint256"
      },
      {
        "astId": 8442,
        "contract": "contracts/release/core/fund-deployer/FundDeployer.sol:FundDeployer",
        "label": "acctToIsAllowedBuySharesOnBehalfCaller",
        "offset": 0,
        "slot": "4",
        "type": "t_mapping(t_address,t_bool)"
      },
      {
        "astId": 8448,
        "contract": "contracts/release/core/fund-deployer/FundDeployer.sol:FundDeployer",
        "label": "vaultCallToPayloadToIsAllowed",
        "offset": 0,
        "slot": "5",
        "type": "t_mapping(t_bytes32,t_mapping(t_bytes32,t_bool))"
      },
      {
        "astId": 8452,
        "contract": "contracts/release/core/fund-deployer/FundDeployer.sol:FundDeployer",
        "label": "vaultProxyToReconfigurationRequest",
        "offset": 0,
        "slot": "6",
        "type": "t_mapping(t_address,t_struct(ReconfigurationRequest)8417_storage)"
      }
    ],
    "types": {
      "t_address": {
        "encoding": "inplace",
        "label": "address",
        "numberOfBytes": "20"
      },
      "t_bool": {
        "encoding": "inplace",
        "label": "bool",
        "numberOfBytes": "1"
      },
      "t_bytes32": {
        "encoding": "inplace",
        "label": "bytes32",
        "numberOfBytes": "32"
      },
      "t_mapping(t_address,t_bool)": {
        "encoding": "mapping",
        "key": "t_address",
        "label": "mapping(address => bool)",
        "numberOfBytes": "32",
        "value": "t_bool"
      },
      "t_mapping(t_address,t_struct(ReconfigurationRequest)8417_storage)": {
        "encoding": "mapping",
        "key": "t_address",
        "label": "mapping(address => struct FundDeployer.ReconfigurationRequest)",
        "numberOfBytes": "32",
        "value": "t_struct(ReconfigurationRequest)8417_storage"
      },
      "t_mapping(t_bytes32,t_bool)": {
        "encoding": "mapping",
        "key": "t_bytes32",
        "label": "mapping(bytes32 => bool)",
        "numberOfBytes": "32",
        "value": "t_bool"
      },
      "t_mapping(t_bytes32,t_mapping(t_bytes32,t_bool))": {
        "encoding": "mapping",
        "key": "t_bytes32",
        "label": "mapping(bytes32 => mapping(bytes32 => bool))",
        "numberOfBytes": "32",
        "value": "t_mapping(t_bytes32,t_bool)"
      },
      "t_struct(ReconfigurationRequest)8417_storage": {
        "encoding": "inplace",
        "label": "struct FundDeployer.ReconfigurationRequest",
        "members": [
          {
            "astId": 8414,
            "contract": "contracts/release/core/fund-deployer/FundDeployer.sol:FundDeployer",
            "label": "nextComptrollerProxy",
            "offset": 0,
            "slot": "0",
            "type": "t_address"
          },
          {
            "astId": 8416,
            "contract": "contracts/release/core/fund-deployer/FundDeployer.sol:FundDeployer",
            "label": "executableTimestamp",
            "offset": 0,
            "slot": "1",
            "type": "t_uint256"
          }
        ],
        "numberOfBytes": "64"
      },
      "t_uint256": {
        "encoding": "inplace",
        "label": "uint256",
        "numberOfBytes": "32"
      },
      "t_uint32": {
        "encoding": "inplace",
        "label": "uint32",
        "numberOfBytes": "4"
      }
    }
  }
}