{
  "address": "0xe70f935c32dA4dB13e7876795f1e175465e6458e",
  "abi": [
    {
      "inputs": [
        {
          "internalType": "address",
          "name": "_fundDeployer",
          "type": "address"
        },
        {
          "internalType": "address",
          "name": "_policyManager",
          "type": "address"
        },
        {
          "internalType": "address",
          "name": "_valueInterpreter",
          "type": "address"
        }
      ],
      "stateMutability": "nonpayable",
      "type": "constructor"
    },
    {
      "anonymous": false,
      "inputs": [
        {
          "indexed": true,
          "internalType": "address",
          "name": "comptrollerProxy",
          "type": "address"
        },
        {
          "indexed": false,
          "internalType": "address",
          "name": "caller",
          "type": "address"
        },
        {
          "indexed": true,
          "internalType": "address",
          "name": "adapter",
          "type": "address"
        },
        {
          "indexed": true,
          "internalType": "bytes4",
          "name": "selector",
          "type": "bytes4"
        },
        {
          "indexed": false,
          "internalType": "bytes",
          "name": "integrationData",
          "type": "bytes"
        },
        {
          "indexed": false,
          "internalType": "address[]",
          "name": "incomingAssets",
          "type": "address[]"
        },
        {
          "indexed": false,
          "internalType": "uint256[]",
          "name": "incomingAssetAmounts",
          "type": "uint256[]"
        },
        {
          "indexed": false,
          "internalType": "address[]",
          "name": "spendAssets",
          "type": "address[]"
        },
        {
          "indexed": false,
          "internalType": "uint256[]",
          "name": "spendAssetAmounts",
          "type": "uint256[]"
        }
      ],
      "name": "CallOnIntegrationExecutedForFund",
      "type": "event"
    },
    {
      "anonymous": false,
      "inputs": [
        {
          "indexed": true,
          "internalType": "address",
          "name": "comptrollerProxy",
          "type": "address"
        },
        {
          "indexed": true,
          "internalType": "address",
          "name": "vaultProxy",
          "type": "address"
        }
      ],
      "name": "ValidatedVaultProxySetForFund",
      "type": "event"
    },
    {
      "inputs": [
        {
          "internalType": "bool",
          "name": "",
          "type": "bool"
        }
      ],
      "name": "activateForFund",
      "outputs": [],
      "stateMutability": "nonpayable",
      "type": "function"
    },
    {
      "inputs": [],
      "name": "deactivateForFund",
      "outputs": [],
      "stateMutability": "nonpayable",
      "type": "function"
    },
    {
      "inputs": [],
      "name": "getFundDeployer",
      "outputs": [
        {
          "internalType": "address",
          "name": "fundDeployer_",
          "type": "address"
        }
      ],
      "stateMutability": "view",
      "type": "function"
    },
    {
      "inputs": [],
      "name": "getOwner",
      "outputs": [
        {
          "internalType": "address",
          "name": "owner_",
          "type": "address"
        }
      ],
      "stateMutability": "view",
      "type": "function"
    },
    {
      "inputs": [],
      "name": "getPolicyManager",
      "outputs": [
        {
          "internalType": "address",
          "name": "policyManager_",
          "type": "address"
        }
      ],
      "stateMutability": "view",
      "type": "function"
    },
    {
      "inputs": [],
      "name": "getValueInterpreter",
      "outputs": [
        {
          "internalType": "address",
          "name": "valueInterpreter_",
          "type": "address"
        }
      ],
      "stateMutability": "view",
      "type": "function"
    },
    {
      "inputs": [
        {
          "internalType": "address",
          "name": "_comptrollerProxy",
          "type": "address"
        }
      ],
      "name": "getVaultProxyForFund",
      "outputs": [
        {
          "internalType": "address",
          "name": "vaultProxy_",
          "type": "address"
        }
      ],
      "stateMutability": "view",
      "type": "function"
    },
    {
      "inputs": [
        {
          "internalType": "address",
          "name": "_caller",
          "type": "address"
        },
        {
          "internalType": "uint256",
          "name": "_actionId",
          "type": "uint256"
        },
        {
          "internalType": "bytes",
          "name": "_callArgs",
          "type": "bytes"
        }
      ],
      "name": "receiveCallFromComptroller",
      "outputs": [],
      "stateMutability": "nonpayable",
      "type": "function"
    },
    {
      "inputs": [
        {
          "internalType": "address",
          "name": "_comptrollerProxy",
          "type": "address"
        },
        {
          "internalType": "address",
          "name": "_vaultProxy",
          "type": "address"
        },
        {
          "internalType": "bytes",
          "name": "",
          "type": "bytes"
        }
      ],
      "name": "setConfigForFund",
      "outputs": [],
      "stateMutability": "nonpayable",
      "type": "function"
    }
  ],
  "transactionHash": "0x94181dedd6d04ac3a26a34762a8c0c38ed82975aa5de35d431e173b9a4eb053f",
  "args": [
    "0xaca81583840B1bf2dDF6CDe824ada250C1936B4D",
    "0xaC9fCBA56E42d5960f813B9D0387F3D3bC003338",
    "0xeF31027350Be2c7439C1b0BE022d49421488b72C"
  ],
  "solcInputHash": "e128c99a7ad98ab17bfe5eac6103458b",
  "bytecode": "0x60e060405234801561001057600080fd5b50604051612fe2380380612fe28339818101604052606081101561003357600080fd5b50805160208201516040909201516001600160601b0319606092831b811660805292821b831660a052901b1660c05260805160601c60a05160601c60c05160601c612f416100a16000398061047952508061059452508061049f5280610547528061056e5250612f416000f3fe608060405234801561001057600080fd5b50600436106100935760003560e01c8063893d20e811610066578063893d20e81461018657806397c0ac871461018e578063bd8e959a14610196578063d44ad6cb1461019e578063f067cc11146101a657610093565b80631bee801e14610098578063467903461461011d57806380d570631461015f578063875fb4b31461017e575b600080fd5b61011b600480360360608110156100ae57600080fd5b6001600160a01b0382351691602081013591810190606081016040820135600160201b8111156100dd57600080fd5b8201836020820111156100ef57600080fd5b803590602001918460018302840111600160201b8311171561011057600080fd5b50909250905061022d565b005b6101436004803603602081101561013357600080fd5b50356001600160a01b0316610453565b604080516001600160a01b039092168252519081900360200190f35b61011b6004803603602081101561017557600080fd5b50351515610474565b610143610477565b61014361049b565b610143610527565b61011b610590565b610143610592565b61011b600480360360608110156101bc57600080fd5b6001600160a01b038235811692602081013590911691810190606081016040820135600160201b8111156101ef57600080fd5b82018360208201111561020157600080fd5b803590602001918460018302840111600160201b8311171561022257600080fd5b5090925090506105b6565b33600061023982610453565b90506001600160a01b0381166102805760405162461bcd60e51b815260040180806020018281038252602d815260200180612e2a602d913960400191505060405180910390fd5b806001600160a01b031663714ca2d1876040518263ffffffff1660e01b815260040180826001600160a01b0316815260200191505060206040518083038186803b1580156102cd57600080fd5b505afa1580156102e1573d6000803e3d6000fd5b505050506040513d60208110156102f757600080fd5b50516103345760405162461bcd60e51b8152600401808060200182810382526028815260200180612c326028913960400191505060405180910390fd5b846103805761037b86838387878080601f01602080910402602001604051908101604052809392919081815260200183838082843760009201919091525061063f92505050565b61044b565b84600114156103ca5761037b868386868080601f016020809104026020016040519081016040528093929190818152602001838380828437600092019190915250610b5592505050565b84600214156104145761037b868386868080601f016020809104026020016040519081016040528093929190818152602001838380828437600092019190915250610e5892505050565b60405162461bcd60e51b815260040180806020018281038252602d815260200180612b11602d913960400191505060405180910390fd5b505050505050565b6001600160a01b03808216600090815260208190526040902054165b919050565b50565b7f000000000000000000000000000000000000000000000000000000000000000090565b60007f00000000000000000000000000000000000000000000000000000000000000006001600160a01b031663893d20e86040518163ffffffff1660e01b815260040160206040518083038186803b1580156104f657600080fd5b505afa15801561050a573d6000803e3d6000fd5b505050506040513d602081101561052057600080fd5b5051905090565b600061056b604051806060016040528060298152602001612c09602991397f0000000000000000000000000000000000000000000000000000000000000000611086565b507f000000000000000000000000000000000000000000000000000000000000000090565b565b7f000000000000000000000000000000000000000000000000000000000000000090565b6105d86040518060600160405280602d8152602001612a33602d913933611086565b6105e0610527565b6001600160a01b0316336001600160a01b03161461062f5760405162461bcd60e51b8152600401808060200182810382526028815260200180612d216028913960400191505060405180910390fd5b6106398484611141565b50505050565b816001600160a01b0316635a53e3486040518163ffffffff1660e01b815260040160206040518083038186803b15801561067857600080fd5b505afa15801561068c573d6000803e3d6000fd5b505050506040513d60208110156106a257600080fd5b50516001600160a01b038481169116146106ed5760405162461bcd60e51b815260040180806020018281038252602e815260200180612a8e602e913960400191505060405180910390fd5b60008060606106fb84611198565b9250925092506060806060806107148a8a898989611278565b9350935093509350610724610592565b6001600160a01b0316630442bad58b60018e8b8b8a8a8a8a60405160200180886001600160a01b03168152602001876001600160a01b03168152602001866001600160e01b031916815260200180602001806020018060200180602001858103855289818151815260200191508051906020019060200280838360005b838110156107b95781810151838201526020016107a1565b50505050905001858103845288818151815260200191508051906020019060200280838360005b838110156107f85781810151838201526020016107e0565b50505050905001858103835287818151815260200191508051906020019060200280838360005b8381101561083757818101518382015260200161081f565b50505050905001858103825286818151815260200191508051906020019060200280838360005b8381101561087657818101518382015260200161085e565b505050509050019b5050505050505050505050506040516020818303038152906040526040518463ffffffff1660e01b815260040180846001600160a01b031681526020018360098111156108c757fe5b815260200180602001828103825283818151815260200191508051906020019080838360005b838110156109055781810151838201526020016108ed565b50505050905090810190601f1680156109325780820380516001836020036101000a031916815260200191505b50945050505050600060405180830381600087803b15801561095357600080fd5b505af1158015610967573d6000803e3d6000fd5b50505050856001600160e01b031916876001600160a01b03168b6001600160a01b03167ff9a77e6aa0d5e80e8c932c9586e789fc0f4efe610f844fc982129c6f385bfffa8e898989898960405180876001600160a01b03168152602001806020018060200180602001806020018060200186810386528b818151815260200191508051906020019080838360005b83811015610a0d5781810151838201526020016109f5565b50505050905090810190601f168015610a3a5780820380516001836020036101000a031916815260200191505b5086810385528a5181528a51602091820191808d01910280838360005b83811015610a6f578181015183820152602001610a57565b50505050905001868103845289818151815260200191508051906020019060200280838360005b83811015610aae578181015183820152602001610a96565b50505050905001868103835288818151815260200191508051906020019060200280838360005b83811015610aed578181015183820152602001610ad5565b50505050905001868103825287818151815260200191508051906020019060200280838360005b83811015610b2c578181015183820152602001610b14565b505050509050019b50505050505050505050505060405180910390a45050505050505050505050565b6060818060200190516020811015610b6c57600080fd5b8101908080516040519392919084600160201b821115610b8b57600080fd5b908301906020820185811115610ba057600080fd5b82518660208202830111600160201b82111715610bbc57600080fd5b82525081516020918201928201910280838360005b83811015610be9578181015183820152602001610bd1565b505050509050016040525050509050610c00610592565b6001600160a01b0316630442bad5846004878560405160200180836001600160a01b0316815260200180602001828103825283818151815260200191508051906020019060200280838360005b83811015610c65578181015183820152602001610c4d565b5050505090500193505050506040516020818303038152906040526040518463ffffffff1660e01b815260040180846001600160a01b03168152602001836009811115610cae57fe5b815260200180602001828103825283818151815260200191508051906020019080838360005b83811015610cec578181015183820152602001610cd4565b50505050905090810190601f168015610d195780820380516001836020036101000a031916815260200191505b50945050505050600060405180830381600087803b158015610d3a57600080fd5b505af1158015610d4e573d6000803e3d6000fd5b5050505060005b8151811015610e5157610d66610477565b6001600160a01b0316639be918e6838381518110610d8057fe5b60200260200101516040518263ffffffff1660e01b815260040180826001600160a01b0316815260200191505060206040518083038186803b158015610dc557600080fd5b505afa158015610dd9573d6000803e3d6000fd5b505050506040513d6020811015610def57600080fd5b5051610e2c5760405162461bcd60e51b815260040180806020018281038252602c815260200180612ae5602c913960400191505060405180910390fd5b610e4984838381518110610e3c57fe5b602002602001015161147c565b600101610d55565b5050505050565b6060818060200190516020811015610e6f57600080fd5b8101908080516040519392919084600160201b821115610e8e57600080fd5b908301906020820185811115610ea357600080fd5b82518660208202830111600160201b82111715610ebf57600080fd5b82525081516020918201928201910280838360005b83811015610eec578181015183820152602001610ed4565b505050509050016040525050509050610f03610592565b6001600160a01b0316630442bad5846005878560405160200180836001600160a01b0316815260200180602001828103825283818151815260200191508051906020019060200280838360005b83811015610f68578181015183820152602001610f50565b5050505090500193505050506040516020818303038152906040526040518463ffffffff1660e01b815260040180846001600160a01b03168152602001836009811115610fb157fe5b815260200180602001828103825283818151815260200191508051906020019080838360005b83811015610fef578181015183820152602001610fd7565b50505050905090810190601f16801561101c5780820380516001836020036101000a031916815260200191505b50945050505050600060405180830381600087803b15801561103d57600080fd5b505af1158015611051573d6000803e3d6000fd5b5050505060005b8151811015610e515761107e8483838151811061107157fe5b6020026020010151611562565b600101611058565b61113d82826040516024018080602001836001600160a01b03168152602001828103825284818151815260200191508051906020019080838360005b838110156110da5781810151838201526020016110c2565b50505050905090810190601f1680156111075780820380516001836020036101000a031916815260200191505b5060408051601f198184030181529190526020810180516001600160e01b031663319af33360e01b17905293506115ad92505050565b5050565b6001600160a01b0382811660008181526020819052604080822080546001600160a01b0319169486169485179055517f8852dcaa71340ea616a65ffac013450dfb238607481fb9d78346c667fe256c139190a35050565b60008060608380602001905160608110156111b257600080fd5b81516020830151604080850180519151939592948301929184600160201b8211156111dc57600080fd5b9083019060208201858111156111f157600080fd5b8251600160201b81118282018810171561120a57600080fd5b82525081516020918201929091019080838360005b8381101561123757818101518382015260200161121f565b50505050905090810190601f1680156112645780820380516001836020036101000a031916815260200191505b506040525050509250925092509193909250565b60608060608060608060006060806112938e8e8e8e8e6115ce565b60408051808201909152601a81527f6166746572205f5f70726550726f63657373436f492063616c6c0000000000006020820152969f50919c50939950919750955090935091506112e390611eea565b6113d98d8d8d8d8b878f60405160200180806020018060200180602001848103845287818151815260200191508051906020019060200280838360005b83811015611338578181015183820152602001611320565b50505050905001848103835286818151815260200191508051906020019060200280838360005b8381101561137757818101518382015260200161135f565b50505050905001848103825285818151815260200191508051906020019060200280838360005b838110156113b657818101518382015260200161139e565b505050509050019650505050505050604051602081830303815290604052611f90565b6114176040518060400160405280601781526020017f6166746572205f5f65786563757465436f492063616c6c000000000000000000815250611eea565b6114298e8e8e8c8989898e8a8a61222a565b60408051808201909152601b81527f6166746572205f5f706f737450726f63657373436f492063616c6c00000000006020820152919950965061146b90611eea565b505050505095509550955095915050565b604080516001600160a01b0383811660208084019190915283518084039091018152828401938490526310acd06d60e01b9093528416916310acd06d916004919060440180835b815260200180602001828103825283818151815260200191508051906020019080838360005b838110156115015781810151838201526020016114e9565b50505050905090810190601f16801561152e5780820380516001836020036101000a031916815260200191505b509350505050600060405180830381600087803b15801561154e57600080fd5b505af115801561044b573d6000803e3d6000fd5b604080516001600160a01b0383811660208084019190915283518084039091018152828401938490526310acd06d60e01b9093528416916310acd06d916006919060440180836114c3565b80516a636f6e736f6c652e6c6f67602083016000808483855afa5050505050565b606080606060006060806060896001600160a01b031663c54efee58c8b8b6040518463ffffffff1660e01b815260040180846001600160a01b03168152602001836001600160e01b031916815260200180602001828103825283818151815260200191508051906020019080838360005b8381101561165757818101518382015260200161163f565b50505050905090810190601f1680156116845780820380516001836020036101000a031916815260200191505b5094505050505060006040518083038186803b1580156116a357600080fd5b505afa1580156116b7573d6000803e3d6000fd5b505050506040513d6000823e601f3d908101601f1916820160405260a08110156116e057600080fd5b815160208301805160405192949293830192919084600160201b82111561170657600080fd5b90830190602082018581111561171b57600080fd5b82518660208202830111600160201b8211171561173757600080fd5b82525081516020918201928201910280838360005b8381101561176457818101518382015260200161174c565b5050505090500160405260200180516040519392919084600160201b82111561178c57600080fd5b9083019060208201858111156117a157600080fd5b82518660208202830111600160201b821117156117bd57600080fd5b82525081516020918201928201910280838360005b838110156117ea5781810151838201526020016117d2565b5050505090500160405260200180516040519392919084600160201b82111561181257600080fd5b90830190602082018581111561182757600080fd5b82518660208202830111600160201b8211171561184357600080fd5b82525081516020918201928201910280838360005b83811015611870578181015183820152602001611858565b5050505090500160405260200180516040519392919084600160201b82111561189857600080fd5b9083019060208201858111156118ad57600080fd5b82518660208202830111600160201b821117156118c957600080fd5b82525081516020918201928201910280838360005b838110156118f65781810151838201526020016118de565b5050505091909101604052505084518651949e50929b5095995093975091955014915061195690505760405162461bcd60e51b815260040180806020018281038252602c815260200180612b6f602c913960400191505060405180910390fd5b84518751146119965760405162461bcd60e51b815260040180806020018281038252602f815260200180612e57602f913960400191505060405180910390fd5b61199f83612580565b6119da5760405162461bcd60e51b8152600401808060200182810382526026815260200180612c5a6026913960400191505060405180910390fd5b6119e387612580565b611a1e5760405162461bcd60e51b8152600401808060200182810382526029815260200180612abc6029913960400191505060405180910390fd5b865167ffffffffffffffff81118015611a3657600080fd5b50604051908082528060200260200182016040528015611a60578160200160208202803683370190505b50955060005b8751811015611c9457611a77610477565b6001600160a01b0316639be918e6898381518110611a9157fe5b60200260200101516040518263ffffffff1660e01b815260040180826001600160a01b0316815260200191505060206040518083038186803b158015611ad657600080fd5b505afa158015611aea573d6000803e3d6000fd5b505050506040513d6020811015611b0057600080fd5b5051611b3d5760405162461bcd60e51b815260040180806020018281038252602e815260200180612a60602e913960400191505060405180910390fd5b611b8f6040518060400160405280601d81526020017f5f5f70726550726f63657373436f493a62616c616e6365206f66202573000000815250898381518110611b8257fe5b6020026020010151611086565b611bb1604051806060016040528060298152602001612c80602991398d611086565b878181518110611bbd57fe5b60200260200101516001600160a01b03166370a082318d6040518263ffffffff1660e01b815260040180826001600160a01b0316815260200191505060206040518083038186803b158015611c1157600080fd5b505afa158015611c25573d6000803e3d6000fd5b505050506040513d6020811015611c3b57600080fd5b50518751889083908110611c4b57fe5b602002602001018181525050611c8c6040518060600160405280603c8152602001612ca9603c9139888381518110611c7f57fe5b6020026020010151612614565b600101611a66565b50825167ffffffffffffffff81118015611cad57600080fd5b50604051908082528060200260200182016040528015611cd7578160200160208202803683370190505b50905060005b8351811015611eda57838181518110611cf257fe5b60200260200101516001600160a01b03166370a082318d6040518263ffffffff1660e01b815260040180826001600160a01b0316815260200191505060206040518083038186803b158015611d4657600080fd5b505afa158015611d5a573d6000803e3d6000fd5b505050506040513d6020811015611d7057600080fd5b50518251839083908110611d8057fe5b602002602001018181525050611db4604051806060016040528060228152602001612eb660229139858381518110611b8257fe5b611dd6604051806060016040528060218152602001612da1602191398d611086565b611dfe604051806060016040528060308152602001612d4960309139838381518110611c7f57fe5b6001856002811115611e0c57fe5b1415611e4957611e448d858381518110611e2257fe5b60200260200101518d868581518110611e3757fe5b60200260200101516126c2565b611ed2565b6002856002811115611e5757fe5b1415611ed257611e7f6040518060600160405280603b8152602001612b9b603b91398e611086565b611eb18d858381518110611e8f57fe5b60200260200101518d868581518110611ea457fe5b60200260200101516127b3565b611ed2604051806060016040528060288152602001612d7960289139611eea565b600101611cdd565b50959b949a509550955095509550565b610474816040516024018080602001828103825283818151815260200191508051906020019080838360005b83811015611f2e578181015183820152602001611f16565b50505050905090810190601f168015611f5b5780820380516001836020036101000a031916815260200191505b5060408051601f198184030181529190526020810180516001600160e01b031663104c13eb60e21b17905292506115ad915050565b611fcf6040518060400160405280601881526020017f5f5f65786563757465436f493a5f616461707465723a2573000000000000000081525085611086565b60006060856001600160a01b03168588868660405160240180846001600160a01b031681526020018060200180602001838103835285818151815260200191508051906020019080838360005b8381101561203457818101518382015260200161201c565b50505050905090810190601f1680156120615780820380516001836020036101000a031916815260200191505b50838103825284518152845160209182019186019080838360005b8381101561209457818101518382015260200161207c565b50505050905090810190601f1680156120c15780820380516001836020036101000a031916815260200191505b5060408051601f198184030181529181526020820180516001600160e01b03166001600160e01b0319909a16999099178952518151919890975087965094509250829150849050835b602083106121295780518252601f19909201916020918201910161210a565b6001836020036101000a0380198251168184511680821785525050505050509050019150506000604051808303816000865af19150503d806000811461218b576040519150601f19603f3d011682016040523d82523d6000602084013e612190565b606091505b50915091508181906122205760405162461bcd60e51b81526004018080602001828103825283818151815260200191508051906020019080838360005b838110156121e55781810151838201526020016121cd565b50505050905090810190601f1680156122125780820380516001836020036101000a031916815260200191505b509250505060405180910390fd5b5050505050505050565b606080885167ffffffffffffffff8111801561224557600080fd5b5060405190808252806020026020018201604052801561226f578160200160208202803683370190505b50915060005b895181101561234d576122b889828151811061228d57fe5b60200260200101516122b28e8d85815181106122a557fe5b6020026020010151612953565b906129d5565b8382815181106122c457fe5b6020026020010181815250508781815181106122dc57fe5b60200260200101518382815181106122f057fe5b602002602001015110156123355760405162461bcd60e51b815260040180806020018281038252603c815260200180612ce5603c913960400191505060405180910390fd5b6123458d8b8381518110610e3c57fe5b600101612275565b50845167ffffffffffffffff8111801561236657600080fd5b50604051908082528060200260200182016040528015612390578160200160208202803683370190505b50905060005b85518110156125705760006123b18d8884815181106122a557fe5b90508482815181106123bf57fe5b602002602001015181101561240d576123f4818684815181106123de57fe5b60200260200101516129d590919063ffffffff16565b83838151811061240057fe5b6020026020010181815250505b600188600281111561241b57fe5b1480156124c45750600087838151811061243157fe5b60200260200101516001600160a01b031663dd62ed3e8f8f6040518363ffffffff1660e01b815260040180836001600160a01b03168152602001826001600160a01b031681526020019250505060206040518083038186803b15801561249657600080fd5b505afa1580156124aa573d6000803e3d6000fd5b505050506040513d60208110156124c057600080fd5b5051115b156124ee576124e98e8884815181106124d957fe5b60200260200101518e60006126c2565b612567565b60008860028111156124fc57fe5b14156125675785828151811061250e57fe5b602002602001015183838151811061252257fe5b602002602001015111156125675760405162461bcd60e51b8152600401808060200182810382526034815260200180612ed86034913960400191505060405180910390fd5b50600101612396565b509a509a98505050505050505050565b600060018251116125935750600161046f565b815160005b8181101561260a57600181015b82811015612601578481815181106125b957fe5b60200260200101516001600160a01b03168583815181106125d657fe5b60200260200101516001600160a01b031614156125f9576000935050505061046f565b6001016125a5565b50600101612598565b5060019392505050565b61113d82826040516024018080602001838152602001828103825284818151815260200191508051906020019080838360005b8381101561265f578181015183820152602001612647565b50505050905090810190601f16801561268c5780820380516001836020036101000a031916815260200191505b5060408051601f198184030181529190526020810180516001600160e01b03166309710a9d60e41b17905293506115ad92505050565b604080516001600160a01b0385811660208301528481168284015260608083018590528351808403909101815260808301938490526310acd06d60e01b9093528616916310acd06d91600591906084018083815260200180602001828103825283818151815260200191508051906020019080838360005b8381101561275257818101518382015260200161273a565b50505050905090810190601f16801561277f5780820380516001836020036101000a031916815260200191505b509350505050600060405180830381600087803b15801561279f57600080fd5b505af1158015612220573d6000803e3d6000fd5b6127d5604051806060016040528060308152602001612e866030913984611086565b6127f7604051806060016040528060318152602001612df96031913983611086565b612819604051806060016040528060318152602001612b3e6031913982612614565b61283c604051806060016040528060378152602001612dc2603791396007612614565b604080516001600160a01b0385811660208301528481168284015260608083018590528351808403909101815260808301938490526310acd06d60e01b9093528616916310acd06d91600791906084018083815260200180602001828103825283818151815260200191508051906020019080838360005b838110156128cc5781810151838201526020016128b4565b50505050905090810190601f1680156128f95780820380516001836020036101000a031916815260200191505b509350505050600060405180830381600087803b15801561291957600080fd5b505af115801561292d573d6000803e3d6000fd5b50505050610639604051806060016040528060338152602001612bd66033913982612614565b6000816001600160a01b03166370a08231846040518263ffffffff1660e01b815260040180826001600160a01b0316815260200191505060206040518083038186803b1580156129a257600080fd5b505afa1580156129b6573d6000803e3d6000fd5b505050506040513d60208110156129cc57600080fd5b50519392505050565b600082821115612a2c576040805162461bcd60e51b815260206004820152601e60248201527f536166654d6174683a207375627472616374696f6e206f766572666c6f770000604482015290519081900360640190fd5b5090039056fe457874656e73696f6e426173653a6f6e6c7946756e644465706c6f7965723a6d73672e73656e6465723a2025735f5f70726550726f63657373436f493a204e6f6e2d72656365697661626c6520696e636f6d696e672061737365747265636569766543616c6c46726f6d436f6d7074726f6c6c65723a2046756e64206973206e6f74206163746976655f5f70726550726f63657373436f493a204475706c696361746520696e636f6d696e672061737365745f5f616464547261636b6564417373657473546f5661756c743a20556e737570706f727465642061737365747265636569766543616c6c46726f6d436f6d7074726f6c6c65723a20496e76616c6964205f616374696f6e49645f5f70726550726f63657373436f493a5f5f77697468647261774173736574546f20666f72205f616d6f756e74202025645f5f70726550726f63657373436f493a205370656e64206173736574732061727261797320756e657175616c5f5f70726550726f63657373436f493a5f5f77697468647261774173736574546f2066726f6d205f636f6d7074726f6c6c657250726f78792025735f5f70726550726f63657373436f493a206166746572207065726d697373696f6e65645661756c74416374696f6e202020256446756e644465706c6f7965724f776e65724d6978696e3a67657446756e644465706c6f7965723a25737265636569766543616c6c46726f6d436f6d7074726f6c6c65723a20556e617574686f72697a65645f5f70726550726f63657373436f493a204475706c6963617465207370656e642061737365745f5f70726550726f63657373436f493a62616c616e636520746f205f7661756c7450726f78792025735f5f70726550726f63657373436f493a62616c616e63652070726543616c6c496e636f6d696e67417373657442616c616e6365735f5b695d202025645f5f706f737450726f63657373436f493a20526563656976656420696e636f6d696e67206173736574206c657373207468616e2065787065637465644f6e6c79207468652046756e644465706c6f7965722063616e206d616b6520746869732063616c6c5f5f70726550726f63657373436f493a70726543616c6c5370656e64417373657442616c616e6365735f5b695d2025645f5f70726550726f63657373436f493a206166746572205f5f77697468647261774173736574546f5f5f70726550726f63657373436f493a5f7661756c7450726f78795b695d3a25735f5f70726550726f63657373436f493a495661756c742e5661756c74416374696f6e2e57697468647261774173736574546f20202025645f5f70726550726f63657373436f493a5f5f77697468647261774173736574546f20666f72205f746172676574202025737265636569766543616c6c46726f6d436f6d7074726f6c6c65723a2046756e64206973206e6f742076616c69645f5f70726550726f63657373436f493a20496e636f6d696e67206173736574732061727261797320756e657175616c5f5f70726550726f63657373436f493a5f5f77697468647261774173736574546f20666f72205f6173736574202025735f5f70726550726f63657373436f493a7370656e644173736574735f5b695d3a25735f5f706f737450726f63657373436f493a205370656e7420616d6f756e742067726561746572207468616e206578706563746564a2646970667358221220c7194b07f2932da50aa806b59f8775f21459fa2c67242670eea44eb05f7ab73264736f6c634300060c0033",
  "devdoc": {
    "author": "Enzyme Council <security@enzyme.finance>",
    "details": "Any arbitrary adapter is allowed by default, so all participants must be aware of their fund's configuration, especially whether they use a policy that only allows official adapters. Owners and asset managers must also establish trust for any arbitrary adapters that they interact with.",
    "kind": "dev",
    "methods": {
      "activateForFund(bool)": {
        "details": "Unimplemented by default, may be overridden."
      },
      "deactivateForFund()": {
        "details": "Unimplemented by default, may be overridden."
      },
      "getFundDeployer()": {
        "returns": {
          "fundDeployer_": "The `FUND_DEPLOYER` variable value"
        }
      },
      "getOwner()": {
        "details": "Ownership is deferred to the owner of the FundDeployer contract",
        "returns": {
          "owner_": "The owner"
        }
      },
      "getPolicyManager()": {
        "returns": {
          "policyManager_": "The `POLICY_MANAGER` variable value"
        }
      },
      "getValueInterpreter()": {
        "returns": {
          "valueInterpreter_": "The `VALUE_INTERPRETER` variable value"
        }
      },
      "getVaultProxyForFund(address)": {
        "params": {
          "_comptrollerProxy": "The ComptrollerProxy of the fund"
        },
        "returns": {
          "vaultProxy_": "The VaultProxy of the fund"
        }
      },
      "receiveCallFromComptroller(address,uint256,bytes)": {
        "params": {
          "_actionId": "An ID representing the desired action",
          "_callArgs": "The encoded args for the action",
          "_caller": "The user who called for this action"
        }
      },
      "setConfigForFund(address,address,bytes)": {
        "params": {
          "_comptrollerProxy": "The ComptrollerProxy of the fund",
          "_vaultProxy": "The VaultProxy of the fund"
        }
      }
    },
    "title": "IntegrationManager",
    "version": 1
  },
  "userdoc": {
    "kind": "user",
    "methods": {
      "activateForFund(bool)": {
        "notice": "Allows extension to run logic during fund activation"
      },
      "deactivateForFund()": {
        "notice": "Allows extension to run logic during fund deactivation (destruct)"
      },
      "getFundDeployer()": {
        "notice": "Gets the `FUND_DEPLOYER` variable"
      },
      "getOwner()": {
        "notice": "Gets the owner of this contract"
      },
      "getPolicyManager()": {
        "notice": "Gets the `POLICY_MANAGER` variable"
      },
      "getValueInterpreter()": {
        "notice": "Gets the `VALUE_INTERPRETER` variable"
      },
      "getVaultProxyForFund(address)": {
        "notice": "Gets the verified VaultProxy for a given ComptrollerProxy"
      },
      "receiveCallFromComptroller(address,uint256,bytes)": {
        "notice": "Receives a dispatched `callOnExtension` from a fund's ComptrollerProxy"
      },
      "setConfigForFund(address,address,bytes)": {
        "notice": "Enables the IntegrationManager to be used by a fund"
      }
    },
    "notice": "Extension to handle DeFi integration actions for funds",
    "version": 1
  },
  "storageLayout": {
    "storage": [
      {
        "astId": 39859,
        "contract": "contracts/release/extensions/integration-manager/IntegrationManager.sol:IntegrationManager",
        "label": "comptrollerProxyToVaultProxy",
        "offset": 0,
        "slot": "0",
        "type": "t_mapping(t_address,t_address)"
      }
    ],
    "types": {
      "t_address": {
        "encoding": "inplace",
        "label": "address",
        "numberOfBytes": "20"
      },
      "t_mapping(t_address,t_address)": {
        "encoding": "mapping",
        "key": "t_address",
        "label": "mapping(address => address)",
        "numberOfBytes": "32",
        "value": "t_address"
      }
    }
  }
}