{
  "address": "0x8B190573374637f144AC8D37375d97fd84cBD3a0",
  "abi": [
    {
      "inputs": [
        {
          "internalType": "address",
          "name": "_policyManager",
          "type": "address"
        },
        {
          "internalType": "address",
          "name": "_fundDeployer",
          "type": "address"
        },
        {
          "internalType": "address",
          "name": "_valueInterpreter",
          "type": "address"
        },
        {
          "internalType": "address",
          "name": "_wethToken",
          "type": "address"
        },
        {
          "internalType": "uint256",
          "name": "_pricelessAssetBypassTimelock",
          "type": "uint256"
        },
        {
          "internalType": "uint256",
          "name": "_pricelessAssetBypassTimeLimit",
          "type": "uint256"
        }
      ],
      "stateMutability": "nonpayable",
      "type": "constructor"
    },
    {
      "anonymous": false,
      "inputs": [
        {
          "indexed": false,
          "internalType": "uint256",
          "name": "nextDustToleranceInWeth",
          "type": "uint256"
        }
      ],
      "name": "DustToleranceInWethSet",
      "type": "event"
    },
    {
      "anonymous": false,
      "inputs": [
        {
          "indexed": true,
          "internalType": "address",
          "name": "comptrollerProxy",
          "type": "address"
        },
        {
          "indexed": true,
          "internalType": "address",
          "name": "asset",
          "type": "address"
        }
      ],
      "name": "PricelessAssetBypassed",
      "type": "event"
    },
    {
      "anonymous": false,
      "inputs": [
        {
          "indexed": true,
          "internalType": "address",
          "name": "comptrollerProxy",
          "type": "address"
        },
        {
          "indexed": true,
          "internalType": "address",
          "name": "asset",
          "type": "address"
        }
      ],
      "name": "PricelessAssetTimelockStarted",
      "type": "event"
    },
    {
      "inputs": [
        {
          "internalType": "address",
          "name": "",
          "type": "address"
        }
      ],
      "name": "activateForFund",
      "outputs": [],
      "stateMutability": "nonpayable",
      "type": "function"
    },
    {
      "inputs": [
        {
          "internalType": "address",
          "name": "",
          "type": "address"
        },
        {
          "internalType": "bytes",
          "name": "",
          "type": "bytes"
        }
      ],
      "name": "addFundSettings",
      "outputs": [],
      "stateMutability": "nonpayable",
      "type": "function"
    },
    {
      "inputs": [
        {
          "internalType": "address",
          "name": "_comptrollerProxy",
          "type": "address"
        },
        {
          "internalType": "address",
          "name": "_asset",
          "type": "address"
        }
      ],
      "name": "assetIsBypassableForFund",
      "outputs": [
        {
          "internalType": "bool",
          "name": "isBypassable_",
          "type": "bool"
        }
      ],
      "stateMutability": "view",
      "type": "function"
    },
    {
      "inputs": [],
      "name": "canDisable",
      "outputs": [
        {
          "internalType": "bool",
          "name": "canDisable_",
          "type": "bool"
        }
      ],
      "stateMutability": "pure",
      "type": "function"
    },
    {
      "inputs": [
        {
          "internalType": "address",
          "name": "_comptrollerProxy",
          "type": "address"
        },
        {
          "internalType": "address",
          "name": "_asset",
          "type": "address"
        }
      ],
      "name": "getAssetBypassWindowStartForFund",
      "outputs": [
        {
          "internalType": "uint256",
          "name": "windowStart_",
          "type": "uint256"
        }
      ],
      "stateMutability": "view",
      "type": "function"
    },
    {
      "inputs": [],
      "name": "getDustToleranceInWeth",
      "outputs": [
        {
          "internalType": "uint256",
          "name": "dustToleranceInWeth_",
          "type": "uint256"
        }
      ],
      "stateMutability": "view",
      "type": "function"
    },
    {
      "inputs": [],
      "name": "getFundDeployer",
      "outputs": [
        {
          "internalType": "address",
          "name": "fundDeployer_",
          "type": "address"
        }
      ],
      "stateMutability": "view",
      "type": "function"
    },
    {
      "inputs": [],
      "name": "getOwner",
      "outputs": [
        {
          "internalType": "address",
          "name": "owner_",
          "type": "address"
        }
      ],
      "stateMutability": "view",
      "type": "function"
    },
    {
      "inputs": [],
      "name": "getPolicyManager",
      "outputs": [
        {
          "internalType": "address",
          "name": "policyManager_",
          "type": "address"
        }
      ],
      "stateMutability": "view",
      "type": "function"
    },
    {
      "inputs": [],
      "name": "getPricelessAssetBypassTimeLimit",
      "outputs": [
        {
          "internalType": "uint256",
          "name": "timeLimit_",
          "type": "uint256"
        }
      ],
      "stateMutability": "view",
      "type": "function"
    },
    {
      "inputs": [],
      "name": "getPricelessAssetBypassTimelock",
      "outputs": [
        {
          "internalType": "uint256",
          "name": "timelock_",
          "type": "uint256"
        }
      ],
      "stateMutability": "view",
      "type": "function"
    },
    {
      "inputs": [],
      "name": "getPricelessAssetBypassValueInterpreter",
      "outputs": [
        {
          "internalType": "address",
          "name": "valueInterpreter_",
          "type": "address"
        }
      ],
      "stateMutability": "view",
      "type": "function"
    },
    {
      "inputs": [],
      "name": "getPricelessAssetBypassWethToken",
      "outputs": [
        {
          "internalType": "address",
          "name": "wethToken_",
          "type": "address"
        }
      ],
      "stateMutability": "view",
      "type": "function"
    },
    {
      "inputs": [],
      "name": "identifier",
      "outputs": [
        {
          "internalType": "string",
          "name": "identifier_",
          "type": "string"
        }
      ],
      "stateMutability": "pure",
      "type": "function"
    },
    {
      "inputs": [],
      "name": "implementedHooks",
      "outputs": [
        {
          "internalType": "enum IPolicyManager.PolicyHook[]",
          "name": "implementedHooks_",
          "type": "uint8[]"
        }
      ],
      "stateMutability": "pure",
      "type": "function"
    },
    {
      "inputs": [
        {
          "internalType": "uint256",
          "name": "_nextDustToleranceInWeth",
          "type": "uint256"
        }
      ],
      "name": "setDustToleranceInWeth",
      "outputs": [],
      "stateMutability": "nonpayable",
      "type": "function"
    },
    {
      "inputs": [
        {
          "internalType": "address",
          "name": "_asset",
          "type": "address"
        }
      ],
      "name": "startAssetBypassTimelock",
      "outputs": [],
      "stateMutability": "nonpayable",
      "type": "function"
    },
    {
      "inputs": [
        {
          "internalType": "address",
          "name": "",
          "type": "address"
        },
        {
          "internalType": "bytes",
          "name": "",
          "type": "bytes"
        }
      ],
      "name": "updateFundSettings",
      "outputs": [],
      "stateMutability": "nonpayable",
      "type": "function"
    },
    {
      "inputs": [
        {
          "internalType": "address",
          "name": "_comptrollerProxy",
          "type": "address"
        },
        {
          "internalType": "enum IPolicyManager.PolicyHook",
          "name": "",
          "type": "uint8"
        },
        {
          "internalType": "bytes",
          "name": "_encodedArgs",
          "type": "bytes"
        }
      ],
      "name": "validateRule",
      "outputs": [
        {
          "internalType": "bool",
          "name": "isValid_",
          "type": "bool"
        }
      ],
      "stateMutability": "nonpayable",
      "type": "function"
    }
  ],
  "transactionHash": "0x6aeab0007882a7ce23448a8613368161d8a3a78ef307a6ca9afe56d6148d3bc6",
  "args": [
    "0xaC9fCBA56E42d5960f813B9D0387F3D3bC003338",
    "0xaca81583840B1bf2dDF6CDe824ada250C1936B4D",
    "0xeF31027350Be2c7439C1b0BE022d49421488b72C",
    "0xc02aaa39b223fe8d0a0e5c4f27ead9083c756cc2",
    604800,
    172800
  ],
  "linkedData": {
    "type": "POLICY"
  },
  "solcInputHash": "e128c99a7ad98ab17bfe5eac6103458b",
  "bytecode": "0x61014060405234801561001157600080fd5b50604051611511380380611511833981810160405260c081101561003457600080fd5b5080516020820151604083015160608085015160808087015160a0978801516001600160601b031988861b811690935286851b831690985260c081905260e088905284841b8216610100529282901b16610120526001600160a01b0394851695938516949193928216911661142e6100e36000398061082e5250806107735250806109945250806108525250806109f15280610a995280610ac05250806108815280610b3e525061142e6000f3fe608060405234801561001057600080fd5b50600436106101215760003560e01c806358bfdfee116100ad578063893d20e811610071578063893d20e81461043857806397c0ac8714610440578063cbf54bb214610448578063ceb9a0ad146104a0578063d44ad6cb146104c657610121565b806358bfdfee1461034f5780635da4cdb2146103575780637998a1c4146103855780637fe292681461040257806385d63ec91461040a57610121565b80631ef92578116100f45780631ef925781461026e578063219ea7bf1461028a578063234dfb17146102a757806344105398146102af578063579be718146102c957610121565b806307d2890e146101265780630d4d75101461014e5780630f5f6b4f146101cc57806314f8e6151461024a575b600080fd5b61014c6004803603602081101561013c57600080fd5b50356001600160a01b03166104ce565b005b61014c6004803603604081101561016457600080fd5b6001600160a01b038235169190810190604081016020820135600160201b81111561018e57600080fd5b8201836020820111156101a057600080fd5b803590602001918460018302840111600160201b831117156101c157600080fd5b509092509050610735565b61014c600480360360408110156101e257600080fd5b6001600160a01b038235169190810190604081016020820135600160201b81111561020c57600080fd5b82018360208201111561021e57600080fd5b803590602001918460018302840111600160201b8311171561023f57600080fd5b50909250905061076c565b610252610771565b604080516001600160a01b039092168252519081900360200190f35b610276610795565b604080519115158252519081900360200190f35b61014c600480360360208110156102a057600080fd5b503561079a565b61025261082c565b6102b7610850565b60408051918252519081900360200190f35b610276600480360360608110156102df57600080fd5b6001600160a01b038235169160ff60208201351691810190606081016040820135600160201b81111561031157600080fd5b82018360208201111561032357600080fd5b803590602001918460018302840111600160201b8311171561034457600080fd5b509092509050610874565b6102b761093f565b6102b76004803603604081101561036d57600080fd5b506001600160a01b0381358116916020013516610945565b61038d610972565b6040805160208082528351818301528351919283929083019185019080838360005b838110156103c75781810151838201526020016103af565b50505050905090810190601f1680156103f45780820380516001836020036101000a031916815260200191505b509250505060405180910390f35b6102b7610992565b6102766004803603604081101561042057600080fd5b506001600160a01b03813581169160200135166109b6565b6102526109ed565b610252610a79565b610450610ae2565b60408051602080825283518183015283519192839290830191858101910280838360005b8381101561048c578181015183820152602001610474565b505050509050019250505060405180910390f35b61014c600480360360208110156104b657600080fd5b50356001600160a01b0316610b39565b610252610b3c565b6000336001600160a01b0316635a53e3486040518163ffffffff1660e01b815260040160206040518083038186803b15801561050957600080fd5b505afa15801561051d573d6000803e3d6000fd5b505050506040513d602081101561053357600080fd5b50516040805163c980918760e01b815290519192506001600160a01b0383169163c980918791600480820192602092909190829003018186803b15801561057957600080fd5b505afa15801561058d573d6000803e3d6000fd5b505050506040513d60208110156105a357600080fd5b50516001600160a01b031633146105eb5760405162461bcd60e51b81526004018080602001828103825260598152602001806113a06059913960600191505060405180910390fd5b6105f3610771565b6001600160a01b0316634c67e10683600161060c61082c565b6040518463ffffffff1660e01b815260040180846001600160a01b03168152602001838152602001826001600160a01b031681526020019350505050602060405180830381600087803b15801561066257600080fd5b505af192505050801561068757506040513d602081101561068257600080fd5b505160015b6106f95761069d610696610850565b4290610b60565b6001600160a01b03808316600081815260016020908152604080832094881680845294909152808220949094559251919290917f76fadd0d061c0fa0e079ec4814cecf7f5f6f43e604f241551dd35b6c3c9a69809190a3610731565b5060405162461bcd60e51b815260040180806020018281038252602b8152602001806112d9602b913960400191505060405180910390fd5b5050565b60405162461bcd60e51b81526004018080602001828103825260378152602001806112a26037913960400191505060405180910390fd5b505050565b7f000000000000000000000000000000000000000000000000000000000000000090565b600090565b6107a26109ed565b6001600160a01b0316336001600160a01b0316146107f15760405162461bcd60e51b81526004018080602001828103825260498152602001806112596049913960600191505060405180910390fd5b60008190556040805182815290517ff02a8605888227ce9f14ab97539fc9aed32996f83d13befc980676da2549969b9181900360200190a150565b7f000000000000000000000000000000000000000000000000000000000000000090565b7f000000000000000000000000000000000000000000000000000000000000000090565b6000336001600160a01b037f000000000000000000000000000000000000000000000000000000000000000016146108dd5760405162461bcd60e51b815260040180806020018281038252602981526020018061132d6029913960400191505060405180910390fd5b600061091e84848080601f016020809104026020016040519081016040528093929190818152602001838380828437600092019190915250610bc192505050565b91505061093361092e8783610bec565b610f63565b9150505b949350505050565b60005490565b6001600160a01b038083166000908152600160209081526040808320938516835292905220545b92915050565b606060405180606001604052806022815260200161123760229139905090565b7f000000000000000000000000000000000000000000000000000000000000000090565b6000806109c38484610945565b90504281111580156109375750426109e36109dc610992565b8390610b60565b1015949350505050565b60007f00000000000000000000000000000000000000000000000000000000000000006001600160a01b031663893d20e86040518163ffffffff1660e01b815260040160206040518083038186803b158015610a4857600080fd5b505afa158015610a5c573d6000803e3d6000fd5b505050506040513d6020811015610a7257600080fd5b5051905090565b6000610abd604051806060016040528060298152602001611304602991397f0000000000000000000000000000000000000000000000000000000000000000610f76565b507f000000000000000000000000000000000000000000000000000000000000000090565b60408051600180825281830190925260609160208083019080368337019050509050600881600081518110610b1357fe5b60200260200101906009811115610b2657fe5b90816009811115610b3357fe5b90525090565b50565b7f000000000000000000000000000000000000000000000000000000000000000090565b600082820183811015610bba576040805162461bcd60e51b815260206004820152601b60248201527f536166654d6174683a206164646974696f6e206f766572666c6f770000000000604482015290519081900360640190fd5b9392505050565b600080828060200190516040811015610bd957600080fd5b5080516020909101519092509050915091565b6000606080836001600160a01b03166380daddb86040518163ffffffff1660e01b8152600401600060405180830381600087803b158015610c2c57600080fd5b505af1158015610c40573d6000803e3d6000fd5b505050506040513d6000823e601f3d908101601f191682016040908152811015610c6957600080fd5b8101908080516040519392919084600160201b821115610c8857600080fd5b908301906020820185811115610c9d57600080fd5b82518660208202830111600160201b82111715610cb957600080fd5b82525081516020918201928201910280838360005b83811015610ce6578181015183820152602001610cce565b5050505090500160405260200180516040519392919084600160201b821115610d0e57600080fd5b908301906020820185811115610d2357600080fd5b82518660208202830111600160201b82111715610d3f57600080fd5b82525081516020918201928201910280838360005b83811015610d6c578181015183820152602001610d54565b50505050905001604052505050915091506000610d92868484610d8d61082c565b61102d565b9050606080866001600160a01b031663ecd658b46040518163ffffffff1660e01b8152600401600060405180830381600087803b158015610dd257600080fd5b505af1158015610de6573d6000803e3d6000fd5b505050506040513d6000823e601f3d908101601f191682016040908152811015610e0f57600080fd5b8101908080516040519392919084600160201b821115610e2e57600080fd5b908301906020820185811115610e4357600080fd5b82518660208202830111600160201b82111715610e5f57600080fd5b82525081516020918201928201910280838360005b83811015610e8c578181015183820152602001610e74565b5050505090500160405260200180516040519392919084600160201b821115610eb457600080fd5b908301906020820185811115610ec957600080fd5b82518660208202830111600160201b82111715610ee557600080fd5b82525081516020918201928201910280838360005b83811015610f12578181015183820152602001610efa565b50505050905001604052505050915091506000610f33898484610d8d61082c565b905080841115610f5457610f478482611082565b965050505050505061096c565b50600098975050505050505050565b6000610f6d61093f565b90911115919050565b61073182826040516024018080602001836001600160a01b03168152602001828103825284818151815260200191508051906020019080838360005b83811015610fca578181015183820152602001610fb2565b50505050905090810190601f168015610ff75780820380516001836020036101000a031916815260200191505b5060408051601f198184030181529190526020810180516001600160e01b031663319af33360e01b17905293506110df92505050565b6000805b84518110156110795761106f6109dc8787848151811061104d57fe5b602002602001015187858151811061106157fe5b602002602001015187611100565b9150600101611031565b50949350505050565b6000828211156110d9576040805162461bcd60e51b815260206004820152601e60248201527f536166654d6174683a207375627472616374696f6e206f766572666c6f770000604482015290519081900360640190fd5b50900390565b80516a636f6e736f6c652e6c6f67602083016000808483855afa5050505050565b600061110a610771565b6001600160a01b0316634c67e1068585856040518463ffffffff1660e01b815260040180846001600160a01b03168152602001838152602001826001600160a01b031681526020019350505050602060405180830381600087803b15801561117157600080fd5b505af192505050801561119657506040513d602081101561119157600080fd5b505160015b611224576111a485856109b6565b6111df5760405162461bcd60e51b815260040180806020018281038252604a815260200180611356604a913960600191505060405180910390fd5b836001600160a01b0316856001600160a01b03167fa2de3d3e85d58ec3c62bcbd0a67a60fac9f9002f6e70cfe768a49fa19d7dcf4660405160405180910390a361122b565b9050610937565b50600094935050505056fe4f4e4c595f52454d4f56455f445553545f45585445524e414c5f504f534954494f4e6f6e6c7946756e644465706c6f7965724f776e65723a204f6e6c79207468652046756e644465706c6f796572206f776e65722063616e2063616c6c20746869732066756e6374696f6e75706461746546756e6453657474696e67733a2055706461746573206e6f7420616c6c6f77656420666f72207468697320706f6c6963797374617274417373657442797061737354696d656c6f636b3a20417373657420686173206120707269636546756e644465706c6f7965724f776e65724d6978696e3a67657446756e644465706c6f7965723a25734f6e6c792074686520506f6c6963794d616e616765722063616e206d616b6520746869732063616c6c5f5f63616c6356616c75654578636c7564696e6742797061737361626c6550726963656c65737341737365743a20496e76616c6964206173736574206e6f742062797061737361626c657374617274417373657442797061737354696d656c6f636b3a2053656e646572206973206e6f7420746865205661756c7450726f7879206f6620746865206173736f63696174656420436f6d7074726f6c6c657250726f7879a2646970667358221220970b1d24621b42e8cd9da91f78a9c989893a263de989ff30605b1cb67515ec0464736f6c634300060c0033",
  "devdoc": {
    "author": "Enzyme Council <security@enzyme.finance>",
    "details": "Assets that do not have a valid price can be signaled via PricelessAssetBypassMixin to be valued at `0`",
    "kind": "dev",
    "methods": {
      "activateForFund(address)": {
        "details": "Unimplemented by default, can be overridden by the policy"
      },
      "assetIsBypassableForFund(address,address)": {
        "params": {
          "_asset": "The asset for which to check if it is bypassable",
          "_comptrollerProxy": "The ComptrollerProxy of the fund"
        },
        "returns": {
          "isBypassable_": "True if the asset is bypassable"
        }
      },
      "canDisable()": {
        "details": "False by default, can be overridden by the policy",
        "returns": {
          "canDisable_": "True if the policy can be disabled"
        }
      },
      "getAssetBypassWindowStartForFund(address,address)": {
        "params": {
          "_asset": "The asset",
          "_comptrollerProxy": "The ComptrollerProxy of the fund"
        },
        "returns": {
          "windowStart_": "The timestamp"
        }
      },
      "getDustToleranceInWeth()": {
        "returns": {
          "dustToleranceInWeth_": "The `dustToleranceInWeth` variable value"
        }
      },
      "getFundDeployer()": {
        "returns": {
          "fundDeployer_": "The `FUND_DEPLOYER` variable value"
        }
      },
      "getOwner()": {
        "details": "Ownership is deferred to the owner of the FundDeployer contract",
        "returns": {
          "owner_": "The owner"
        }
      },
      "getPolicyManager()": {
        "returns": {
          "policyManager_": "The `POLICY_MANAGER` variable value"
        }
      },
      "getPricelessAssetBypassTimeLimit()": {
        "returns": {
          "timeLimit_": "The `PRICELESS_ASSET_BYPASS_TIME_LIMIT` variable value"
        }
      },
      "getPricelessAssetBypassTimelock()": {
        "returns": {
          "timelock_": "The `PRICELESS_ASSET_BYPASS_TIMELOCK` variable value"
        }
      },
      "getPricelessAssetBypassValueInterpreter()": {
        "returns": {
          "valueInterpreter_": "The `PRICELESS_ASSET_BYPASS_VALUE_INTERPRETER` variable value"
        }
      },
      "getPricelessAssetBypassWethToken()": {
        "returns": {
          "wethToken_": "The `PRICELESS_ASSET_BYPASS_WETH_TOKEN` variable value"
        }
      },
      "identifier()": {
        "returns": {
          "identifier_": "The identifier string"
        }
      },
      "implementedHooks()": {
        "returns": {
          "implementedHooks_": "The implemented PolicyHooks"
        }
      },
      "setDustToleranceInWeth(uint256)": {
        "params": {
          "_nextDustToleranceInWeth": "The next dustToleranceInWeth value"
        }
      },
      "startAssetBypassTimelock(address)": {
        "details": "This function must be called via ComptrollerProxy.vaultCallOnContract(). This allows the function to be gas relay-able. It also means that the originator must be the owner.",
        "params": {
          "_asset": "The asset for which to start the timelock period"
        }
      },
      "updateFundSettings(address,bytes)": {
        "details": "Disallowed by default, can be overridden by the policy"
      },
      "validateRule(address,uint8,bytes)": {
        "details": "onlyPolicyManager validation not necessary as no state is updated, but is cheap and nice-to-have since an event is fired",
        "params": {
          "_comptrollerProxy": "The fund's ComptrollerProxy address",
          "_encodedArgs": "Encoded args with which to validate the rule"
        },
        "returns": {
          "isValid_": "True if the rule passes"
        }
      }
    },
    "title": "OnlyRemoveDustExternalPositionPolicy Contract",
    "version": 1
  },
  "userdoc": {
    "kind": "user",
    "methods": {
      "activateForFund(address)": {
        "notice": "Validates and initializes a policy as necessary prior to fund activation"
      },
      "addFundSettings(address,bytes)": {
        "notice": "Add the initial policy settings for a fund"
      },
      "assetIsBypassableForFund(address,address)": {
        "notice": "Checks whether an asset is bypassable (if still without a valid price) for a given fund"
      },
      "canDisable()": {
        "notice": "Whether or not the policy can be disabled"
      },
      "getAssetBypassWindowStartForFund(address,address)": {
        "notice": "Gets the timestamp from which an asset without a valid price can be considered to be valued at `0`"
      },
      "getDustToleranceInWeth()": {
        "notice": "Gets the `dustToleranceInWeth` variable"
      },
      "getFundDeployer()": {
        "notice": "Gets the `FUND_DEPLOYER` variable"
      },
      "getOwner()": {
        "notice": "Gets the owner of this contract"
      },
      "getPolicyManager()": {
        "notice": "Gets the `POLICY_MANAGER` variable value"
      },
      "getPricelessAssetBypassTimeLimit()": {
        "notice": "Gets the `PRICELESS_ASSET_BYPASS_TIME_LIMIT` variable"
      },
      "getPricelessAssetBypassTimelock()": {
        "notice": "Gets the `PRICELESS_ASSET_BYPASS_TIMELOCK` variable"
      },
      "getPricelessAssetBypassValueInterpreter()": {
        "notice": "Gets the `PRICELESS_ASSET_BYPASS_VALUE_INTERPRETER` variable"
      },
      "getPricelessAssetBypassWethToken()": {
        "notice": "Gets the `PRICELESS_ASSET_BYPASS_WETH_TOKEN` variable"
      },
      "identifier()": {
        "notice": "Provides a constant string identifier for a policy"
      },
      "implementedHooks()": {
        "notice": "Gets the implemented PolicyHooks for a policy"
      },
      "setDustToleranceInWeth(uint256)": {
        "notice": "Sets the dustToleranceInWeth variable value"
      },
      "startAssetBypassTimelock(address)": {
        "notice": "Starts the timelock period for an asset without a valid price"
      },
      "updateFundSettings(address,bytes)": {
        "notice": "Updates the policy settings for a fund"
      },
      "validateRule(address,uint8,bytes)": {
        "notice": "Apply the rule with the specified parameters of a PolicyHook"
      }
    },
    "notice": "A policy that only allows removing external positions whose value can be considered negligible",
    "version": 1
  },
  "storageLayout": {
    "storage": [
      {
        "astId": 39107,
        "contract": "contracts/release/extensions/policy-manager/policies/asset-managers/OnlyRemoveDustExternalPositionPolicy.sol:OnlyRemoveDustExternalPositionPolicy",
        "label": "dustToleranceInWeth",
        "offset": 0,
        "slot": "0",
        "type": "t_uint256"
      },
      {
        "astId": 39566,
        "contract": "contracts/release/extensions/policy-manager/policies/asset-managers/OnlyRemoveDustExternalPositionPolicy.sol:OnlyRemoveDustExternalPositionPolicy",
        "label": "comptrollerProxyToAssetToBypassWindowStart",
        "offset": 0,
        "slot": "1",
        "type": "t_mapping(t_address,t_mapping(t_address,t_uint256))"
      }
    ],
    "types": {
      "t_address": {
        "encoding": "inplace",
        "label": "address",
        "numberOfBytes": "20"
      },
      "t_mapping(t_address,t_mapping(t_address,t_uint256))": {
        "encoding": "mapping",
        "key": "t_address",
        "label": "mapping(address => mapping(address => uint256))",
        "numberOfBytes": "32",
        "value": "t_mapping(t_address,t_uint256)"
      },
      "t_mapping(t_address,t_uint256)": {
        "encoding": "mapping",
        "key": "t_address",
        "label": "mapping(address => uint256)",
        "numberOfBytes": "32",
        "value": "t_uint256"
      },
      "t_uint256": {
        "encoding": "inplace",
        "label": "uint256",
        "numberOfBytes": "32"
      }
    }
  }
}