{
  "address": "0xe1708FA6bb2844D5384613ef0846F9Bc1e8eC55E",
  "abi": [
    {
      "inputs": [
        {
          "internalType": "address",
          "name": "_feeManager",
          "type": "address"
        }
      ],
      "stateMutability": "nonpayable",
      "type": "constructor"
    },
    {
      "anonymous": false,
      "inputs": [
        {
          "indexed": true,
          "internalType": "address",
          "name": "comptrollerProxy",
          "type": "address"
        },
        {
          "indexed": false,
          "internalType": "uint256",
          "name": "highWaterMark",
          "type": "uint256"
        }
      ],
      "name": "ActivatedForFund",
      "type": "event"
    },
    {
      "anonymous": false,
      "inputs": [
        {
          "indexed": true,
          "internalType": "address",
          "name": "comptrollerProxy",
          "type": "address"
        },
        {
          "indexed": false,
          "internalType": "uint256",
          "name": "rate",
          "type": "uint256"
        },
        {
          "indexed": false,
          "internalType": "uint256",
          "name": "period",
          "type": "uint256"
        }
      ],
      "name": "FundSettingsAdded",
      "type": "event"
    },
    {
      "anonymous": false,
      "inputs": [
        {
          "indexed": true,
          "internalType": "address",
          "name": "comptrollerProxy",
          "type": "address"
        },
        {
          "indexed": false,
          "internalType": "uint256",
          "name": "prevSharePrice",
          "type": "uint256"
        },
        {
          "indexed": false,
          "internalType": "uint256",
          "name": "nextSharePrice",
          "type": "uint256"
        }
      ],
      "name": "LastSharePriceUpdated",
      "type": "event"
    },
    {
      "anonymous": false,
      "inputs": [
        {
          "indexed": true,
          "internalType": "address",
          "name": "comptrollerProxy",
          "type": "address"
        },
        {
          "indexed": false,
          "internalType": "uint256",
          "name": "prevHighWaterMark",
          "type": "uint256"
        },
        {
          "indexed": false,
          "internalType": "uint256",
          "name": "nextHighWaterMark",
          "type": "uint256"
        },
        {
          "indexed": false,
          "internalType": "uint256",
          "name": "aggregateValueDue",
          "type": "uint256"
        }
      ],
      "name": "PaidOut",
      "type": "event"
    },
    {
      "anonymous": false,
      "inputs": [
        {
          "indexed": true,
          "internalType": "address",
          "name": "comptrollerProxy",
          "type": "address"
        },
        {
          "indexed": false,
          "internalType": "uint256",
          "name": "prevAggregateValueDue",
          "type": "uint256"
        },
        {
          "indexed": false,
          "internalType": "uint256",
          "name": "nextAggregateValueDue",
          "type": "uint256"
        },
        {
          "indexed": false,
          "internalType": "int256",
          "name": "sharesOutstandingDiff",
          "type": "int256"
        }
      ],
      "name": "PerformanceUpdated",
      "type": "event"
    },
    {
      "anonymous": false,
      "inputs": [
        {
          "indexed": true,
          "internalType": "address",
          "name": "comptrollerProxy",
          "type": "address"
        },
        {
          "indexed": true,
          "internalType": "address",
          "name": "recipient",
          "type": "address"
        }
      ],
      "name": "RecipientSetForFund",
      "type": "event"
    },
    {
      "inputs": [
        {
          "internalType": "address",
          "name": "_comptrollerProxy",
          "type": "address"
        },
        {
          "internalType": "address",
          "name": "",
          "type": "address"
        }
      ],
      "name": "activateForFund",
      "outputs": [],
      "stateMutability": "nonpayable",
      "type": "function"
    },
    {
      "inputs": [
        {
          "internalType": "address",
          "name": "_comptrollerProxy",
          "type": "address"
        },
        {
          "internalType": "bytes",
          "name": "_settingsData",
          "type": "bytes"
        }
      ],
      "name": "addFundSettings",
      "outputs": [],
      "stateMutability": "nonpayable",
      "type": "function"
    },
    {
      "inputs": [
        {
          "internalType": "address",
          "name": "_comptrollerProxy",
          "type": "address"
        }
      ],
      "name": "getFeeInfoForFund",
      "outputs": [
        {
          "components": [
            {
              "internalType": "uint16",
              "name": "rate",
              "type": "uint16"
            },
            {
              "internalType": "uint64",
              "name": "period",
              "type": "uint64"
            },
            {
              "internalType": "uint64",
              "name": "activated",
              "type": "uint64"
            },
            {
              "internalType": "uint64",
              "name": "lastPaid",
              "type": "uint64"
            },
            {
              "internalType": "uint256",
              "name": "highWaterMark",
              "type": "uint256"
            },
            {
              "internalType": "uint256",
              "name": "lastSharePrice",
              "type": "uint256"
            },
            {
              "internalType": "uint256",
              "name": "aggregateValueDue",
              "type": "uint256"
            }
          ],
          "internalType": "struct PerformanceFee.FeeInfo",
          "name": "feeInfo_",
          "type": "tuple"
        }
      ],
      "stateMutability": "view",
      "type": "function"
    },
    {
      "inputs": [],
      "name": "getFeeManager",
      "outputs": [
        {
          "internalType": "address",
          "name": "feeManager_",
          "type": "address"
        }
      ],
      "stateMutability": "view",
      "type": "function"
    },
    {
      "inputs": [
        {
          "internalType": "address",
          "name": "_comptrollerProxy",
          "type": "address"
        }
      ],
      "name": "getRecipientForFund",
      "outputs": [
        {
          "internalType": "address",
          "name": "recipient_",
          "type": "address"
        }
      ],
      "stateMutability": "view",
      "type": "function"
    },
    {
      "inputs": [
        {
          "internalType": "address",
          "name": "_comptrollerProxy",
          "type": "address"
        },
        {
          "internalType": "address",
          "name": "",
          "type": "address"
        }
      ],
      "name": "payout",
      "outputs": [
        {
          "internalType": "bool",
          "name": "isPayable_",
          "type": "bool"
        }
      ],
      "stateMutability": "nonpayable",
      "type": "function"
    },
    {
      "inputs": [
        {
          "internalType": "address",
          "name": "_comptrollerProxy",
          "type": "address"
        }
      ],
      "name": "payoutAllowed",
      "outputs": [
        {
          "internalType": "bool",
          "name": "payoutAllowed_",
          "type": "bool"
        }
      ],
      "stateMutability": "view",
      "type": "function"
    },
    {
      "inputs": [
        {
          "internalType": "address",
          "name": "_comptrollerProxy",
          "type": "address"
        },
        {
          "internalType": "address",
          "name": "_recipient",
          "type": "address"
        }
      ],
      "name": "setRecipientForFund",
      "outputs": [],
      "stateMutability": "nonpayable",
      "type": "function"
    },
    {
      "inputs": [
        {
          "internalType": "address",
          "name": "_comptrollerProxy",
          "type": "address"
        },
        {
          "internalType": "address",
          "name": "_vaultProxy",
          "type": "address"
        },
        {
          "internalType": "enum IFeeManager.FeeHook",
          "name": "",
          "type": "uint8"
        },
        {
          "internalType": "bytes",
          "name": "",
          "type": "bytes"
        },
        {
          "internalType": "uint256",
          "name": "_gav",
          "type": "uint256"
        }
      ],
      "name": "settle",
      "outputs": [
        {
          "internalType": "enum IFeeManager.SettlementType",
          "name": "settlementType_",
          "type": "uint8"
        },
        {
          "internalType": "address",
          "name": "",
          "type": "address"
        },
        {
          "internalType": "uint256",
          "name": "sharesDue_",
          "type": "uint256"
        }
      ],
      "stateMutability": "nonpayable",
      "type": "function"
    },
    {
      "inputs": [
        {
          "internalType": "enum IFeeManager.FeeHook",
          "name": "_hook",
          "type": "uint8"
        }
      ],
      "name": "settlesOnHook",
      "outputs": [
        {
          "internalType": "bool",
          "name": "settles_",
          "type": "bool"
        },
        {
          "internalType": "bool",
          "name": "usesGav_",
          "type": "bool"
        }
      ],
      "stateMutability": "view",
      "type": "function"
    },
    {
      "inputs": [
        {
          "internalType": "address",
          "name": "_comptrollerProxy",
          "type": "address"
        },
        {
          "internalType": "address",
          "name": "_vaultProxy",
          "type": "address"
        },
        {
          "internalType": "enum IFeeManager.FeeHook",
          "name": "_hook",
          "type": "uint8"
        },
        {
          "internalType": "bytes",
          "name": "_settlementData",
          "type": "bytes"
        },
        {
          "internalType": "uint256",
          "name": "_gav",
          "type": "uint256"
        }
      ],
      "name": "update",
      "outputs": [],
      "stateMutability": "nonpayable",
      "type": "function"
    },
    {
      "inputs": [
        {
          "internalType": "enum IFeeManager.FeeHook",
          "name": "_hook",
          "type": "uint8"
        }
      ],
      "name": "updatesOnHook",
      "outputs": [
        {
          "internalType": "bool",
          "name": "updates_",
          "type": "bool"
        },
        {
          "internalType": "bool",
          "name": "usesGav_",
          "type": "bool"
        }
      ],
      "stateMutability": "view",
      "type": "function"
    }
  ],
  "transactionHash": "0xdb993e278437fd13abb4e9daa19a9fb6b8d7e4625084146c86545c248d1078a0",
  "args": [
    "0x071586BA1b380B00B793Cc336fe01106B0BFbE6D"
  ],
  "linkedData": {
    "type": "FEE"
  },
  "solcInputHash": "e128c99a7ad98ab17bfe5eac6103458b",
  "bytecode": "0x60a06040523480156200001157600080fd5b50604051620024c4380380620024c483398101604081905262000034916200005d565b60601b6001600160601b031916608052620000b2565b8051620000578162000098565b92915050565b6000602082840312156200007057600080fd5b60006200007e84846200004a565b949350505050565b60006001600160a01b03821662000057565b620000a38162000086565b8114620000af57600080fd5b50565b60805160601c6123d6620000ee600039806102d0528061068b52806107a8528061095a5280610bc85280610cf2528061158352506123d66000f3fe608060405234801561001057600080fd5b50600436106100b45760003560e01c806362780b3c1161007157806362780b3c14610160578063877fd473146101805780638c55f80f146101a0578063b78b4813146101b3578063e337a91f146101c6578063f2d63826146101d9576100b4565b806305be5783146100b95780630f5f6b4f146100e2578063233faf5f146100f75780633146d0581461010a578063320f0ddd1461011d57806341892d7e1461013e575b600080fd5b6100cc6100c7366004611884565b6101e1565b6040516100d99190611f87565b60405180910390f35b6100f56100f03660046119d6565b6102c5565b005b6100f5610105366004611947565b610680565b6100f561011836600461190d565b61079d565b61013061012b366004611a2b565b6108f0565b6040516100d9929190611f95565b61015161014c366004611947565b61094b565b6040516100d993929190611fc1565b61017361016e366004611884565b610a00565b6040516100d99190611f5e565b61019361018e366004611884565b610a11565b6040516100d991906120f9565b6100f56101ae36600461190d565b610a9c565b6100cc6101c136600461190d565b610bbb565b6101306101d4366004611a2b565b610ce6565b610173610cf0565b60006101eb61179d565b506001600160a01b0382166000908152600160208181526040808420815160e081018352815461ffff811682526001600160401b036201000082048116958301869052600160501b82048116948301859052600160901b909104166060820152938101546080850152600281015460a08501526003015460c084015291929091610276904290610d14565b90508181101561028c57600093505050506102c0565b600082828161029757fe5b06905060006102a64283610d14565b90508085606001516001600160401b031610955050505050505b919050565b336001600160a01b037f000000000000000000000000000000000000000000000000000000000000000016146103165760405162461bcd60e51b815260040161030d90612079565b60405180910390fd5b61033760405180606001604052806023815260200161234160239139610d3c565b61037682828080601f016020809104026020016040519081016040528093929190818152602001838380828437600092019190915250610d8292505050565b6000808061038684860186611a49565b9250925092506103b2604051806060016040528060288152602001612265602891398461ffff16610dc5565b6103dd6040518060600160405280602a81526020016122c2602a9139836001600160401b0316610dc5565b6103ff6040518060600160405280602a81526020016122ec602a913982610e0a565b60008361ffff16116104235760405162461bcd60e51b815260040161030d906120a9565b6127108361ffff1611156104495760405162461bcd60e51b815260040161030d90612029565b6000826001600160401b0316116104725760405162461bcd60e51b815260040161030d90612039565b6104936040518060600160405280602b8152602001612316602b9139610d3c565b6040518060e001604052808461ffff168152602001836001600160401b0316815260200160006001600160401b0316815260200160006001600160401b031681526020016000815260200160008152602001600081525060016000886001600160a01b03166001600160a01b0316815260200190815260200160002060008201518160000160006101000a81548161ffff021916908361ffff16021790555060208201518160000160026101000a8154816001600160401b0302191690836001600160401b03160217905550604082015181600001600a6101000a8154816001600160401b0302191690836001600160401b0316021790555060608201518160000160126101000a8154816001600160401b0302191690836001600160401b031602179055506080820151816001015560a0820151816002015560c082015181600301559050506105fb6040518060600160405280603d8152602001612364603d9139610d3c565b856001600160a01b03167f9f856f74192181b265e61298e386477299c53e0cb24be55a84416f2af4ba4a618484604051610636929190612107565b60405180910390a261065f60405180606001604052806035815260200161228d60359139610d3c565b6001600160a01b03811615610678576106788682610e4f565b505050505050565b336001600160a01b037f000000000000000000000000000000000000000000000000000000000000000016146106c85760405162461bcd60e51b815260040161030d90612079565b6001600160a01b0386166000908152600160209081526040808320600201548151601f8701849004840281018401909252858252929161072a918a918a918a918a908a90819084018382808284376000920191909152508a9250610ea6915050565b90508181141561073b575050610678565b6001600160a01b03881660008181526001602052604090819020600201839055517f040fdaa9ed9dd9e4588f1f96145d5517471e7b518fb5d56d8504eb839f50b6539061078b9085908590612130565b60405180910390a25050505050505050565b336001600160a01b037f000000000000000000000000000000000000000000000000000000000000000016146107e55760405162461bcd60e51b815260040161030d90612079565b6001600160a01b0382166000818152600160205260408082209051635a0b830960e11b815290929063b417061290610821908490600401611f87565b602060405180830381600087803b15801561083b57600080fd5b505af115801561084f573d6000803e3d6000fd5b505050506040513d601f19601f820116820180604052508101906108739190611a8c565b6001830181905560028301819055825467ffffffffffffffff60501b1916600160501b426001600160401b0316021783556040519091506001600160a01b038516907f67286096839b70891eb51e1532e51d6a709d69c808d1b7e24abcb24a39167d05906108e2908490612122565b60405180910390a250505050565b60008060015b83600381111561090257fe5b14806109195750600383600381111561091757fe5b145b8061092f5750600083600381111561092d57fe5b145b1561093f57506001905080610946565b5060009050805b915091565b60008080336001600160a01b037f000000000000000000000000000000000000000000000000000000000000000016146109975760405162461bcd60e51b815260040161030d90612079565b836109aa575060009150819050806109f4565b60006109b78a8a87611159565b9050806109cf576000806000935093509350506109f4565b60008113156109e757600493506000925090506109f4565b6005935060009250820390505b96509650969350505050565b6000610a0b82611388565b92915050565b610a1961179d565b506001600160a01b0316600090815260016020818152604092839020835160e081018552815461ffff811682526001600160401b03620100008204811694830194909452600160501b8104841695820195909552600160901b9094049091166060840152908101546080830152600281015460a08301526003015460c082015290565b816001600160a01b031663c98091876040518163ffffffff1660e01b815260040160206040518083038186803b158015610ad557600080fd5b505afa158015610ae9573d6000803e3d6000fd5b505050506040513d601f19601f82011682018060405250810190610b0d91906118a2565b6001600160a01b031663893d20e86040518163ffffffff1660e01b815260040160206040518083038186803b158015610b4557600080fd5b505afa158015610b59573d6000803e3d6000fd5b505050506040513d601f19601f82011682018060405250810190610b7d91906118a2565b6001600160a01b0316336001600160a01b031614610bad5760405162461bcd60e51b815260040161030d906120e9565b610bb78282610e4f565b5050565b6000336001600160a01b037f00000000000000000000000000000000000000000000000000000000000000001614610c055760405162461bcd60e51b815260040161030d90612079565b610c0e836101e1565b610c1a57506000610a0b565b6001600160a01b03831660009081526001602081905260408220805467ffffffffffffffff60901b1916600160901b426001600160401b03160217815590810154600282015491929091610c6e90836113a6565b60038401549091508015610c8457600060038501555b82821115610c9457600184018290555b866001600160a01b03167f807c2c73192f2d30961a7d01ec8dc57115a4cd9f9bd0434331beacb916c6a8cc848484604051610cd19392919061214b565b60405180910390a25060019695505050505050565b60008060026108f6565b7f000000000000000000000000000000000000000000000000000000000000000090565b600082821115610d365760405162461bcd60e51b815260040161030d90612059565b50900390565b610d7f81604051602401610d509190611fb0565b60408051601f198184030181529190526020810180516001600160e01b031663104c13eb60e21b1790526113bc565b50565b610d7f81604051602401610d969190611fb0565b60408051601f198184030181529190526020810180516001600160e01b03166305f3bfab60e11b1790526113bc565b610bb78282604051602401610ddb929190612009565b60408051601f198184030181529190526020810180516001600160e01b03166309710a9d60e41b1790526113bc565b610bb78282604051602401610e20929190611fe9565b60408051601f198184030181529190526020810180516001600160e01b031663319af33360e01b1790526113bc565b6001600160a01b0382811660008181526020819052604080822080546001600160a01b0319169486169485179055517fa11fc98cfb391622348acc16de92f0efb77d55f71a6e9fa18bfef387ae8d19ce9190a35050565b600080866001600160a01b031663e269c3d66040518163ffffffff1660e01b815260040160206040518083038186803b158015610ee257600080fd5b505afa158015610ef6573d6000803e3d6000fd5b505050506040513d601f19601f82011682018060405250810190610f1a91906118a2565b6001600160a01b031663313ce5676040518163ffffffff1660e01b815260040160206040518083038186803b158015610f5257600080fd5b505afa158015610f66573d6000803e3d6000fd5b505050506040513d601f19601f82011682018060405250810190610f8a9190611aaa565b60ff16600a0a905082610f9e579050611150565b60008690506000816001600160a01b03166318160ddd6040518163ffffffff1660e01b815260040160206040518083038186803b158015610fde57600080fd5b505afa158015610ff2573d6000803e3d6000fd5b505050506040513d601f19601f820116820180604052508101906110169190611a8c565b905060006110a0836001600160a01b03166370a082318b6040518263ffffffff1660e01b81526004016110499190611f5e565b60206040518083038186803b15801561106157600080fd5b505afa158015611075573d6000803e3d6000fd5b505050506040513d601f19601f820116820180604052508101906110999190611a8c565b8390610d14565b9050806110b35783945050505050611150565b8560038960038111156110c257fe5b14156111325760006110d3896113dd565b5091506110e290508382610d14565b9250826110f757859650505050505050611150565b600061110d856111078b85611403565b9061143d565b90506111198382610d14565b92508261112f5786975050505050505050611150565b50505b6111488261110783670de0b6b3a7640000611403565b955050505050505b95945050505050565b6000808390506000816001600160a01b03166318160ddd6040518163ffffffff1660e01b815260040160206040518083038186803b15801561119a57600080fd5b505afa1580156111ae573d6000803e3d6000fd5b505050506040513d601f19601f820116820180604052508101906111d29190611a8c565b9050806111e457600092505050611381565b6040516370a0823160e01b81526000906001600160a01b038416906370a0823190611213908990600401611f5e565b60206040518083038186803b15801561122b57600080fd5b505afa15801561123f573d6000803e3d6000fd5b505050506040513d601f19601f820116820180604052508101906112639190611a8c565b9050818114156112795760009350505050611381565b6001600160a01b03871660009081526001602081815260408084206003810154825160e081018452825461ffff811682526001600160401b03620100008204811696830196909652600160501b8104861694820194909452600160901b9093049093166060830152928301546080820152600283015460a082015260c0810182905291929091611311908b908790879086908d61146f565b975090508181141561132c5760009650505050505050611381565b808360030181905550896001600160a01b03167f74a80d6cce2a8c3a25bdba0cd5533d238d76eb996790fb2d4544372cc7f4e35683838a6040516113729392919061214b565b60405180910390a25050505050505b9392505050565b6001600160a01b039081166000908152602081905260409020541690565b60008183106113b6575081610a0b565b50919050565b80516a636f6e736f6c652e6c6f67602083016000808483855afa5050505050565b6000806000838060200190518101906113f691906118c0565b9250925092509193909250565b60008261141257506000610a0b565b8282028284828161141f57fe5b04146113815760405162461bcd60e51b815260040161030d90612099565b600080821161145e5760405162461bcd60e51b815260040161030d90612069565b81838161146757fe5b049392505050565b6000808061147d8888610d14565b905060006114978261110787670de0b6b3a7640000611403565b60a0870151909150808214156114b657876000945094505050506114e4565b6114d08383838b8b6000015161ffff168c608001516114ef565b94506114de8b848888611562565b93505050505b965096945050505050565b60008061152b670de0b6b3a76400006115258a61151f61150f888c6113a6565b611519898e6113a6565b90611632565b90611678565b906116e3565b9050600061153f6127106115258488611678565b905061155560006115508884611747565b61178d565b9998505050505050505050565b60008061157c6115728585610d14565b6111078588611403565b90506116267f00000000000000000000000000000000000000000000000000000000000000006001600160a01b031663aa051c2c88306040518363ffffffff1660e01b81526004016115cf929190611f6c565b60206040518083038186803b1580156115e757600080fd5b505afa1580156115fb573d6000803e3d6000fd5b505050506040513d601f19601f8201168201806040525081019061161f9190611a8c565b8290611632565b9150505b949350505050565b60008183038183128015906116475750838113155b8061165c575060008312801561165c57508381135b6113815760405162461bcd60e51b815260040161030d906120c9565b60008261168757506000610a0b565b8260001914801561169b5750600160ff1b82145b156116b85760405162461bcd60e51b815260040161030d906120b9565b828202828482816116c557fe5b05146113815760405162461bcd60e51b815260040161030d906120b9565b6000816117025760405162461bcd60e51b815260040161030d906120d9565b816000191480156117165750600160ff1b83145b156117335760405162461bcd60e51b815260040161030d90612089565b600082848161173e57fe5b05949350505050565b600082820181831280159061175c5750838112155b80611771575060008312801561177157508381125b6113815760405162461bcd60e51b815260040161030d90612049565b60008183126113b6575081610a0b565b6040805160e081018252600080825260208201819052918101829052606081018290526080810182905260a0810182905260c081019190915290565b8035610a0b81612216565b8051610a0b81612216565b8051610a0b8161222a565b60008083601f84011261180c57600080fd5b5081356001600160401b0381111561182357600080fd5b60208301915083600182028301111561183b57600080fd5b9250929050565b8035610a0b81612233565b8035610a0b81612240565b8035610a0b81612249565b8051610a0b81612249565b8035610a0b81612252565b8051610a0b8161225b565b60006020828403121561189657600080fd5b600061162a84846117d9565b6000602082840312156118b457600080fd5b600061162a84846117e4565b6000806000606084860312156118d557600080fd5b60006118e186866117e4565b93505060206118f286828701611863565b9250506040611903868287016117ef565b9150509250925092565b6000806040838503121561192057600080fd5b600061192c85856117d9565b925050602061193d858286016117d9565b9150509250929050565b60008060008060008060a0878903121561196057600080fd5b600061196c89896117d9565b965050602061197d89828a016117d9565b955050604061198e89828a01611842565b94505060608701356001600160401b038111156119aa57600080fd5b6119b689828a016117fa565b935093505060806119c989828a01611858565b9150509295509295509295565b6000806000604084860312156119eb57600080fd5b60006119f786866117d9565b93505060208401356001600160401b03811115611a1357600080fd5b611a1f868287016117fa565b92509250509250925092565b600060208284031215611a3d57600080fd5b600061162a8484611842565b600080600060608486031215611a5e57600080fd5b6000611a6a868661184d565b9350506020611a7b8682870161186e565b9250506040611903868287016117d9565b600060208284031215611a9e57600080fd5b600061162a8484611863565b600060208284031215611abc57600080fd5b600061162a8484611879565b611ad181612173565b82525050565b611ad18161217e565b6000611aeb82612166565b611af5818561216a565b9350611b058185602086016121d6565b611b0e81612202565b9093019392505050565b611ad1816121b5565b611ad18161218d565b6000611b3760258361216a565b7f61646446756e6453657474696e67733a2066656552617465206d617820657863815264195959195960da1b602082015260400192915050565b6000611b7e60318361216a565b7f61646446756e6453657474696e67733a20666565506572696f64206d75737420815270062652067726561746572207468616e203607c1b602082015260400192915050565b6000611bd160218361216a565b7f5369676e6564536166654d6174683a206164646974696f6e206f766572666c6f8152607760f81b602082015260400192915050565b6000611c14601e8361216a565b7f536166654d6174683a207375627472616374696f6e206f766572666c6f770000815260200192915050565b6000611c4d601a8361216a565b7f536166654d6174683a206469766973696f6e206279207a65726f000000000000815260200192915050565b6000611c8660258361216a565b7f4f6e6c7920746865204665654d616e6765722063616e206d616b6520746869738152640818d85b1b60da1b602082015260400192915050565b6000611ccd60218361216a565b7f5369676e6564536166654d6174683a206469766973696f6e206f766572666c6f8152607760f81b602082015260400192915050565b6000611d1060218361216a565b7f536166654d6174683a206d756c7469706c69636174696f6e206f766572666c6f8152607760f81b602082015260400192915050565b6000611d53602f8361216a565b7f61646446756e6453657474696e67733a2066656552617465206d75737420626581526e02067726561746572207468616e203608c1b602082015260400192915050565b6000611da460278361216a565b7f5369676e6564536166654d6174683a206d756c7469706c69636174696f6e206f815266766572666c6f7760c81b602082015260400192915050565b6000611ded60248361216a565b7f5369676e6564536166654d6174683a207375627472616374696f6e206f766572815263666c6f7760e01b602082015260400192915050565b6000611e3360208361216a565b7f5369676e6564536166654d6174683a206469766973696f6e206279207a65726f815260200192915050565b6000611e6c60308361216a565b7f5f5f736574526563697069656e74466f7246756e643a204f6e6c79207661756c81526f74206f776e65722063616c6c61626c6560801b602082015260400192915050565b805160e0830190611ec28482611f3a565b506020820151611ed56020850182611f55565b506040820151611ee86040850182611f55565b506060820151611efb6060850182611f55565b506080820151611f0e6080850182611b21565b5060a0820151611f2160a0850182611b21565b5060c0820151611f3460c0850182611b21565b50505050565b611ad181612190565b611ad1816121c0565b611ad1816121cb565b611ad1816121a3565b60208101610a0b8284611ac8565b60408101611f7a8285611ac8565b6113816020830184611ac8565b60208101610a0b8284611ad7565b60408101611fa38285611ad7565b6113816020830184611ad7565b602080825281016113818184611ae0565b60608101611fcf8286611b18565b611fdc6020830185611ac8565b61162a6040830184611b21565b60408082528101611ffa8185611ae0565b90506113816020830184611ac8565b6040808252810161201a8185611ae0565b90506113816020830184611b21565b60208082528101610a0b81611b2a565b60208082528101610a0b81611b71565b60208082528101610a0b81611bc4565b60208082528101610a0b81611c07565b60208082528101610a0b81611c40565b60208082528101610a0b81611c79565b60208082528101610a0b81611cc0565b60208082528101610a0b81611d03565b60208082528101610a0b81611d46565b60208082528101610a0b81611d97565b60208082528101610a0b81611de0565b60208082528101610a0b81611e26565b60208082528101610a0b81611e5f565b60e08101610a0b8284611eb1565b604081016121158285611f43565b6113816020830184611f4c565b60208101610a0b8284611b21565b6040810161213e8285611b21565b6113816020830184611b21565b606081016121598286611b21565b611fdc6020830185611b21565b5190565b90815260200190565b6000610a0b82612197565b151590565b806102c08161220c565b90565b61ffff1690565b6001600160a01b031690565b6001600160401b031690565b60ff1690565b6000610a0b82612183565b6000610a0b82612190565b6000610a0b826121a3565b60005b838110156121f15781810151838201526020016121d9565b83811115611f345750506000910152565b601f01601f191690565b60068110610d7f57fe5b61221f81612173565b8114610d7f57600080fd5b61221f8161217e565b60048110610d7f57600080fd5b61221f81612190565b61221f8161218d565b61221f816121a3565b61221f816121af56fe506572666f726d6163654665653a61646446756e6453657474696e67733a666565526174653a2564506572666f726d6163654665653a61646446756e6453657474696e67732061667465722046756e6453657474696e67734164646564506572666f726d6163654665653a61646446756e6453657474696e67733a666565506572696f643a2564506572666f726d6163654665653a61646446756e6453657474696e67733a726563697069656e743a2573506572666f726d6163654665653a61646446756e6453657474696e67732061667265207265717569726573506572666f726d6163654665653a61646446756e6453657474696e67733a626567696e506572666f726d6163654665653a61646446756e6453657474696e677320616674657220636f6d7074726f6c6c657250726f7879546f466565496e666fa2646970667358221220b54d9817090331458172caab21e8eb9283e63bf40cdda2b770ce8e2be36a698a64736f6c634300060c0033",
  "devdoc": {
    "author": "Enzyme Council <security@enzyme.finance>",
    "details": "This contract assumes that all shares in the VaultProxy are shares outstanding, which is fine for this release. Even if they are not, they are still shares that are only claimable by the fund owner.",
    "kind": "dev",
    "methods": {
      "activateForFund(address,address)": {
        "params": {
          "_comptrollerProxy": "The ComptrollerProxy of the fund"
        }
      },
      "addFundSettings(address,bytes)": {
        "details": "`highWaterMark`, `lastSharePrice`, and `activated` are set during activation",
        "params": {
          "_comptrollerProxy": "The ComptrollerProxy of the fund",
          "_settingsData": "Encoded settings to apply to the fee for a fund"
        }
      },
      "getFeeInfoForFund(address)": {
        "params": {
          "_comptrollerProxy": "The ComptrollerProxy contract of the fund"
        },
        "returns": {
          "feeInfo_": "The feeInfo"
        }
      },
      "getFeeManager()": {
        "returns": {
          "feeManager_": "The `FEE_MANAGER` variable value"
        }
      },
      "getRecipientForFund(address)": {
        "params": {
          "_comptrollerProxy": "The ComptrollerProxy contract for the fund"
        },
        "returns": {
          "recipient_": "The recipient"
        }
      },
      "payout(address,address)": {
        "params": {
          "_comptrollerProxy": "The ComptrollerProxy of the fund"
        },
        "returns": {
          "isPayable_": "True if shares outstanding can be paid out"
        }
      },
      "payoutAllowed(address)": {
        "details": "Payout is allowed if fees have not yet been settled in a crystallization period, and at least 1 crystallization period has passed since activation",
        "params": {
          "_comptrollerProxy": "The ComptrollerProxy of the fund"
        },
        "returns": {
          "payoutAllowed_": "True if the fee payment is due"
        }
      },
      "setRecipientForFund(address,address)": {
        "params": {
          "_comptrollerProxy": "The ComptrollerProxy contract for the fund",
          "_recipient": "The fee recipient"
        }
      },
      "settle(address,address,uint8,bytes,uint256)": {
        "params": {
          "_comptrollerProxy": "The ComptrollerProxy of the fund",
          "_gav": "The GAV of the fund",
          "_vaultProxy": "The VaultProxy of the fund"
        },
        "returns": {
          "_1": "(unused) The payer of shares due",
          "settlementType_": "The type of settlement",
          "sharesDue_": "The amount of shares due"
        }
      },
      "settlesOnHook(uint8)": {
        "params": {
          "_hook": "The FeeHook"
        },
        "returns": {
          "settles_": "True if the fee settles on the _hook",
          "usesGav_": "True if the fee uses GAV during settle() for the _hook"
        }
      },
      "update(address,address,uint8,bytes,uint256)": {
        "params": {
          "_comptrollerProxy": "The ComptrollerProxy of the fund",
          "_gav": "The GAV of the fund",
          "_hook": "The FeeHook being executed",
          "_settlementData": "Encoded args to use in calculating the settlement",
          "_vaultProxy": "The VaultProxy of the fund"
        }
      },
      "updatesOnHook(uint8)": {
        "params": {
          "_hook": "The FeeHook"
        },
        "returns": {
          "updates_": "True if the fee updates on the _hook",
          "usesGav_": "True if the fee uses GAV during update() for the _hook"
        }
      }
    },
    "title": "PerformanceFee Contract",
    "version": 1
  },
  "userdoc": {
    "kind": "user",
    "methods": {
      "activateForFund(address,address)": {
        "notice": "Activates the fee for a fund"
      },
      "addFundSettings(address,bytes)": {
        "notice": "Add the initial fee settings for a fund"
      },
      "getFeeInfoForFund(address)": {
        "notice": "Gets the feeInfo for a given fund"
      },
      "getFeeManager()": {
        "notice": "Gets the `FEE_MANAGER` variable"
      },
      "getRecipientForFund(address)": {
        "notice": "Gets the recipient of the fee for a given fund"
      },
      "payout(address,address)": {
        "notice": "Checks whether the shares outstanding for the fee can be paid out, and updates the info for the fee's last payout"
      },
      "payoutAllowed(address)": {
        "notice": "Checks whether the shares outstanding can be paid out"
      },
      "setRecipientForFund(address,address)": {
        "notice": "Sets the fee recipient for the given fund"
      },
      "settle(address,address,uint8,bytes,uint256)": {
        "notice": "Settles the fee and calculates shares due"
      },
      "settlesOnHook(uint8)": {
        "notice": "Gets whether the fee settles and requires GAV on a particular hook"
      },
      "update(address,address,uint8,bytes,uint256)": {
        "notice": "Updates the fee state after all fees have finished settle()"
      },
      "updatesOnHook(uint8)": {
        "notice": "Gets whether the fee updates and requires GAV on a particular hook"
      }
    },
    "notice": "A performance-based fee with configurable rate and crystallization period, using a high watermark",
    "version": 1
  },
  "storageLayout": {
    "storage": [
      {
        "astId": 20879,
        "contract": "contracts/release/extensions/fee-manager/fees/PerformanceFee.sol:PerformanceFee",
        "label": "comptrollerProxyToRecipient",
        "offset": 0,
        "slot": "0",
        "type": "t_mapping(t_address,t_address)"
      },
      {
        "astId": 19051,
        "contract": "contracts/release/extensions/fee-manager/fees/PerformanceFee.sol:PerformanceFee",
        "label": "comptrollerProxyToFeeInfo",
        "offset": 0,
        "slot": "1",
        "type": "t_mapping(t_address,t_struct(FeeInfo)19039_storage)"
      }
    ],
    "types": {
      "t_address": {
        "encoding": "inplace",
        "label": "address",
        "numberOfBytes": "20"
      },
      "t_mapping(t_address,t_address)": {
        "encoding": "mapping",
        "key": "t_address",
        "label": "mapping(address => address)",
        "numberOfBytes": "32",
        "value": "t_address"
      },
      "t_mapping(t_address,t_struct(FeeInfo)19039_storage)": {
        "encoding": "mapping",
        "key": "t_address",
        "label": "mapping(address => struct PerformanceFee.FeeInfo)",
        "numberOfBytes": "32",
        "value": "t_struct(FeeInfo)19039_storage"
      },
      "t_struct(FeeInfo)19039_storage": {
        "encoding": "inplace",
        "label": "struct PerformanceFee.FeeInfo",
        "members": [
          {
            "astId": 19026,
            "contract": "contracts/release/extensions/fee-manager/fees/PerformanceFee.sol:PerformanceFee",
            "label": "rate",
            "offset": 0,
            "slot": "0",
            "type": "t_uint16"
          },
          {
            "astId": 19028,
            "contract": "contracts/release/extensions/fee-manager/fees/PerformanceFee.sol:PerformanceFee",
            "label": "period",
            "offset": 2,
            "slot": "0",
            "type": "t_uint64"
          },
          {
            "astId": 19030,
            "contract": "contracts/release/extensions/fee-manager/fees/PerformanceFee.sol:PerformanceFee",
            "label": "activated",
            "offset": 10,
            "slot": "0",
            "type": "t_uint64"
          },
          {
            "astId": 19032,
            "contract": "contracts/release/extensions/fee-manager/fees/PerformanceFee.sol:PerformanceFee",
            "label": "lastPaid",
            "offset": 18,
            "slot": "0",
            "type": "t_uint64"
          },
          {
            "astId": 19034,
            "contract": "contracts/release/extensions/fee-manager/fees/PerformanceFee.sol:PerformanceFee",
            "label": "highWaterMark",
            "offset": 0,
            "slot": "1",
            "type": "t_uint256"
          },
          {
            "astId": 19036,
            "contract": "contracts/release/extensions/fee-manager/fees/PerformanceFee.sol:PerformanceFee",
            "label": "lastSharePrice",
            "offset": 0,
            "slot": "2",
            "type": "t_uint256"
          },
          {
            "astId": 19038,
            "contract": "contracts/release/extensions/fee-manager/fees/PerformanceFee.sol:PerformanceFee",
            "label": "aggregateValueDue",
            "offset": 0,
            "slot": "3",
            "type": "t_uint256"
          }
        ],
        "numberOfBytes": "128"
      },
      "t_uint16": {
        "encoding": "inplace",
        "label": "uint16",
        "numberOfBytes": "2"
      },
      "t_uint256": {
        "encoding": "inplace",
        "label": "uint256",
        "numberOfBytes": "32"
      },
      "t_uint64": {
        "encoding": "inplace",
        "label": "uint64",
        "numberOfBytes": "8"
      }
    }
  }
}