{
  "address": "0xaC9fCBA56E42d5960f813B9D0387F3D3bC003338",
  "abi": [
    {
      "inputs": [
        {
          "internalType": "address",
          "name": "_fundDeployer",
          "type": "address"
        },
        {
          "internalType": "address",
          "name": "_gasRelayPaymasterFactory",
          "type": "address"
        }
      ],
      "stateMutability": "nonpayable",
      "type": "constructor"
    },
    {
      "anonymous": false,
      "inputs": [
        {
          "indexed": true,
          "internalType": "address",
          "name": "comptrollerProxy",
          "type": "address"
        },
        {
          "indexed": true,
          "internalType": "address",
          "name": "policy",
          "type": "address"
        },
        {
          "indexed": true,
          "internalType": "enum IPolicyManager.PolicyHook",
          "name": "hook",
          "type": "uint8"
        }
      ],
      "name": "PolicyDisabledOnHookForFund",
      "type": "event"
    },
    {
      "anonymous": false,
      "inputs": [
        {
          "indexed": true,
          "internalType": "address",
          "name": "comptrollerProxy",
          "type": "address"
        },
        {
          "indexed": true,
          "internalType": "address",
          "name": "policy",
          "type": "address"
        },
        {
          "indexed": false,
          "internalType": "bytes",
          "name": "settingsData",
          "type": "bytes"
        }
      ],
      "name": "PolicyEnabledForFund",
      "type": "event"
    },
    {
      "anonymous": false,
      "inputs": [
        {
          "indexed": true,
          "internalType": "address",
          "name": "comptrollerProxy",
          "type": "address"
        },
        {
          "indexed": true,
          "internalType": "address",
          "name": "vaultProxy",
          "type": "address"
        }
      ],
      "name": "ValidatedVaultProxySetForFund",
      "type": "event"
    },
    {
      "inputs": [
        {
          "internalType": "bool",
          "name": "_isMigratedFund",
          "type": "bool"
        }
      ],
      "name": "activateForFund",
      "outputs": [],
      "stateMutability": "nonpayable",
      "type": "function"
    },
    {
      "inputs": [],
      "name": "deactivateForFund",
      "outputs": [],
      "stateMutability": "nonpayable",
      "type": "function"
    },
    {
      "inputs": [
        {
          "internalType": "address",
          "name": "_comptrollerProxy",
          "type": "address"
        },
        {
          "internalType": "address",
          "name": "_policy",
          "type": "address"
        }
      ],
      "name": "disablePolicyForFund",
      "outputs": [],
      "stateMutability": "nonpayable",
      "type": "function"
    },
    {
      "inputs": [
        {
          "internalType": "address",
          "name": "_comptrollerProxy",
          "type": "address"
        },
        {
          "internalType": "address",
          "name": "_policy",
          "type": "address"
        },
        {
          "internalType": "bytes",
          "name": "_settingsData",
          "type": "bytes"
        }
      ],
      "name": "enablePolicyForFund",
      "outputs": [],
      "stateMutability": "nonpayable",
      "type": "function"
    },
    {
      "inputs": [
        {
          "internalType": "address",
          "name": "_comptrollerProxy",
          "type": "address"
        }
      ],
      "name": "getEnabledPoliciesForFund",
      "outputs": [
        {
          "internalType": "address[]",
          "name": "enabledPolicies_",
          "type": "address[]"
        }
      ],
      "stateMutability": "view",
      "type": "function"
    },
    {
      "inputs": [
        {
          "internalType": "address",
          "name": "_comptrollerProxy",
          "type": "address"
        },
        {
          "internalType": "enum IPolicyManager.PolicyHook",
          "name": "_hook",
          "type": "uint8"
        }
      ],
      "name": "getEnabledPoliciesOnHookForFund",
      "outputs": [
        {
          "internalType": "address[]",
          "name": "enabledPolicies_",
          "type": "address[]"
        }
      ],
      "stateMutability": "view",
      "type": "function"
    },
    {
      "inputs": [],
      "name": "getFundDeployer",
      "outputs": [
        {
          "internalType": "address",
          "name": "fundDeployer_",
          "type": "address"
        }
      ],
      "stateMutability": "view",
      "type": "function"
    },
    {
      "inputs": [],
      "name": "getGasRelayPaymasterFactory",
      "outputs": [
        {
          "internalType": "address",
          "name": "gasRelayPaymasterFactory_",
          "type": "address"
        }
      ],
      "stateMutability": "view",
      "type": "function"
    },
    {
      "inputs": [],
      "name": "getGasRelayTrustedForwarder",
      "outputs": [
        {
          "internalType": "address",
          "name": "trustedForwarder_",
          "type": "address"
        }
      ],
      "stateMutability": "view",
      "type": "function"
    },
    {
      "inputs": [],
      "name": "getOwner",
      "outputs": [
        {
          "internalType": "address",
          "name": "owner_",
          "type": "address"
        }
      ],
      "stateMutability": "view",
      "type": "function"
    },
    {
      "inputs": [
        {
          "internalType": "address",
          "name": "_comptrollerProxy",
          "type": "address"
        }
      ],
      "name": "getVaultProxyForFund",
      "outputs": [
        {
          "internalType": "address",
          "name": "vaultProxy_",
          "type": "address"
        }
      ],
      "stateMutability": "view",
      "type": "function"
    },
    {
      "inputs": [
        {
          "internalType": "address",
          "name": "_comptrollerProxy",
          "type": "address"
        },
        {
          "internalType": "enum IPolicyManager.PolicyHook",
          "name": "_hook",
          "type": "uint8"
        },
        {
          "internalType": "address",
          "name": "_policy",
          "type": "address"
        }
      ],
      "name": "policyIsEnabledOnHookForFund",
      "outputs": [
        {
          "internalType": "bool",
          "name": "isEnabled_",
          "type": "bool"
        }
      ],
      "stateMutability": "view",
      "type": "function"
    },
    {
      "inputs": [
        {
          "internalType": "address",
          "name": "",
          "type": "address"
        },
        {
          "internalType": "uint256",
          "name": "",
          "type": "uint256"
        },
        {
          "internalType": "bytes",
          "name": "",
          "type": "bytes"
        }
      ],
      "name": "receiveCallFromComptroller",
      "outputs": [],
      "stateMutability": "nonpayable",
      "type": "function"
    },
    {
      "inputs": [
        {
          "internalType": "address",
          "name": "_comptrollerProxy",
          "type": "address"
        },
        {
          "internalType": "address",
          "name": "_vaultProxy",
          "type": "address"
        },
        {
          "internalType": "bytes",
          "name": "_configData",
          "type": "bytes"
        }
      ],
      "name": "setConfigForFund",
      "outputs": [],
      "stateMutability": "nonpayable",
      "type": "function"
    },
    {
      "inputs": [
        {
          "internalType": "address",
          "name": "_comptrollerProxy",
          "type": "address"
        },
        {
          "internalType": "address",
          "name": "_policy",
          "type": "address"
        },
        {
          "internalType": "bytes",
          "name": "_settingsData",
          "type": "bytes"
        }
      ],
      "name": "updatePolicySettingsForFund",
      "outputs": [],
      "stateMutability": "nonpayable",
      "type": "function"
    },
    {
      "inputs": [
        {
          "internalType": "address",
          "name": "_comptrollerProxy",
          "type": "address"
        },
        {
          "internalType": "enum IPolicyManager.PolicyHook",
          "name": "_hook",
          "type": "uint8"
        },
        {
          "internalType": "bytes",
          "name": "_validationData",
          "type": "bytes"
        }
      ],
      "name": "validatePolicies",
      "outputs": [],
      "stateMutability": "nonpayable",
      "type": "function"
    }
  ],
  "transactionHash": "0x8ef7773c7d48d7311762fd461de34e244c8a6702a78197b7797bcc64208ed0e6",
  "args": [
    "0xaca81583840B1bf2dDF6CDe824ada250C1936B4D",
    "0xefAB0Beb0A557E452b398035eA964948c750b2Fd"
  ],
  "solcInputHash": "e128c99a7ad98ab17bfe5eac6103458b",
  "bytecode": "0x60c06040523480156200001157600080fd5b506040516200251e3803806200251e833981016040819052620000349162000066565b6001600160601b0319606092831b8116608052911b1660a052620000d1565b80516200006081620000b7565b92915050565b600080604083850312156200007a57600080fd5b600062000088858562000053565b92505060206200009b8582860162000053565b9150509250929050565b60006001600160a01b03821662000060565b620000c281620000a5565b8114620000ce57600080fd5b50565b60805160601c60a05160601c6124196200010560003980610de1525080610c285280610d965280610dbd52506124196000f3fe608060405234801561001057600080fd5b50600436106101005760003560e01c806380d570631161009757806397c0ac871161006657806397c0ac8714610205578063ac2594561461020d578063bd8e959a14610215578063f067cc111461021d57610100565b806380d57063146101b7578063893d20e8146101ca5780638aa740b4146101d25780638af6d89e146101f257610100565b806346790346116100d3578063467903461461016957806348f35209146101895780634ed28b3f1461019c5780636ea21143146101af57610100565b80630442bad5146101055780631bee801e1461011a578063248a2aab1461012d57806345d582e714610156575b600080fd5b610118610113366004611af2565b610230565b005b610118610128366004611b25565b610511565b61014061013b366004611aa5565b610529565b60405161014d9190612118565b60405180910390f35b6101186101643660046119d3565b610549565b61017c61017736600461198f565b6107ec565b60405161014d9190612077565b610118610197366004611a0d565b61080d565b6101186101aa366004611a0d565b6109d2565b61017c610aeb565b6101186101c5366004611bec565b610bdb565b61017c610c24565b6101e56101e0366004611a75565b610c7f565b60405161014d9190612107565b6101e561020036600461198f565b610d21565b61017c610d76565b61017c610ddf565b610118610e03565b61011861022b366004611a0d565b610e05565b606061023c8585610c7f565b905080516000141561024e575061050b565b336001600160a01b03861614806102e65750846001600160a01b031663e7c456906040518163ffffffff1660e01b815260040160206040518083038186803b15801561029957600080fd5b505afa1580156102ad573d6000803e3d6000fd5b505050506040513d601f19601f820116820180604052508101906102d191906119b5565b6001600160a01b0316336001600160a01b0316145b806103725750846001600160a01b031663b3fc38e96040518163ffffffff1660e01b815260040160206040518083038186803b15801561032557600080fd5b505afa158015610339573d6000803e3d6000fd5b505050506040513d601f19601f8201168201806040525081019061035d91906119b5565b6001600160a01b0316336001600160a01b0316145b6103975760405162461bcd60e51b815260040161038e90612177565b60405180910390fd5b60005b8151811015610508578181815181106103af57fe5b60200260200101516001600160a01b031663579be718878787876040518563ffffffff1660e01b81526004016103e894939291906120cf565b602060405180830381600087803b15801561040257600080fd5b505af1158015610416573d6000803e3d6000fd5b505050506040513d601f19601f8201168201806040525081019061043a9190611c0a565b82828151811061044657fe5b60200260200101516001600160a01b0316637998a1c46040518163ffffffff1660e01b815260040160006040518083038186803b15801561048657600080fd5b505afa15801561049a573d6000803e3d6000fd5b505050506040513d6000823e601f3d908101601f191682016040526104c29190810190611c28565b6040516020016104d29190612060565b604051602081830303815290604052906104ff5760405162461bcd60e51b815260040161038e9190612126565b5060010161039a565b50505b50505050565b60405162461bcd60e51b815260040161038e90612187565b600061053f826105398686610c7f565b9061106a565b90505b9392505050565b81610553816107ec565b6001600160a01b031663893d20e86040518163ffffffff1660e01b815260040160206040518083038186803b15801561058b57600080fd5b505afa15801561059f573d6000803e3d6000fd5b505050506040513d601f19601f820116820180604052508101906105c391906119b5565b6001600160a01b03166105d46110c0565b6001600160a01b0316146105fa5760405162461bcd60e51b815260040161038e906121c7565b816001600160a01b0316631ef925786040518163ffffffff1660e01b815260040160206040518083038186803b15801561063357600080fd5b505afa158015610647573d6000803e3d6000fd5b505050506040513d601f19601f8201168201806040525081019061066b9190611c0a565b6106875760405162461bcd60e51b815260040161038e906121a7565b6060826001600160a01b031663cbf54bb26040518163ffffffff1660e01b815260040160006040518083038186803b1580156106c257600080fd5b505afa1580156106d6573d6000803e3d6000fd5b505050506040513d6000823e601f3d908101601f191682016040526106fe9190810190611bb7565b905060005b81518110156107e5576001600160a01b03851660009081526001602052604081208351610774918791849087908790811061073a57fe5b6020026020010151600981111561074d57fe5b600981111561075857fe5b815260200190815260200160002061110490919063ffffffff16565b905080156107dc5782828151811061078857fe5b6020026020010151600981111561079b57fe5b856001600160a01b0316876001600160a01b03167f672fd0d75642b1e8875f32a1c3f8197c03288c7215329c9a99336feafb801c0260405160405180910390a45b50600101610703565b5050505050565b6001600160a01b03808216600090815260208190526040902054165b919050565b83610817816107ec565b6001600160a01b031663893d20e86040518163ffffffff1660e01b815260040160206040518083038186803b15801561084f57600080fd5b505afa158015610863573d6000803e3d6000fd5b505050506040513d601f19601f8201168201806040525081019061088791906119b5565b6001600160a01b03166108986110c0565b6001600160a01b0316146108be5760405162461bcd60e51b815260040161038e906121c7565b6060846001600160a01b031663cbf54bb26040518163ffffffff1660e01b815260040160006040518083038186803b1580156108f957600080fd5b505afa15801561090d573d6000803e3d6000fd5b505050506040513d6000823e601f3d908101601f191682016040526109359190810190611bb7565b905060005b81518110156109845761095f82828151811061095257fe5b60200260200101516111fc565b1561097c5760405162461bcd60e51b815260040161038e90612157565b60010161093a565b506109c8868686868080601f016020809104026020016040519081016040528093929190818152602001838380828437600092019190915250879250611228915050565b61050886866113b5565b836109dc816107ec565b6001600160a01b031663893d20e86040518163ffffffff1660e01b815260040160206040518083038186803b158015610a1457600080fd5b505afa158015610a28573d6000803e3d6000fd5b505050506040513d601f19601f82011682018060405250810190610a4c91906119b5565b6001600160a01b0316610a5d6110c0565b6001600160a01b031614610a835760405162461bcd60e51b815260040161038e906121c7565b60405162d4d75160e41b81526001600160a01b03851690630d4d751090610ab290889087908790600401612085565b600060405180830381600087803b158015610acc57600080fd5b505af1158015610ae0573d6000803e3d6000fd5b505050505050505050565b6000610af5610ddf565b6001600160a01b03166398a7c4c76040518163ffffffff1660e01b815260040160206040518083038186803b158015610b2d57600080fd5b505afa158015610b41573d6000803e3d6000fd5b505050506040513d601f19601f82011682018060405250810190610b6591906119b5565b6001600160a01b0316637da0a8776040518163ffffffff1660e01b815260040160206040518083038186803b158015610b9d57600080fd5b505afa158015610bb1573d6000803e3d6000fd5b505050506040513d601f19601f82011682018060405250810190610bd591906119b5565b90505b90565b338115610c20576060610bed82610d21565b905060005b815181101561050b57610c1883838381518110610c0b57fe5b60200260200101516113b5565b600101610bf2565b5050565b60007f00000000000000000000000000000000000000000000000000000000000000006001600160a01b031663893d20e86040518163ffffffff1660e01b815260040160206040518083038186803b158015610b9d57600080fd5b6001600160a01b0382166000908152600160205260408120606091836009811115610ca657fe5b6009811115610cb157fe5b8152602001908152602001600020805480602002602001604051908101604052809291908181526020018280548015610d1357602002820191906000526020600020905b81546001600160a01b03168152600190910190602001808311610cf5575b505050505090505b92915050565b6060610d2b611702565b610d3361140f565b905060005b600a811015610d6f57610d65610d5e858484600a8110610d5457fe5b6020020151610c7f565b849061146c565b9250600101610d38565b5050919050565b6000610dba604051806060016040528060298152602001612392602991397f00000000000000000000000000000000000000000000000000000000000000006115c0565b507f000000000000000000000000000000000000000000000000000000000000000090565b7f000000000000000000000000000000000000000000000000000000000000000090565b565b610e276040518060600160405280602d8152602001612342602d9139336115c0565b610e2f610d76565b6001600160a01b0316336001600160a01b031614610e5f5760405162461bcd60e51b815260040161038e90612197565b610e9d6040518060400160405280601e81526020017f706f6c6963794d616e6167657220736574436f6e666967466f7246756e640000815250611605565b610ea7848461164b565b610ec860405180606001604052806037815260200161230b60379139611605565b610f0782828080601f0160208091040260200160405190810160405280939291908181526020018383808284376000920191909152506116a292505050565b801580610f145750600181145b15610f1e5761050b565b610f3f60405180606001604052806023815260200161236f60239139611605565b606080610f4e83850185611b58565b91509150610f736040518060600160405280602981526020016123bb60299139611605565b8051825114610f945760405162461bcd60e51b815260040161038e90612167565b60005b82518110156110615761105987848381518110610fb057fe5b6020026020010151848481518110610fc457fe5b6020026020010151868581518110610fd857fe5b60200260200101516001600160a01b031663cbf54bb26040518163ffffffff1660e01b815260040160006040518083038186803b15801561101857600080fd5b505afa15801561102c573d6000803e3d6000fd5b505050506040513d6000823e601f3d908101601f191682016040526110549190810190611bb7565b611228565b600101610f97565b50505050505050565b6000805b83518110156110b65783818151811061108357fe5b60200260200101516001600160a01b0316836001600160a01b031614156110ae576001915050610d1b565b60010161106e565b5060009392505050565b6000601836108015906110eb57506110d6610aeb565b6001600160a01b0316336001600160a01b0316145b156110ff575060131936013560601c610bd8565b503390565b8154600090815b818110156111f457836001600160a01b031685828154811061112957fe5b6000918252602090912001546001600160a01b031614156111ec57600182038110156111b75784600183038154811061115e57fe5b9060005260206000200160009054906101000a90046001600160a01b031685828154811061118857fe5b9060005260206000200160006101000a8154816001600160a01b0302191690836001600160a01b031602179055505b848054806111c157fe5b600082815260209020810160001990810180546001600160a01b0319169055019055600192506111f4565b60010161110b565b505092915050565b6000600282600981111561120c57fe5b1480610d1b5750600382600981111561122157fe5b1492915050565b81511561129057604051630f5f6b4f60e01b81526001600160a01b03841690630f5f6b4f9061125d90879086906004016120af565b600060405180830381600087803b15801561127757600080fd5b505af115801561128b573d6000803e3d6000fd5b505050505b60005b8151811015611363576112ba858383815181106112ac57fe5b602002602001015186610529565b156112d75760405162461bcd60e51b815260040161038e906121b7565b6001600160a01b0385166000908152600160205260408120835190919084908490811061130057fe5b6020026020010151600981111561131357fe5b600981111561131e57fe5b815260208082019290925260400160009081208054600180820183559183529290912090910180546001600160a01b0319166001600160a01b03871617905501611293565b50826001600160a01b0316846001600160a01b03167faa4df4fe117c520783cfff01c11283496ff2999c77c2a9b800808251a9a0332a846040516113a79190612126565b60405180910390a350505050565b60405163ceb9a0ad60e01b81526001600160a01b0382169063ceb9a0ad906113e1908590600401612077565b600060405180830381600087803b1580156113fb57600080fd5b505af1158015610508573d6000803e3d6000fd5b611417611702565b6040805161014081019091528060008152602001600181526020016002815260200160038152602001600481526020016005815260200160068152602001600781526020016008815260200160099052905090565b60606000805b83518110156114ab576114988585838151811061148b57fe5b602002602001015161106a565b6114a3576001909101905b600101611472565b50806114ba5783915050610d1b565b8084510167ffffffffffffffff811180156114d457600080fd5b506040519080825280602002602001820160405280156114fe578160200160208202803683370190505b50915060005b845181101561154d5784818151811061151957fe5b602002602001015183828151811061152d57fe5b6001600160a01b0390921660209283029190910190910152600101611504565b50835160005b84518110156115b75761156c8686838151811061148b57fe5b6115af5784818151811061157c57fe5b602002602001015184838151811061159057fe5b6001600160a01b03909216602092830291909101909101526001909101905b600101611553565b50505092915050565b610c2082826040516024016115d6929190612137565b60408051601f198184030181529190526020810180516001600160e01b031663319af33360e01b1790526116e1565b611648816040516024016116199190612126565b60408051601f198184030181529190526020810180516001600160e01b031663104c13eb60e21b1790526116e1565b50565b6001600160a01b0382811660008181526020819052604080822080546001600160a01b0319169486169485179055517f8852dcaa71340ea616a65ffac013450dfb238607481fb9d78346c667fe256c139190a35050565b611648816040516024016116b69190612126565b60408051601f198184030181529190526020810180516001600160e01b03166305f3bfab60e11b1790525b80516a636f6e736f6c652e6c6f67602083016000808483855afa5050505050565b604051806101400160405280600a906020820280368337509192915050565b8035610d1b816122d7565b8051610d1b816122d7565b600082601f83011261174857600080fd5b813561175b611756826121fe565b6121d7565b9150818183526020840193506020810190508385602084028201111561178057600080fd5b60005b838110156117ac57816117968882611721565b8452506020928301929190910190600101611783565b5050505092915050565b600082601f8301126117c757600080fd5b81356117d5611756826121fe565b81815260209384019390925082018360005b838110156117ac57813586016117fd88826118e2565b84525060209283019291909101906001016117e7565b600082601f83011261182457600080fd5b8151611832611756826121fe565b9150818183526020840193506020810190508385602084028201111561185757600080fd5b60005b838110156117ac578161186d8882611933565b845250602092830192919091019060010161185a565b8035610d1b816122eb565b8051610d1b816122eb565b60008083601f8401126118ab57600080fd5b50813567ffffffffffffffff8111156118c357600080fd5b6020830191508360018202830111156118db57600080fd5b9250929050565b600082601f8301126118f357600080fd5b81356119016117568261221f565b9150808252602083016020830185838301111561191d57600080fd5b6115b783828461228b565b8035610d1b816122f4565b8051610d1b816122f4565b600082601f83011261194f57600080fd5b815161195d6117568261221f565b9150808252602083016020830185838301111561197957600080fd5b6115b7838284612297565b8035610d1b81612301565b6000602082840312156119a157600080fd5b60006119ad8484611721565b949350505050565b6000602082840312156119c757600080fd5b60006119ad848461172c565b600080604083850312156119e657600080fd5b60006119f28585611721565b9250506020611a0385828601611721565b9150509250929050565b60008060008060608587031215611a2357600080fd5b6000611a2f8787611721565b9450506020611a4087828801611721565b935050604085013567ffffffffffffffff811115611a5d57600080fd5b611a6987828801611899565b95989497509550505050565b60008060408385031215611a8857600080fd5b6000611a948585611721565b9250506020611a0385828601611928565b600080600060608486031215611aba57600080fd5b6000611ac68686611721565b9350506020611ad786828701611928565b9250506040611ae886828701611721565b9150509250925092565b60008060008060608587031215611b0857600080fd5b6000611b148787611721565b9450506020611a4087828801611928565b60008060008060608587031215611b3b57600080fd5b6000611b478787611721565b9450506020611a4087828801611984565b60008060408385031215611b6b57600080fd5b823567ffffffffffffffff811115611b8257600080fd5b611b8e85828601611737565b925050602083013567ffffffffffffffff811115611bab57600080fd5b611a03858286016117b6565b600060208284031215611bc957600080fd5b815167ffffffffffffffff811115611be057600080fd5b6119ad84828501611813565b600060208284031215611bfe57600080fd5b60006119ad8484611883565b600060208284031215611c1c57600080fd5b60006119ad848461188e565b600060208284031215611c3a57600080fd5b815167ffffffffffffffff811115611c5157600080fd5b6119ad8482850161193e565b6000611c698383611c71565b505060200190565b611c7a8161225a565b82525050565b6000611c8b8261224d565b611c958185612251565b9350611ca083612247565b8060005b83811015611cce578151611cb88882611c5d565b9750611cc383612247565b925050600101611ca4565b509495945050505050565b611c7a81612265565b6000611cee8385612251565b9350611cfb83858461228b565b611d04836122c3565b9093019392505050565b6000611d198261224d565b611d238185612251565b9350611d33818560208601612297565b611d04816122c3565b611c7a81612280565b6000611d508261224d565b611d5a8185610808565b9350611d6a818560208601612297565b9290920192915050565b6000611d81604383612251565b7f656e61626c65506f6c696379466f7246756e643a205f706f6c6963792072657381527f74726963747320616374696f6e73206f662063757272656e7420696e766573746020820152626f727360e81b604082015260600192915050565b6000611dec604183612251565b7f736574436f6e666967466f7246756e643a20706f6c696369657320616e64207381527f657474696e677344617461206172726179206c656e6774687320756e657175616020820152601b60fa1b604082015260600192915050565b6000611e55601983610808565b7f52756c65206576616c756174656420746f2066616c73653a2000000000000000815260190192915050565b6000611e8e602483612251565b7f76616c6964617465506f6c69636965733a2043616c6c6572206e6f7420616c6c8152631bddd95960e21b602082015260400192915050565b6000611ed4603783612251565b7f7265636569766543616c6c46726f6d436f6d7074726f6c6c65723a20556e696d81527f706c656d656e74656420666f7220457874656e73696f6e000000000000000000602082015260400192915050565b6000611f33602883612251565b7f4f6e6c79207468652046756e644465706c6f7965722063616e206d616b6520748152671a1a5cc818d85b1b60c21b602082015260400192915050565b6000611f7d603083612251565b7f64697361626c65506f6c696379466f7246756e643a205f706f6c69637920636181526f1b9b9bdd08189948191a5cd8589b195960821b602082015260400192915050565b6000611fcf603083612251565b7f5f5f656e61626c65506f6c696379466f7246756e643a20506f6c69637920697381526f08185b1c9958591e48195b98589b195960821b602082015260400192915050565b6000612021602a83612251565b7f4f6e6c79207468652066756e64206f776e65722063616e2063616c6c207468698152693990333ab731ba34b7b760b11b602082015260400192915050565b600061206b82611e48565b91506105428284611d45565b60208101610d1b8284611c71565b604081016120938286611c71565b81810360208301526120a6818486611ce2565b95945050505050565b604081016120bd8285611c71565b818103602083015261053f8184611d0e565b606081016120dd8287611c71565b6120ea6020830186611d3c565b81810360408301526120fd818486611ce2565b9695505050505050565b602080825281016105428184611c80565b60208101610d1b8284611cd9565b602080825281016105428184611d0e565b604080825281016121488185611d0e565b90506105426020830184611c71565b60208082528101610d1b81611d74565b60208082528101610d1b81611ddf565b60208082528101610d1b81611e81565b60208082528101610d1b81611ec7565b60208082528101610d1b81611f26565b60208082528101610d1b81611f70565b60208082528101610d1b81611fc2565b60208082528101610d1b81612014565b60405181810167ffffffffffffffff811182821017156121f657600080fd5b604052919050565b600067ffffffffffffffff82111561221557600080fd5b5060209081020190565b600067ffffffffffffffff82111561223657600080fd5b506020601f91909101601f19160190565b60200190565b5190565b90815260200190565b6000610d1b82612274565b151590565b80610808816122cd565b6001600160a01b031690565b6000610d1b8261226a565b82818337506000910152565b60005b838110156122b257818101518382015260200161229a565b8381111561050b5750506000910152565b601f01601f191690565b600a811061164857fe5b6122e08161225a565b811461164857600080fd5b6122e081612265565b600a811061164857600080fd5b6122e081610bd856fe706f6c6963794d616e6167657220736574436f6e666967466f7246756e64205f5f73657456616c6964617465645661756c7450726f7879457874656e73696f6e426173653a6f6e6c7946756e644465706c6f7965723a6d73672e73656e6465723a202573706f6c6963794d616e6167657220736574436f6e666967466f7246756e64203c3e203046756e644465706c6f7965724f776e65724d6978696e3a67657446756e644465706c6f7965723a2573706f6c6963794d616e6167657220736574436f6e666967466f7246756e6420616269206465636f6465a2646970667358221220b9b040b790126032ead8afcc0675c025a1521986291f51a442563d384542670f64736f6c634300060c0033",
  "devdoc": {
    "author": "Enzyme Council <security@enzyme.finance>",
    "details": "Any arbitrary fee is allowed by default, so all participants must be aware of their fund's configuration, especially whether they use official policies only. Policies that restrict current investors can only be added upon fund setup, migration, or reconfiguration. Policies that restrict new investors or asset management actions can be added at any time. Policies themselves specify whether or not they are allowed to be updated or removed.",
    "kind": "dev",
    "methods": {
      "activateForFund(bool)": {
        "details": "There will be no enabledPolicies if the caller is not a valid ComptrollerProxy",
        "params": {
          "_isMigratedFund": "True if the fund is migrating to this release"
        }
      },
      "deactivateForFund()": {
        "details": "Unimplemented by default, may be overridden."
      },
      "disablePolicyForFund(address,address)": {
        "details": "If an arbitrary policy changes its `implementedHooks()` return values after it is already enabled on a fund, then this will not correctly disable the policy from any removed hook values.",
        "params": {
          "_comptrollerProxy": "The ComptrollerProxy of the fund",
          "_policy": "The policy address to disable"
        }
      },
      "enablePolicyForFund(address,address,bytes)": {
        "details": "Disabling a policy does not delete fund config on the policy, so if a policy is disabled and then enabled again, its initial state will be the previous config. It is the policy's job to determine how to merge that config with the _settingsData param in this function.",
        "params": {
          "_comptrollerProxy": "The ComptrollerProxy of the fund",
          "_policy": "The policy address to enable",
          "_settingsData": "The encoded settings data with which to configure the policy"
        }
      },
      "getEnabledPoliciesForFund(address)": {
        "params": {
          "_comptrollerProxy": "The ComptrollerProxy"
        },
        "returns": {
          "enabledPolicies_": "The array of enabled policy addresses"
        }
      },
      "getEnabledPoliciesOnHookForFund(address,uint8)": {
        "params": {
          "_comptrollerProxy": "The ComptrollerProxy",
          "_hook": "The PolicyHook"
        },
        "returns": {
          "enabledPolicies_": "The array of enabled policy addresses"
        }
      },
      "getFundDeployer()": {
        "returns": {
          "fundDeployer_": "The `FUND_DEPLOYER` variable value"
        }
      },
      "getGasRelayPaymasterFactory()": {
        "returns": {
          "gasRelayPaymasterFactory_": "The `GAS_RELAY_PAYMASTER_FACTORY` variable value"
        }
      },
      "getGasRelayTrustedForwarder()": {
        "returns": {
          "trustedForwarder_": "The trusted forwarder"
        }
      },
      "getOwner()": {
        "details": "Ownership is deferred to the owner of the FundDeployer contract",
        "returns": {
          "owner_": "The owner"
        }
      },
      "getVaultProxyForFund(address)": {
        "params": {
          "_comptrollerProxy": "The ComptrollerProxy of the fund"
        },
        "returns": {
          "vaultProxy_": "The VaultProxy of the fund"
        }
      },
      "policyIsEnabledOnHookForFund(address,uint8,address)": {
        "params": {
          "_comptrollerProxy": "The ComptrollerProxy",
          "_hook": "The PolicyHook",
          "_policy": "The policy"
        },
        "returns": {
          "isEnabled_": "True if the policy is enabled"
        }
      },
      "receiveCallFromComptroller(address,uint256,bytes)": {
        "details": "Unimplemented by default, may be overridden."
      },
      "setConfigForFund(address,address,bytes)": {
        "params": {
          "_comptrollerProxy": "The ComptrollerProxy of the fund",
          "_configData": "Encoded config data",
          "_vaultProxy": "The VaultProxy of the fund"
        }
      },
      "updatePolicySettingsForFund(address,address,bytes)": {
        "params": {
          "_comptrollerProxy": "The ComptrollerProxy of the fund",
          "_policy": "The Policy contract to update",
          "_settingsData": "The encoded settings data with which to update the policy config"
        }
      },
      "validatePolicies(address,uint8,bytes)": {
        "params": {
          "_comptrollerProxy": "The ComptrollerProxy of the fund",
          "_hook": "The PolicyHook for which to validate policies",
          "_validationData": "The encoded data with which to validate the filtered policies"
        }
      }
    },
    "title": "PolicyManager Contract",
    "version": 1
  },
  "userdoc": {
    "kind": "user",
    "methods": {
      "activateForFund(bool)": {
        "notice": "Validates and initializes policies as necessary prior to fund activation"
      },
      "deactivateForFund()": {
        "notice": "Allows extension to run logic during fund deactivation (destruct)"
      },
      "disablePolicyForFund(address,address)": {
        "notice": "Disables a policy for a fund"
      },
      "enablePolicyForFund(address,address,bytes)": {
        "notice": "Enables a policy for a fund"
      },
      "getEnabledPoliciesForFund(address)": {
        "notice": "Get a list of enabled policies for the given fund"
      },
      "getEnabledPoliciesOnHookForFund(address,uint8)": {
        "notice": "Get a list of enabled policies that run on a given hook for the given fund"
      },
      "getFundDeployer()": {
        "notice": "Gets the `FUND_DEPLOYER` variable"
      },
      "getGasRelayPaymasterFactory()": {
        "notice": "Gets the `GAS_RELAY_PAYMASTER_FACTORY` variable"
      },
      "getGasRelayTrustedForwarder()": {
        "notice": "Gets the trusted forwarder for GSN relaying"
      },
      "getOwner()": {
        "notice": "Gets the owner of this contract"
      },
      "getVaultProxyForFund(address)": {
        "notice": "Gets the verified VaultProxy for a given ComptrollerProxy"
      },
      "policyIsEnabledOnHookForFund(address,uint8,address)": {
        "notice": "Check whether a given policy runs on a given hook for a given fund"
      },
      "receiveCallFromComptroller(address,uint256,bytes)": {
        "notice": "Receives calls from ComptrollerLib.callOnExtension() and dispatches the appropriate action"
      },
      "setConfigForFund(address,address,bytes)": {
        "notice": "Enable policies for use in a fund"
      },
      "updatePolicySettingsForFund(address,address,bytes)": {
        "notice": "Updates policy settings for a fund"
      },
      "validatePolicies(address,uint8,bytes)": {
        "notice": "Validates all policies that apply to a given hook for a fund"
      }
    },
    "notice": "Manages policies for funds",
    "version": 1
  },
  "storageLayout": {
    "storage": [
      {
        "astId": 39859,
        "contract": "contracts/release/extensions/policy-manager/PolicyManager.sol:PolicyManager",
        "label": "comptrollerProxyToVaultProxy",
        "offset": 0,
        "slot": "0",
        "type": "t_mapping(t_address,t_address)"
      },
      {
        "astId": 35475,
        "contract": "contracts/release/extensions/policy-manager/PolicyManager.sol:PolicyManager",
        "label": "comptrollerProxyToHookToPolicies",
        "offset": 0,
        "slot": "1",
        "type": "t_mapping(t_address,t_mapping(t_enum(PolicyHook)35417,t_array(t_address)dyn_storage))"
      }
    ],
    "types": {
      "t_address": {
        "encoding": "inplace",
        "label": "address",
        "numberOfBytes": "20"
      },
      "t_array(t_address)dyn_storage": {
        "base": "t_address",
        "encoding": "dynamic_array",
        "label": "address[]",
        "numberOfBytes": "32"
      },
      "t_enum(PolicyHook)35417": {
        "encoding": "inplace",
        "label": "enum IPolicyManager.PolicyHook",
        "numberOfBytes": "1"
      },
      "t_mapping(t_address,t_address)": {
        "encoding": "mapping",
        "key": "t_address",
        "label": "mapping(address => address)",
        "numberOfBytes": "32",
        "value": "t_address"
      },
      "t_mapping(t_address,t_mapping(t_enum(PolicyHook)35417,t_array(t_address)dyn_storage))": {
        "encoding": "mapping",
        "key": "t_address",
        "label": "mapping(address => mapping(enum IPolicyManager.PolicyHook => address[]))",
        "numberOfBytes": "32",
        "value": "t_mapping(t_enum(PolicyHook)35417,t_array(t_address)dyn_storage)"
      },
      "t_mapping(t_enum(PolicyHook)35417,t_array(t_address)dyn_storage)": {
        "encoding": "mapping",
        "key": "t_enum(PolicyHook)35417",
        "label": "mapping(enum IPolicyManager.PolicyHook => address[])",
        "numberOfBytes": "32",
        "value": "t_array(t_address)dyn_storage"
      }
    }
  }
}