{
  "address": "0x82EdA215Fa92B45a3a76837C65Ab862b6C7564a8",
  "abi": [
    {
      "inputs": [
        {
          "internalType": "address",
          "name": "_integrationManager",
          "type": "address"
        },
        {
          "internalType": "address",
          "name": "_poolTogetherV4PriceFeed",
          "type": "address"
        }
      ],
      "stateMutability": "nonpayable",
      "type": "constructor"
    },
    {
      "inputs": [],
      "name": "CLAIM_REWARDS_SELECTOR",
      "outputs": [
        {
          "internalType": "bytes4",
          "name": "",
          "type": "bytes4"
        }
      ],
      "stateMutability": "view",
      "type": "function"
    },
    {
      "inputs": [],
      "name": "LEND_AND_STAKE_SELECTOR",
      "outputs": [
        {
          "internalType": "bytes4",
          "name": "",
          "type": "bytes4"
        }
      ],
      "stateMutability": "view",
      "type": "function"
    },
    {
      "inputs": [],
      "name": "LEND_SELECTOR",
      "outputs": [
        {
          "internalType": "bytes4",
          "name": "",
          "type": "bytes4"
        }
      ],
      "stateMutability": "view",
      "type": "function"
    },
    {
      "inputs": [],
      "name": "REDEEM_SELECTOR",
      "outputs": [
        {
          "internalType": "bytes4",
          "name": "",
          "type": "bytes4"
        }
      ],
      "stateMutability": "view",
      "type": "function"
    },
    {
      "inputs": [],
      "name": "STAKE_SELECTOR",
      "outputs": [
        {
          "internalType": "bytes4",
          "name": "",
          "type": "bytes4"
        }
      ],
      "stateMutability": "view",
      "type": "function"
    },
    {
      "inputs": [],
      "name": "TAKE_ORDER_SELECTOR",
      "outputs": [
        {
          "internalType": "bytes4",
          "name": "",
          "type": "bytes4"
        }
      ],
      "stateMutability": "view",
      "type": "function"
    },
    {
      "inputs": [],
      "name": "UNSTAKE_AND_REDEEM_SELECTOR",
      "outputs": [
        {
          "internalType": "bytes4",
          "name": "",
          "type": "bytes4"
        }
      ],
      "stateMutability": "view",
      "type": "function"
    },
    {
      "inputs": [],
      "name": "UNSTAKE_SELECTOR",
      "outputs": [
        {
          "internalType": "bytes4",
          "name": "",
          "type": "bytes4"
        }
      ],
      "stateMutability": "view",
      "type": "function"
    },
    {
      "inputs": [
        {
          "internalType": "address",
          "name": "_vaultProxy",
          "type": "address"
        },
        {
          "internalType": "bytes",
          "name": "_actionData",
          "type": "bytes"
        },
        {
          "internalType": "bytes",
          "name": "",
          "type": "bytes"
        }
      ],
      "name": "claimRewards",
      "outputs": [],
      "stateMutability": "nonpayable",
      "type": "function"
    },
    {
      "inputs": [],
      "name": "getIntegrationManager",
      "outputs": [
        {
          "internalType": "address",
          "name": "integrationManager_",
          "type": "address"
        }
      ],
      "stateMutability": "view",
      "type": "function"
    },
    {
      "inputs": [],
      "name": "getPoolTogetherV4PriceFeed",
      "outputs": [
        {
          "internalType": "address",
          "name": "poolTogetherV4PriceFeed_",
          "type": "address"
        }
      ],
      "stateMutability": "view",
      "type": "function"
    },
    {
      "inputs": [
        {
          "internalType": "address",
          "name": "_vaultProxy",
          "type": "address"
        },
        {
          "internalType": "bytes",
          "name": "",
          "type": "bytes"
        },
        {
          "internalType": "bytes",
          "name": "_encodedAssetTransferArgs",
          "type": "bytes"
        }
      ],
      "name": "lend",
      "outputs": [],
      "stateMutability": "nonpayable",
      "type": "function"
    },
    {
      "inputs": [
        {
          "internalType": "address",
          "name": "",
          "type": "address"
        },
        {
          "internalType": "bytes4",
          "name": "_selector",
          "type": "bytes4"
        },
        {
          "internalType": "bytes",
          "name": "_actionData",
          "type": "bytes"
        }
      ],
      "name": "parseAssetsForAction",
      "outputs": [
        {
          "internalType": "enum IIntegrationManager.SpendAssetsHandleType",
          "name": "spendAssetsHandleType_",
          "type": "uint8"
        },
        {
          "internalType": "address[]",
          "name": "spendAssets_",
          "type": "address[]"
        },
        {
          "internalType": "uint256[]",
          "name": "spendAssetAmounts_",
          "type": "uint256[]"
        },
        {
          "internalType": "address[]",
          "name": "incomingAssets_",
          "type": "address[]"
        },
        {
          "internalType": "uint256[]",
          "name": "minIncomingAssetAmounts_",
          "type": "uint256[]"
        }
      ],
      "stateMutability": "view",
      "type": "function"
    },
    {
      "inputs": [
        {
          "internalType": "address",
          "name": "_vaultProxy",
          "type": "address"
        },
        {
          "internalType": "bytes",
          "name": "",
          "type": "bytes"
        },
        {
          "internalType": "bytes",
          "name": "_encodedAssetTransferArgs",
          "type": "bytes"
        }
      ],
      "name": "redeem",
      "outputs": [],
      "stateMutability": "nonpayable",
      "type": "function"
    }
  ],
  "transactionHash": "0x3e42d587f47da3727d8a1175dc897504e3686d2e82d915de1d9d9a7c37344192",
  "args": [
    "0xe70f935c32dA4dB13e7876795f1e175465e6458e",
    "0x1780bCf4103D3F501463AD3414c7f4b654bb7aFd"
  ],
  "linkedData": {
    "type": "ADAPTER"
  },
  "solcInputHash": "e128c99a7ad98ab17bfe5eac6103458b",
  "bytecode": "0x60c060405234801561001057600080fd5b50604051611b6c380380611b6c8339818101604052604081101561003357600080fd5b5080516020909101516001600160601b0319606092831b8116608052911b1660a05260805160601c60a05160601c611ad5610097600039806106f3528061112252806113605250806105d552806107d452806108915280610a315250611ad56000f3fe608060405234801561001057600080fd5b50600436106100ea5760003560e01c8063863e5ad01161008c578063c29fa9dd11610066578063c29fa9dd14610306578063c54efee5146103d4578063e7c4569014610596578063f7d882b51461059e576100ea565b8063863e5ad014610228578063b23228cf14610230578063b9dfbacc14610238576100ea565b80631687c89b116100c85780631687c89b146101ec578063257cb1a3146102105780633ffc15911461021857806340da225d14610220576100ea565b8063080456c1146100ef578063099f751514610114578063131461c0146101e4575b600080fd5b6100f76105a6565b604080516001600160e01b03199092168252519081900360200190f35b6101e26004803603606081101561012a57600080fd5b6001600160a01b038235169190810190604081016020820135600160201b81111561015457600080fd5b82018360208201111561016657600080fd5b803590602001918460018302840111600160201b8311171561018757600080fd5b919390929091602081019035600160201b8111156101a457600080fd5b8201836020820111156101b657600080fd5b803590602001918460018302840111600160201b831117156101d757600080fd5b5090925090506105ca565b005b6100f76106cd565b6101f46106f1565b604080516001600160a01b039092168252519081900360200190f35b6100f7610715565b6100f7610739565b6100f761075d565b6100f7610781565b6100f76107a5565b6101e26004803603606081101561024e57600080fd5b6001600160a01b038235169190810190604081016020820135600160201b81111561027857600080fd5b82018360208201111561028a57600080fd5b803590602001918460018302840111600160201b831117156102ab57600080fd5b919390929091602081019035600160201b8111156102c857600080fd5b8201836020820111156102da57600080fd5b803590602001918460018302840111600160201b831117156102fb57600080fd5b5090925090506107c9565b6101e26004803603606081101561031c57600080fd5b6001600160a01b038235169190810190604081016020820135600160201b81111561034657600080fd5b82018360208201111561035857600080fd5b803590602001918460018302840111600160201b8311171561037957600080fd5b919390929091602081019035600160201b81111561039657600080fd5b8201836020820111156103a857600080fd5b803590602001918460018302840111600160201b831117156103c957600080fd5b509092509050610886565b610461600480360360608110156103ea57600080fd5b6001600160a01b03823516916001600160e01b031960208201351691810190606081016040820135600160201b81111561042357600080fd5b82018360208201111561043557600080fd5b803590602001918460018302840111600160201b8311171561045657600080fd5b509092509050610970565b6040518086600281111561047157fe5b815260200180602001806020018060200180602001858103855289818151815260200191508051906020019060200280838360005b838110156104be5781810151838201526020016104a6565b50505050905001858103845288818151815260200191508051906020019060200280838360005b838110156104fd5781810151838201526020016104e5565b50505050905001858103835287818151815260200191508051906020019060200280838360005b8381101561053c578181015183820152602001610524565b50505050905001858103825286818151815260200191508051906020019060200280838360005b8381101561057b578181015183820152602001610563565b50505050905001995050505050505050505060405180910390f35b6101f4610a2f565b6100f7610a53565b7f8334eb99be0145865eba9889fca2ee920288090caefff4cc776038e20ad9259a81565b336001600160a01b037f000000000000000000000000000000000000000000000000000000000000000016146106315760405162461bcd60e51b81526004018080602001828103825260328152602001806119d76032913960400191505060405180910390fd5b606080606061067585858080601f016020809104026020016040519081016040528093929190818152602001838380828437600092019190915250610a7792505050565b9250925092506106c3888460008151811061068c57fe5b6020026020010151846000815181106106a157fe5b6020026020010151846000815181106106b657fe5b6020026020010151610c34565b5050505050505050565b7f29fa046e79524c3c5ac4c01df692c35e217802b2b13b21121b76cf0ef02b138c81565b7f000000000000000000000000000000000000000000000000000000000000000090565b7f099f75155f0e997bf83a7993a71d5e7e7540bd386fe1e84643a09ce6b412521981565b7ffa7dd04da627f433da73c4355ead9c75682a67a8fc84d3f6170ef0922f402d2481565b7fb9dfbaccbe5cd2a84fdcf1d15f23ef25d23086f5afbaa99516065ed4a5bbc7a381565b7f03e38a2bd7063d45c897edeafc330e71657502dd86434d3c37a489caf116af6981565b7f68e30677f607df46e87da13e15b637784cfa62374b653f35ab43d10361a2f83081565b336001600160a01b037f000000000000000000000000000000000000000000000000000000000000000016146108305760405162461bcd60e51b81526004018080602001828103825260328152602001806119d76032913960400191505060405180910390fd5b600060608061087487878080601f016020809104026020016040519081016040528093929190818152602001838380828437600092019190915250610d2092505050565b9250925092506106c388848484610e82565b336001600160a01b037f000000000000000000000000000000000000000000000000000000000000000016146108ed5760405162461bcd60e51b81526004018080602001828103825260328152602001806119d76032913960400191505060405180910390fd5b60608061092f84848080601f016020809104026020016040519081016040528093929190818152602001838380828437600092019190915250610a7792505050565b5091509150610967878360008151811061094557fe5b60200260200101518360008151811061095a57fe5b6020026020010151610fb3565b50505050505050565b600060608080806001600160e01b03198816632e77eeb360e21b14156109a757610998611070565b94509450945094509450610a24565b6001600160e01b0319881663099f751560e01b14156109ca5761099887876110d0565b6001600160e01b0319881663c29fa9dd60e01b14156109ed57610998878761130e565b60405162461bcd60e51b815260040180806020018281038252602781526020018061198c6027913960400191505060405180910390fd5b945094509450945094565b7f000000000000000000000000000000000000000000000000000000000000000090565b7fc29fa9dde84204c2908778afd0613d802d31cf046179b88f6d2b4a4e507ea2d581565b6060806060838060200190516060811015610a9157600080fd5b8101908080516040519392919084600160201b821115610ab057600080fd5b908301906020820185811115610ac557600080fd5b82518660208202830111600160201b82111715610ae157600080fd5b82525081516020918201928201910280838360005b83811015610b0e578181015183820152602001610af6565b5050505090500160405260200180516040519392919084600160201b821115610b3657600080fd5b908301906020820185811115610b4b57600080fd5b82518660208202830111600160201b82111715610b6757600080fd5b82525081516020918201928201910280838360005b83811015610b94578181015183820152602001610b7c565b5050505090500160405260200180516040519392919084600160201b821115610bbc57600080fd5b908301906020820185811115610bd157600080fd5b82518660208202830111600160201b82111715610bed57600080fd5b82525081516020918201928201910280838360005b83811015610c1a578181015183820152602001610c02565b505050509050016040525050509250925092509193909250565b6000816001600160a01b031663f77c47916040518163ffffffff1660e01b815260040160206040518083038186803b158015610c6f57600080fd5b505afa158015610c83573d6000803e3d6000fd5b505050506040513d6020811015610c9957600080fd5b50519050610ca884828561154c565b6040805163d7a169eb60e01b81526001600160a01b038781166004830181905260248301879052604483015291519183169163d7a169eb9160648082019260009290919082900301818387803b158015610d0157600080fd5b505af1158015610d15573d6000803e3d6000fd5b505050505050505050565b6000606080838060200190516060811015610d3a57600080fd5b815160208301805160405192949293830192919084600160201b821115610d6057600080fd5b908301906020820185811115610d7557600080fd5b82518660208202830111600160201b82111715610d9157600080fd5b82525081516020918201928201910280838360005b83811015610dbe578181015183820152602001610da6565b5050505090500160405260200180516040519392919084600160201b821115610de657600080fd5b908301906020820185811115610dfb57600080fd5b8251600160201b811182820188101715610e1457600080fd5b82525081516020918201929091019080838360005b83811015610e41578181015183820152602001610e29565b50505050905090810190601f168015610e6e5780820380516001836020036101000a031916815260200191505b506040525050509250925092509193909250565b826001600160a01b031663bb7d4e2d8584846040518463ffffffff1660e01b815260040180846001600160a01b031681526020018060200180602001838103835285818151815260200191508051906020019060200280838360005b83811015610ef6578181015183820152602001610ede565b50505050905001838103825284818151815260200191508051906020019080838360005b83811015610f32578181015183820152602001610f1a565b50505050905090810190601f168015610f5f5780820380516001836020036101000a031916815260200191505b5095505050505050602060405180830381600087803b158015610f8157600080fd5b505af1158015610f95573d6000803e3d6000fd5b505050506040513d6020811015610fab57600080fd5b505050505050565b6000826001600160a01b031663f77c47916040518163ffffffff1660e01b815260040160206040518083038186803b158015610fee57600080fd5b505afa158015611002573d6000803e3d6000fd5b505050506040513d602081101561101857600080fd5b505160408051639470b0bd60e01b81526001600160a01b03878116600483015260248201869052915192935090831691639470b0bd916044808201926020929091908290030181600087803b158015610f8157600080fd5b6000606080808084806040519080825280602002602001820160405280156110a2578160200160208202803683370190505b5060408051600080825260208201818152828401918252606083019093529399929850965094509092509050565b600060608060608060008061111a89898080601f01602080910402602001604051908101604052809392919081815260200183838082843760009201919091525061179192505050565b9150915060007f00000000000000000000000000000000000000000000000000000000000000006001600160a01b03166366adb867846040518263ffffffff1660e01b815260040180826001600160a01b0316815260200191505060206040518083038186803b15801561118d57600080fd5b505afa1580156111a1573d6000803e3d6000fd5b505050506040513d60208110156111b757600080fd5b505190506001600160a01b0381166112005760405162461bcd60e51b8152600401808060200182810382526029815260200180611a096029913960400191505060405180910390fd5b6040805160018082528183019092529060208083019080368337019050509650808760008151811061122e57fe5b6001600160a01b0392909216602092830291909101820152604080516001808252818301909252918281019080368337019050509550818660008151811061127257fe5b60209081029190910101526040805160018082528183019092529081602001602082028036833701905050945082856000815181106112ad57fe5b6001600160a01b039290921660209283029190910182015260408051600180825281830190925291828101908036833701905050935081846000815181106112f157fe5b602002602001018181525050600297505050509295509295909350565b600060608060608060008061135889898080601f01602080910402602001604051908101604052809392919081815260200183838082843760009201919091525061179192505050565b9150915060007f00000000000000000000000000000000000000000000000000000000000000006001600160a01b03166366adb867846040518263ffffffff1660e01b815260040180826001600160a01b0316815260200191505060206040518083038186803b1580156113cb57600080fd5b505afa1580156113df573d6000803e3d6000fd5b505050506040513d60208110156113f557600080fd5b505190506001600160a01b03811661143e5760405162461bcd60e51b815260040180806020018281038252602b815260200180611961602b913960400191505060405180910390fd5b6040805160018082528183019092529060208083019080368337019050509650828760008151811061146c57fe5b6001600160a01b039290921660209283029190910182015260408051600180825281830190925291828101908036833701905050955081866000815181106114b057fe5b60209081029190910101526040805160018082528183019092529081602001602082028036833701905050945080856000815181106114eb57fe5b6001600160a01b0392909216602092830291909101820152604080516001808252818301909252918281019080368337019050509350818460008151811061152f57fe5b602002602001018181525050600197505050509295509295909350565b60408051636eb1769f60e11b81523060048201526001600160a01b038481166024830152915160009286169163dd62ed3e916044808301926020929190829003018186803b15801561159d57600080fd5b505afa1580156115b1573d6000803e3d6000fd5b505050506040513d60208110156115c757600080fd5b5051604080516060810190915260268082529192506115ee91611a566020830139826117bc565b8181101561176a576116176040518060600160405280602881526020016119396028913961186e565b80156116c357836001600160a01b031663095ea7b38460006040518363ffffffff1660e01b815260040180836001600160a01b0316815260200182815260200192505050602060405180830381600087803b15801561167557600080fd5b505af1158015611689573d6000803e3d6000fd5b505050506040513d602081101561169f57600080fd5b5050604080516060810190915260248082526116c39190611a7c602083013961186e565b836001600160a01b031663095ea7b3846000196040518363ffffffff1660e01b815260040180836001600160a01b0316815260200182815260200192505050602060405180830381600087803b15801561171c57600080fd5b505af1158015611730573d6000803e3d6000fd5b505050506040513d602081101561174657600080fd5b50506040805160608101909152602480825261176a9190611a32602083013961186e565b61178b6040518060600160405280602481526020016119b36024913961186e565b50505050565b6000808280602001905160408110156117a957600080fd5b5080516020909101519092509050915091565b61186a82826040516024018080602001838152602001828103825284818151815260200191508051906020019080838360005b838110156118075781810151838201526020016117ef565b50505050905090810190601f1680156118345780820380516001836020036101000a031916815260200191505b5060408051601f198184030181529190526020810180516001600160e01b03166309710a9d60e41b179052935061191792505050565b5050565b611914816040516024018080602001828103825283818151815260200191508051906020019080838360005b838110156118b257818101518382015260200161189a565b50505050905090810190601f1680156118df5780820380516001836020036101000a031916815260200191505b5060408051601f198184030181529190526020810180516001600160e01b031663104c13eb60e21b1790529250611917915050565b50565b80516a636f6e736f6c652e6c6f67602083016000808483855afa505050505056fe5f5f617070726f766541737365744d617841734e65656465643a6265666f726520617070726f76655f5f7061727365417373657473466f7252656465656d3a20556e737570706f72746564207074546f6b656e7061727365417373657473466f724d6574686f643a205f73656c6563746f7220696e76616c69645f5f617070726f766541737365744d617841734e65656465643a617070726f76656420334f6e6c792074686520496e746567726174696f6e4d616e616765722063616e2063616c6c20746869732066756e6374696f6e5f5f7061727365417373657473466f724c656e643a20556e737570706f72746564207074546f6b656e5f5f617070726f766541737365744d617841734e65656465643a617070726f76656420325f5f617070726f766541737365744d617841734e65656465643a616c6c6f77616e63653a25645f5f617070726f766541737365744d617841734e65656465643a617070726f7665642031a26469706673582212206d7f0b00c5cad5a97e056b78d97e0d21f0d19b9092eec1dfc2027471036038ea64736f6c634300060c0033",
  "devdoc": {
    "author": "Enzyme Council <security@enzyme.finance>",
    "kind": "dev",
    "methods": {
      "claimRewards(address,bytes,bytes)": {
        "params": {
          "_actionData": "Data specific to this action",
          "_vaultProxy": "The VaultProxy of the calling fund"
        }
      },
      "getIntegrationManager()": {
        "returns": {
          "integrationManager_": "The `INTEGRATION_MANAGER` variable value"
        }
      },
      "getPoolTogetherV4PriceFeed()": {
        "returns": {
          "poolTogetherV4PriceFeed_": "The `POOL_TOGETHER_V4_PRICE_FEED` variable value"
        }
      },
      "lend(address,bytes,bytes)": {
        "params": {
          "_encodedAssetTransferArgs": "Encoded args for expected assets to spend and receive",
          "_vaultProxy": "The VaultProxy of the calling fund"
        }
      },
      "parseAssetsForAction(address,bytes4,bytes)": {
        "params": {
          "_actionData": "Data specific to this action",
          "_selector": "The function selector for the callOnIntegration"
        },
        "returns": {
          "incomingAssets_": "The assets to receive in the call",
          "minIncomingAssetAmounts_": "The min asset amounts to receive in the call",
          "spendAssetAmounts_": "The max asset amounts to spend in the call",
          "spendAssetsHandleType_": "A type that dictates how to handle granting the adapter access to spend assets (`None` by default)",
          "spendAssets_": "The assets to spend in the call"
        }
      },
      "redeem(address,bytes,bytes)": {
        "params": {
          "_encodedAssetTransferArgs": "Encoded args for expected assets to spend and receive",
          "_vaultProxy": "The VaultProxy of the calling fund"
        }
      }
    },
    "title": "PoolTogetherV4Adapter Contract",
    "version": 1
  },
  "userdoc": {
    "kind": "user",
    "methods": {
      "claimRewards(address,bytes,bytes)": {
        "notice": "Claims rewards from the Prize Distributor"
      },
      "getIntegrationManager()": {
        "notice": "Gets the `INTEGRATION_MANAGER` variable"
      },
      "getPoolTogetherV4PriceFeed()": {
        "notice": "Gets the `POOL_TOGETHER_V4_PRICE_FEED` variable"
      },
      "lend(address,bytes,bytes)": {
        "notice": "Lends an amount of a token to PoolTogether"
      },
      "parseAssetsForAction(address,bytes4,bytes)": {
        "notice": "Parses the expected assets in a particular action"
      },
      "redeem(address,bytes,bytes)": {
        "notice": "Redeems an amount of ptTokens from PoolTogether"
      }
    },
    "notice": "Adapter for PoolTogether (v4)",
    "version": 1
  },
  "storageLayout": {
    "storage": [],
    "types": null
  }
}