{
  "address": "0x70bDA08DBe07363968e9EE53d899dFE48560605B",
  "abi": [
    {
      "inputs": [
        {
          "internalType": "address",
          "name": "_fundDeployer",
          "type": "address"
        },
        {
          "internalType": "address",
          "name": "_addressResolver",
          "type": "address"
        },
        {
          "internalType": "address",
          "name": "_sUSD",
          "type": "address"
        }
      ],
      "stateMutability": "nonpayable",
      "type": "constructor"
    },
    {
      "anonymous": false,
      "inputs": [
        {
          "indexed": true,
          "internalType": "address",
          "name": "synth",
          "type": "address"
        },
        {
          "indexed": false,
          "internalType": "bytes32",
          "name": "currencyKey",
          "type": "bytes32"
        }
      ],
      "name": "SynthAdded",
      "type": "event"
    },
    {
      "anonymous": false,
      "inputs": [
        {
          "indexed": true,
          "internalType": "address",
          "name": "synth",
          "type": "address"
        },
        {
          "indexed": false,
          "internalType": "bytes32",
          "name": "currencyKey",
          "type": "bytes32"
        }
      ],
      "name": "SynthRemoved",
      "type": "event"
    },
    {
      "inputs": [
        {
          "internalType": "address[]",
          "name": "_synths",
          "type": "address[]"
        }
      ],
      "name": "addSynths",
      "outputs": [],
      "stateMutability": "nonpayable",
      "type": "function"
    },
    {
      "inputs": [
        {
          "internalType": "address",
          "name": "_derivative",
          "type": "address"
        },
        {
          "internalType": "uint256",
          "name": "_derivativeAmount",
          "type": "uint256"
        }
      ],
      "name": "calcUnderlyingValues",
      "outputs": [
        {
          "internalType": "address[]",
          "name": "underlyings_",
          "type": "address[]"
        },
        {
          "internalType": "uint256[]",
          "name": "underlyingAmounts_",
          "type": "uint256[]"
        }
      ],
      "stateMutability": "nonpayable",
      "type": "function"
    },
    {
      "inputs": [],
      "name": "getAddressResolver",
      "outputs": [
        {
          "internalType": "address",
          "name": "",
          "type": "address"
        }
      ],
      "stateMutability": "view",
      "type": "function"
    },
    {
      "inputs": [
        {
          "internalType": "address",
          "name": "_synth",
          "type": "address"
        }
      ],
      "name": "getCurrencyKeyForSynth",
      "outputs": [
        {
          "internalType": "bytes32",
          "name": "currencyKey_",
          "type": "bytes32"
        }
      ],
      "stateMutability": "view",
      "type": "function"
    },
    {
      "inputs": [
        {
          "internalType": "address[]",
          "name": "_synths",
          "type": "address[]"
        }
      ],
      "name": "getCurrencyKeysForSynths",
      "outputs": [
        {
          "internalType": "bytes32[]",
          "name": "currencyKeys_",
          "type": "bytes32[]"
        }
      ],
      "stateMutability": "view",
      "type": "function"
    },
    {
      "inputs": [],
      "name": "getFundDeployer",
      "outputs": [
        {
          "internalType": "address",
          "name": "fundDeployer_",
          "type": "address"
        }
      ],
      "stateMutability": "view",
      "type": "function"
    },
    {
      "inputs": [],
      "name": "getOwner",
      "outputs": [
        {
          "internalType": "address",
          "name": "owner_",
          "type": "address"
        }
      ],
      "stateMutability": "view",
      "type": "function"
    },
    {
      "inputs": [],
      "name": "getSUSD",
      "outputs": [
        {
          "internalType": "address",
          "name": "susd_",
          "type": "address"
        }
      ],
      "stateMutability": "view",
      "type": "function"
    },
    {
      "inputs": [
        {
          "internalType": "address",
          "name": "_asset",
          "type": "address"
        }
      ],
      "name": "isSupportedAsset",
      "outputs": [
        {
          "internalType": "bool",
          "name": "isSupported_",
          "type": "bool"
        }
      ],
      "stateMutability": "view",
      "type": "function"
    },
    {
      "inputs": [
        {
          "internalType": "address[]",
          "name": "_synths",
          "type": "address[]"
        }
      ],
      "name": "removeSynths",
      "outputs": [],
      "stateMutability": "nonpayable",
      "type": "function"
    }
  ],
  "transactionHash": "0xd9c3ad80bcd1cb3230b1ee72494624545fc466375609b7e70015414de74baa5a",
  "args": [
    "0xaca81583840B1bf2dDF6CDe824ada250C1936B4D",
    "0x4E3b31eB0E5CB73641EE1E65E7dCEFe520bA3ef2",
    "0x57Ab1ec28D129707052df4dF418D58a2D46d5f51"
  ],
  "solcInputHash": "e128c99a7ad98ab17bfe5eac6103458b",
  "bytecode": "0x60e060405234801561001057600080fd5b50604051610fef380380610fef8339818101604052606081101561003357600080fd5b50805160208201516040909201516001600160601b0319606092831b811660805292821b831660a052901b1660c05260805160601c60a05160601c60c05160601c610f4e6100a160003980610a32525080610729525080610a585280610b1b5280610b425250610f4e6000f3fe608060405234801561001057600080fd5b506004361061009e5760003560e01c806386eab2151161006657806386eab2151461032e578063893d20e8146103365780638d8c19851461033e57806397c0ac87146103765780639be918e61461037e5761009e565b806347a9b6db146100a357806365002a941461011557806371c1c54914610185578063727212f6146101a95780637827f4f61461026e575b600080fd5b610113600480360360208110156100b957600080fd5b8101906020810181356401000000008111156100d457600080fd5b8201836020820111156100e657600080fd5b8035906020019184602083028401116401000000008311171561010857600080fd5b5090925090506103b8565b005b6101136004803603602081101561012b57600080fd5b81019060208101813564010000000081111561014657600080fd5b82018360208201111561015857600080fd5b8035906020019184602083028401116401000000008311171561017a57600080fd5b5090925090506105b8565b61018d610727565b604080516001600160a01b039092168252519081900360200190f35b6101d5600480360360408110156101bf57600080fd5b506001600160a01b03813516906020013561074b565b604051808060200180602001838103835285818151815260200191508051906020019060200280838360005b83811015610219578181015183820152602001610201565b50505050905001838103825284818151815260200191508051906020019060200280838360005b83811015610258578181015183820152602001610240565b5050505090500194505050505060405180910390f35b6102de6004803603602081101561028457600080fd5b81019060208101813564010000000081111561029f57600080fd5b8201836020820111156102b157600080fd5b803590602001918460208302840111640100000000831117156102d357600080fd5b5090925090506109a9565b60408051602080825283518183015283519192839290830191858101910280838360005b8381101561031a578181015183820152602001610302565b505050509050019250505060405180910390f35b61018d610a30565b61018d610a54565b6103646004803603602081101561035457600080fd5b50356001600160a01b0316610ae0565b60408051918252519081900360200190f35b61018d610afb565b6103a46004803603602081101561039457600080fd5b50356001600160a01b0316610b64565b604080519115158252519081900360200190f35b6103c0610a54565b6001600160a01b0316336001600160a01b03161461040f5760405162461bcd60e51b8152600401808060200182810382526049815260200180610e536049913960600191505060405180910390fd5b60005b818110156105b35761043e83838381811061042957fe5b905060200201356001600160a01b0316610ae0565b15610490576040805162461bcd60e51b815260206004820152601c60248201527f61646453796e7468733a2056616c756520616c72656164792073657400000000604482015290519081900360640190fd5b60006104b68484848181106104a157fe5b905060200201356001600160a01b0316610b77565b90508061050a576040805162461bcd60e51b815260206004820152601960248201527f61646453796e7468733a204e6f2063757272656e63794b657900000000000000604482015290519081900360640190fd5b8060008086868681811061051a57fe5b905060200201356001600160a01b03166001600160a01b03166001600160a01b031681526020019081526020016000208190555083838381811061055a57fe5b905060200201356001600160a01b03166001600160a01b03167f61209fb9d54461f939ea62c8e068ffba9ade97587787c035e7e09d44ebab2cb8826040518082815260200191505060405180910390a250600101610412565b505050565b6105c0610a54565b6001600160a01b0316336001600160a01b03161461060f5760405162461bcd60e51b8152600401808060200182810382526049815260200180610e536049913960600191505060405180910390fd5b60005b818110156105b357600061062b84848481811061042957fe5b90508061067f576040805162461bcd60e51b815260206004820152601b60248201527f72656d6f766553796e7468733a2053796e7468206e6f74207365740000000000604482015290519081900360640190fd5b60008085858581811061068e57fe5b905060200201356001600160a01b03166001600160a01b03166001600160a01b03168152602001908152602001600020600090558383838181106106ce57fe5b905060200201356001600160a01b03166001600160a01b03167f28aa69b48662da632b1ade098469458d2ab3867388b470df19116893ecb1f22a826040518082815260200191505060405180910390a250600101610612565b7f000000000000000000000000000000000000000000000000000000000000000090565b60408051600180825281830190925260609182919060208083019080368337019050509150610778610a30565b8260008151811061078557fe5b6001600160a01b039290921660209283029190910182015260408051600180825281830190925291828101908036833701905050905060006107c685610ae0565b9050806108045760405162461bcd60e51b8152600401808060200182810382526032815260200180610df66032913960400191505060405180910390fd5b600061080e610727565b6001600160a01b031663dacb2d016040518163ffffffff1660e01b815260040180806c45786368616e6765526174657360981b815250602001806020018281038252602b815260200180610e28602b913960400191505060206040518083038186803b15801561087d57600080fd5b505afa158015610891573d6000803e3d6000fd5b505050506040513d60208110156108a757600080fd5b505160408051630c71cd2360e01b815260048101859052815192935060009283926001600160a01b03861692630c71cd239260248083019392829003018186803b1580156108f457600080fd5b505afa158015610908573d6000803e3d6000fd5b505050506040513d604081101561091e57600080fd5b508051602090910151909250905080156109695760405162461bcd60e51b8152600401808060200182810382526033815260200180610ee66033913960400191505060405180910390fd5b610985670de0b6b3a764000061097f8985610c52565b90610cb2565b8560008151811061099257fe5b602002602001018181525050505050509250929050565b60608167ffffffffffffffff811180156109c257600080fd5b506040519080825280602002602001820160405280156109ec578160200160208202803683370190505b50905060005b82811015610a2857610a0984848381811061042957fe5b828281518110610a1557fe5b60209081029190910101526001016109f2565b505b92915050565b7f000000000000000000000000000000000000000000000000000000000000000090565b60007f00000000000000000000000000000000000000000000000000000000000000006001600160a01b031663893d20e86040518163ffffffff1660e01b815260040160206040518083038186803b158015610aaf57600080fd5b505afa158015610ac3573d6000803e3d6000fd5b505050506040513d6020811015610ad957600080fd5b5051905090565b6001600160a01b031660009081526020819052604090205490565b6000610b3f604051806060016040528060298152602001610e9c602991397f0000000000000000000000000000000000000000000000000000000000000000610d19565b507f000000000000000000000000000000000000000000000000000000000000000090565b6000610b6f82610ae0565b151592915050565b6000816001600160a01b031663d4b839926040518163ffffffff1660e01b815260040160206040518083038186803b158015610bb257600080fd5b505afa158015610bc6573d6000803e3d6000fd5b505050506040513d6020811015610bdc57600080fd5b50516040805163dbd06c8560e01b815290516001600160a01b039092169163dbd06c8591600480820192602092909190829003018186803b158015610c2057600080fd5b505afa158015610c34573d6000803e3d6000fd5b505050506040513d6020811015610c4a57600080fd5b505192915050565b600082610c6157506000610a2a565b82820282848281610c6e57fe5b0414610cab5760405162461bcd60e51b8152600401808060200182810382526021815260200180610ec56021913960400191505060405180910390fd5b9392505050565b6000808211610d08576040805162461bcd60e51b815260206004820152601a60248201527f536166654d6174683a206469766973696f6e206279207a65726f000000000000604482015290519081900360640190fd5b818381610d1157fe5b049392505050565b610dd082826040516024018080602001836001600160a01b03168152602001828103825284818151815260200191508051906020019080838360005b83811015610d6d578181015183820152602001610d55565b50505050905090810190601f168015610d9a5780820380516001836020036101000a031916815260200191505b5060408051601f198184030181529190526020810180516001600160e01b031663319af33360e01b1790529350610dd492505050565b5050565b80516a636f6e736f6c652e6c6f67602083016000808483855afa505050505056fe63616c63556e6465726c79696e6756616c7565733a205f64657269766174697665206973206e6f7420737570706f7274656463616c63556e6465726c79696e6756616c7565733a204d697373696e672045786368616e676552617465736f6e6c7946756e644465706c6f7965724f776e65723a204f6e6c79207468652046756e644465706c6f796572206f776e65722063616e2063616c6c20746869732066756e6374696f6e46756e644465706c6f7965724f776e65724d6978696e3a67657446756e644465706c6f7965723a2573536166654d6174683a206d756c7469706c69636174696f6e206f766572666c6f7763616c63556e6465726c79696e6756616c7565733a205f646572697661746976652072617465206973206e6f742076616c6964a2646970667358221220201eee42dd8753351ba10cd303b88e21a66920117e0983e78c632021bcd191cf64736f6c634300060c0033",
  "devdoc": {
    "author": "Enzyme Council <security@enzyme.finance>",
    "kind": "dev",
    "methods": {
      "addSynths(address[])": {
        "params": {
          "_synths": "Synths to add"
        }
      },
      "calcUnderlyingValues(address,uint256)": {
        "params": {
          "_derivative": "The derivative to convert",
          "_derivativeAmount": "The amount of the derivative to convert"
        },
        "returns": {
          "underlyingAmounts_": "The amount of each underlying asset for the equivalent derivative amount",
          "underlyings_": "The underlying assets for the _derivative"
        }
      },
      "getAddressResolver()": {
        "returns": {
          "_0": "addressResolver_ The `ADDRESS_RESOLVER` variable value"
        }
      },
      "getCurrencyKeyForSynth(address)": {
        "returns": {
          "currencyKey_": "The currencyKey value"
        }
      },
      "getCurrencyKeysForSynths(address[])": {
        "returns": {
          "currencyKeys_": "The currencyKey values"
        }
      },
      "getFundDeployer()": {
        "returns": {
          "fundDeployer_": "The `FUND_DEPLOYER` variable value"
        }
      },
      "getOwner()": {
        "details": "Ownership is deferred to the owner of the FundDeployer contract",
        "returns": {
          "owner_": "The owner"
        }
      },
      "getSUSD()": {
        "returns": {
          "susd_": "The `SUSD` variable value"
        }
      },
      "isSupportedAsset(address)": {
        "params": {
          "_asset": "The asset to check"
        },
        "returns": {
          "isSupported_": "True if the asset is a supported primitive"
        }
      },
      "removeSynths(address[])": {
        "details": "Removing Synths from this feed will also affect the AssetFinalityResolver, as this contract is its shortcut determining whether assets are Synths",
        "params": {
          "_synths": "Synths to remove"
        }
      }
    },
    "title": "SynthetixPriceFeed Contract",
    "version": 1
  },
  "userdoc": {
    "kind": "user",
    "methods": {
      "addSynths(address[])": {
        "notice": "Adds Synths to the price feed"
      },
      "calcUnderlyingValues(address,uint256)": {
        "notice": "Converts a given amount of a derivative to its underlying asset values"
      },
      "getAddressResolver()": {
        "notice": "Gets the `ADDRESS_RESOLVER` variable"
      },
      "getCurrencyKeyForSynth(address)": {
        "notice": "Gets the currencyKey for a given Synth"
      },
      "getCurrencyKeysForSynths(address[])": {
        "notice": "Gets the currencyKey for multiple given Synths"
      },
      "getFundDeployer()": {
        "notice": "Gets the `FUND_DEPLOYER` variable"
      },
      "getOwner()": {
        "notice": "Gets the owner of this contract"
      },
      "getSUSD()": {
        "notice": "Gets the `SUSD` variable"
      },
      "isSupportedAsset(address)": {
        "notice": "Checks whether an asset is a supported primitive of the price feed"
      },
      "removeSynths(address[])": {
        "notice": "Removes Synths from the price feed"
      }
    },
    "notice": "A price feed that uses Synthetix oracles as price sources",
    "version": 1
  },
  "storageLayout": {
    "storage": [
      {
        "astId": 42663,
        "contract": "contracts/release/infrastructure/price-feeds/derivatives/feeds/SynthetixPriceFeed.sol:SynthetixPriceFeed",
        "label": "synthToCurrencyKey",
        "offset": 0,
        "slot": "0",
        "type": "t_mapping(t_address,t_bytes32)"
      }
    ],
    "types": {
      "t_address": {
        "encoding": "inplace",
        "label": "address",
        "numberOfBytes": "20"
      },
      "t_bytes32": {
        "encoding": "inplace",
        "label": "bytes32",
        "numberOfBytes": "32"
      },
      "t_mapping(t_address,t_bytes32)": {
        "encoding": "mapping",
        "key": "t_address",
        "label": "mapping(address => bytes32)",
        "numberOfBytes": "32",
        "value": "t_bytes32"
      }
    }
  }
}