{
  "address": "0x51C65cd0Cdb1A8A8b79dfc2eE965B1bA0bb8fc89",
  "abi": [
    {
      "inputs": [
        {
          "internalType": "address",
          "name": "_integrationManager",
          "type": "address"
        },
        {
          "internalType": "address",
          "name": "_router",
          "type": "address"
        }
      ],
      "stateMutability": "nonpayable",
      "type": "constructor"
    },
    {
      "inputs": [],
      "name": "CLAIM_REWARDS_SELECTOR",
      "outputs": [
        {
          "internalType": "bytes4",
          "name": "",
          "type": "bytes4"
        }
      ],
      "stateMutability": "view",
      "type": "function"
    },
    {
      "inputs": [],
      "name": "LEND_AND_STAKE_SELECTOR",
      "outputs": [
        {
          "internalType": "bytes4",
          "name": "",
          "type": "bytes4"
        }
      ],
      "stateMutability": "view",
      "type": "function"
    },
    {
      "inputs": [],
      "name": "LEND_SELECTOR",
      "outputs": [
        {
          "internalType": "bytes4",
          "name": "",
          "type": "bytes4"
        }
      ],
      "stateMutability": "view",
      "type": "function"
    },
    {
      "inputs": [],
      "name": "REDEEM_SELECTOR",
      "outputs": [
        {
          "internalType": "bytes4",
          "name": "",
          "type": "bytes4"
        }
      ],
      "stateMutability": "view",
      "type": "function"
    },
    {
      "inputs": [],
      "name": "STAKE_SELECTOR",
      "outputs": [
        {
          "internalType": "bytes4",
          "name": "",
          "type": "bytes4"
        }
      ],
      "stateMutability": "view",
      "type": "function"
    },
    {
      "inputs": [],
      "name": "TAKE_ORDER_SELECTOR",
      "outputs": [
        {
          "internalType": "bytes4",
          "name": "",
          "type": "bytes4"
        }
      ],
      "stateMutability": "view",
      "type": "function"
    },
    {
      "inputs": [],
      "name": "UNSTAKE_AND_REDEEM_SELECTOR",
      "outputs": [
        {
          "internalType": "bytes4",
          "name": "",
          "type": "bytes4"
        }
      ],
      "stateMutability": "view",
      "type": "function"
    },
    {
      "inputs": [],
      "name": "UNSTAKE_SELECTOR",
      "outputs": [
        {
          "internalType": "bytes4",
          "name": "",
          "type": "bytes4"
        }
      ],
      "stateMutability": "view",
      "type": "function"
    },
    {
      "inputs": [],
      "name": "getIntegrationManager",
      "outputs": [
        {
          "internalType": "address",
          "name": "integrationManager_",
          "type": "address"
        }
      ],
      "stateMutability": "view",
      "type": "function"
    },
    {
      "inputs": [],
      "name": "getUniswapV2Router2",
      "outputs": [
        {
          "internalType": "address",
          "name": "router_",
          "type": "address"
        }
      ],
      "stateMutability": "view",
      "type": "function"
    },
    {
      "inputs": [
        {
          "internalType": "address",
          "name": "",
          "type": "address"
        },
        {
          "internalType": "bytes4",
          "name": "_selector",
          "type": "bytes4"
        },
        {
          "internalType": "bytes",
          "name": "_actionData",
          "type": "bytes"
        }
      ],
      "name": "parseAssetsForAction",
      "outputs": [
        {
          "internalType": "enum IIntegrationManager.SpendAssetsHandleType",
          "name": "spendAssetsHandleType_",
          "type": "uint8"
        },
        {
          "internalType": "address[]",
          "name": "spendAssets_",
          "type": "address[]"
        },
        {
          "internalType": "uint256[]",
          "name": "spendAssetAmounts_",
          "type": "uint256[]"
        },
        {
          "internalType": "address[]",
          "name": "incomingAssets_",
          "type": "address[]"
        },
        {
          "internalType": "uint256[]",
          "name": "minIncomingAssetAmounts_",
          "type": "uint256[]"
        }
      ],
      "stateMutability": "view",
      "type": "function"
    },
    {
      "inputs": [
        {
          "internalType": "address",
          "name": "_vaultProxy",
          "type": "address"
        },
        {
          "internalType": "bytes",
          "name": "_actionData",
          "type": "bytes"
        },
        {
          "internalType": "bytes",
          "name": "",
          "type": "bytes"
        }
      ],
      "name": "takeOrder",
      "outputs": [],
      "stateMutability": "nonpayable",
      "type": "function"
    }
  ],
  "transactionHash": "0x73bada98c8e2f21b3940b83a60d42b088619e5f807f9e981c1a0d0b3fa0ae512",
  "args": [
    "0xe70f935c32dA4dB13e7876795f1e175465e6458e",
    "0x7a250d5630B4cF539739dF2C5dAcb4c659F2488D"
  ],
  "linkedData": {
    "type": "ADAPTER"
  },
  "solcInputHash": "e128c99a7ad98ab17bfe5eac6103458b",
  "bytecode": "0x60c060405234801561001057600080fd5b506040516110ac3803806110ac8339818101604052604081101561003357600080fd5b5080516020909101516001600160601b0319606092831b8116608052911b1660a05260805160601c60a05160601c61101f61008d6000398061060e528061074e52806107755250806103df5280610632525061101f6000f3fe608060405234801561001057600080fd5b50600436106100b45760003560e01c8063863e5ad011610071578063863e5ad0146101ce578063b23228cf146101d6578063c54efee5146101de578063d1ded408146103a0578063e7c45690146103c4578063f7d882b5146103cc576100b4565b806303e38a2b146100b9578063080456c114610189578063131461c0146101ae578063257cb1a3146101b65780633ffc1591146101be57806340da225d146101c6575b600080fd5b610187600480360360608110156100cf57600080fd5b6001600160a01b038235169190810190604081016020820135600160201b8111156100f957600080fd5b82018360208201111561010b57600080fd5b803590602001918460018302840111600160201b8311171561012c57600080fd5b919390929091602081019035600160201b81111561014957600080fd5b82018360208201111561015b57600080fd5b803590602001918460018302840111600160201b8311171561017c57600080fd5b5090925090506103d4565b005b61019161049b565b604080516001600160e01b03199092168252519081900360200190f35b6101916104bf565b6101916104e3565b610191610507565b61019161052b565b61019161054f565b610191610573565b61026b600480360360608110156101f457600080fd5b6001600160a01b03823516916001600160e01b031960208201351691810190606081016040820135600160201b81111561022d57600080fd5b82018360208201111561023f57600080fd5b803590602001918460018302840111600160201b8311171561026057600080fd5b509092509050610597565b6040518086600281111561027b57fe5b815260200180602001806020018060200180602001858103855289818151815260200191508051906020019060200280838360005b838110156102c85781810151838201526020016102b0565b50505050905001858103845288818151815260200191508051906020019060200280838360005b838110156103075781810151838201526020016102ef565b50505050905001858103835287818151815260200191508051906020019060200280838360005b8381101561034657818101518382015260200161032e565b50505050905001858103825286818151815260200191508051906020019060200280838360005b8381101561038557818101518382015260200161036d565b50505050905001995050505050505050505060405180910390f35b6103a861060c565b604080516001600160a01b039092168252519081900360200190f35b6103a8610630565b610191610654565b336001600160a01b037f0000000000000000000000000000000000000000000000000000000000000000161461043b5760405162461bcd60e51b8152600401808060200182810382526032815260200180610ef66032913960400191505060405180910390fd5b606060008061047f87878080601f01602080910402602001604051908101604052809392919081815260200183838082843760009201919091525061067892505050565b92509250925061049188838386610734565b5050505050505050565b7f8334eb99be0145865eba9889fca2ee920288090caefff4cc776038e20ad9259a81565b7f29fa046e79524c3c5ac4c01df692c35e217802b2b13b21121b76cf0ef02b138c81565b7f099f75155f0e997bf83a7993a71d5e7e7540bd386fe1e84643a09ce6b412521981565b7ffa7dd04da627f433da73c4355ead9c75682a67a8fc84d3f6170ef0922f402d2481565b7fb9dfbaccbe5cd2a84fdcf1d15f23ef25d23086f5afbaa99516065ed4a5bbc7a381565b7f03e38a2bd7063d45c897edeafc330e71657502dd86434d3c37a489caf116af6981565b7f68e30677f607df46e87da13e15b637784cfa62374b653f35ab43d10361a2f83081565b600060608080806001600160e01b031988166303e38a2b60e01b146105ed5760405162461bcd60e51b8152600401808060200182810382526027815260200180610fc36027913960400191505060405180910390fd5b6105f78787610915565b94509450945094509450945094509450945094565b7f000000000000000000000000000000000000000000000000000000000000000090565b7f000000000000000000000000000000000000000000000000000000000000000090565b7fc29fa9dde84204c2908778afd0613d802d31cf046179b88f6d2b4a4e507ea2d581565b606060008083806020019051606081101561069257600080fd5b8101908080516040519392919084600160201b8211156106b157600080fd5b9083019060208201858111156106c657600080fd5b82518660208202830111600160201b821117156106e257600080fd5b82525081516020918201928201910280838360005b8381101561070f5781810151838201526020016106f7565b5050505091909101604090815260208301519201519499919850939650945050505050565b6107738160008151811061074457fe5b60200260200101517f000000000000000000000000000000000000000000000000000000000000000085610ae1565b7f00000000000000000000000000000000000000000000000000000000000000006001600160a01b03166338ed1739848484886107ae610d26565b6040518663ffffffff1660e01b81526004018086815260200185815260200180602001846001600160a01b03168152602001838152602001828103825285818151815260200191508051906020019060200280838360005b8381101561081e578181015183820152602001610806565b505050509050019650505050505050600060405180830381600087803b15801561084757600080fd5b505af115801561085b573d6000803e3d6000fd5b505050506040513d6000823e601f3d908101601f19168201604052602081101561088457600080fd5b8101908080516040519392919084600160201b8211156108a357600080fd5b9083019060208201858111156108b857600080fd5b82518660208202830111600160201b821117156108d457600080fd5b82525081516020918201928201910280838360005b838110156109015781810151838201526020016108e9565b505050509050016040525050505050505050565b600060608060608060606000806109618a8a8080601f01602080910402602001604051908101604052809392919081815260200183838082843760009201919091525061067892505050565b9250925092506002835110156109a85760405162461bcd60e51b815260040180806020018281038252602d815260200180610f28602d913960400191505060405180910390fd5b6040805160018082528183019092529060208083019080368337019050509650826000815181106109d557fe5b6020026020010151876000815181106109ea57fe5b6001600160a01b03929092166020928302919091018201526040805160018082528183019092529182810190803683370190505095508186600081518110610a2e57fe5b60209081029190910101526040805160018082528183019092529081602001602082028036833701905050945082600184510381518110610a6b57fe5b602002602001015185600081518110610a8057fe5b6001600160a01b03929092166020928302919091018201526040805160018082528183019092529182810190803683370190505093508084600081518110610ac457fe5b602002602001018181525050600297505050509295509295909350565b60408051636eb1769f60e11b81523060048201526001600160a01b038481166024830152915160009286169163dd62ed3e916044808301926020929190829003018186803b158015610b3257600080fd5b505afa158015610b46573d6000803e3d6000fd5b505050506040513d6020811015610b5c57600080fd5b505160408051606081019091526026808252919250610b8391610f79602083013982610d2d565b81811015610cff57610bac604051806060016040528060288152602001610eaa60289139610ddf565b8015610c5857836001600160a01b031663095ea7b38460006040518363ffffffff1660e01b815260040180836001600160a01b0316815260200182815260200192505050602060405180830381600087803b158015610c0a57600080fd5b505af1158015610c1e573d6000803e3d6000fd5b505050506040513d6020811015610c3457600080fd5b505060408051606081019091526024808252610c589190610f9f6020830139610ddf565b836001600160a01b031663095ea7b3846000196040518363ffffffff1660e01b815260040180836001600160a01b0316815260200182815260200192505050602060405180830381600087803b158015610cb157600080fd5b505af1158015610cc5573d6000803e3d6000fd5b505050506040513d6020811015610cdb57600080fd5b505060408051606081019091526024808252610cff9190610f556020830139610ddf565b610d20604051806060016040528060248152602001610ed260249139610ddf565b50505050565b6001420190565b610ddb82826040516024018080602001838152602001828103825284818151815260200191508051906020019080838360005b83811015610d78578181015183820152602001610d60565b50505050905090810190601f168015610da55780820380516001836020036101000a031916815260200191505b5060408051601f198184030181529190526020810180516001600160e01b03166309710a9d60e41b1790529350610e8892505050565b5050565b610e85816040516024018080602001828103825283818151815260200191508051906020019080838360005b83811015610e23578181015183820152602001610e0b565b50505050905090810190601f168015610e505780820380516001836020036101000a031916815260200191505b5060408051601f198184030181529190526020810180516001600160e01b031663104c13eb60e21b1790529250610e88915050565b50565b80516a636f6e736f6c652e6c6f67602083016000808483855afa505050505056fe5f5f617070726f766541737365744d617841734e65656465643a6265666f726520617070726f76655f5f617070726f766541737365744d617841734e65656465643a617070726f76656420334f6e6c792074686520496e746567726174696f6e4d616e616765722063616e2063616c6c20746869732066756e6374696f6e5f5f7061727365417373657473466f7254616b654f726465723a205f70617468206d757374206265203e3d20325f5f617070726f766541737365744d617841734e65656465643a617070726f76656420325f5f617070726f766541737365744d617841734e65656465643a616c6c6f77616e63653a25645f5f617070726f766541737365744d617841734e65656465643a617070726f76656420317061727365417373657473466f72416374696f6e3a205f73656c6563746f7220696e76616c6964a264697066735822122032c7fb97e949694df9055f3f8ebdb56a1b2825df13fafe58e05a8ea417696bef64736f6c634300060c0033",
  "devdoc": {
    "author": "Enzyme Council <security@enzyme.finance>",
    "kind": "dev",
    "methods": {
      "getIntegrationManager()": {
        "returns": {
          "integrationManager_": "The `INTEGRATION_MANAGER` variable value"
        }
      },
      "getUniswapV2Router2()": {
        "returns": {
          "router_": "The `UNISWAP_V2_ROUTER2` variable value"
        }
      },
      "parseAssetsForAction(address,bytes4,bytes)": {
        "params": {
          "_actionData": "Data specific to this action",
          "_selector": "The function selector for the callOnIntegration"
        },
        "returns": {
          "incomingAssets_": "The assets to receive in the call",
          "minIncomingAssetAmounts_": "The min asset amounts to receive in the call",
          "spendAssetAmounts_": "The max asset amounts to spend in the call",
          "spendAssetsHandleType_": "A type that dictates how to handle granting the adapter access to spend assets (`None` by default)",
          "spendAssets_": "The assets to spend in the call"
        }
      },
      "takeOrder(address,bytes,bytes)": {
        "params": {
          "_actionData": "Data specific to this action",
          "_vaultProxy": "The VaultProxy of the calling fund"
        }
      }
    },
    "title": "UniswapV2ExchangeAdapter Contract",
    "version": 1
  },
  "userdoc": {
    "kind": "user",
    "methods": {
      "getIntegrationManager()": {
        "notice": "Gets the `INTEGRATION_MANAGER` variable"
      },
      "getUniswapV2Router2()": {
        "notice": "Gets the `UNISWAP_V2_ROUTER2` variable"
      },
      "parseAssetsForAction(address,bytes4,bytes)": {
        "notice": "Parses the expected assets in a particular action"
      },
      "takeOrder(address,bytes,bytes)": {
        "notice": "Trades assets on Uniswap"
      }
    },
    "notice": "Adapter for interacting with Uniswap v2 swaps",
    "version": 1
  },
  "storageLayout": {
    "storage": [],
    "types": null
  }
}