{
  "address": "0x8fC8CFB7f7362E44E472c690A6e025B80E406458",
  "abi": [
    {
      "inputs": [
        {
          "internalType": "address",
          "name": "_integrationManager",
          "type": "address"
        },
        {
          "internalType": "address",
          "name": "_router",
          "type": "address"
        },
        {
          "internalType": "address",
          "name": "_factory",
          "type": "address"
        }
      ],
      "stateMutability": "nonpayable",
      "type": "constructor"
    },
    {
      "inputs": [],
      "name": "CLAIM_REWARDS_SELECTOR",
      "outputs": [
        {
          "internalType": "bytes4",
          "name": "",
          "type": "bytes4"
        }
      ],
      "stateMutability": "view",
      "type": "function"
    },
    {
      "inputs": [],
      "name": "LEND_AND_STAKE_SELECTOR",
      "outputs": [
        {
          "internalType": "bytes4",
          "name": "",
          "type": "bytes4"
        }
      ],
      "stateMutability": "view",
      "type": "function"
    },
    {
      "inputs": [],
      "name": "LEND_SELECTOR",
      "outputs": [
        {
          "internalType": "bytes4",
          "name": "",
          "type": "bytes4"
        }
      ],
      "stateMutability": "view",
      "type": "function"
    },
    {
      "inputs": [],
      "name": "REDEEM_SELECTOR",
      "outputs": [
        {
          "internalType": "bytes4",
          "name": "",
          "type": "bytes4"
        }
      ],
      "stateMutability": "view",
      "type": "function"
    },
    {
      "inputs": [],
      "name": "STAKE_SELECTOR",
      "outputs": [
        {
          "internalType": "bytes4",
          "name": "",
          "type": "bytes4"
        }
      ],
      "stateMutability": "view",
      "type": "function"
    },
    {
      "inputs": [],
      "name": "TAKE_ORDER_SELECTOR",
      "outputs": [
        {
          "internalType": "bytes4",
          "name": "",
          "type": "bytes4"
        }
      ],
      "stateMutability": "view",
      "type": "function"
    },
    {
      "inputs": [],
      "name": "UNSTAKE_AND_REDEEM_SELECTOR",
      "outputs": [
        {
          "internalType": "bytes4",
          "name": "",
          "type": "bytes4"
        }
      ],
      "stateMutability": "view",
      "type": "function"
    },
    {
      "inputs": [],
      "name": "UNSTAKE_SELECTOR",
      "outputs": [
        {
          "internalType": "bytes4",
          "name": "",
          "type": "bytes4"
        }
      ],
      "stateMutability": "view",
      "type": "function"
    },
    {
      "inputs": [],
      "name": "getFactory",
      "outputs": [
        {
          "internalType": "address",
          "name": "factory_",
          "type": "address"
        }
      ],
      "stateMutability": "view",
      "type": "function"
    },
    {
      "inputs": [],
      "name": "getIntegrationManager",
      "outputs": [
        {
          "internalType": "address",
          "name": "integrationManager_",
          "type": "address"
        }
      ],
      "stateMutability": "view",
      "type": "function"
    },
    {
      "inputs": [],
      "name": "getUniswapV2Router2",
      "outputs": [
        {
          "internalType": "address",
          "name": "router_",
          "type": "address"
        }
      ],
      "stateMutability": "view",
      "type": "function"
    },
    {
      "inputs": [
        {
          "internalType": "address",
          "name": "_vaultProxy",
          "type": "address"
        },
        {
          "internalType": "bytes",
          "name": "_actionData",
          "type": "bytes"
        },
        {
          "internalType": "bytes",
          "name": "",
          "type": "bytes"
        }
      ],
      "name": "lend",
      "outputs": [],
      "stateMutability": "nonpayable",
      "type": "function"
    },
    {
      "inputs": [
        {
          "internalType": "address",
          "name": "",
          "type": "address"
        },
        {
          "internalType": "bytes4",
          "name": "_selector",
          "type": "bytes4"
        },
        {
          "internalType": "bytes",
          "name": "_actionData",
          "type": "bytes"
        }
      ],
      "name": "parseAssetsForAction",
      "outputs": [
        {
          "internalType": "enum IIntegrationManager.SpendAssetsHandleType",
          "name": "spendAssetsHandleType_",
          "type": "uint8"
        },
        {
          "internalType": "address[]",
          "name": "spendAssets_",
          "type": "address[]"
        },
        {
          "internalType": "uint256[]",
          "name": "spendAssetAmounts_",
          "type": "uint256[]"
        },
        {
          "internalType": "address[]",
          "name": "incomingAssets_",
          "type": "address[]"
        },
        {
          "internalType": "uint256[]",
          "name": "minIncomingAssetAmounts_",
          "type": "uint256[]"
        }
      ],
      "stateMutability": "view",
      "type": "function"
    },
    {
      "inputs": [
        {
          "internalType": "address",
          "name": "_vaultProxy",
          "type": "address"
        },
        {
          "internalType": "bytes",
          "name": "_actionData",
          "type": "bytes"
        },
        {
          "internalType": "bytes",
          "name": "_assetData",
          "type": "bytes"
        }
      ],
      "name": "redeem",
      "outputs": [],
      "stateMutability": "nonpayable",
      "type": "function"
    }
  ],
  "transactionHash": "0x17a6ba4d17ed749f218fb1bfdf163409120ffd7fdc7e338eca5f4988b5131b4a",
  "args": [
    "0xe70f935c32dA4dB13e7876795f1e175465e6458e",
    "0x7a250d5630B4cF539739dF2C5dAcb4c659F2488D",
    "0x5C69bEe701ef814a2B6a3EDD4B1652CB9cc5aA6f"
  ],
  "linkedData": {
    "nonSlippageAdapter": true,
    "type": "ADAPTER"
  },
  "solcInputHash": "e128c99a7ad98ab17bfe5eac6103458b",
  "bytecode": "0x60e060405234801561001057600080fd5b506040516118a73803806118a78339818101604052606081101561003357600080fd5b50805160208201516040909201516001600160601b0319606092831b811660805292821b831660a052901b1660c05260805160601c60a05160601c60c05160601c6117e36100c4600039806106b25280610f9452806111225250806108ef52806109aa52806109d552806109fc5280610ce45280610d0b52508061050f5280610703528061091352506117e36000f3fe608060405234801561001057600080fd5b50600436106100ea5760003560e01c806388cc58e41161008c578063c54efee511610066578063c54efee514610306578063d1ded408146104c8578063e7c45690146104d0578063f7d882b5146104d8576100ea565b806388cc58e41461020c578063b23228cf14610230578063c29fa9dd14610238576100ea565b8063257cb1a3116100c8578063257cb1a3146101ec5780633ffc1591146101f457806340da225d146101fc578063863e5ad014610204576100ea565b8063080456c1146100ef578063099f751514610114578063131461c0146101e4575b600080fd5b6100f76104e0565b604080516001600160e01b03199092168252519081900360200190f35b6101e26004803603606081101561012a57600080fd5b6001600160a01b038235169190810190604081016020820135600160201b81111561015457600080fd5b82018360208201111561016657600080fd5b803590602001918460018302840111600160201b8311171561018757600080fd5b919390929091602081019035600160201b8111156101a457600080fd5b8201836020820111156101b657600080fd5b803590602001918460018302840111600160201b831117156101d757600080fd5b509092509050610504565b005b6100f76105fc565b6100f7610620565b6100f7610644565b6100f7610668565b6100f761068c565b6102146106b0565b604080516001600160a01b039092168252519081900360200190f35b6100f76106d4565b6101e26004803603606081101561024e57600080fd5b6001600160a01b038235169190810190604081016020820135600160201b81111561027857600080fd5b82018360208201111561028a57600080fd5b803590602001918460018302840111600160201b831117156102ab57600080fd5b919390929091602081019035600160201b8111156102c857600080fd5b8201836020820111156102da57600080fd5b803590602001918460018302840111600160201b831117156102fb57600080fd5b5090925090506106f8565b6103936004803603606081101561031c57600080fd5b6001600160a01b03823516916001600160e01b031960208201351691810190606081016040820135600160201b81111561035557600080fd5b82018360208201111561036757600080fd5b803590602001918460018302840111600160201b8311171561038857600080fd5b50909250905061084f565b604051808660028111156103a357fe5b815260200180602001806020018060200180602001858103855289818151815260200191508051906020019060200280838360005b838110156103f05781810151838201526020016103d8565b50505050905001858103845288818151815260200191508051906020019060200280838360005b8381101561042f578181015183820152602001610417565b50505050905001858103835287818151815260200191508051906020019060200280838360005b8381101561046e578181015183820152602001610456565b50505050905001858103825286818151815260200191508051906020019060200280838360005b838110156104ad578181015183820152602001610495565b50505050905001995050505050505050505060405180910390f35b6102146108ed565b610214610911565b6100f7610935565b7f8334eb99be0145865eba9889fca2ee920288090caefff4cc776038e20ad9259a81565b336001600160a01b037f0000000000000000000000000000000000000000000000000000000000000000161461056b5760405162461bcd60e51b81526004018080602001828103825260328152602001806116e76032913960400191505060405180910390fd5b61057361167c565b61057b61167c565b61058361167c565b6105c287878080601f01602080910402602001604051908101604052809392919081815260200183838082843760009201919091525061095992505050565b508251602080850151845182860151855193860151979a509598509396506105f2958e95939491939192906109a4565b5050505050505050565b7f29fa046e79524c3c5ac4c01df692c35e217802b2b13b21121b76cf0ef02b138c81565b7f099f75155f0e997bf83a7993a71d5e7e7540bd386fe1e84643a09ce6b412521981565b7ffa7dd04da627f433da73c4355ead9c75682a67a8fc84d3f6170ef0922f402d2481565b7fb9dfbaccbe5cd2a84fdcf1d15f23ef25d23086f5afbaa99516065ed4a5bbc7a381565b7f03e38a2bd7063d45c897edeafc330e71657502dd86434d3c37a489caf116af6981565b7f000000000000000000000000000000000000000000000000000000000000000090565b7f68e30677f607df46e87da13e15b637784cfa62374b653f35ab43d10361a2f83081565b336001600160a01b037f0000000000000000000000000000000000000000000000000000000000000000161461075f5760405162461bcd60e51b81526004018080602001828103825260328152602001806116e76032913960400191505060405180910390fd5b600061076961167c565b61077161167c565b6107b087878080601f016020809104026020016040519081016040528093929190818152602001838380828437600092019190915250610ae492505050565b92509250925060606107f786868080601f016020809104026020016040519081016040528093929190818152602001838380828437600092019190915250610b2192505050565b50509050610844898260008151811061080c57fe5b6020026020010151868660006002811061082257fe5b6020020151876001602002015187600060200201518860016020020151610cde565b505050505050505050565b600060608080806001600160e01b0319881663099f751560e01b1415610888576108798787610dea565b945094509450945094506108e2565b6001600160e01b0319881663c29fa9dd60e01b14156108ab576108798787611072565b60405162461bcd60e51b81526004018080602001828103825260278152602001806117876027913960400191505060405180910390fd5b945094509450945094565b7f000000000000000000000000000000000000000000000000000000000000000090565b7f000000000000000000000000000000000000000000000000000000000000000090565b7fc29fa9dde84204c2908778afd0613d802d31cf046179b88f6d2b4a4e507ea2d581565b61096161167c565b61096961167c565b61097161167c565b60008480602001905160e081101561098857600080fd5b5060c08101519096604088019650608088019550909350915050565b6109cf867f0000000000000000000000000000000000000000000000000000000000000000866112b4565b6109fa857f0000000000000000000000000000000000000000000000000000000000000000856112b4565b7f00000000000000000000000000000000000000000000000000000000000000006001600160a01b031663e8e337008787878787878e610a386114f9565b6040518963ffffffff1660e01b815260040180896001600160a01b03168152602001886001600160a01b03168152602001878152602001868152602001858152602001848152602001836001600160a01b0316815260200182815260200198505050505050505050606060405180830381600087803b158015610aba57600080fd5b505af1158015610ace573d6000803e3d6000fd5b505050506040513d606081101561084457600080fd5b6000610aee61167c565b610af661167c565b8380602001905160a0811015610b0b57600080fd5b5080519560208201955060609091019350915050565b6060806060838060200190516060811015610b3b57600080fd5b8101908080516040519392919084600160201b821115610b5a57600080fd5b908301906020820185811115610b6f57600080fd5b82518660208202830111600160201b82111715610b8b57600080fd5b82525081516020918201928201910280838360005b83811015610bb8578181015183820152602001610ba0565b5050505090500160405260200180516040519392919084600160201b821115610be057600080fd5b908301906020820185811115610bf557600080fd5b82518660208202830111600160201b82111715610c1157600080fd5b82525081516020918201928201910280838360005b83811015610c3e578181015183820152602001610c26565b5050505090500160405260200180516040519392919084600160201b821115610c6657600080fd5b908301906020820185811115610c7b57600080fd5b82518660208202830111600160201b82111715610c9757600080fd5b82525081516020918201928201910280838360005b83811015610cc4578181015183820152602001610cac565b505050509050016040525050509250925092509193909250565b610d09867f0000000000000000000000000000000000000000000000000000000000000000876112b4565b7f00000000000000000000000000000000000000000000000000000000000000006001600160a01b031663baa2abde85858886868d610d466114f9565b6040518863ffffffff1660e01b815260040180886001600160a01b03168152602001876001600160a01b03168152602001868152602001858152602001848152602001836001600160a01b031681526020018281526020019750505050505050506040805180830381600087803b158015610dc057600080fd5b505af1158015610dd4573d6000803e3d6000fd5b505050506040513d604081101561084457600080fd5b6000606080606080610dfa61167c565b610e0261167c565b6000610e438a8a8080601f01602080910402602001604051908101604052809392919081815260200183838082843760009201919091525061095992505050565b93505092509250600267ffffffffffffffff81118015610e6257600080fd5b50604051908082528060200260200182016040528015610e8c578160200160208202803683370190505b509650826000602002015187600081518110610ea457fe5b6001600160a01b0392909216602092830291909101820152830151875188906001908110610ece57fe5b6001600160a01b039290921660209283029190910182015260408051600280825260608201835290929091908301908036833750508351825192985091889150600090610f1757fe5b6020908102919091010152816001602002015186600181518110610f3757fe5b602090810291909101015260408051600180825281830190925290816020016020820280368337505084516020808701516040805163e6a4390560e01b81526001600160a01b0394851660048201529184166024830152519499507f00000000000000000000000000000000000000000000000000000000000000009092169363e6a439059350604480840193829003018186803b158015610fd857600080fd5b505afa158015610fec573d6000803e3d6000fd5b505050506040513d602081101561100257600080fd5b50518551869060009061101157fe5b6001600160a01b0392909216602092830291909101820152604080516001808252818301909252918281019080368337019050509350808460008151811061105557fe5b602002602001018181525050600297505050509295509295909350565b6000606080606080600061108461167c565b61108c61167c565b6110cb8a8a8080601f016020809104026020016040519081016040528093929190818152602001838380828437600092019190915250610ae492505050565b604080516001808252818301909252939650919450925060208083019080368337505083516020808601516040805163e6a4390560e01b81526001600160a01b039485166004820152918416602483015251949b507f00000000000000000000000000000000000000000000000000000000000000009092169363e6a439059350604480840193829003018186803b15801561116657600080fd5b505afa15801561117a573d6000803e3d6000fd5b505050506040513d602081101561119057600080fd5b50518751889060009061119f57fe5b6001600160a01b039290921660209283029190910182015260408051600180825281830190925291828101908036833701905050955082866000815181106111e357fe5b602090810291909101015260408051600280825260608201909252908160200160208202803683375050835182519297509187915060009061122157fe5b6001600160a01b039290921660209283029190910182015282015185518690600190811061124b57fe5b6001600160a01b03929092166020928302919091018201526040805160028082526060820183529092909190830190803683375050825182519296509186915060009061129457fe5b602090810291909101015280600160200201518460018151811061105557fe5b60408051636eb1769f60e11b81523060048201526001600160a01b038481166024830152915160009286169163dd62ed3e916044808301926020929190829003018186803b15801561130557600080fd5b505afa158015611319573d6000803e3d6000fd5b505050506040513d602081101561132f57600080fd5b5051604080516060810190915260268082529192506113569161173d602083013982611500565b818110156114d25761137f60405180606001604052806028815260200161169b602891396115b2565b801561142b57836001600160a01b031663095ea7b38460006040518363ffffffff1660e01b815260040180836001600160a01b0316815260200182815260200192505050602060405180830381600087803b1580156113dd57600080fd5b505af11580156113f1573d6000803e3d6000fd5b505050506040513d602081101561140757600080fd5b50506040805160608101909152602480825261142b919061176360208301396115b2565b836001600160a01b031663095ea7b3846000196040518363ffffffff1660e01b815260040180836001600160a01b0316815260200182815260200192505050602060405180830381600087803b15801561148457600080fd5b505af1158015611498573d6000803e3d6000fd5b505050506040513d60208110156114ae57600080fd5b5050604080516060810190915260248082526114d2919061171960208301396115b2565b6114f36040518060600160405280602481526020016116c3602491396115b2565b50505050565b6001420190565b6115ae82826040516024018080602001838152602001828103825284818151815260200191508051906020019080838360005b8381101561154b578181015183820152602001611533565b50505050905090810190601f1680156115785780820380516001836020036101000a031916815260200191505b5060408051601f198184030181529190526020810180516001600160e01b03166309710a9d60e41b179052935061165b92505050565b5050565b611658816040516024018080602001828103825283818151815260200191508051906020019080838360005b838110156115f65781810151838201526020016115de565b50505050905090810190601f1680156116235780820380516001836020036101000a031916815260200191505b5060408051601f198184030181529190526020810180516001600160e01b031663104c13eb60e21b179052925061165b915050565b50565b80516a636f6e736f6c652e6c6f67602083016000808483855afa5050505050565b6040518060400160405280600290602082028036833750919291505056fe5f5f617070726f766541737365744d617841734e65656465643a6265666f726520617070726f76655f5f617070726f766541737365744d617841734e65656465643a617070726f76656420334f6e6c792074686520496e746567726174696f6e4d616e616765722063616e2063616c6c20746869732066756e6374696f6e5f5f617070726f766541737365744d617841734e65656465643a617070726f76656420325f5f617070726f766541737365744d617841734e65656465643a616c6c6f77616e63653a25645f5f617070726f766541737365744d617841734e65656465643a617070726f76656420317061727365417373657473466f72416374696f6e3a205f73656c6563746f7220696e76616c6964a26469706673582212202a2eb413a3ed5bd1962c94e05449b95236fd08c13311615b1c3d934cc409905664736f6c634300060c0033",
  "devdoc": {
    "author": "Enzyme Council <security@enzyme.finance>",
    "kind": "dev",
    "methods": {
      "getFactory()": {
        "returns": {
          "factory_": "The `FACTORY` variable value"
        }
      },
      "getIntegrationManager()": {
        "returns": {
          "integrationManager_": "The `INTEGRATION_MANAGER` variable value"
        }
      },
      "getUniswapV2Router2()": {
        "returns": {
          "router_": "The `UNISWAP_V2_ROUTER2` variable value"
        }
      },
      "lend(address,bytes,bytes)": {
        "params": {
          "_actionData": "Data specific to this action",
          "_vaultProxy": "The VaultProxy of the calling fund"
        }
      },
      "parseAssetsForAction(address,bytes4,bytes)": {
        "params": {
          "_actionData": "Data specific to this action",
          "_selector": "The function selector for the callOnIntegration"
        },
        "returns": {
          "incomingAssets_": "The assets to receive in the call",
          "minIncomingAssetAmounts_": "The min asset amounts to receive in the call",
          "spendAssetAmounts_": "The max asset amounts to spend in the call",
          "spendAssetsHandleType_": "A type that dictates how to handle granting the adapter access to spend assets (`None` by default)",
          "spendAssets_": "The assets to spend in the call"
        }
      },
      "redeem(address,bytes,bytes)": {
        "params": {
          "_actionData": "Data specific to this action",
          "_assetData": "Parsed spend assets and incoming assets data for this action",
          "_vaultProxy": "The VaultProxy of the calling fund"
        }
      }
    },
    "title": "UniswapV2LiquidityAdapter Contract",
    "version": 1
  },
  "userdoc": {
    "kind": "user",
    "methods": {
      "getFactory()": {
        "notice": "Gets the `FACTORY` variable"
      },
      "getIntegrationManager()": {
        "notice": "Gets the `INTEGRATION_MANAGER` variable"
      },
      "getUniswapV2Router2()": {
        "notice": "Gets the `UNISWAP_V2_ROUTER2` variable"
      },
      "lend(address,bytes,bytes)": {
        "notice": "Lends assets for pool tokens on Uniswap"
      },
      "parseAssetsForAction(address,bytes4,bytes)": {
        "notice": "Parses the expected assets in a particular action"
      },
      "redeem(address,bytes,bytes)": {
        "notice": "Redeems pool tokens on Uniswap"
      }
    },
    "notice": "Adapter for interacting with Uniswap v2 liquidity provision",
    "version": 1
  },
  "storageLayout": {
    "storage": [],
    "types": null
  }
}