{
  "address": "0x976C214741b4657bd99DFD38a5c0E3ac5C99D903",
  "abi": [
    {
      "inputs": [
        {
          "internalType": "address",
          "name": "_externalPositionManager",
          "type": "address"
        },
        {
          "internalType": "address",
          "name": "_gasRelayPaymasterFactory",
          "type": "address"
        },
        {
          "internalType": "address",
          "name": "_protocolFeeReserve",
          "type": "address"
        },
        {
          "internalType": "address",
          "name": "_protocolFeeTracker",
          "type": "address"
        },
        {
          "internalType": "address",
          "name": "_mlnToken",
          "type": "address"
        },
        {
          "internalType": "address",
          "name": "_wethToken",
          "type": "address"
        }
      ],
      "stateMutability": "nonpayable",
      "type": "constructor"
    },
    {
      "anonymous": false,
      "inputs": [
        {
          "indexed": false,
          "internalType": "address",
          "name": "prevAccessor",
          "type": "address"
        },
        {
          "indexed": false,
          "internalType": "address",
          "name": "nextAccessor",
          "type": "address"
        }
      ],
      "name": "AccessorSet",
      "type": "event"
    },
    {
      "anonymous": false,
      "inputs": [
        {
          "indexed": true,
          "internalType": "address",
          "name": "owner",
          "type": "address"
        },
        {
          "indexed": true,
          "internalType": "address",
          "name": "spender",
          "type": "address"
        },
        {
          "indexed": false,
          "internalType": "uint256",
          "name": "value",
          "type": "uint256"
        }
      ],
      "name": "Approval",
      "type": "event"
    },
    {
      "anonymous": false,
      "inputs": [
        {
          "indexed": false,
          "internalType": "address",
          "name": "manager",
          "type": "address"
        }
      ],
      "name": "AssetManagerAdded",
      "type": "event"
    },
    {
      "anonymous": false,
      "inputs": [
        {
          "indexed": false,
          "internalType": "address",
          "name": "manager",
          "type": "address"
        }
      ],
      "name": "AssetManagerRemoved",
      "type": "event"
    },
    {
      "anonymous": false,
      "inputs": [
        {
          "indexed": true,
          "internalType": "address",
          "name": "asset",
          "type": "address"
        },
        {
          "indexed": true,
          "internalType": "address",
          "name": "target",
          "type": "address"
        },
        {
          "indexed": false,
          "internalType": "uint256",
          "name": "amount",
          "type": "uint256"
        }
      ],
      "name": "AssetWithdrawn",
      "type": "event"
    },
    {
      "anonymous": false,
      "inputs": [
        {
          "indexed": true,
          "internalType": "address",
          "name": "from",
          "type": "address"
        },
        {
          "indexed": true,
          "internalType": "address",
          "name": "target",
          "type": "address"
        },
        {
          "indexed": false,
          "internalType": "uint256",
          "name": "value",
          "type": "uint256"
        }
      ],
      "name": "Burn",
      "type": "event"
    },
    {
      "anonymous": false,
      "inputs": [
        {
          "indexed": true,
          "internalType": "address",
          "name": "sender",
          "type": "address"
        },
        {
          "indexed": false,
          "internalType": "uint256",
          "name": "amount",
          "type": "uint256"
        }
      ],
      "name": "EthReceived",
      "type": "event"
    },
    {
      "anonymous": false,
      "inputs": [
        {
          "indexed": true,
          "internalType": "address",
          "name": "externalPosition",
          "type": "address"
        }
      ],
      "name": "ExternalPositionAdded",
      "type": "event"
    },
    {
      "anonymous": false,
      "inputs": [
        {
          "indexed": true,
          "internalType": "address",
          "name": "externalPosition",
          "type": "address"
        }
      ],
      "name": "ExternalPositionRemoved",
      "type": "event"
    },
    {
      "anonymous": false,
      "inputs": [],
      "name": "FreelyTransferableSharesSet",
      "type": "event"
    },
    {
      "anonymous": false,
      "inputs": [
        {
          "indexed": false,
          "internalType": "address",
          "name": "prevMigrator",
          "type": "address"
        },
        {
          "indexed": false,
          "internalType": "address",
          "name": "nextMigrator",
          "type": "address"
        }
      ],
      "name": "MigratorSet",
      "type": "event"
    },
    {
      "anonymous": false,
      "inputs": [
        {
          "indexed": true,
          "internalType": "address",
          "name": "nominatedOwner",
          "type": "address"
        }
      ],
      "name": "NominatedOwnerRemoved",
      "type": "event"
    },
    {
      "anonymous": false,
      "inputs": [
        {
          "indexed": true,
          "internalType": "address",
          "name": "nominatedOwner",
          "type": "address"
        }
      ],
      "name": "NominatedOwnerSet",
      "type": "event"
    },
    {
      "anonymous": false,
      "inputs": [
        {
          "indexed": false,
          "internalType": "address",
          "name": "prevOwner",
          "type": "address"
        },
        {
          "indexed": false,
          "internalType": "address",
          "name": "nextOwner",
          "type": "address"
        }
      ],
      "name": "OwnerSet",
      "type": "event"
    },
    {
      "anonymous": false,
      "inputs": [
        {
          "indexed": true,
          "internalType": "address",
          "name": "prevOwner",
          "type": "address"
        },
        {
          "indexed": true,
          "internalType": "address",
          "name": "nextOwner",
          "type": "address"
        }
      ],
      "name": "OwnershipTransferred",
      "type": "event"
    },
    {
      "anonymous": false,
      "inputs": [
        {
          "indexed": false,
          "internalType": "uint256",
          "name": "sharesAmount",
          "type": "uint256"
        }
      ],
      "name": "ProtocolFeePaidInShares",
      "type": "event"
    },
    {
      "anonymous": false,
      "inputs": [
        {
          "indexed": false,
          "internalType": "uint256",
          "name": "sharesAmount",
          "type": "uint256"
        },
        {
          "indexed": false,
          "internalType": "uint256",
          "name": "mlnValue",
          "type": "uint256"
        },
        {
          "indexed": false,
          "internalType": "uint256",
          "name": "mlnBurned",
          "type": "uint256"
        }
      ],
      "name": "ProtocolFeeSharesBoughtBack",
      "type": "event"
    },
    {
      "anonymous": false,
      "inputs": [
        {
          "indexed": false,
          "internalType": "address",
          "name": "asset",
          "type": "address"
        }
      ],
      "name": "TrackedAssetAdded",
      "type": "event"
    },
    {
      "anonymous": false,
      "inputs": [
        {
          "indexed": false,
          "internalType": "address",
          "name": "asset",
          "type": "address"
        }
      ],
      "name": "TrackedAssetRemoved",
      "type": "event"
    },
    {
      "anonymous": false,
      "inputs": [
        {
          "indexed": true,
          "internalType": "address",
          "name": "from",
          "type": "address"
        },
        {
          "indexed": true,
          "internalType": "address",
          "name": "to",
          "type": "address"
        },
        {
          "indexed": false,
          "internalType": "uint256",
          "name": "value",
          "type": "uint256"
        }
      ],
      "name": "Transfer",
      "type": "event"
    },
    {
      "anonymous": false,
      "inputs": [
        {
          "indexed": false,
          "internalType": "address",
          "name": "prevVaultLib",
          "type": "address"
        },
        {
          "indexed": false,
          "internalType": "address",
          "name": "nextVaultLib",
          "type": "address"
        }
      ],
      "name": "VaultLibSet",
      "type": "event"
    },
    {
      "inputs": [
        {
          "internalType": "address[]",
          "name": "_managers",
          "type": "address[]"
        }
      ],
      "name": "addAssetManagers",
      "outputs": [],
      "stateMutability": "nonpayable",
      "type": "function"
    },
    {
      "inputs": [
        {
          "internalType": "address",
          "name": "_asset",
          "type": "address"
        }
      ],
      "name": "addTrackedAsset",
      "outputs": [],
      "stateMutability": "nonpayable",
      "type": "function"
    },
    {
      "inputs": [
        {
          "internalType": "address",
          "name": "_owner",
          "type": "address"
        },
        {
          "internalType": "address",
          "name": "_spender",
          "type": "address"
        }
      ],
      "name": "allowance",
      "outputs": [
        {
          "internalType": "uint256",
          "name": "",
          "type": "uint256"
        }
      ],
      "stateMutability": "view",
      "type": "function"
    },
    {
      "inputs": [
        {
          "internalType": "address",
          "name": "_spender",
          "type": "address"
        },
        {
          "internalType": "uint256",
          "name": "_amount",
          "type": "uint256"
        }
      ],
      "name": "approve",
      "outputs": [
        {
          "internalType": "bool",
          "name": "",
          "type": "bool"
        }
      ],
      "stateMutability": "nonpayable",
      "type": "function"
    },
    {
      "inputs": [
        {
          "internalType": "address",
          "name": "_account",
          "type": "address"
        }
      ],
      "name": "balanceOf",
      "outputs": [
        {
          "internalType": "uint256",
          "name": "",
          "type": "uint256"
        }
      ],
      "stateMutability": "view",
      "type": "function"
    },
    {
      "inputs": [
        {
          "internalType": "address",
          "name": "_target",
          "type": "address"
        },
        {
          "internalType": "uint256",
          "name": "_amount",
          "type": "uint256"
        }
      ],
      "name": "burnShares",
      "outputs": [],
      "stateMutability": "nonpayable",
      "type": "function"
    },
    {
      "inputs": [
        {
          "internalType": "uint256",
          "name": "_sharesAmount",
          "type": "uint256"
        },
        {
          "internalType": "uint256",
          "name": "_mlnValue",
          "type": "uint256"
        },
        {
          "internalType": "uint256",
          "name": "_gav",
          "type": "uint256"
        }
      ],
      "name": "buyBackProtocolFeeShares",
      "outputs": [],
      "stateMutability": "nonpayable",
      "type": "function"
    },
    {
      "inputs": [
        {
          "internalType": "address",
          "name": "_contract",
          "type": "address"
        },
        {
          "internalType": "bytes",
          "name": "_callData",
          "type": "bytes"
        }
      ],
      "name": "callOnContract",
      "outputs": [
        {
          "internalType": "bytes",
          "name": "returnData_",
          "type": "bytes"
        }
      ],
      "stateMutability": "nonpayable",
      "type": "function"
    },
    {
      "inputs": [
        {
          "internalType": "address",
          "name": "_who",
          "type": "address"
        }
      ],
      "name": "canManageAssets",
      "outputs": [
        {
          "internalType": "bool",
          "name": "canManageAssets_",
          "type": "bool"
        }
      ],
      "stateMutability": "view",
      "type": "function"
    },
    {
      "inputs": [
        {
          "internalType": "address",
          "name": "_who",
          "type": "address"
        }
      ],
      "name": "canMigrate",
      "outputs": [
        {
          "internalType": "bool",
          "name": "canMigrate_",
          "type": "bool"
        }
      ],
      "stateMutability": "view",
      "type": "function"
    },
    {
      "inputs": [
        {
          "internalType": "address",
          "name": "_who",
          "type": "address"
        }
      ],
      "name": "canRelayCalls",
      "outputs": [
        {
          "internalType": "bool",
          "name": "canRelayCalls_",
          "type": "bool"
        }
      ],
      "stateMutability": "view",
      "type": "function"
    },
    {
      "inputs": [],
      "name": "claimOwnership",
      "outputs": [],
      "stateMutability": "nonpayable",
      "type": "function"
    },
    {
      "inputs": [
        {
          "internalType": "address",
          "name": "asset",
          "type": "address"
        },
        {
          "internalType": "uint256",
          "name": "balance",
          "type": "uint256"
        },
        {
          "internalType": "address",
          "name": "vault",
          "type": "address"
        }
      ],
      "name": "debugGav",
      "outputs": [],
      "stateMutability": "view",
      "type": "function"
    },
    {
      "inputs": [],
      "name": "decimals",
      "outputs": [
        {
          "internalType": "uint8",
          "name": "",
          "type": "uint8"
        }
      ],
      "stateMutability": "pure",
      "type": "function"
    },
    {
      "inputs": [],
      "name": "getAccessor",
      "outputs": [
        {
          "internalType": "address",
          "name": "accessor_",
          "type": "address"
        }
      ],
      "stateMutability": "view",
      "type": "function"
    },
    {
      "inputs": [],
      "name": "getActiveExternalPositions",
      "outputs": [
        {
          "internalType": "address[]",
          "name": "activeExternalPositions_",
          "type": "address[]"
        }
      ],
      "stateMutability": "view",
      "type": "function"
    },
    {
      "inputs": [],
      "name": "getCreator",
      "outputs": [
        {
          "internalType": "address",
          "name": "creator_",
          "type": "address"
        }
      ],
      "stateMutability": "view",
      "type": "function"
    },
    {
      "inputs": [
        {
          "internalType": "uint256",
          "name": "_typeId",
          "type": "uint256"
        }
      ],
      "name": "getExternalPositionLibForType",
      "outputs": [
        {
          "internalType": "address",
          "name": "externalPositionLib_",
          "type": "address"
        }
      ],
      "stateMutability": "view",
      "type": "function"
    },
    {
      "inputs": [],
      "name": "getExternalPositionManager",
      "outputs": [
        {
          "internalType": "address",
          "name": "externalPositionManager_",
          "type": "address"
        }
      ],
      "stateMutability": "view",
      "type": "function"
    },
    {
      "inputs": [],
      "name": "getFundDeployer",
      "outputs": [
        {
          "internalType": "address",
          "name": "fundDeployer_",
          "type": "address"
        }
      ],
      "stateMutability": "view",
      "type": "function"
    },
    {
      "inputs": [],
      "name": "getGasRelayPaymasterFactory",
      "outputs": [
        {
          "internalType": "address",
          "name": "gasRelayPaymasterFactory_",
          "type": "address"
        }
      ],
      "stateMutability": "view",
      "type": "function"
    },
    {
      "inputs": [],
      "name": "getGasRelayTrustedForwarder",
      "outputs": [
        {
          "internalType": "address",
          "name": "trustedForwarder_",
          "type": "address"
        }
      ],
      "stateMutability": "view",
      "type": "function"
    },
    {
      "inputs": [],
      "name": "getMigrator",
      "outputs": [
        {
          "internalType": "address",
          "name": "migrator_",
          "type": "address"
        }
      ],
      "stateMutability": "view",
      "type": "function"
    },
    {
      "inputs": [],
      "name": "getMlnToken",
      "outputs": [
        {
          "internalType": "address",
          "name": "mlnToken_",
          "type": "address"
        }
      ],
      "stateMutability": "view",
      "type": "function"
    },
    {
      "inputs": [],
      "name": "getNominatedOwner",
      "outputs": [
        {
          "internalType": "address",
          "name": "nominatedOwner_",
          "type": "address"
        }
      ],
      "stateMutability": "view",
      "type": "function"
    },
    {
      "inputs": [],
      "name": "getOwner",
      "outputs": [
        {
          "internalType": "address",
          "name": "owner_",
          "type": "address"
        }
      ],
      "stateMutability": "view",
      "type": "function"
    },
    {
      "inputs": [],
      "name": "getProtocolFeeReserve",
      "outputs": [
        {
          "internalType": "address",
          "name": "protocolFeeReserve_",
          "type": "address"
        }
      ],
      "stateMutability": "view",
      "type": "function"
    },
    {
      "inputs": [],
      "name": "getProtocolFeeTracker",
      "outputs": [
        {
          "internalType": "address",
          "name": "protocolFeeTracker_",
          "type": "address"
        }
      ],
      "stateMutability": "view",
      "type": "function"
    },
    {
      "inputs": [],
      "name": "getTrackedAssets",
      "outputs": [
        {
          "internalType": "address[]",
          "name": "trackedAssets_",
          "type": "address[]"
        }
      ],
      "stateMutability": "view",
      "type": "function"
    },
    {
      "inputs": [],
      "name": "getVaultLib",
      "outputs": [
        {
          "internalType": "address",
          "name": "vaultLib_",
          "type": "address"
        }
      ],
      "stateMutability": "view",
      "type": "function"
    },
    {
      "inputs": [],
      "name": "getWethToken",
      "outputs": [
        {
          "internalType": "address",
          "name": "wethToken_",
          "type": "address"
        }
      ],
      "stateMutability": "view",
      "type": "function"
    },
    {
      "inputs": [
        {
          "internalType": "address",
          "name": "user",
          "type": "address"
        },
        {
          "internalType": "uint256",
          "name": "amount",
          "type": "uint256"
        }
      ],
      "name": "handleRepayment",
      "outputs": [],
      "stateMutability": "nonpayable",
      "type": "function"
    },
    {
      "inputs": [
        {
          "internalType": "address",
          "name": "_owner",
          "type": "address"
        },
        {
          "internalType": "address",
          "name": "_accessor",
          "type": "address"
        },
        {
          "internalType": "string",
          "name": "_fundName",
          "type": "string"
        }
      ],
      "name": "init",
      "outputs": [],
      "stateMutability": "nonpayable",
      "type": "function"
    },
    {
      "inputs": [
        {
          "internalType": "address",
          "name": "_externalPosition",
          "type": "address"
        }
      ],
      "name": "isActiveExternalPosition",
      "outputs": [
        {
          "internalType": "bool",
          "name": "isActiveExternalPosition_",
          "type": "bool"
        }
      ],
      "stateMutability": "view",
      "type": "function"
    },
    {
      "inputs": [
        {
          "internalType": "address",
          "name": "_who",
          "type": "address"
        }
      ],
      "name": "isAssetManager",
      "outputs": [
        {
          "internalType": "bool",
          "name": "isAssetManager_",
          "type": "bool"
        }
      ],
      "stateMutability": "view",
      "type": "function"
    },
    {
      "inputs": [
        {
          "internalType": "address",
          "name": "_asset",
          "type": "address"
        }
      ],
      "name": "isTrackedAsset",
      "outputs": [
        {
          "internalType": "bool",
          "name": "isTrackedAsset_",
          "type": "bool"
        }
      ],
      "stateMutability": "view",
      "type": "function"
    },
    {
      "inputs": [
        {
          "internalType": "address",
          "name": "_target",
          "type": "address"
        },
        {
          "internalType": "uint256",
          "name": "_amount",
          "type": "uint256"
        }
      ],
      "name": "mintShares",
      "outputs": [],
      "stateMutability": "nonpayable",
      "type": "function"
    },
    {
      "inputs": [],
      "name": "name",
      "outputs": [
        {
          "internalType": "string",
          "name": "",
          "type": "string"
        }
      ],
      "stateMutability": "view",
      "type": "function"
    },
    {
      "inputs": [],
      "name": "payProtocolFee",
      "outputs": [],
      "stateMutability": "nonpayable",
      "type": "function"
    },
    {
      "inputs": [],
      "name": "proxiableUUID",
      "outputs": [
        {
          "internalType": "bytes32",
          "name": "uuid_",
          "type": "bytes32"
        }
      ],
      "stateMutability": "pure",
      "type": "function"
    },
    {
      "inputs": [
        {
          "internalType": "enum IVault.VaultAction",
          "name": "_action",
          "type": "uint8"
        },
        {
          "internalType": "bytes",
          "name": "_actionData",
          "type": "bytes"
        }
      ],
      "name": "receiveValidatedVaultAction",
      "outputs": [],
      "stateMutability": "nonpayable",
      "type": "function"
    },
    {
      "inputs": [
        {
          "internalType": "address[]",
          "name": "_managers",
          "type": "address[]"
        }
      ],
      "name": "removeAssetManagers",
      "outputs": [],
      "stateMutability": "nonpayable",
      "type": "function"
    },
    {
      "inputs": [],
      "name": "removeNominatedOwner",
      "outputs": [],
      "stateMutability": "nonpayable",
      "type": "function"
    },
    {
      "inputs": [
        {
          "internalType": "address",
          "name": "_nextAccessor",
          "type": "address"
        }
      ],
      "name": "setAccessor",
      "outputs": [],
      "stateMutability": "nonpayable",
      "type": "function"
    },
    {
      "inputs": [
        {
          "internalType": "address",
          "name": "_nextAccessor",
          "type": "address"
        }
      ],
      "name": "setAccessorForFundReconfiguration",
      "outputs": [],
      "stateMutability": "nonpayable",
      "type": "function"
    },
    {
      "inputs": [],
      "name": "setFreelyTransferableShares",
      "outputs": [],
      "stateMutability": "nonpayable",
      "type": "function"
    },
    {
      "inputs": [
        {
          "internalType": "address",
          "name": "_nextMigrator",
          "type": "address"
        }
      ],
      "name": "setMigrator",
      "outputs": [],
      "stateMutability": "nonpayable",
      "type": "function"
    },
    {
      "inputs": [
        {
          "internalType": "address",
          "name": "_nextNominatedOwner",
          "type": "address"
        }
      ],
      "name": "setNominatedOwner",
      "outputs": [],
      "stateMutability": "nonpayable",
      "type": "function"
    },
    {
      "inputs": [
        {
          "internalType": "address",
          "name": "_nextVaultLib",
          "type": "address"
        }
      ],
      "name": "setVaultLib",
      "outputs": [],
      "stateMutability": "nonpayable",
      "type": "function"
    },
    {
      "inputs": [],
      "name": "sharesAreFreelyTransferable",
      "outputs": [
        {
          "internalType": "bool",
          "name": "sharesAreFreelyTransferable_",
          "type": "bool"
        }
      ],
      "stateMutability": "view",
      "type": "function"
    },
    {
      "inputs": [],
      "name": "symbol",
      "outputs": [
        {
          "internalType": "string",
          "name": "symbol_",
          "type": "string"
        }
      ],
      "stateMutability": "view",
      "type": "function"
    },
    {
      "inputs": [],
      "name": "totalSupply",
      "outputs": [
        {
          "internalType": "uint256",
          "name": "",
          "type": "uint256"
        }
      ],
      "stateMutability": "view",
      "type": "function"
    },
    {
      "inputs": [
        {
          "internalType": "address",
          "name": "_recipient",
          "type": "address"
        },
        {
          "internalType": "uint256",
          "name": "_amount",
          "type": "uint256"
        }
      ],
      "name": "transfer",
      "outputs": [
        {
          "internalType": "bool",
          "name": "success_",
          "type": "bool"
        }
      ],
      "stateMutability": "nonpayable",
      "type": "function"
    },
    {
      "inputs": [
        {
          "internalType": "address",
          "name": "_sender",
          "type": "address"
        },
        {
          "internalType": "address",
          "name": "_recipient",
          "type": "address"
        },
        {
          "internalType": "uint256",
          "name": "_amount",
          "type": "uint256"
        }
      ],
      "name": "transferFrom",
      "outputs": [
        {
          "internalType": "bool",
          "name": "success_",
          "type": "bool"
        }
      ],
      "stateMutability": "nonpayable",
      "type": "function"
    },
    {
      "inputs": [
        {
          "internalType": "address",
          "name": "_from",
          "type": "address"
        },
        {
          "internalType": "address",
          "name": "_to",
          "type": "address"
        },
        {
          "internalType": "uint256",
          "name": "_amount",
          "type": "uint256"
        }
      ],
      "name": "transferShares",
      "outputs": [],
      "stateMutability": "nonpayable",
      "type": "function"
    },
    {
      "inputs": [
        {
          "internalType": "address",
          "name": "asset",
          "type": "address"
        },
        {
          "internalType": "address",
          "name": "target",
          "type": "address"
        },
        {
          "internalType": "uint256",
          "name": "amount",
          "type": "uint256"
        }
      ],
      "name": "transferUnderlyingTo",
      "outputs": [
        {
          "internalType": "uint256",
          "name": "",
          "type": "uint256"
        }
      ],
      "stateMutability": "nonpayable",
      "type": "function"
    },
    {
      "inputs": [
        {
          "internalType": "address",
          "name": "_asset",
          "type": "address"
        },
        {
          "internalType": "address",
          "name": "_target",
          "type": "address"
        },
        {
          "internalType": "uint256",
          "name": "_amount",
          "type": "uint256"
        }
      ],
      "name": "withdrawAssetTo",
      "outputs": [],
      "stateMutability": "nonpayable",
      "type": "function"
    },
    {
      "inputs": [
        {
          "internalType": "address",
          "name": "_asset",
          "type": "address"
        },
        {
          "internalType": "address",
          "name": "_target",
          "type": "address"
        },
        {
          "internalType": "uint256",
          "name": "_amount",
          "type": "uint256"
        }
      ],
      "name": "withdrawAssetToVault",
      "outputs": [],
      "stateMutability": "nonpayable",
      "type": "function"
    },
    {
      "stateMutability": "payable",
      "type": "receive"
    }
  ],
  "transactionHash": "0x022d94be7373c9ce05bb89ceadb97223dad15fc897ae7b886ab93d411398d581",
  "args": [
    "0xf090f16dEc8b6D24082Edd25B1C8D26f2bC86128",
    "0xefAB0Beb0A557E452b398035eA964948c750b2Fd",
    "0x3904b8f5b0F49cD206b7d5AABeE5D1F37eE15D8d",
    "0x114e375B6FCC6d6fCb68c7A1d407E652C54F25FB",
    "0xec67005c4E498Ec7f55E092bd1d35cbC47C91892",
    "0xc02aaa39b223fe8d0a0e5c4f27ead9083c756cc2"
  ],
  "solcInputHash": "e128c99a7ad98ab17bfe5eac6103458b",
  "bytecode": "0x61014060405234801561001157600080fd5b5060405162004c6938038062004c69833981810160405260c081101561003657600080fd5b5080516020820151604083015160608085015160808087015160a0978801516001600160601b031996851b871690925295831b851690965293811b831660c05290811b821660e05291821b81166101005291901b166101205260805160601c60a05160601c60c05160601c60e05160601c6101005160601c6101205160601c614b7e620000eb60003980610fa05250806120b4525080612a58525080612aa75250806128025250806127de5250614b7e6000f3fe6080604052600436106103855760003560e01c8063714ca2d1116101d15780639c60d0f611610102578063bfc77beb116100a0578063da41962e1161006f578063da41962e14610f00578063dd62ed3e14610f15578063e70e605e14610f50578063ee7a7c0414610f6557610420565b8063bfc77beb14610e7e578063c4b9737014610ec1578063cd63d57814610ed6578063d5c20fa214610eeb57610420565b8063ab9253ac116100dc578063ab9253ac14610dbc578063ac25945614610def578063b3fc38e914610e04578063b8b7f14714610e1957610420565b80639c60d0f614610cb5578063a9059cbb14610cf8578063a90cce4b14610d3157610420565b80637de07cea1161016f578063893d20e811610149578063893d20e814610c335780639185349a14610c4857806395d89b4114610c8b57806397c0ac8714610ca057610420565b80637de07cea14610bb25780638156eecf14610be557806388dd91a114610bfa57610420565b8063749cc8f5116101ab578063749cc8f514610b2b57806375d8bb0e14610b40578063797ed33914610b6a5780637c81ac2d14610b9d57610420565b8063714ca2d114610a92578063728e17a014610ac5578063740f2b5a14610af857610420565b8063495d753c116102b65780635c9a6d37116102545780636c665319116102235780636c665319146107bd5780636ea2114314610a1757806370a0823114610a2c578063712bd10214610a5f57610420565b80635c9a6d37146108c05780636487aa111461095457806364cb36cb14610987578063682cea1914610a0257610420565b80634ef0762e116102905780634ef0762e1461082a578063528c198a1461085d57806352d1902d146108965780635a53e348146108ab57610420565b8063495d753c146107bd5780634c252f91146108005780634e71e0c81461081557610420565b806324e6001211610323578063313ce567116102fd578063313ce567146106b157806336861889146106dc5780633e11553d1461070f5780634140d6071461078a57610420565b806324e6001214610602578063288b6a361461068757806328c2ad9c1461069c57610420565b806318160ddd1161035f57806318160ddd1461052d5780631ff46bfa1461055457806323b872dd1461058c57806323cf3118146105cf57610420565b806306fdde0314610425578063095ea7b3146104af5780630ee2cb10146104fc57610420565b36610420573031610394610f9e565b6001600160a01b031663d0e30db0826040518263ffffffff1660e01b81526004016000604051808303818588803b1580156103ce57600080fd5b505af11580156103e2573d6000803e3d6000fd5b50506040805185815290513394507f85177f287940f2f05425a4029951af0e047a7f9c4eaa9a6e6917bcd869f866959350908190036020019150a250005b600080fd5b34801561043157600080fd5b5061043a610fc3565b6040805160208082528351818301528351919283929083019185019080838360005b8381101561047457818101518382015260200161045c565b50505050905090810190601f1680156104a15780820380516001836020036101000a031916815260200191505b509250505060405180910390f35b3480156104bb57600080fd5b506104e8600480360360408110156104d257600080fd5b506001600160a01b038135169060200135611059565b604080519115158252519081900360200190f35b34801561050857600080fd5b5061051161106f565b604080516001600160a01b039092168252519081900360200190f35b34801561053957600080fd5b5061054261107e565b60408051918252519081900360200190f35b34801561056057600080fd5b5061058a6004803603606081101561057757600080fd5b5080359060208101359060400135611084565b005b34801561059857600080fd5b506104e8600480360360608110156105af57600080fd5b506001600160a01b03813581169160208101359091169060400135611223565b3480156105db57600080fd5b5061058a600480360360208110156105f257600080fd5b50356001600160a01b0316611245565b34801561060e57600080fd5b5061058a6004803603604081101561062557600080fd5b60ff8235169190810190604081016020820135600160201b81111561064957600080fd5b82018360208201111561065b57600080fd5b803590602001918460018302840111600160201b8311171561067c57600080fd5b509092509050611363565b34801561069357600080fd5b506105116116ef565b3480156106a857600080fd5b506104e8611703565b3480156106bd57600080fd5b506106c661170c565b6040805160ff9092168252519081900360200190f35b3480156106e857600080fd5b506104e8600480360360208110156106ff57600080fd5b50356001600160a01b0316611711565b34801561071b57600080fd5b5061058a6004803603602081101561073257600080fd5b810190602081018135600160201b81111561074c57600080fd5b82018360208201111561075e57600080fd5b803590602001918460208302840111600160201b8311171561077f57600080fd5b509092509050611767565b34801561079657600080fd5b5061058a600480360360208110156107ad57600080fd5b50356001600160a01b03166118e7565b3480156107c957600080fd5b5061058a600480360360608110156107e057600080fd5b506001600160a01b0381358116916020810135909116906040013561198e565b34801561080c57600080fd5b50610511610f9e565b34801561082157600080fd5b5061058a611999565b34801561083657600080fd5b5061058a6004803603602081101561084d57600080fd5b50356001600160a01b0316611a4b565b34801561086957600080fd5b5061058a6004803603604081101561088057600080fd5b506001600160a01b038135169060200135611a57565b3480156108a257600080fd5b50610542611aae565b3480156108b757600080fd5b50610511611ad2565b3480156108cc57600080fd5b5061058a600480360360608110156108e357600080fd5b6001600160a01b038235811692602081013590911691810190606081016040820135600160201b81111561091657600080fd5b82018360208201111561092857600080fd5b803590602001918460018302840111600160201b8311171561094957600080fd5b509092509050611ae1565b34801561096057600080fd5b506104e86004803603602081101561097757600080fd5b50356001600160a01b0316611bcf565b34801561099357600080fd5b5061058a600480360360208110156109aa57600080fd5b810190602081018135600160201b8111156109c457600080fd5b8201836020820111156109d657600080fd5b803590602001918460208302840111600160201b831117156109f757600080fd5b509092509050611bed565b348015610a0e57600080fd5b50610511611d57565b348015610a2357600080fd5b50610511611d7c565b348015610a3857600080fd5b5061054260048036036020811015610a4f57600080fd5b50356001600160a01b0316611e5d565b348015610a6b57600080fd5b506104e860048036036020811015610a8257600080fd5b50356001600160a01b0316611e78565b348015610a9e57600080fd5b506104e860048036036020811015610ab557600080fd5b50356001600160a01b0316611e96565b348015610ad157600080fd5b5061058a60048036036020811015610ae857600080fd5b50356001600160a01b0316611ec3565b348015610b0457600080fd5b5061058a60048036036020811015610b1b57600080fd5b50356001600160a01b0316612052565b348015610b3757600080fd5b506105116120b2565b348015610b4c57600080fd5b5061051160048036036020811015610b6357600080fd5b50356120d6565b348015610b7657600080fd5b506104e860048036036020811015610b8d57600080fd5b50356001600160a01b0316612155565b348015610ba957600080fd5b5061058a612173565b348015610bbe57600080fd5b506104e860048036036020811015610bd557600080fd5b50356001600160a01b0316612248565b348015610bf157600080fd5b5061058a612277565b348015610c0657600080fd5b5061058a60048036036040811015610c1d57600080fd5b506001600160a01b038135169060200135611aaa565b348015610c3f57600080fd5b50610511612365565b348015610c5457600080fd5b5061058a60048036036060811015610c6b57600080fd5b506001600160a01b03813581169160208101359160409091013516612374565b348015610c9757600080fd5b5061043a612429565b348015610cac57600080fd5b5061051161255d565b348015610cc157600080fd5b5061054260048036036060811015610cd857600080fd5b506001600160a01b038135811691602081013590911690604001356125a8565b348015610d0457600080fd5b506104e860048036036040811015610d1b57600080fd5b506001600160a01b038135169060200135612635565b348015610d3d57600080fd5b5061043a60048036036040811015610d5457600080fd5b6001600160a01b038235169190810190604081016020820135600160201b811115610d7e57600080fd5b820183602082011115610d9057600080fd5b803590602001918460018302840111600160201b83111715610db157600080fd5b50909250905061264c565b348015610dc857600080fd5b5061058a60048036036020811015610ddf57600080fd5b50356001600160a01b0316612793565b348015610dfb57600080fd5b506105116127dc565b348015610e1057600080fd5b50610511612800565b348015610e2557600080fd5b50610e2e612824565b60408051602080825283518183015283519192839290830191858101910280838360005b83811015610e6a578181015183820152602001610e52565b505050509050019250505060405180910390f35b348015610e8a57600080fd5b5061058a60048036036060811015610ea157600080fd5b506001600160a01b03813581169160208101359091169060400135612885565b348015610ecd57600080fd5b50610e2e6128d9565b348015610ee257600080fd5b50610511612939565b348015610ef757600080fd5b5061058a612948565b348015610f0c57600080fd5b50610511612a56565b348015610f2157600080fd5b5061054260048036036040811015610f3857600080fd5b506001600160a01b0381358116916020013516612a7a565b348015610f5c57600080fd5b50610511612aa5565b348015610f7157600080fd5b5061058a60048036036040811015610f8857600080fd5b506001600160a01b038135169060200135612ac9565b7f00000000000000000000000000000000000000000000000000000000000000005b90565b60008054604080516020601f600260001961010060018816150201909516949094049384018190048102820181019092528281526060939092909183018282801561104f5780601f106110245761010080835404028352916020019161104f565b820191906000526020600020905b81548152906001019060200180831161103257829003601f168201915b5050505050905090565b6000611066338484612b1c565b50600192915050565b6006546001600160a01b031690565b60025490565b6005546001600160a01b031633146110cd5760405162461bcd60e51b815260040180806020018281038252602f8152602001806147fa602f913960400191505060405180910390fd5b60006110d7612a56565b6001600160a01b03166396c45aec8585856040518463ffffffff1660e01b8152600401808481526020018381526020018281526020019350505050602060405180830381600087803b15801561112c57600080fd5b505af1158015611140573d6000803e3d6000fd5b505050506040513d602081101561115657600080fd5b5051905080611165575061121e565b611176611170612a56565b85612c08565b61117e612aa5565b6001600160a01b03166342966c68826040518263ffffffff1660e01b815260040180828152602001915050600060405180830381600087803b1580156111c357600080fd5b505af11580156111d7573d6000803e3d6000fd5b5050604080518781526020810187905280820185905290517ff8c67da77ed4cb50a4dec91c60cf78ee219033bd3c55a86d133178c557c2d2cf9350908190036060019150a1505b505050565b6000611230848484612d93565b61123b848484612e84565b90505b9392505050565b6008546001600160a01b0316611259612eed565b6001600160a01b03161461129e5760405162461bcd60e51b81526004018080602001828103825260258152602001806145b66025913960400191505060405180910390fd5b6007546001600160a01b03908116908216811415611303576040805162461bcd60e51b815260206004820152601e60248201527f7365744d69677261746f723a2056616c756520616c7265616479207365740000604482015290519081900360640190fd5b600780546001600160a01b0319166001600160a01b03848116918217909255604080519284168352602083019190915280517f9d0761a1fa4d686cd87f8dbf8ca52f90cf19c3c4dc36e66ebbf08fc5ba203f2c9281900390910190a15050565b6005546001600160a01b031633146113ac5760405162461bcd60e51b815260040180806020018281038252602f8152602001806147fa602f913960400191505060405180910390fd5b600883600a8111156113ba57fe5b1415611404576113ff82828080601f016020809104026020016040519081016040528093929190818152602001838380828437600092019190915250612f3192505050565b61121e565b600483600a81111561141257fe5b1415611457576113ff82828080601f016020809104026020016040519081016040528093929190818152602001838380828437600092019190915250612f5092505050565b600583600a81111561146557fe5b14156114aa576113ff82828080601f016020809104026020016040519081016040528093929190818152602001838380828437600092019190915250612f6f92505050565b600183600a8111156114b857fe5b14156114fd576113ff82828080601f016020809104026020016040519081016040528093929190818152602001838380828437600092019190915250612fb092505050565b600983600a81111561150b57fe5b1415611550576113ff82828080601f016020809104026020016040519081016040528093929190818152602001838380828437600092019190915250612fe092505050565b600283600a81111561155e57fe5b14156115a3576113ff82828080601f01602080910402602001604051908101604052809392919081815260200183838082843760009201919091525061326392505050565b600a83600a8111156115b157fe5b14156115f6576113ff82828080601f01602080910402602001604051908101604052809392919081815260200183838082843760009201919091525061329392505050565b600683600a81111561160457fe5b1415611649576113ff82828080601f0160208091040260200160405190810160405280939291908181526020018383808284376000920191909152506132b292505050565b600383600a81111561165757fe5b141561169c576113ff82828080601f0160208091040260200160405190810160405280939291908181526020018383808284376000920191909152506132d192505050565b600783600a8111156116aa57fe5b141561121e5761121e82828080601f01602080910402602001604051908101604052809392919081815260200183838082843760009201919091525061330c92505050565b600b5461010090046001600160a01b031690565b600b5460ff1690565b601290565b600061171b612365565b6001600160a01b0316826001600160a01b0316148061173e575061173e82611bcf565b80611761575061174c612939565b6001600160a01b0316826001600160a01b0316145b92915050565b6008546001600160a01b031661177b612eed565b6001600160a01b0316146117c05760405162461bcd60e51b81526004018080602001828103825260258152602001806145b66025913960400191505060405180910390fd5b60005b8181101561121e576117ef8383838181106117da57fe5b905060200201356001600160a01b0316611bcf565b1561182b5760405162461bcd60e51b815260040180806020018281038252602c815260200180614673602c913960400191505060405180910390fd5b6001600d600085858581811061183d57fe5b905060200201356001600160a01b03166001600160a01b03166001600160a01b0316815260200190815260200160002060006101000a81548160ff0219169083151502179055507f8cf4dd2d46ca2e74b9cc238f9e9c907b5a6a50e2f652162a062d5e8129f35d7a8383838181106118b157fe5b905060200201356001600160a01b031660405180826001600160a01b0316815260200191505060405180910390a16001016117c3565b6006546001600160a01b031633146119305760405162461bcd60e51b81526004018080602001828103825260328152602001806147a06032913960400191505060405180910390fd5b600061193a611d57565b905061194582613347565b604080516001600160a01b0380841682528416602082015281517fe504a0278c9d64c1a72d2f528a0c5e3686e093fcd478b3b1224a5c6983207df6929181900390910190a15050565b61121e83838361342d565b600b5461010090046001600160a01b03163381146119e85760405162461bcd60e51b815260040180806020018281038252603e8152602001806149b9603e913960400191505060405180910390fd5b600b8054610100600160a81b0319169055600880546001600160a01b038381166001600160a01b0319831681179093556040519116919082907f8be0079c531659141344cd1fd0a4f28419497f9722a3daafe3b4186f6b6457e090600090a35050565b611a548161354f565b50565b6005546001600160a01b03163314611aa05760405162461bcd60e51b815260040180806020018281038252602f8152602001806147fa602f913960400191505060405180910390fd5b611aaa8282613658565b5050565b7f027b9570e9fedc1a80b937ae9a06861e5faef3992491af30b684a64b3fbec7a590565b6005546001600160a01b031690565b6006546001600160a01b031615611b3f576040805162461bcd60e51b815260206004820152601f60248201527f696e69743a2050726f787920616c726561647920696e697469616c697a656400604482015290519081900360640190fd5b600680546001600160a01b03191633179055611b5d60008383614522565b50611b678361373e565b611b70846137e6565b7fe504a0278c9d64c1a72d2f528a0c5e3686e093fcd478b3b1224a5c6983207df66000611b9b611d57565b60405180836001600160a01b03168152602001826001600160a01b031681526020019250505060405180910390a150505050565b6001600160a01b03166000908152600d602052604090205460ff1690565b6008546001600160a01b0316611c01612eed565b6001600160a01b031614611c465760405162461bcd60e51b81526004018080602001828103825260258152602001806145b66025913960400191505060405180910390fd5b60005b8181101561121e57611c608383838181106117da57fe5b611c9b5760405162461bcd60e51b815260040180806020018281038252602b815260200180614ac7602b913960400191505060405180910390fd5b6000600d6000858585818110611cad57fe5b905060200201356001600160a01b03166001600160a01b03166001600160a01b0316815260200190815260200160002060006101000a81548160ff0219169083151502179055507f1a3f6d43a85364a6a2d8297f0cd634e060a6ef9bc11b3a0c89e47d40b89c2f7e838383818110611d2157fe5b905060200201356001600160a01b031660405180826001600160a01b0316815260200191505060405180910390a1600101611c49565b7f360894a13ba1a3210667c828492db98dca3e2076cc3735a920a3ca505d382bbc5490565b6000611d866127dc565b6001600160a01b03166398a7c4c76040518163ffffffff1660e01b815260040160206040518083038186803b158015611dbe57600080fd5b505afa158015611dd2573d6000803e3d6000fd5b505050506040513d6020811015611de857600080fd5b505160408051637da0a87760e01b815290516001600160a01b0390921691637da0a87791600480820192602092909190829003018186803b158015611e2c57600080fd5b505afa158015611e40573d6000803e3d6000fd5b505050506040513d6020811015611e5657600080fd5b5051905090565b6001600160a01b031660009081526003602052604090205490565b6001600160a01b03166000908152600e602052604090205460ff1690565b6000611ea0612365565b6001600160a01b0316826001600160a01b03161480611761575061176182611bcf565b6008546001600160a01b0316611ed7612eed565b6001600160a01b031614611f1c5760405162461bcd60e51b81526004018080602001828103825260258152602001806145b66025913960400191505060405180910390fd5b6001600160a01b038116611f615760405162461bcd60e51b815260040180806020018281038252603681526020018061476a6036913960400191505060405180910390fd5b6008546001600160a01b0382811691161415611fae5760405162461bcd60e51b815260040180806020018281038252603b81526020018061489f603b913960400191505060405180910390fd5b600b546001600160a01b038281166101009092041614156120005760405162461bcd60e51b815260040180806020018281038252603b81526020018061492d603b913960400191505060405180910390fd5b600b8054610100600160a81b0319166101006001600160a01b038416908102919091179091556040517f132c19de901bb4ed8403c34734b6c841d5dc57745824da452a52433519ea5abf90600090a250565b61205a61255d565b6001600160a01b0316336001600160a01b0316146120a95760405162461bcd60e51b81526004018080602001828103825260288152602001806147d26028913960400191505060405180910390fd5b611a548161373e565b7f000000000000000000000000000000000000000000000000000000000000000090565b60006120e0612800565b6001600160a01b03166375d8bb0e836040518263ffffffff1660e01b81526004018082815260200191505060206040518083038186803b15801561212357600080fd5b505afa158015612137573d6000803e3d6000fd5b505050506040513d602081101561214d57600080fd5b505192915050565b6001600160a01b03166000908152600a602052604090205460ff1690565b6008546001600160a01b0316612187612eed565b6001600160a01b0316146121cc5760405162461bcd60e51b81526004018080602001828103825260258152602001806145b66025913960400191505060405180910390fd5b6121d4611703565b156122105760405162461bcd60e51b8152600401808060200182810382526028815260200180614a9f6028913960400191505060405180910390fd5b600b805460ff191660011790556040517f505ab4202e673074a7b93ec3c2ca442c3526a42232835c56d223bd09672c5b0d90600090a1565b6008546000906001600160a01b03838116911614806117615750506007546001600160a01b0390811691161490565b6008546001600160a01b031661228b612eed565b6001600160a01b0316146122d05760405162461bcd60e51b81526004018080602001828103825260258152602001806145b66025913960400191505060405180910390fd5b600b5461010090046001600160a01b03168061231d5760405162461bcd60e51b81526004018080602001828103825260318152602001806147396031913960400191505060405180910390fd5b600b8054610100600160a81b03191690556040516001600160a01b038216907fe4136584a5e8bb85d66301f3ce8b11cc2e5a8bea3979f10ea2451353849acc4790600090a250565b6008546001600160a01b031690565b6123ab6040518060400160405280601581526020017463616c634761763a466f72206173736574203a257360581b815250846138da565b6123ea6040518060400160405280601981526020017f63616c634761763a42616c616e6365206173736574203a25640000000000000081525083613991565b61121e6040518060400160405280601781526020017f63616c634761763a70726f7879207661756c74203a2573000000000000000000815250826138da565b60065460408051625a3d8360e91b815290516060926001600160a01b03169163b47b0600916004808301926000929190829003018186803b15801561246d57600080fd5b505afa158015612481573d6000803e3d6000fd5b505050506040513d6000823e601f3d908101601f1916820160405260208110156124aa57600080fd5b8101908080516040519392919084600160201b8211156124c957600080fd5b9083019060208201858111156124de57600080fd5b8251600160201b8111828201881017156124f757600080fd5b82525081516020918201929091019080838360005b8381101561252457818101518382015260200161250c565b50505050905090810190601f1680156125515780820380516001836020036101000a031916815260200191505b50604052505050905090565b600654604080516307af8e9f60e31b815230600482015290516000926001600160a01b031691633d7c74f8916024808301926020929190829003018186803b158015611e2c57600080fd5b6000836001600160a01b031663a9059cbb84846040518363ffffffff1660e01b815260040180836001600160a01b0316815260200182815260200192505050602060405180830381600087803b15801561260157600080fd5b505af1158015612615573d6000803e3d6000fd5b505050506040513d602081101561262b57600080fd5b5091949350505050565b6000612642338484612d93565b61123e8383613a3f565b6005546060906001600160a01b031633146126985760405162461bcd60e51b815260040180806020018281038252602f8152602001806147fa602f913960400191505060405180910390fd5b6000846001600160a01b03168484604051808383808284376040519201945060009350909150508083038183865af19150503d80600081146126f6576040519150601f19603f3d011682016040523d82523d6000602084013e6126fb565b606091505b5092509050818161278a5760405162461bcd60e51b81526004018080602001828103825283818151815260200191508051906020019080838360005b8381101561274f578181015183820152602001612737565b50505050905090810190601f16801561277c5780820380516001836020036101000a031916815260200191505b509250505060405180910390fd5b50509392505050565b6006546001600160a01b031633146120a95760405162461bcd60e51b81526004018080602001828103825260328152602001806148da6032913960400191505060405180910390fd5b7f000000000000000000000000000000000000000000000000000000000000000090565b7f000000000000000000000000000000000000000000000000000000000000000090565b6060600c80548060200260200160405190810160405280929190818152602001828054801561104f57602002820191906000526020600020905b81546001600160a01b0316815260019091019060200180831161285e575050505050905090565b6005546001600160a01b031633146128ce5760405162461bcd60e51b815260040180806020018281038252602f8152602001806147fa602f913960400191505060405180910390fd5b61121e838383613a48565b6060600980548060200260200160405190810160405280929190818152602001828054801561104f576020028201919060005260206000209081546001600160a01b0316815260019091019060200180831161285e575050505050905090565b6007546001600160a01b031690565b6005546001600160a01b031633146129915760405162461bcd60e51b815260040180806020018281038252602f8152602001806147fa602f913960400191505060405180910390fd5b600061299b6120b2565b6001600160a01b031663296102526040518163ffffffff1660e01b8152600401602060405180830381600087803b1580156129d557600080fd5b505af11580156129e9573d6000803e3d6000fd5b505050506040513d60208110156129ff57600080fd5b5051905080612a0e5750612a54565b612a1f612a19612a56565b82613658565b6040805182815290517f390f4e733d9d6104fbfb7508fdaf57640ea4179603e995d21027fda40e2576979181900360200190a1505b565b7f000000000000000000000000000000000000000000000000000000000000000090565b6001600160a01b03918216600090815260046020908152604080832093909416825291909152205490565b7f000000000000000000000000000000000000000000000000000000000000000090565b6005546001600160a01b03163314612b125760405162461bcd60e51b815260040180806020018281038252602f8152602001806147fa602f913960400191505060405180910390fd5b611aaa8282612c08565b6001600160a01b038316612b615760405162461bcd60e51b8152600401808060200182810382526024815260200180614a306024913960400191505060405180910390fd5b6001600160a01b038216612ba65760405162461bcd60e51b81526004018080602001828103825260228152602001806146516022913960400191505060405180910390fd5b6001600160a01b03808416600081815260046020908152604080832094871680845294825291829020859055815185815291517f8c5be1e5ebec7d5bd14f71427d1e84f3dd0314c0f7b2291e5b200ac8c7c3b9259281900390910190a3505050565b612c2a604051806060016040528060218152602001614af260219139836138da565b612c696040518060400160405280602081526020017f536861726573546f6b65426173653a4275726e696e6720616d6f756e743a257381525082613991565b612ca3604051806060016040528060218152602001614a54602191396001600160a01b038416600090815260036020526040902054613991565b6001600160a01b038216612ce85760405162461bcd60e51b815260040180806020018281038252602181526020018061490c6021913960400191505060405180910390fd5b612d25816040518060600160405280602281526020016145fe602291396001600160a01b0385166000908152600360205260409020549190613b9a565b6001600160a01b038316600090815260036020526040902055600254612d4b9082613bf4565b6002556040805182815290516000916001600160a01b038516917fddf252ad1be2c89b69c2b068fc378daa952ba7f163c4a11628f55a4df523b3ef9181900360200190a35050565b612d9b611703565b15612e0a5760055460408051631f3abfcf60e31b81526001600160a01b0386811660048301529151919092169163f9d5fe78916024808301926000929190829003018186803b158015612ded57600080fd5b505afa158015612e01573d6000803e3d6000fd5b5050505061121e565b60055460408051630979029360e11b81526001600160a01b038681166004830152858116602483015260448201859052915191909216916312f2052691606480830192600092919082900301818387803b158015612e6757600080fd5b505af1158015612e7b573d6000803e3d6000fd5b50505050505050565b6000612e91848484613a48565b612ee38433612ede85604051806060016040528060288152602001614829602891396001600160a01b038a1660009081526004602090815260408083203384529091529020549190613b9a565b612b1c565b5060019392505050565b600060183610801590612f185750612f03611d7c565b6001600160a01b0316336001600160a01b0316145b15612f2c575060131936013560601c610fc0565b503390565b611a54818060200190516020811015612f4957600080fd5b5051613c19565b611a54818060200190516020811015612f6857600080fd5b505161354f565b6000806000838060200190516060811015612f8957600080fd5b50805160208201516040909201519094509092509050612faa838383613cba565b50505050565b600080828060200190516040811015612fc857600080fd5b508051602090910151909250905061121e8282612c08565b60006060806060808580602001905160a0811015612ffd57600080fd5b815160208301805160405192949293830192919084600160201b82111561302357600080fd5b90830190602082018581111561303857600080fd5b8251600160201b81118282018810171561305157600080fd5b82525081516020918201929091019080838360005b8381101561307e578181015183820152602001613066565b50505050905090810190601f1680156130ab5780820380516001836020036101000a031916815260200191505b5060405260200180516040519392919084600160201b8211156130cd57600080fd5b9083019060208201858111156130e257600080fd5b82518660208202830111600160201b821117156130fe57600080fd5b82525081516020918201928201910280838360005b8381101561312b578181015183820152602001613113565b5050505090500160405260200180516040519392919084600160201b82111561315357600080fd5b90830190602082018581111561316857600080fd5b82518660208202830111600160201b8211171561318457600080fd5b82525081516020918201928201910280838360005b838110156131b1578181015183820152602001613199565b5050505090500160405260200180516040519392919084600160201b8211156131d957600080fd5b9083019060208201858111156131ee57600080fd5b82518660208202830111600160201b8211171561320a57600080fd5b82525081516020918201928201910280838360005b8381101561323757818101518382015260200161321f565b505050509050016040525050509450945094509450945061325b8585858585613dc7565b505050505050565b60008082806020019051604081101561327b57600080fd5b508051602090910151909250905061121e8282613658565b611a548180602001905160208110156132ab57600080fd5b5051613f3f565b611a548180602001905160208110156132ca57600080fd5b5051613fb0565b60008060008380602001905160608110156132eb57600080fd5b50805160208201516040909201519094509092509050612faa838383613a48565b600080600083806020019051606081101561332657600080fd5b50805160208201516040909201519094509092509050612faa83838361342d565b806001600160a01b03166352d1902d6040518163ffffffff1660e01b815260040160206040518083038186803b15801561338057600080fd5b505afa158015613394573d6000803e3d6000fd5b505050506040513d60208110156133aa57600080fd5b50517f027b9570e9fedc1a80b937ae9a06861e5faef3992491af30b684a64b3fbec7a5146134095760405162461bcd60e51b81526004018080602001828103825260318152602001806146206031913960400191505060405180910390fd5b7f360894a13ba1a3210667c828492db98dca3e2076cc3735a920a3ca505d382bbc55565b826001600160a01b038116301415613483576040805162461bcd60e51b815260206004820152601460248201527343616e6e6f7420616374206f6e2073686172657360601b604482015290519081900360640190fd5b836001600160a01b031663a9059cbb84846040518363ffffffff1660e01b815260040180836001600160a01b0316815260200182815260200192505050602060405180830381600087803b1580156134da57600080fd5b505af11580156134ee573d6000803e3d6000fd5b505050506040513d602081101561350457600080fd5b50506040805183815290516001600160a01b0380861692908716917f6f9cbac839b826cc524f53d10416c053fce34ec15fd1001720e777cc49720e769181900360200190a350505050565b806001600160a01b0381163014156135a5576040805162461bcd60e51b815260206004820152601460248201527343616e6e6f7420616374206f6e2073686172657360601b604482015290519081900360640190fd5b6135ae82612155565b611aaa576135ba614029565b6001600160a01b0382166000818152600a60209081526040808320805460ff191660019081179091556009805491820181559093527f6e1540171b6c0c960b71a7020d9f60077f6af931a8bbf590da0223dacf75c7af90920180546001600160a01b03191684179055815192835290517fa0d2bfad19dc0c6970d2a2fcff65458a6d7c4fa3b6d904f44961b2c744bdf5919281900390910190a15050565b6001600160a01b0382166136b3576040805162461bcd60e51b815260206004820152601f60248201527f45524332303a206d696e7420746f20746865207a65726f206164647265737300604482015290519081900360640190fd5b6002546136c0908261406f565b6002556001600160a01b0382166000908152600360205260409020546136e6908261406f565b6001600160a01b03831660008181526003602090815260408083209490945583518581529351929391927fddf252ad1be2c89b69c2b068fc378daa952ba7f163c4a11628f55a4df523b3ef9281900390910190a35050565b6001600160a01b0381166137835760405162461bcd60e51b815260040180806020018281038252602c81526020018061498d602c913960400191505060405180910390fd5b600580546001600160a01b038381166001600160a01b0319831681179093556040805191909216808252602082019390935281517fb5a9def940973a936e331170816650368964b0602957d4bc60f5ddc2dc1b69cd929181900390910190a15050565b6001600160a01b03811661382b5760405162461bcd60e51b81526004018080602001828103825260268152602001806146c56026913960400191505060405180910390fd5b6008546001600160a01b0390811690821681141561387a5760405162461bcd60e51b815260040180806020018281038252602b815260200180614874602b913960400191505060405180910390fd5b600880546001600160a01b0319166001600160a01b03848116918217909255604080519284168352602083019190915280517f342827c97908e5e2f71151c08502a66d44b6f758e3ac2f1de95f02eb95f0a7359281900390910190a15050565b611aaa82826040516024018080602001836001600160a01b03168152602001828103825284818151815260200191508051906020019080838360005b8381101561392e578181015183820152602001613916565b50505050905090810190601f16801561395b5780820380516001836020036101000a031916815260200191505b5060408051601f198184030181529190526020810180516001600160e01b031663319af33360e01b17905293506140b392505050565b611aaa82826040516024018080602001838152602001828103825284818151815260200191508051906020019080838360005b838110156139dc5781810151838201526020016139c4565b50505050905090810190601f168015613a095780820380516001836020036101000a031916815260200191505b5060408051601f198184030181529190526020810180516001600160e01b03166309710a9d60e41b17905293506140b392505050565b60006110663384845b6001600160a01b038316613a8d5760405162461bcd60e51b81526004018080602001828103825260258152602001806149686025913960400191505060405180910390fd5b6001600160a01b038216613ad25760405162461bcd60e51b81526004018080602001828103825260238152602001806145db6023913960400191505060405180910390fd5b613b0f8160405180606001604052806026815260200161469f602691396001600160a01b0386166000908152600360205260409020549190613b9a565b6001600160a01b038085166000908152600360205260408082209390935590841681522054613b3e908261406f565b6001600160a01b0380841660008181526003602090815260409182902094909455805185815290519193928716927fddf252ad1be2c89b69c2b068fc378daa952ba7f163c4a11628f55a4df523b3ef92918290030190a3505050565b60008184841115613bec5760405162461bcd60e51b815260206004820181815283516024840152835190928392604490910191908501908083836000831561274f578181015183820152602001612737565b505050900390565b600061123e838360405180606001604052806026815260200161471360269139613b9a565b613c2281611e78565b611a5457613c2e614029565b6001600160a01b0381166000818152600e6020526040808220805460ff19166001908117909155600c8054918201815583527fdf6966c971051c3d54ec59162606531493a51404a002842f56009d7e5cf4a8c70180546001600160a01b03191684179055517f07524f5de87a754cb09f25965c3355b50dfece5fa624111739d5bf5caa05ebe69190a250565b826001600160a01b038116301415613d10576040805162461bcd60e51b815260206004820152601460248201527343616e6e6f7420616374206f6e2073686172657360601b604482015290519081900360640190fd5b60408051636eb1769f60e11b81523060048201526001600160a01b038581166024830152915186926000929084169163dd62ed3e91604480820192602092909190829003018186803b158015613d6557600080fd5b505afa158015613d79573d6000803e3d6000fd5b505050506040513d6020811015613d8f57600080fd5b50511115613dac57613dac6001600160a01b0382168560006140d4565b613dc06001600160a01b03821685856140d4565b5050505050565b613dd085611e78565b613e0b5760405162461bcd60e51b81526004018080602001828103825260398152602001806149f76039913960400191505060405180910390fd5b60005b8351811015613e5057613e48848281518110613e2657fe5b602002602001015187858481518110613e3b57fe5b602002602001015161342d565b600101613e0e565b5060405163e5c23a9760e01b81526020600482018181528651602484015286516001600160a01b0389169363e5c23a979389939283926044019185019080838360005b83811015613eab578181015183820152602001613e93565b50505050905090810190601f168015613ed85780820380516001836020036101000a031916815260200191505b5092505050600060405180830381600087803b158015613ef757600080fd5b505af1158015613f0b573d6000803e3d6000fd5b5050505060005b815181101561325b57613f37828281518110613f2a57fe5b602002602001015161354f565b600101613f12565b613f4881611e78565b15611a54576001600160a01b0381166000908152600e60205260409020805460ff19169055613f78600c826141e7565b506040516001600160a01b038216907f5af401380f7c5a87ba294191b430d5c1c6dcc133c1d774c092cb0d6a52e20bef90600090a250565b613fb981612155565b15611a54576001600160a01b0381166000908152600a60205260409020805460ff19169055613fe96009826141e7565b50604080516001600160a01b038316815290517f22c4fcf23b40d39b02733ec19a3975b31172f2a5b2ce5d0f1831525276cd71569181900360200190a150565b600c546009546014910110612a545760405162461bcd60e51b81526004018080602001828103825260288152602001806146eb6028913960400191505060405180910390fd5b60008282018381101561123e5760405162461bcd60e51b81526004018080602001828103825260238152602001806148516023913960400191505060405180910390fd5b80516a636f6e736f6c652e6c6f67602083016000808483855afa5050505050565b80158061415a575060408051636eb1769f60e11b81523060048201526001600160a01b03848116602483015291519185169163dd62ed3e91604480820192602092909190829003018186803b15801561412c57600080fd5b505afa158015614140573d6000803e3d6000fd5b505050506040513d602081101561415657600080fd5b5051155b6141955760405162461bcd60e51b8152600401808060200182810382526036815260200180614b136036913960400191505060405180910390fd5b604080516001600160a01b038416602482015260448082018490528251808303909101815260649091019091526020810180516001600160e01b031663095ea7b360e01b17905261121e9084906142df565b8154600090815b818110156142d757836001600160a01b031685828154811061420c57fe5b6000918252602090912001546001600160a01b031614156142cf576001820381101561429a5784600183038154811061424157fe5b9060005260206000200160009054906101000a90046001600160a01b031685828154811061426b57fe5b9060005260206000200160006101000a8154816001600160a01b0302191690836001600160a01b031602179055505b848054806142a457fe5b600082815260209020810160001990810180546001600160a01b0319169055019055600192506142d7565b6001016141ee565b505092915050565b6060614334826040518060400160405280602081526020017f5361666545524332303a206c6f772d6c6576656c2063616c6c206661696c6564815250856001600160a01b03166143909092919063ffffffff16565b80519091501561121e5780806020019051602081101561435357600080fd5b505161121e5760405162461bcd60e51b815260040180806020018281038252602a815260200180614a75602a913960400191505060405180910390fd5b606061123b8484600085856143a4856144b6565b6143f5576040805162461bcd60e51b815260206004820152601d60248201527f416464726573733a2063616c6c20746f206e6f6e2d636f6e7472616374000000604482015290519081900360640190fd5b60006060866001600160a01b031685876040518082805190602001908083835b602083106144345780518252601f199092019160209182019101614415565b6001836020036101000a03801982511681845116808217855250505050505090500191505060006040518083038185875af1925050503d8060008114614496576040519150601f19603f3d011682016040523d82523d6000602084013e61449b565b606091505b50915091506144ab8282866144bc565b979650505050505050565b3b151590565b606083156144cb57508161123e565b8251156144db5782518084602001fd5b60405162461bcd60e51b815260206004820181815284516024840152845185939192839260440191908501908083836000831561274f578181015183820152602001612737565b828054600181600116156101000203166002900490600052602060002090601f016020900481019282601f106145635782800160ff19823516178555614590565b82800160010185558215614590579182015b82811115614590578235825591602001919060010190614575565b5061459c9291506145a0565b5090565b5b8082111561459c57600081556001016145a156fe4f6e6c7920746865206f776e65722063616e2063616c6c20746869732066756e6374696f6e45524332303a207472616e7366657220746f20746865207a65726f206164647265737345524332303a206275726e20616d6f756e7420657863656564732062616c616e63655f5f757064617465436f6465416464726573733a205f6e6578745661756c744c6962206e6f7420636f6d70617469626c6545524332303a20617070726f766520746f20746865207a65726f206164647265737361646441737365744d616e61676572733a204d616e6167657220616c7265616479207265676973746572656445524332303a207472616e7366657220616d6f756e7420657863656564732062616c616e63655f5f7365744f776e65723a205f6e6578744f776e65722063616e6e6f7420626520656d7074795f5f76616c6964617465506f736974696f6e734c696d69743a204c696d69742065786365656465645661756c744c6962536166654d6174683a207375627472616374696f6e206f766572666c6f7772656d6f76654e6f6d696e617465644f776e65723a205468657265206973206e6f206e6f6d696e61746564206f776e65727365744e6f6d696e617465644f776e65723a205f6e6578744e6f6d696e617465644f776e65722063616e6e6f7420626520656d7074797365745661756c744c69623a204f6e6c792063616c6c61626c652062792074686520636f6e74726163742063726561746f724f6e6c79207468652046756e644465706c6f7965722063616e206d616b6520746869732063616c6c4f6e6c79207468652064657369676e61746564206163636573736f722063616e206d616b6520746869732063616c6c45524332303a207472616e7366657220616d6f756e74206578636565647320616c6c6f77616e63655661756c744c6962536166654d6174683a206164646974696f6e206f766572666c6f775f5f7365744f776e65723a205f6e6578744f776e6572206973207468652063757272656e74206f776e65727365744e6f6d696e617465644f776e65723a205f6e6578744e6f6d696e617465644f776e657220697320616c726561647920746865206f776e65727365744163636573736f723a204f6e6c792063616c6c61626c652062792074686520636f6e74726163742063726561746f7245524332303a206275726e2066726f6d20746865207a65726f20616464726573737365744e6f6d696e617465644f776e65723a205f6e6578744e6f6d696e617465644f776e657220697320616c7265616479206e6f6d696e6174656445524332303a207472616e736665722066726f6d20746865207a65726f20616464726573735f5f7365744163636573736f723a205f6e6578744163636573736f722063616e6e6f7420626520656d707479636c61696d4f776e6572736869703a204f6e6c7920746865206e6f6d696e617465644f776e65722063616e2063616c6c20746869732066756e6374696f6e5f5f63616c6c4f6e45787465726e616c506f736974696f6e3a204e6f7420616e206163746976652065787465726e616c20706f736974696f6e45524332303a20617070726f76652066726f6d20746865207a65726f2061646472657373536861726573546f6b65426173653a4275726e696e672063757272656e743a25735361666545524332303a204552433230206f7065726174696f6e20646964206e6f742073756363656564736574467265656c795472616e7366657261626c655368617265733a20416c72656164792073657472656d6f766541737365744d616e61676572733a204d616e61676572206e6f742072656769737465726564536861726573546f6b65426173653a4275726e696e67206163636f756e743a25735361666545524332303a20617070726f76652066726f6d206e6f6e2d7a65726f20746f206e6f6e2d7a65726f20616c6c6f77616e6365a2646970667358221220f618e421660ca8f67a80b75bda3117bf042a3825ddfebbf1f6ed9b433a3cf96964736f6c634300060c0033",
  "devdoc": {
    "author": "Enzyme Council <security@enzyme.finance>",
    "details": "The difference in terminology between \"asset\" and \"trackedAsset\" is intentional. A fund might actually have asset balances of un-tracked assets, but only tracked assets are used in gav calculations. Note that this contract inherits VaultLibSafeMath (a verbatim Open Zeppelin SafeMath copy) from SharesTokenBase via VaultLibBase2",
    "kind": "dev",
    "methods": {
      "addAssetManagers(address[])": {
        "params": {
          "_managers": "The accounts to add as asset managers"
        }
      },
      "addTrackedAsset(address)": {
        "params": {
          "_asset": "The asset to add as a tracked asset"
        }
      },
      "allowance(address,address)": {
        "details": "Standard implementation of ERC20's allowance(). Can be overridden."
      },
      "approve(address,uint256)": {
        "details": "Standard implementation of ERC20's approve(). Can be overridden."
      },
      "balanceOf(address)": {
        "details": "Standard implementation of ERC20's balanceOf(). Can be overridden."
      },
      "burnShares(address,uint256)": {
        "params": {
          "_amount": "The amount of shares to burn",
          "_target": "The account for which to burn shares"
        }
      },
      "buyBackProtocolFeeShares(uint256,uint256,uint256)": {
        "details": "Since the vault controls both the MLN to burn and the admin function to burn any user's fund shares, there is no need to transfer assets back-and-forth with the ProtocolFeeReserve. We only need to know the correct discounted amount of MLN to burn.",
        "params": {
          "_gav": "The total fund GAV",
          "_mlnValue": "The MLN-denominated market value of _sharesAmount",
          "_sharesAmount": "The amount of shares to buy back"
        }
      },
      "callOnContract(address,bytes)": {
        "params": {
          "_callData": "The call data for the call",
          "_contract": "The contract to call"
        },
        "returns": {
          "returnData_": "The data returned by the call"
        }
      },
      "canManageAssets(address)": {
        "params": {
          "_who": "The account to check"
        },
        "returns": {
          "canManageAssets_": "True if the account can manage assets"
        }
      },
      "canMigrate(address)": {
        "params": {
          "_who": "The account to check"
        },
        "returns": {
          "canMigrate_": "True if the account is allowed to migrate the VaultProxy"
        }
      },
      "canRelayCalls(address)": {
        "params": {
          "_who": "The account to check"
        },
        "returns": {
          "canRelayCalls_": "True if the account can use gas relaying on this fund"
        }
      },
      "decimals()": {
        "details": "Standard implementation of ERC20's decimals(). Can not be overridden."
      },
      "getAccessor()": {
        "returns": {
          "accessor_": "The `accessor` variable value"
        }
      },
      "getActiveExternalPositions()": {
        "returns": {
          "activeExternalPositions_": "The `activeExternalPositions` variable value"
        }
      },
      "getCreator()": {
        "returns": {
          "creator_": "The `creator` variable value"
        }
      },
      "getExternalPositionLibForType(uint256)": {
        "params": {
          "_typeId": "The type for which to get the external position library"
        },
        "returns": {
          "externalPositionLib_": "The external position library"
        }
      },
      "getExternalPositionManager()": {
        "returns": {
          "externalPositionManager_": "The `EXTERNAL_POSITION_MANAGER` variable value"
        }
      },
      "getFundDeployer()": {
        "returns": {
          "fundDeployer_": "The fund deployer contract associated with this vault"
        }
      },
      "getGasRelayPaymasterFactory()": {
        "returns": {
          "gasRelayPaymasterFactory_": "The `GAS_RELAY_PAYMASTER_FACTORY` variable value"
        }
      },
      "getGasRelayTrustedForwarder()": {
        "returns": {
          "trustedForwarder_": "The trusted forwarder"
        }
      },
      "getMigrator()": {
        "returns": {
          "migrator_": "The `migrator` variable value"
        }
      },
      "getMlnToken()": {
        "returns": {
          "mlnToken_": "The `MLN_TOKEN` variable value"
        }
      },
      "getNominatedOwner()": {
        "returns": {
          "nominatedOwner_": "The account that is nominated to be the owner"
        }
      },
      "getOwner()": {
        "returns": {
          "owner_": "The `owner` variable value"
        }
      },
      "getProtocolFeeReserve()": {
        "returns": {
          "protocolFeeReserve_": "The `PROTOCOL_FEE_RESERVE` variable value"
        }
      },
      "getProtocolFeeTracker()": {
        "returns": {
          "protocolFeeTracker_": "The `PROTOCOL_FEE_TRACKER` variable value"
        }
      },
      "getTrackedAssets()": {
        "returns": {
          "trackedAssets_": "The `trackedAssets` variable value"
        }
      },
      "getVaultLib()": {
        "returns": {
          "vaultLib_": "The address of the VaultLib target"
        }
      },
      "getWethToken()": {
        "returns": {
          "wethToken_": "The `WETH_TOKEN` variable value"
        }
      },
      "init(address,address,string)": {
        "details": "Serves as a per-proxy pseudo-constructor",
        "params": {
          "_accessor": "The address to set as the permissioned accessor of the VaultLib",
          "_fundName": "The name of the fund",
          "_owner": "The address to set as the fund owner"
        }
      },
      "isActiveExternalPosition(address)": {
        "params": {
          "_externalPosition": "The externalPosition to check"
        },
        "returns": {
          "isActiveExternalPosition_": "True if the address is an active external position on the vault"
        }
      },
      "isAssetManager(address)": {
        "params": {
          "_who": "The account to check"
        },
        "returns": {
          "isAssetManager_": "True if the account is an allowed asset manager"
        }
      },
      "isTrackedAsset(address)": {
        "params": {
          "_asset": "The address to check"
        },
        "returns": {
          "isTrackedAsset_": "True if the address is a tracked asset"
        }
      },
      "mintShares(address,uint256)": {
        "params": {
          "_amount": "The amount of shares to mint",
          "_target": "The account for which to burn shares"
        }
      },
      "name()": {
        "details": "Standard implementation of ERC20's name(). Can be overridden."
      },
      "proxiableUUID()": {
        "details": "The UUID is `bytes32(keccak256('mln.proxiable.vaultlib'))`",
        "returns": {
          "uuid_": "The bytes32 hash representing the UUID"
        }
      },
      "receiveValidatedVaultAction(uint8,bytes)": {
        "params": {
          "_action": "The VaultAction to perform",
          "_actionData": "The call data for the action to perform"
        }
      },
      "removeAssetManagers(address[])": {
        "params": {
          "_managers": "The accounts to remove as asset managers"
        }
      },
      "setAccessor(address)": {
        "params": {
          "_nextAccessor": "The address to set as the permissioned accessor of the VaultLib"
        }
      },
      "setAccessorForFundReconfiguration(address)": {
        "params": {
          "_nextAccessor": "The next accessor"
        }
      },
      "setFreelyTransferableShares()": {
        "details": "Once set, this can never be allowed to be unset, as it provides a critical transferability guarantee to liquidity pools and other smart contract holders that rely on transfers to function properly. Enabling this option will skip all policies run upon transferring shares, but will still respect the shares action timelock."
      },
      "setMigrator(address)": {
        "details": "Set to address(0) to remove the migrator.",
        "params": {
          "_nextMigrator": "The account to set as the allowed migrator"
        }
      },
      "setNominatedOwner(address)": {
        "details": "Does not prohibit overwriting the current nominatedOwner",
        "params": {
          "_nextNominatedOwner": "The account to nominate"
        }
      },
      "setVaultLib(address)": {
        "details": "This function is absolutely critical. __updateCodeAddress() validates that the target is a valid Proxiable contract instance. Does not block _nextVaultLib from being the same as the current VaultLib",
        "params": {
          "_nextVaultLib": "The address to set as the VaultLib"
        }
      },
      "sharesAreFreelyTransferable()": {
        "returns": {
          "sharesAreFreelyTransferable_": "True if shares are (permanently) freely transferable"
        }
      },
      "symbol()": {
        "details": "Defers the shares symbol value to the Dispatcher contract",
        "returns": {
          "symbol_": "The `symbol` value"
        }
      },
      "totalSupply()": {
        "details": "Standard implementation of ERC20's totalSupply(). Can be overridden."
      },
      "transfer(address,uint256)": {
        "details": "Standard implementation of ERC20's transfer(). Overridden to allow arbitrary logic in ComptrollerProxy prior to transfer."
      },
      "transferFrom(address,address,uint256)": {
        "details": "Standard implementation of ERC20's transferFrom(). Overridden to allow arbitrary logic in ComptrollerProxy prior to transfer."
      },
      "transferShares(address,address,uint256)": {
        "details": "For protocol use only, all other transfers should operate via standard ERC20 functions",
        "params": {
          "_amount": "The amount of shares to transfer",
          "_from": "The account from which to transfer shares",
          "_to": "The account to which to transfer shares"
        }
      },
      "transferUnderlyingTo(address,address,uint256)": {
        "details": "Transfers the underlying asset to `target`. Used by the LendingPool to transfer assets in borrow(), withdraw() and flashLoan()",
        "params": {
          "amount": "The amount getting transferred",
          "target": "The recipient of the aTokens"
        },
        "returns": {
          "_0": "The amount transferred*"
        }
      },
      "withdrawAssetTo(address,address,uint256)": {
        "params": {
          "_amount": "The amount of asset to withdraw",
          "_asset": "The asset to withdraw",
          "_target": "The account to which to withdraw the asset"
        }
      },
      "withdrawAssetToVault(address,address,uint256)": {
        "params": {
          "_amount": "The amount of asset to withdraw",
          "_asset": "The asset to withdraw",
          "_target": "The account to which to withdraw the asset"
        }
      }
    },
    "title": "VaultLib Contract",
    "version": 1
  },
  "userdoc": {
    "kind": "user",
    "methods": {
      "addAssetManagers(address[])": {
        "notice": "Registers accounts that can manage vault holdings within the protocol"
      },
      "addTrackedAsset(address)": {
        "notice": "Adds a tracked asset"
      },
      "burnShares(address,uint256)": {
        "notice": "Burns fund shares from a particular account"
      },
      "buyBackProtocolFeeShares(uint256,uint256,uint256)": {
        "notice": "Buys back shares collected as protocol fee at a discounted shares price, using MLN"
      },
      "callOnContract(address,bytes)": {
        "notice": "Makes an arbitrary call with this contract as the sender"
      },
      "canManageAssets(address)": {
        "notice": "Checks whether an account can manage assets"
      },
      "canMigrate(address)": {
        "notice": "Checks whether an account is allowed to migrate the VaultProxy"
      },
      "canRelayCalls(address)": {
        "notice": "Checks whether an account can use gas relaying"
      },
      "claimOwnership()": {
        "notice": "Claim ownership of the contract"
      },
      "getAccessor()": {
        "notice": "Gets the `accessor` variable"
      },
      "getActiveExternalPositions()": {
        "notice": "Gets the `activeExternalPositions` variable"
      },
      "getCreator()": {
        "notice": "Gets the `creator` variable"
      },
      "getExternalPositionLibForType(uint256)": {
        "notice": "Gets the external position library contract for a given type"
      },
      "getExternalPositionManager()": {
        "notice": "Gets the `EXTERNAL_POSITION_MANAGER` variable"
      },
      "getFundDeployer()": {
        "notice": "Gets the vaults fund deployer"
      },
      "getGasRelayPaymasterFactory()": {
        "notice": "Gets the `GAS_RELAY_PAYMASTER_FACTORY` variable"
      },
      "getGasRelayTrustedForwarder()": {
        "notice": "Gets the trusted forwarder for GSN relaying"
      },
      "getMigrator()": {
        "notice": "Gets the `migrator` variable"
      },
      "getMlnToken()": {
        "notice": "Gets the `MLN_TOKEN` variable"
      },
      "getNominatedOwner()": {
        "notice": "Gets the account that is nominated to be the next owner of this contract"
      },
      "getOwner()": {
        "notice": "Gets the `owner` variable"
      },
      "getProtocolFeeReserve()": {
        "notice": "Gets the `PROTOCOL_FEE_RESERVE` variable"
      },
      "getProtocolFeeTracker()": {
        "notice": "Gets the `PROTOCOL_FEE_TRACKER` variable"
      },
      "getTrackedAssets()": {
        "notice": "Gets the `trackedAssets` variable"
      },
      "getVaultLib()": {
        "notice": "Gets the VaultLib target for the VaultProxy"
      },
      "getWethToken()": {
        "notice": "Gets the `WETH_TOKEN` variable"
      },
      "init(address,address,string)": {
        "notice": "Initializes the VaultProxy with core configuration"
      },
      "isActiveExternalPosition(address)": {
        "notice": "Check whether an external position is active on the vault"
      },
      "isAssetManager(address)": {
        "notice": "Checks whether an account is an allowed asset manager"
      },
      "isTrackedAsset(address)": {
        "notice": "Checks whether an address is a tracked asset of the vault"
      },
      "mintShares(address,uint256)": {
        "notice": "Mints fund shares to a particular account"
      },
      "payProtocolFee()": {
        "notice": "Pays the due protocol fee by minting shares to the ProtocolFeeReserve"
      },
      "proxiableUUID()": {
        "notice": "Returns a unique bytes32 hash for VaultLib instances"
      },
      "receiveValidatedVaultAction(uint8,bytes)": {
        "notice": "Dispatches a call initiated from an Extension, validated by the ComptrollerProxy"
      },
      "removeAssetManagers(address[])": {
        "notice": "Deregisters accounts that can manage vault holdings within the protocol"
      },
      "removeNominatedOwner()": {
        "notice": "Revoke the nomination of a new contract owner"
      },
      "setAccessor(address)": {
        "notice": "Sets the permissioned accessor of the VaultLib"
      },
      "setAccessorForFundReconfiguration(address)": {
        "notice": "Updates the accessor during a config change within this release"
      },
      "setFreelyTransferableShares()": {
        "notice": "Sets shares as (permanently) freely transferable"
      },
      "setMigrator(address)": {
        "notice": "Sets the account that is allowed to migrate a fund to new releases"
      },
      "setNominatedOwner(address)": {
        "notice": "Nominate a new contract owner"
      },
      "setVaultLib(address)": {
        "notice": "Sets the VaultLib target for the VaultProxy"
      },
      "sharesAreFreelyTransferable()": {
        "notice": "Checks whether shares are (permanently) freely transferable"
      },
      "symbol()": {
        "notice": "Gets the `symbol` value of the shares token"
      },
      "transferShares(address,address,uint256)": {
        "notice": "Transfers fund shares from one account to another"
      },
      "withdrawAssetTo(address,address,uint256)": {
        "notice": "Withdraws an asset from the VaultProxy to a given account"
      },
      "withdrawAssetToVault(address,address,uint256)": {
        "notice": "Withdraws an asset from the VaultProxy to a given account"
      }
    },
    "notice": "The per-release proxiable library contract for VaultProxy",
    "version": 1
  },
  "storageLayout": {
    "storage": [
      {
        "astId": 7727,
        "contract": "contracts/release/core/fund/vault/VaultLib.sol:VaultLib",
        "label": "sharesName",
        "offset": 0,
        "slot": "0",
        "type": "t_string_storage"
      },
      {
        "astId": 7729,
        "contract": "contracts/release/core/fund/vault/VaultLib.sol:VaultLib",
        "label": "sharesSymbol",
        "offset": 0,
        "slot": "1",
        "type": "t_string_storage"
      },
      {
        "astId": 7731,
        "contract": "contracts/release/core/fund/vault/VaultLib.sol:VaultLib",
        "label": "sharesTotalSupply",
        "offset": 0,
        "slot": "2",
        "type": "t_uint256"
      },
      {
        "astId": 7735,
        "contract": "contracts/release/core/fund/vault/VaultLib.sol:VaultLib",
        "label": "sharesBalances",
        "offset": 0,
        "slot": "3",
        "type": "t_mapping(t_address,t_uint256)"
      },
      {
        "astId": 7741,
        "contract": "contracts/release/core/fund/vault/VaultLib.sol:VaultLib",
        "label": "sharesAllowances",
        "offset": 0,
        "slot": "4",
        "type": "t_mapping(t_address,t_mapping(t_address,t_uint256))"
      },
      {
        "astId": 7357,
        "contract": "contracts/release/core/fund/vault/VaultLib.sol:VaultLib",
        "label": "accessor",
        "offset": 0,
        "slot": "5",
        "type": "t_address"
      },
      {
        "astId": 7359,
        "contract": "contracts/release/core/fund/vault/VaultLib.sol:VaultLib",
        "label": "creator",
        "offset": 0,
        "slot": "6",
        "type": "t_address"
      },
      {
        "astId": 7361,
        "contract": "contracts/release/core/fund/vault/VaultLib.sol:VaultLib",
        "label": "migrator",
        "offset": 0,
        "slot": "7",
        "type": "t_address"
      },
      {
        "astId": 7363,
        "contract": "contracts/release/core/fund/vault/VaultLib.sol:VaultLib",
        "label": "owner",
        "offset": 0,
        "slot": "8",
        "type": "t_address"
      },
      {
        "astId": 7242,
        "contract": "contracts/release/core/fund/vault/VaultLib.sol:VaultLib",
        "label": "trackedAssets",
        "offset": 0,
        "slot": "9",
        "type": "t_array(t_address)dyn_storage"
      },
      {
        "astId": 7246,
        "contract": "contracts/release/core/fund/vault/VaultLib.sol:VaultLib",
        "label": "assetToIsTracked",
        "offset": 0,
        "slot": "10",
        "type": "t_mapping(t_address,t_bool)"
      },
      {
        "astId": 7305,
        "contract": "contracts/release/core/fund/vault/VaultLib.sol:VaultLib",
        "label": "freelyTransferableShares",
        "offset": 0,
        "slot": "11",
        "type": "t_bool"
      },
      {
        "astId": 7307,
        "contract": "contracts/release/core/fund/vault/VaultLib.sol:VaultLib",
        "label": "nominatedOwner",
        "offset": 1,
        "slot": "11",
        "type": "t_address"
      },
      {
        "astId": 7310,
        "contract": "contracts/release/core/fund/vault/VaultLib.sol:VaultLib",
        "label": "activeExternalPositions",
        "offset": 0,
        "slot": "12",
        "type": "t_array(t_address)dyn_storage"
      },
      {
        "astId": 7314,
        "contract": "contracts/release/core/fund/vault/VaultLib.sol:VaultLib",
        "label": "accountToIsAssetManager",
        "offset": 0,
        "slot": "13",
        "type": "t_mapping(t_address,t_bool)"
      },
      {
        "astId": 7318,
        "contract": "contracts/release/core/fund/vault/VaultLib.sol:VaultLib",
        "label": "externalPositionToIsActive",
        "offset": 0,
        "slot": "14",
        "type": "t_mapping(t_address,t_bool)"
      }
    ],
    "types": {
      "t_address": {
        "encoding": "inplace",
        "label": "address",
        "numberOfBytes": "20"
      },
      "t_array(t_address)dyn_storage": {
        "base": "t_address",
        "encoding": "dynamic_array",
        "label": "address[]",
        "numberOfBytes": "32"
      },
      "t_bool": {
        "encoding": "inplace",
        "label": "bool",
        "numberOfBytes": "1"
      },
      "t_mapping(t_address,t_bool)": {
        "encoding": "mapping",
        "key": "t_address",
        "label": "mapping(address => bool)",
        "numberOfBytes": "32",
        "value": "t_bool"
      },
      "t_mapping(t_address,t_mapping(t_address,t_uint256))": {
        "encoding": "mapping",
        "key": "t_address",
        "label": "mapping(address => mapping(address => uint256))",
        "numberOfBytes": "32",
        "value": "t_mapping(t_address,t_uint256)"
      },
      "t_mapping(t_address,t_uint256)": {
        "encoding": "mapping",
        "key": "t_address",
        "label": "mapping(address => uint256)",
        "numberOfBytes": "32",
        "value": "t_uint256"
      },
      "t_string_storage": {
        "encoding": "bytes",
        "label": "string",
        "numberOfBytes": "32"
      },
      "t_uint256": {
        "encoding": "inplace",
        "label": "uint256",
        "numberOfBytes": "32"
      }
    }
  }
}