{
  "address": "0x359570B3a0437805D0a71457D61AD26a28cAC9A2",
  "abi": [
    {
      "inputs": [
        {
          "internalType": "address",
          "name": "_integrationManager",
          "type": "address"
        },
        {
          "internalType": "address",
          "name": "_yearnVaultV2PriceFeed",
          "type": "address"
        }
      ],
      "stateMutability": "nonpayable",
      "type": "constructor"
    },
    {
      "inputs": [],
      "name": "CLAIM_REWARDS_SELECTOR",
      "outputs": [
        {
          "internalType": "bytes4",
          "name": "",
          "type": "bytes4"
        }
      ],
      "stateMutability": "view",
      "type": "function"
    },
    {
      "inputs": [],
      "name": "LEND_AND_STAKE_SELECTOR",
      "outputs": [
        {
          "internalType": "bytes4",
          "name": "",
          "type": "bytes4"
        }
      ],
      "stateMutability": "view",
      "type": "function"
    },
    {
      "inputs": [],
      "name": "LEND_SELECTOR",
      "outputs": [
        {
          "internalType": "bytes4",
          "name": "",
          "type": "bytes4"
        }
      ],
      "stateMutability": "view",
      "type": "function"
    },
    {
      "inputs": [],
      "name": "REDEEM_SELECTOR",
      "outputs": [
        {
          "internalType": "bytes4",
          "name": "",
          "type": "bytes4"
        }
      ],
      "stateMutability": "view",
      "type": "function"
    },
    {
      "inputs": [],
      "name": "STAKE_SELECTOR",
      "outputs": [
        {
          "internalType": "bytes4",
          "name": "",
          "type": "bytes4"
        }
      ],
      "stateMutability": "view",
      "type": "function"
    },
    {
      "inputs": [],
      "name": "TAKE_ORDER_SELECTOR",
      "outputs": [
        {
          "internalType": "bytes4",
          "name": "",
          "type": "bytes4"
        }
      ],
      "stateMutability": "view",
      "type": "function"
    },
    {
      "inputs": [],
      "name": "UNSTAKE_AND_REDEEM_SELECTOR",
      "outputs": [
        {
          "internalType": "bytes4",
          "name": "",
          "type": "bytes4"
        }
      ],
      "stateMutability": "view",
      "type": "function"
    },
    {
      "inputs": [],
      "name": "UNSTAKE_SELECTOR",
      "outputs": [
        {
          "internalType": "bytes4",
          "name": "",
          "type": "bytes4"
        }
      ],
      "stateMutability": "view",
      "type": "function"
    },
    {
      "inputs": [],
      "name": "getIntegrationManager",
      "outputs": [
        {
          "internalType": "address",
          "name": "integrationManager_",
          "type": "address"
        }
      ],
      "stateMutability": "view",
      "type": "function"
    },
    {
      "inputs": [],
      "name": "getYearnVaultV2PriceFeed",
      "outputs": [
        {
          "internalType": "address",
          "name": "yearnVaultV2PriceFeed_",
          "type": "address"
        }
      ],
      "stateMutability": "view",
      "type": "function"
    },
    {
      "inputs": [
        {
          "internalType": "address",
          "name": "_vaultProxy",
          "type": "address"
        },
        {
          "internalType": "bytes",
          "name": "",
          "type": "bytes"
        },
        {
          "internalType": "bytes",
          "name": "_assetData",
          "type": "bytes"
        }
      ],
      "name": "lend",
      "outputs": [],
      "stateMutability": "nonpayable",
      "type": "function"
    },
    {
      "inputs": [
        {
          "internalType": "address",
          "name": "",
          "type": "address"
        },
        {
          "internalType": "bytes4",
          "name": "_selector",
          "type": "bytes4"
        },
        {
          "internalType": "bytes",
          "name": "_actionData",
          "type": "bytes"
        }
      ],
      "name": "parseAssetsForAction",
      "outputs": [
        {
          "internalType": "enum IIntegrationManager.SpendAssetsHandleType",
          "name": "spendAssetsHandleType_",
          "type": "uint8"
        },
        {
          "internalType": "address[]",
          "name": "spendAssets_",
          "type": "address[]"
        },
        {
          "internalType": "uint256[]",
          "name": "spendAssetAmounts_",
          "type": "uint256[]"
        },
        {
          "internalType": "address[]",
          "name": "incomingAssets_",
          "type": "address[]"
        },
        {
          "internalType": "uint256[]",
          "name": "minIncomingAssetAmounts_",
          "type": "uint256[]"
        }
      ],
      "stateMutability": "view",
      "type": "function"
    },
    {
      "inputs": [
        {
          "internalType": "address",
          "name": "_vaultProxy",
          "type": "address"
        },
        {
          "internalType": "bytes",
          "name": "_actionData",
          "type": "bytes"
        },
        {
          "internalType": "bytes",
          "name": "_assetData",
          "type": "bytes"
        }
      ],
      "name": "redeem",
      "outputs": [],
      "stateMutability": "nonpayable",
      "type": "function"
    }
  ],
  "transactionHash": "0xeef5d7af27ac97a8a8dc94ca12977be88cf43728c3f9092bb01afd12e6911778",
  "args": [
    "0xe70f935c32dA4dB13e7876795f1e175465e6458e",
    "0x8F4ec854Dd12F1fe79500a1f53D0cbB30f9b6134"
  ],
  "linkedData": {
    "nonSlippageAdapter": true,
    "type": "ADAPTER"
  },
  "solcInputHash": "e128c99a7ad98ab17bfe5eac6103458b",
  "bytecode": "0x60c060405234801561001057600080fd5b506040516120913803806120918339818101604052604081101561003357600080fd5b5080516020909101516001600160601b0319606092831b8116608052911b1660a05260805160601c60a05160601c612009610088600039806108fa5250806104ec528061074d52806108d652506120096000f3fe608060405234801561001057600080fd5b50600436106100cf5760003560e01c8063863e5ad01161008c578063c54efee511610066578063c54efee5146102c7578063e7c4569014610489578063f702e0ea146104ad578063f7d882b5146104b5576100cf565b8063863e5ad0146101e9578063b23228cf146101f1578063c29fa9dd146101f9576100cf565b8063080456c1146100d4578063099f7515146100f9578063131461c0146101c9578063257cb1a3146101d15780633ffc1591146101d957806340da225d146101e1575b600080fd5b6100dc6104bd565b604080516001600160e01b03199092168252519081900360200190f35b6101c76004803603606081101561010f57600080fd5b6001600160a01b038235169190810190604081016020820135600160201b81111561013957600080fd5b82018360208201111561014b57600080fd5b803590602001918460018302840111600160201b8311171561016c57600080fd5b919390929091602081019035600160201b81111561018957600080fd5b82018360208201111561019b57600080fd5b803590602001918460018302840111600160201b831117156101bc57600080fd5b5090925090506104e1565b005b6100dc61066a565b6100dc61068e565b6100dc6106b2565b6100dc6106d6565b6100dc6106fa565b6100dc61071e565b6101c76004803603606081101561020f57600080fd5b6001600160a01b038235169190810190604081016020820135600160201b81111561023957600080fd5b82018360208201111561024b57600080fd5b803590602001918460018302840111600160201b8311171561026c57600080fd5b919390929091602081019035600160201b81111561028957600080fd5b82018360208201111561029b57600080fd5b803590602001918460018302840111600160201b831117156102bc57600080fd5b509092509050610742565b610354600480360360608110156102dd57600080fd5b6001600160a01b03823516916001600160e01b031960208201351691810190606081016040820135600160201b81111561031657600080fd5b82018360208201111561032857600080fd5b803590602001918460018302840111600160201b8311171561034957600080fd5b509092509050610836565b6040518086600281111561036457fe5b815260200180602001806020018060200180602001858103855289818151815260200191508051906020019060200280838360005b838110156103b1578181015183820152602001610399565b50505050905001858103845288818151815260200191508051906020019060200280838360005b838110156103f05781810151838201526020016103d8565b50505050905001858103835287818151815260200191508051906020019060200280838360005b8381101561042f578181015183820152602001610417565b50505050905001858103825286818151815260200191508051906020019060200280838360005b8381101561046e578181015183820152602001610456565b50505050905001995050505050505050505060405180910390f35b6104916108d4565b604080516001600160a01b039092168252519081900360200190f35b6104916108f8565b6100dc61091c565b7f8334eb99be0145865eba9889fca2ee920288090caefff4cc776038e20ad9259a81565b336001600160a01b037f000000000000000000000000000000000000000000000000000000000000000016146105485760405162461bcd60e51b8152600401808060200182810382526032815260200180611d9a6032913960400191505060405180910390fd5b8482828080601f01602080910402602001604051908101604052809392919081815260200183838082843760009201919091525050604080516020601f88018190048102820181019092528681526060935083925082916105c49190899089908190840183828082843760009201919091525061094092505050565b9250925092506105fb6040518060400160405280601081526020016f3632b732103ab73232b9363cb4b7339d60811b815250610afd565b6106438a8260008151811061060c57fe5b60200260200101518560008151811061062157fe5b60200260200101518560008151811061063657fe5b6020026020010151610ba6565b505050606061065182610940565b5050905061065f8382610f3a565b505050505050505050565b7f29fa046e79524c3c5ac4c01df692c35e217802b2b13b21121b76cf0ef02b138c81565b7f099f75155f0e997bf83a7993a71d5e7e7540bd386fe1e84643a09ce6b412521981565b7ffa7dd04da627f433da73c4355ead9c75682a67a8fc84d3f6170ef0922f402d2481565b7fb9dfbaccbe5cd2a84fdcf1d15f23ef25d23086f5afbaa99516065ed4a5bbc7a381565b7f03e38a2bd7063d45c897edeafc330e71657502dd86434d3c37a489caf116af6981565b7f68e30677f607df46e87da13e15b637784cfa62374b653f35ab43d10361a2f83081565b336001600160a01b037f000000000000000000000000000000000000000000000000000000000000000016146107a95760405162461bcd60e51b8152600401808060200182810382526032815260200180611d9a6032913960400191505060405180910390fd5b8482828080601f0160208091040260200160405190810160405280939291908181526020018383808284376000920182905250604080516020601f8c018190048102820181019092528a815291945084935083925061082391908b908b908190840183828082843760009201919091525061109592505050565b935050925092506106438a8484846110d2565b600060608080806001600160e01b0319881663099f751560e01b141561086f576108608787611163565b945094509450945094506108c9565b6001600160e01b0319881663c29fa9dd60e01b14156108925761086087876113f9565b60405162461bcd60e51b8152600401808060200182810382526027815260200180611f786027913960400191505060405180910390fd5b945094509450945094565b7f000000000000000000000000000000000000000000000000000000000000000090565b7f000000000000000000000000000000000000000000000000000000000000000090565b7fc29fa9dde84204c2908778afd0613d802d31cf046179b88f6d2b4a4e507ea2d581565b606080606083806020019051606081101561095a57600080fd5b8101908080516040519392919084600160201b82111561097957600080fd5b90830190602082018581111561098e57600080fd5b82518660208202830111600160201b821117156109aa57600080fd5b82525081516020918201928201910280838360005b838110156109d75781810151838201526020016109bf565b5050505090500160405260200180516040519392919084600160201b8211156109ff57600080fd5b908301906020820185811115610a1457600080fd5b82518660208202830111600160201b82111715610a3057600080fd5b82525081516020918201928201910280838360005b83811015610a5d578181015183820152602001610a45565b5050505090500160405260200180516040519392919084600160201b821115610a8557600080fd5b908301906020820185811115610a9a57600080fd5b82518660208202830111600160201b82111715610ab657600080fd5b82525081516020918201928201910280838360005b83811015610ae3578181015183820152602001610acb565b505050509050016040525050509250925092509193909250565b610ba3816040516024018080602001828103825283818151815260200191508051906020019080838360005b83811015610b41578181015183820152602001610b29565b50505050905090810190601f168015610b6e5780820380516001836020036101000a031916815260200191505b5060408051601f198184030181529190526020810180516001600160e01b031663104c13eb60e21b179052925061154b915050565b50565b610be56040518060400160405280602081526020017f5f5f796561726e5661756c7456324c656e64203a726563697069656e743a25738152508561156c565b610c246040518060400160405280601e81526020017f5f5f796561726e5661756c7456324c656e64203a5f795661756c743a257300008152508461156c565b610c46604051806060016040528060228152602001611e62602291398361156c565b610c68604051806060016040528060288152602001611dcc6028913982611627565b610c738284836116d5565b610cb16040518060400160405280602081526020017f5f5f796561726e5661756c7456324c656e6420616674657220617070726f7665815250610afd565b6000836001600160a01b031663153c27c46040518163ffffffff1660e01b815260040160206040518083038186803b158015610cec57600080fd5b505afa158015610d00573d6000803e3d6000fd5b505050506040513d6020811015610d1657600080fd5b50516040805160608101909152602c808252919250610d3d91611eae602083013982611627565b6000846001600160a01b03166399530b066040518163ffffffff1660e01b815260040160206040518083038186803b158015610d7857600080fd5b505afa158015610d8c573d6000803e3d6000fd5b505050506040513d6020811015610da257600080fd5b505160408051606081019091526024808252919250610dc991611e1c602083013982611627565b6000856001600160a01b031663fc0c546a6040518163ffffffff1660e01b815260040160206040518083038186803b158015610e0457600080fd5b505afa158015610e18573d6000803e3d6000fd5b505050506040513d6020811015610e2e57600080fd5b505160408051808201909152601c81527f5f5f796561726e5661756c7456324c656e64203a746f6b656e3a2573000000006020820152909150610e71908261156c565b856001600160a01b0316636e553f6585896040518363ffffffff1660e01b815260040180838152602001826001600160a01b0316815260200192505050602060405180830381600087803b158015610ec857600080fd5b505af1158015610edc573d6000803e3d6000fd5b505050506040513d6020811015610ef257600080fd5b50506040805180820190915260208082527f5f5f796561726e5661756c7456324c656e64206166746572206465706f73697490820152610f3190610afd565b50505050505050565b6060815167ffffffffffffffff81118015610f5457600080fd5b50604051908082528060200260200182016040528015610f7e578160200160208202803683370190505b50905060005b825181101561108e576000838281518110610f9b57fe5b60200260200101519050806001600160a01b03166370a08231306040518263ffffffff1660e01b815260040180826001600160a01b0316815260200191505060206040518083038186803b158015610ff257600080fd5b505afa158015611006573d6000803e3d6000fd5b505050506040513d602081101561101c57600080fd5b5051835184908490811061102c57fe5b602002602001018181525050600083838151811061104657fe5b60200260200101511115611085576110858584848151811061106457fe5b6020026020010151836001600160a01b031661191a9092919063ffffffff16565b50600101610f84565b5092915050565b6000806000808480602001905160808110156110b057600080fd5b5080516020820151604083015160609093015191989097509195509350915050565b826001600160a01b031663e63697c88386846040518463ffffffff1660e01b815260040180848152602001836001600160a01b031681526020018281526020019350505050602060405180830381600087803b15801561113157600080fd5b505af1158015611145573d6000803e3d6000fd5b505050506040513d602081101561115b57600080fd5b505050505050565b600060608060608060008060006111af8a8a8080601f01602080910402602001604051908101604052809392919081815260200183838082843760009201919091525061197192505050565b9250925092506111f36040518060400160405280601c81526020017f5f5f7061727365417373657473466f724c656e64207374617274656400000000815250610afd565b6112326040518060400160405280601e81526020017f5f5f7061727365417373657473466f724c656e6420795661756c743a257300008152508461156c565b611254604051806060016040528060308152602001611eda6030913983611627565b611276604051806060016040528060358152602001611f9f6035913982611627565b6000611281846119a5565b90506001600160a01b0381166112c85760405162461bcd60e51b8152600401808060200182810382526028815260200180611df46028913960400191505060405180910390fd5b6112ea604051806060016040528060228152602001611e40602291398261156c565b6040805160018082528183019092529060208083019080368337019050509750808860008151811061131857fe5b6001600160a01b0392909216602092830291909101820152604080516001808252818301909252918281019080368337019050509650828760008151811061135c57fe5b602090810291909101015260408051600180825281830190925290816020016020820280368337019050509550838660008151811061139757fe5b6001600160a01b039290921660209283029190910182015260408051600180825281830190925291828101908036833701905050945081856000815181106113db57fe5b60200260200101818152505060029850505050509295509295909350565b600060608060608060008060006114458a8a8080601f01602080910402602001604051908101604052809392919081815260200183838082843760009201919091525061109592505050565b509250925092506000611457846119a5565b90506001600160a01b03811661149e5760405162461bcd60e51b815260040180806020018281038252602a815260200180611d26602a913960400191505060405180910390fd5b604080516001808252818301909252906020808301908036833701905050975083886000815181106114cc57fe5b6001600160a01b0392909216602092830291909101820152604080516001808252818301909252918281019080368337019050509650828760008151811061151057fe5b602090810291909101015260408051600180825281830190925290816020016020820280368337019050509550808660008151811061139757fe5b80516a636f6e736f6c652e6c6f67602083016000808483855afa5050505050565b61162382826040516024018080602001836001600160a01b03168152602001828103825284818151815260200191508051906020019080838360005b838110156115c05781810151838201526020016115a8565b50505050905090810190601f1680156115ed5780820380516001836020036101000a031916815260200191505b5060408051601f198184030181529190526020810180516001600160e01b031663319af33360e01b179052935061154b92505050565b5050565b61162382826040516024018080602001838152602001828103825284818151815260200191508051906020019080838360005b8381101561167257818101518382015260200161165a565b50505050905090810190601f16801561169f5780820380516001836020036101000a031916815260200191505b5060408051601f198184030181529190526020810180516001600160e01b03166309710a9d60e41b179052935061154b92505050565b60408051636eb1769f60e11b81523060048201526001600160a01b038481166024830152915160009286169163dd62ed3e916044808301926020929190829003018186803b15801561172657600080fd5b505afa15801561173a573d6000803e3d6000fd5b505050506040513d602081101561175057600080fd5b50516040805160608101909152602680825291925061177791611f2e602083013982611627565b818110156118f3576117a0604051806060016040528060288152602001611cfe60289139610afd565b801561184c57836001600160a01b031663095ea7b38460006040518363ffffffff1660e01b815260040180836001600160a01b0316815260200182815260200192505050602060405180830381600087803b1580156117fe57600080fd5b505af1158015611812573d6000803e3d6000fd5b505050506040513d602081101561182857600080fd5b50506040805160608101909152602480825261184c9190611f546020830139610afd565b836001600160a01b031663095ea7b3846000196040518363ffffffff1660e01b815260040180836001600160a01b0316815260200182815260200192505050602060405180830381600087803b1580156118a557600080fd5b505af11580156118b9573d6000803e3d6000fd5b505050506040513d60208110156118cf57600080fd5b5050604080516060810190915260248082526118f39190611f0a6020830139610afd565b611914604051806060016040528060248152602001611d7660249139610afd565b50505050565b604080516001600160a01b038416602482015260448082018490528251808303909101815260649091019091526020810180516001600160e01b031663a9059cbb60e01b17905261196c908490611a2d565b505050565b600080600083806020019051606081101561198b57600080fd5b508051602082015160409092015190969195509350915050565b60006119af6108f8565b6001600160a01b03166366adb867836040518263ffffffff1660e01b815260040180826001600160a01b0316815260200191505060206040518083038186803b1580156119fb57600080fd5b505afa158015611a0f573d6000803e3d6000fd5b505050506040513d6020811015611a2557600080fd5b505192915050565b6060611a82826040518060400160405280602081526020017f5361666545524332303a206c6f772d6c6576656c2063616c6c206661696c6564815250856001600160a01b0316611ade9092919063ffffffff16565b80519091501561196c57808060200190516020811015611aa157600080fd5b505161196c5760405162461bcd60e51b815260040180806020018281038252602a815260200180611e84602a913960400191505060405180910390fd5b6060611aed8484600085611af7565b90505b9392505050565b606082471015611b385760405162461bcd60e51b8152600401808060200182810382526026815260200180611d506026913960400191505060405180910390fd5b611b4185611c53565b611b92576040805162461bcd60e51b815260206004820152601d60248201527f416464726573733a2063616c6c20746f206e6f6e2d636f6e7472616374000000604482015290519081900360640190fd5b60006060866001600160a01b031685876040518082805190602001908083835b60208310611bd15780518252601f199092019160209182019101611bb2565b6001836020036101000a03801982511681845116808217855250505050505090500191505060006040518083038185875af1925050503d8060008114611c33576040519150601f19603f3d011682016040523d82523d6000602084013e611c38565b606091505b5091509150611c48828286611c59565b979650505050505050565b3b151590565b60608315611c68575081611af0565b825115611c785782518084602001fd5b8160405162461bcd60e51b81526004018080602001828103825283818151815260200191508051906020019080838360005b83811015611cc2578181015183820152602001611caa565b50505050905090810190601f168015611cef5780820380516001836020036101000a031916815260200191505b509250505060405180910390fdfe5f5f617070726f766541737365744d617841734e65656465643a6265666f726520617070726f76655f5f7061727365417373657473466f7252656465656d3a20556e737570706f7274656420795661756c74416464726573733a20696e73756666696369656e742062616c616e636520666f722063616c6c5f5f617070726f766541737365744d617841734e65656465643a617070726f76656420334f6e6c792074686520496e746567726174696f6e4d616e616765722063616e2063616c6c20746869732066756e6374696f6e5f5f796561726e5661756c7456324c656e64203a5f756e6465726c79696e67416d6f756e743a25645f5f7061727365417373657473466f724c656e643a20556e737570706f7274656420795661756c745f5f796561726e5661756c7456324c656e64203a707269636550657253686172653a25645f5f7061727365417373657473466f724c656e6420756e6465726c79696e673a25735f5f796561726e5661756c7456324c656e64203a5f756e6465726c79696e673a25735361666545524332303a204552433230206f7065726174696f6e20646964206e6f7420737563636565645f5f796561726e5661756c7456324c656e64203a617661696c61626c654465706f7369744c696d69743a25645f5f7061727365417373657473466f724c656e64206f7574676f696e67556e6465726c79696e67416d6f756e743a25645f5f617070726f766541737365744d617841734e65656465643a617070726f76656420325f5f617070726f766541737365744d617841734e65656465643a616c6c6f77616e63653a25645f5f617070726f766541737365744d617841734e65656465643a617070726f76656420317061727365417373657473466f72416374696f6e3a205f73656c6563746f7220696e76616c69645f5f7061727365417373657473466f724c656e64206d696e496e636f6d696e67595661756c74536861726573416d6f756e743a2564a26469706673582212206c136f21b839e83eab276445de04d1cd0883c542885d52f5bf656cdb4996120464736f6c634300060c0033",
  "devdoc": {
    "author": "Enzyme Council <security@enzyme.finance>",
    "kind": "dev",
    "methods": {
      "getIntegrationManager()": {
        "returns": {
          "integrationManager_": "The `INTEGRATION_MANAGER` variable value"
        }
      },
      "getYearnVaultV2PriceFeed()": {
        "returns": {
          "yearnVaultV2PriceFeed_": "The `YEARN_VAULT_V2_PRICE_FEED` variable value"
        }
      },
      "lend(address,bytes,bytes)": {
        "details": "Using postActionSpendAssetsTransferHandler is probably overkill, but since new yVault v2 contracts can update logic, this protects against a future implementation in which a partial underlying deposit amount is used if the desired amount exceeds the deposit limit, for example.",
        "params": {
          "_assetData": "Parsed spend assets and incoming assets data for this action",
          "_vaultProxy": "The VaultProxy of the calling fund"
        }
      },
      "parseAssetsForAction(address,bytes4,bytes)": {
        "params": {
          "_actionData": "Data specific to this action",
          "_selector": "The function selector for the callOnIntegration"
        },
        "returns": {
          "incomingAssets_": "The assets to receive in the call",
          "minIncomingAssetAmounts_": "The min asset amounts to receive in the call",
          "spendAssetAmounts_": "The max asset amounts to spend in the call",
          "spendAssetsHandleType_": "A type that dictates how to handle granting the adapter access to spend assets (`None` by default)",
          "spendAssets_": "The assets to spend in the call"
        }
      },
      "redeem(address,bytes,bytes)": {
        "details": "The amount of yVault shares to be redeemed can be adjusted in yVault.withdraw() depending on the available underlying balance, so we must send unredeemed yVault shares back to the _vaultProxy",
        "params": {
          "_actionData": "Data specific to this action",
          "_assetData": "Parsed spend assets and incoming assets data for this action",
          "_vaultProxy": "The VaultProxy of the calling fund"
        }
      }
    },
    "title": "YearnVaultV2Adapter Contract",
    "version": 1
  },
  "userdoc": {
    "kind": "user",
    "methods": {
      "getIntegrationManager()": {
        "notice": "Gets the `INTEGRATION_MANAGER` variable"
      },
      "getYearnVaultV2PriceFeed()": {
        "notice": "Gets the `YEARN_VAULT_V2_PRICE_FEED` variable"
      },
      "lend(address,bytes,bytes)": {
        "notice": "Deposits an amount of an underlying asset into its corresponding yVault"
      },
      "parseAssetsForAction(address,bytes4,bytes)": {
        "notice": "Parses the expected assets in a particular action"
      },
      "redeem(address,bytes,bytes)": {
        "notice": "Redeems an amount of yVault shares for its underlying asset"
      }
    },
    "notice": "Adapter for interacting with Yearn v2 vaults",
    "version": 1
  },
  "storageLayout": {
    "storage": [],
    "types": null
  }
}