{
  "_format": "hh-sol-artifact-1",
  "contractName": "ComptrollerLib",
  "sourceName": "contracts/release/core/fund/comptroller/ComptrollerLib.sol",
  "abi": [
    {
      "inputs": [
        {
          "internalType": "address",
          "name": "_dispatcher",
          "type": "address"
        },
        {
          "internalType": "address",
          "name": "_protocolFeeReserve",
          "type": "address"
        },
        {
          "internalType": "address",
          "name": "_fundDeployer",
          "type": "address"
        },
        {
          "internalType": "address",
          "name": "_valueInterpreter",
          "type": "address"
        },
        {
          "internalType": "address",
          "name": "_externalPositionManager",
          "type": "address"
        },
        {
          "internalType": "address",
          "name": "_feeManager",
          "type": "address"
        },
        {
          "internalType": "address",
          "name": "_integrationManager",
          "type": "address"
        },
        {
          "internalType": "address",
          "name": "_policyManager",
          "type": "address"
        },
        {
          "internalType": "address",
          "name": "_assetFinalityResolver",
          "type": "address"
        },
        {
          "internalType": "address",
          "name": "_gasRelayPaymasterFactory",
          "type": "address"
        },
        {
          "internalType": "address",
          "name": "_mlnToken",
          "type": "address"
        },
        {
          "internalType": "address",
          "name": "_wethToken",
          "type": "address"
        }
      ],
      "stateMutability": "nonpayable",
      "type": "constructor"
    },
    {
      "anonymous": false,
      "inputs": [
        {
          "indexed": false,
          "internalType": "bool",
          "name": "autoProtocolFeeSharesBuyback",
          "type": "bool"
        }
      ],
      "name": "AutoProtocolFeeSharesBuybackSet",
      "type": "event"
    },
    {
      "anonymous": false,
      "inputs": [
        {
          "indexed": true,
          "internalType": "bytes",
          "name": "failureReturnData",
          "type": "bytes"
        },
        {
          "indexed": false,
          "internalType": "uint256",
          "name": "sharesAmount",
          "type": "uint256"
        },
        {
          "indexed": false,
          "internalType": "uint256",
          "name": "buybackValueInMln",
          "type": "uint256"
        },
        {
          "indexed": false,
          "internalType": "uint256",
          "name": "gav",
          "type": "uint256"
        }
      ],
      "name": "BuyBackMaxProtocolFeeSharesFailed",
      "type": "event"
    },
    {
      "anonymous": false,
      "inputs": [],
      "name": "DeactivateFeeManagerFailed",
      "type": "event"
    },
    {
      "anonymous": false,
      "inputs": [
        {
          "indexed": false,
          "internalType": "address",
          "name": "gasRelayPaymaster",
          "type": "address"
        }
      ],
      "name": "GasRelayPaymasterSet",
      "type": "event"
    },
    {
      "anonymous": false,
      "inputs": [
        {
          "indexed": false,
          "internalType": "uint256",
          "name": "sharesDue",
          "type": "uint256"
        }
      ],
      "name": "MigratedSharesDuePaid",
      "type": "event"
    },
    {
      "anonymous": false,
      "inputs": [],
      "name": "PayProtocolFeeDuringDestructFailed",
      "type": "event"
    },
    {
      "anonymous": false,
      "inputs": [
        {
          "indexed": true,
          "internalType": "bytes",
          "name": "failureReturnData",
          "type": "bytes"
        },
        {
          "indexed": true,
          "internalType": "address",
          "name": "redeemer",
          "type": "address"
        },
        {
          "indexed": false,
          "internalType": "uint256",
          "name": "sharesAmount",
          "type": "uint256"
        }
      ],
      "name": "PreRedeemSharesHookFailed",
      "type": "event"
    },
    {
      "anonymous": false,
      "inputs": [],
      "name": "RedeemSharesInKindCalcGavFailed",
      "type": "event"
    },
    {
      "anonymous": false,
      "inputs": [
        {
          "indexed": true,
          "internalType": "address",
          "name": "buyer",
          "type": "address"
        },
        {
          "indexed": false,
          "internalType": "uint256",
          "name": "investmentAmount",
          "type": "uint256"
        },
        {
          "indexed": false,
          "internalType": "uint256",
          "name": "sharesIssued",
          "type": "uint256"
        },
        {
          "indexed": false,
          "internalType": "uint256",
          "name": "sharesReceived",
          "type": "uint256"
        }
      ],
      "name": "SharesBought",
      "type": "event"
    },
    {
      "anonymous": false,
      "inputs": [
        {
          "indexed": true,
          "internalType": "address",
          "name": "redeemer",
          "type": "address"
        },
        {
          "indexed": true,
          "internalType": "address",
          "name": "recipient",
          "type": "address"
        },
        {
          "indexed": false,
          "internalType": "uint256",
          "name": "sharesAmount",
          "type": "uint256"
        },
        {
          "indexed": false,
          "internalType": "address[]",
          "name": "receivedAssets",
          "type": "address[]"
        },
        {
          "indexed": false,
          "internalType": "uint256[]",
          "name": "receivedAssetAmounts",
          "type": "uint256[]"
        }
      ],
      "name": "SharesRedeemed",
      "type": "event"
    },
    {
      "anonymous": false,
      "inputs": [
        {
          "indexed": false,
          "internalType": "address",
          "name": "vaultProxy",
          "type": "address"
        }
      ],
      "name": "VaultProxySet",
      "type": "event"
    },
    {
      "inputs": [
        {
          "internalType": "bool",
          "name": "_isMigration",
          "type": "bool"
        }
      ],
      "name": "activate",
      "outputs": [],
      "stateMutability": "nonpayable",
      "type": "function"
    },
    {
      "inputs": [
        {
          "internalType": "uint256",
          "name": "_sharesAmount",
          "type": "uint256"
        }
      ],
      "name": "buyBackProtocolFeeShares",
      "outputs": [],
      "stateMutability": "nonpayable",
      "type": "function"
    },
    {
      "inputs": [
        {
          "internalType": "uint256",
          "name": "_investmentAmount",
          "type": "uint256"
        },
        {
          "internalType": "uint256",
          "name": "_minSharesQuantity",
          "type": "uint256"
        }
      ],
      "name": "buyShares",
      "outputs": [
        {
          "internalType": "uint256",
          "name": "sharesReceived_",
          "type": "uint256"
        }
      ],
      "stateMutability": "nonpayable",
      "type": "function"
    },
    {
      "inputs": [
        {
          "internalType": "address",
          "name": "_buyer",
          "type": "address"
        },
        {
          "internalType": "uint256",
          "name": "_investmentAmount",
          "type": "uint256"
        },
        {
          "internalType": "uint256",
          "name": "_minSharesQuantity",
          "type": "uint256"
        }
      ],
      "name": "buySharesOnBehalf",
      "outputs": [
        {
          "internalType": "uint256",
          "name": "sharesReceived_",
          "type": "uint256"
        }
      ],
      "stateMutability": "nonpayable",
      "type": "function"
    },
    {
      "inputs": [
        {
          "internalType": "bool",
          "name": "_finalizeAssets",
          "type": "bool"
        }
      ],
      "name": "calcGav",
      "outputs": [
        {
          "internalType": "uint256",
          "name": "gav_",
          "type": "uint256"
        }
      ],
      "stateMutability": "nonpayable",
      "type": "function"
    },
    {
      "inputs": [
        {
          "internalType": "bool",
          "name": "_requireFinality",
          "type": "bool"
        }
      ],
      "name": "calcGrossShareValue",
      "outputs": [
        {
          "internalType": "uint256",
          "name": "grossShareValue_",
          "type": "uint256"
        }
      ],
      "stateMutability": "nonpayable",
      "type": "function"
    },
    {
      "inputs": [
        {
          "internalType": "address",
          "name": "_extension",
          "type": "address"
        },
        {
          "internalType": "uint256",
          "name": "_actionId",
          "type": "uint256"
        },
        {
          "internalType": "bytes",
          "name": "_callArgs",
          "type": "bytes"
        }
      ],
      "name": "callOnExtension",
      "outputs": [],
      "stateMutability": "nonpayable",
      "type": "function"
    },
    {
      "inputs": [],
      "name": "deployGasRelayPaymaster",
      "outputs": [],
      "stateMutability": "nonpayable",
      "type": "function"
    },
    {
      "inputs": [],
      "name": "depositToGasRelayPaymaster",
      "outputs": [],
      "stateMutability": "nonpayable",
      "type": "function"
    },
    {
      "inputs": [
        {
          "internalType": "uint256",
          "name": "_deactivateFeeManagerGasLimit",
          "type": "uint256"
        },
        {
          "internalType": "uint256",
          "name": "_payProtocolFeeGasLimit",
          "type": "uint256"
        }
      ],
      "name": "destructActivated",
      "outputs": [],
      "stateMutability": "nonpayable",
      "type": "function"
    },
    {
      "inputs": [],
      "name": "destructUnactivated",
      "outputs": [],
      "stateMutability": "nonpayable",
      "type": "function"
    },
    {
      "inputs": [],
      "name": "doesAutoProtocolFeeSharesBuyback",
      "outputs": [
        {
          "internalType": "bool",
          "name": "doesAutoBuyback_",
          "type": "bool"
        }
      ],
      "stateMutability": "view",
      "type": "function"
    },
    {
      "inputs": [],
      "name": "getAssetFinalityResolver",
      "outputs": [
        {
          "internalType": "address",
          "name": "assetFinalityResolver_",
          "type": "address"
        }
      ],
      "stateMutability": "view",
      "type": "function"
    },
    {
      "inputs": [],
      "name": "getDenominationAsset",
      "outputs": [
        {
          "internalType": "address",
          "name": "denominationAsset_",
          "type": "address"
        }
      ],
      "stateMutability": "view",
      "type": "function"
    },
    {
      "inputs": [],
      "name": "getDispatcher",
      "outputs": [
        {
          "internalType": "address",
          "name": "dispatcher_",
          "type": "address"
        }
      ],
      "stateMutability": "view",
      "type": "function"
    },
    {
      "inputs": [],
      "name": "getExternalPositionManager",
      "outputs": [
        {
          "internalType": "address",
          "name": "externalPositionManager_",
          "type": "address"
        }
      ],
      "stateMutability": "view",
      "type": "function"
    },
    {
      "inputs": [],
      "name": "getFeeManager",
      "outputs": [
        {
          "internalType": "address",
          "name": "feeManager_",
          "type": "address"
        }
      ],
      "stateMutability": "view",
      "type": "function"
    },
    {
      "inputs": [],
      "name": "getFundDeployer",
      "outputs": [
        {
          "internalType": "address",
          "name": "fundDeployer_",
          "type": "address"
        }
      ],
      "stateMutability": "view",
      "type": "function"
    },
    {
      "inputs": [],
      "name": "getGasRelayPaymaster",
      "outputs": [
        {
          "internalType": "address",
          "name": "gasRelayPaymaster_",
          "type": "address"
        }
      ],
      "stateMutability": "view",
      "type": "function"
    },
    {
      "inputs": [],
      "name": "getGasRelayPaymasterFactory",
      "outputs": [
        {
          "internalType": "address",
          "name": "gasRelayPaymasterFactory_",
          "type": "address"
        }
      ],
      "stateMutability": "view",
      "type": "function"
    },
    {
      "inputs": [],
      "name": "getGasRelayTrustedForwarder",
      "outputs": [
        {
          "internalType": "address",
          "name": "trustedForwarder_",
          "type": "address"
        }
      ],
      "stateMutability": "view",
      "type": "function"
    },
    {
      "inputs": [],
      "name": "getIntegrationManager",
      "outputs": [
        {
          "internalType": "address",
          "name": "integrationManager_",
          "type": "address"
        }
      ],
      "stateMutability": "view",
      "type": "function"
    },
    {
      "inputs": [
        {
          "internalType": "address",
          "name": "_who",
          "type": "address"
        }
      ],
      "name": "getLastSharesBoughtTimestampForAccount",
      "outputs": [
        {
          "internalType": "uint256",
          "name": "lastSharesBoughtTimestamp_",
          "type": "uint256"
        }
      ],
      "stateMutability": "view",
      "type": "function"
    },
    {
      "inputs": [],
      "name": "getMlnToken",
      "outputs": [
        {
          "internalType": "address",
          "name": "mlnToken_",
          "type": "address"
        }
      ],
      "stateMutability": "view",
      "type": "function"
    },
    {
      "inputs": [],
      "name": "getPolicyManager",
      "outputs": [
        {
          "internalType": "address",
          "name": "policyManager_",
          "type": "address"
        }
      ],
      "stateMutability": "view",
      "type": "function"
    },
    {
      "inputs": [],
      "name": "getProtocolFeeReserve",
      "outputs": [
        {
          "internalType": "address",
          "name": "protocolFeeReserve_",
          "type": "address"
        }
      ],
      "stateMutability": "view",
      "type": "function"
    },
    {
      "inputs": [],
      "name": "getSharesActionTimelock",
      "outputs": [
        {
          "internalType": "uint256",
          "name": "sharesActionTimelock_",
          "type": "uint256"
        }
      ],
      "stateMutability": "view",
      "type": "function"
    },
    {
      "inputs": [],
      "name": "getValueInterpreter",
      "outputs": [
        {
          "internalType": "address",
          "name": "valueInterpreter_",
          "type": "address"
        }
      ],
      "stateMutability": "view",
      "type": "function"
    },
    {
      "inputs": [],
      "name": "getVaultProxy",
      "outputs": [
        {
          "internalType": "address",
          "name": "vaultProxy_",
          "type": "address"
        }
      ],
      "stateMutability": "view",
      "type": "function"
    },
    {
      "inputs": [],
      "name": "getWethToken",
      "outputs": [
        {
          "internalType": "address",
          "name": "wethToken_",
          "type": "address"
        }
      ],
      "stateMutability": "view",
      "type": "function"
    },
    {
      "inputs": [
        {
          "internalType": "address",
          "name": "_denominationAsset",
          "type": "address"
        },
        {
          "internalType": "uint256",
          "name": "_sharesActionTimelock",
          "type": "uint256"
        }
      ],
      "name": "init",
      "outputs": [],
      "stateMutability": "nonpayable",
      "type": "function"
    },
    {
      "inputs": [
        {
          "internalType": "enum IVault.VaultAction",
          "name": "_action",
          "type": "uint8"
        },
        {
          "internalType": "bytes",
          "name": "_actionData",
          "type": "bytes"
        }
      ],
      "name": "permissionedVaultAction",
      "outputs": [],
      "stateMutability": "nonpayable",
      "type": "function"
    },
    {
      "inputs": [
        {
          "internalType": "address",
          "name": "_sender",
          "type": "address"
        },
        {
          "internalType": "address",
          "name": "_recipient",
          "type": "address"
        },
        {
          "internalType": "uint256",
          "name": "_amount",
          "type": "uint256"
        }
      ],
      "name": "preTransferSharesHook",
      "outputs": [],
      "stateMutability": "nonpayable",
      "type": "function"
    },
    {
      "inputs": [
        {
          "internalType": "address",
          "name": "_sender",
          "type": "address"
        }
      ],
      "name": "preTransferSharesHookFreelyTransferable",
      "outputs": [],
      "stateMutability": "view",
      "type": "function"
    },
    {
      "inputs": [
        {
          "internalType": "uint256",
          "name": "_amount",
          "type": "uint256"
        }
      ],
      "name": "pullWethForGasRelayer",
      "outputs": [],
      "stateMutability": "nonpayable",
      "type": "function"
    },
    {
      "inputs": [
        {
          "internalType": "address",
          "name": "_recipient",
          "type": "address"
        },
        {
          "internalType": "uint256",
          "name": "_sharesQuantity",
          "type": "uint256"
        },
        {
          "internalType": "address[]",
          "name": "_payoutAssets",
          "type": "address[]"
        },
        {
          "internalType": "uint256[]",
          "name": "_payoutAssetPercentages",
          "type": "uint256[]"
        }
      ],
      "name": "redeemSharesForSpecificAssets",
      "outputs": [
        {
          "internalType": "uint256[]",
          "name": "payoutAmounts_",
          "type": "uint256[]"
        }
      ],
      "stateMutability": "nonpayable",
      "type": "function"
    },
    {
      "inputs": [
        {
          "internalType": "address",
          "name": "_recipient",
          "type": "address"
        },
        {
          "internalType": "uint256",
          "name": "_sharesQuantity",
          "type": "uint256"
        },
        {
          "internalType": "address[]",
          "name": "_additionalAssets",
          "type": "address[]"
        },
        {
          "internalType": "address[]",
          "name": "_assetsToSkip",
          "type": "address[]"
        }
      ],
      "name": "redeemSharesInKind",
      "outputs": [
        {
          "internalType": "address[]",
          "name": "payoutAssets_",
          "type": "address[]"
        },
        {
          "internalType": "uint256[]",
          "name": "payoutAmounts_",
          "type": "uint256[]"
        }
      ],
      "stateMutability": "nonpayable",
      "type": "function"
    },
    {
      "inputs": [
        {
          "internalType": "bool",
          "name": "_nextAutoProtocolFeeSharesBuyback",
          "type": "bool"
        }
      ],
      "name": "setAutoProtocolFeeSharesBuyback",
      "outputs": [],
      "stateMutability": "nonpayable",
      "type": "function"
    },
    {
      "inputs": [
        {
          "internalType": "address",
          "name": "_nextGasRelayPaymaster",
          "type": "address"
        }
      ],
      "name": "setGasRelayPaymaster",
      "outputs": [],
      "stateMutability": "nonpayable",
      "type": "function"
    },
    {
      "inputs": [
        {
          "internalType": "address",
          "name": "_vaultProxy",
          "type": "address"
        }
      ],
      "name": "setVaultProxy",
      "outputs": [],
      "stateMutability": "nonpayable",
      "type": "function"
    },
    {
      "inputs": [],
      "name": "shutdownGasRelayPaymaster",
      "outputs": [],
      "stateMutability": "nonpayable",
      "type": "function"
    },
    {
      "inputs": [
        {
          "internalType": "address",
          "name": "_contract",
          "type": "address"
        },
        {
          "internalType": "bytes4",
          "name": "_selector",
          "type": "bytes4"
        },
        {
          "internalType": "bytes",
          "name": "_encodedArgs",
          "type": "bytes"
        }
      ],
      "name": "vaultCallOnContract",
      "outputs": [
        {
          "internalType": "bytes",
          "name": "returnData_",
          "type": "bytes"
        }
      ],
      "stateMutability": "nonpayable",
      "type": "function"
    }
  ],
  "bytecode": "0x6102006040523480156200001257600080fd5b50604051620061873803806200618783398181016040526101808110156200003957600080fd5b8101908080519060200190929190805190602001909291908051906020019092919080519060200190929190805190602001909291908051906020019092919080519060200190929190805190602001909291908051906020019092919080519060200190929190805190602001909291908051906020019092919050505082806001600160a01b03166080816001600160a01b031660601b8152505050836001600160a01b031660a0816001600160a01b031660601b815250508b6001600160a01b031660c0816001600160a01b031660601b81525050876001600160a01b031660e0816001600160a01b031660601b81525050866001600160a01b0316610120816001600160a01b031660601b81525050896001600160a01b0316610100816001600160a01b031660601b81525050856001600160a01b0316610140816001600160a01b031660601b81525050816001600160a01b0316610160816001600160a01b031660601b81525050846001600160a01b0316610180816001600160a01b031660601b815250508a6001600160a01b03166101a0816001600160a01b031660601b81525050886001600160a01b03166101c0816001600160a01b031660601b81525050806001600160a01b03166101e0816001600160a01b031660601b8152505060018060146101000a81548160ff02191690831515021790555050505050505050505050505060805160601c60a05160601c60c05160601c60e05160601c6101005160601c6101205160601c6101405160601c6101605160601c6101805160601c6101a05160601c6101c05160601c6101e05160601c615e99620002ee600039806112d1525080611bab52508061241b5250806123f75250806128ff52508061292352508061296b525080611e20525080611fa4525080612947525080610caa525080611e545250615e996000f3fe608060405234801561001057600080fd5b506004361061025e5760003560e01c8063ac25945611610146578063e269c3d6116100c3578063ebb3d58911610087578063ebb3d589146109a6578063f2d63826146109ae578063f513c926146109b6578063f9005af3146109d5578063f9d5fe78146109dd578063faf9096b14610a035761025e565b8063e269c3d614610884578063e53a73b91461088c578063e572ced114610894578063e70e605e14610996578063e7c456901461099e5761025e565b8063c98091871161010a578063c980918714610845578063ce5e84a31461084d578063d44ad6cb1461086c578063da41962e14610874578063db69681f1461087c5761025e565b8063ac259456146107d6578063b10ea2b0146107de578063b3fc38e9146107fb578063b417061214610803578063beebc5da146108225761025e565b80636af8e7eb116101df5780637f20170d116101a35780637f20170d1461072f578063875fb4b314610755578063877fd8941461075d57806392b575b61461078f57806397c0ac87146107b2578063a01fd157146107ba5761025e565b80636af8e7eb146105705780636ea21143146106dc578063716d4da4146106e457806373eecf47146106ec57806379951f0f146107125761025e565b8063397bfe5511610226578063397bfe5514610479578063399ae7241461049f57806339bf70d1146104cb5780634c252f911461054e5780634da471b7146105565761025e565b806310acd06d1461026357806312f20526146102dd5780631ce733c8146103135780632dc7a3a0146103375780633462fcc114610356575b600080fd5b6102db6004803603604081101561027957600080fd5b60ff8235169190810190604081016020820135600160201b81111561029d57600080fd5b8201836020820111156102af57600080fd5b803590602001918460018302840111600160201b831117156102d057600080fd5b509092509050610a0b565b005b6102db600480360360608110156102f357600080fd5b506001600160a01b03813581169160208101359091169060400135610b3b565b61031b610ca8565b604080516001600160a01b039092168252519081900360200190f35b6102db6004803603602081101561034d57600080fd5b50351515610ccd565b6104296004803603608081101561036c57600080fd5b6001600160a01b0382351691602081013591810190606081016040820135600160201b81111561039b57600080fd5b8201836020820111156103ad57600080fd5b803590602001918460208302840111600160201b831117156103ce57600080fd5b919390929091602081019035600160201b8111156103eb57600080fd5b8201836020820111156103fd57600080fd5b803590602001918460208302840111600160201b8311171561041e57600080fd5b509092509050610d30565b60408051602080825283518183015283519192839290830191858101910280838360005b8381101561046557818101518382015260200161044d565b505050509050019250505060405180910390f35b6102db6004803603602081101561048f57600080fd5b50356001600160a01b0316610f86565b6102db600480360360408110156104b557600080fd5b506001600160a01b038135169060200135610fe2565b6102db600480360360608110156104e157600080fd5b6001600160a01b0382351691602081013591810190606081016040820135600160201b81111561051057600080fd5b82018360208201111561052257600080fd5b803590602001918460018302840111600160201b8311171561054357600080fd5b50909250905061113e565b61031b6112cf565b61055e6112f3565b60408051918252519081900360200190f35b6106436004803603608081101561058657600080fd5b6001600160a01b0382351691602081013591810190606081016040820135600160201b8111156105b557600080fd5b8201836020820111156105c757600080fd5b803590602001918460208302840111600160201b831117156105e857600080fd5b919390929091602081019035600160201b81111561060557600080fd5b82018360208201111561061757600080fd5b803590602001918460208302840111600160201b8311171561063857600080fd5b5090925090506112f9565b604051808060200180602001838103835285818151815260200191508051906020019060200280838360005b8381101561068757818101518382015260200161066f565b50505050905001838103825284818151815260200191508051906020019060200280838360005b838110156106c65781810151838201526020016106ae565b5050505090500194505050505060405180910390f35b61031b6119d8565b6102db611ab9565b6102db6004803603602081101561070257600080fd5b50356001600160a01b0316611ad6565b6102db6004803603602081101561072857600080fd5b5035611aea565b61055e6004803603602081101561074557600080fd5b50356001600160a01b0316611b8a565b61031b611ba9565b61055e6004803603606081101561077357600080fd5b506001600160a01b038135169060208101359060400135611bcd565b6102db600480360360408110156107a557600080fd5b5080359060200135611cdc565b61031b611e1e565b6107c2611e42565b604080519115158252519081900360200190f35b61031b611e52565b6102db600480360360208110156107f457600080fd5b5035611e76565b61031b611fa2565b61055e6004803603602081101561081957600080fd5b50351515611fc6565b61055e6004803603604081101561083857600080fd5b50803590602001356120bb565b61031b6120ef565b6102db6004803603602081101561086357600080fd5b503515156120fe565b61031b6123f5565b61031b612419565b6102db61243d565b61031b6125d9565b6102db6125e8565b610921600480360360608110156108aa57600080fd5b6001600160a01b03823516916001600160e01b031960208201351691810190606081016040820135600160201b8111156108e357600080fd5b8201836020820111156108f557600080fd5b803590602001918460018302840111600160201b8311171561091657600080fd5b5090925090506125f8565b6040805160208082528351818301528351919283929083019185019080838360005b8381101561095b578181015183820152602001610943565b50505050905090810190601f1680156109885780820380516001836020036101000a031916815260200191505b509250505060405180910390f35b61031b6128fd565b61031b612921565b61031b612945565b61031b612969565b61055e600480360360208110156109cc57600080fd5b5035151561298d565b6102db612f93565b6102db600480360360208110156109f357600080fd5b50356001600160a01b03166130af565b61031b6130c0565b610a1533846130cf565b600683600a811115610a2357fe5b1415610a9257610a316125d9565b6001600160a01b031682826020811015610a4a57600080fd5b50356001600160a01b03161415610a925760405162461bcd60e51b815260040180806020018281038252603a815260200180615daa603a913960400191505060405180910390fd5b610a9a6120ef565b6001600160a01b03166324e600128484846040518463ffffffff1660e01b81526004018084600a811115610aca57fe5b8152602001806020018281038252848482818152602001925080828437600081840152601f19601f820116905080830192505050945050505050600060405180830381600087803b158015610b1e57600080fd5b505af1158015610b32573d6000803e3d6000fd5b50505050505050565b6000610b456120ef565b9050336001600160a01b03821614610b8e5760405162461bcd60e51b815260040180806020018281038252602f815260200180615d55602f913960400191505060405180910390fd5b610b98818561325e565b610ba06123f5565b604080516001600160a01b038781166020830152868116828401526060808301879052835180840390910181526080830193849052630442bad560e01b90935230608483018181529490911693630442bad5939192600292919060a40183815260200180602001828103825283818151815260200191508051906020019080838360005b83811015610c3c578181015183820152602001610c24565b50505050905090810190601f168015610c695780820380516001836020036101000a031916815260200191505b50945050505050600060405180830381600087803b158015610c8a57600080fd5b505af1158015610c9e573d6000803e3d6000fd5b5050505050505050565b7f00000000000000000000000000000000000000000000000000000000000000005b90565b610cdd610cd86132e8565b61332c565b60018054821515600160a81b810260ff60a81b199092169190911790915560408051918252517f8ccd4cc3a51ed6f61f2b34b8d0a1ac137376931714380a7702b410ed174d6a739181900360200190a150565b6060610d3a6133f7565b6001805460ff60b81b1916600160b81b1790556000610d576132e8565b9050848314610d975760405162461bcd60e51b815260040180806020018281038252602d815260200180615b2f602d913960400191505060405180910390fd5b610dd386868080602002602001604051908101604052809392919081815260200183836020028082843760009201919091525061344492505050565b610e0e5760405162461bcd60e51b8152600401808060200182810382526035815260200180615b5c6035913960400191505060405180910390fd5b6000610e1a600161298d565b90506000610e266120ef565b9050600080610e3983868d6001886134d8565b9092509050610e60838d8c8c8c8c610e5b88610e558d8c6137ca565b90613823565b61388a565b9550610ea5858d848d8d808060200260200160405190810160405280939291908181526020018383602002808284376000920191909152508d92508b9150613b949050565b8b6001600160a01b0316856001600160a01b03167fbf88879a1555e4d7d38ebeffabce61fdf5e12ea0468abf855a72ec17b432bed5848d8d8b60405180858152602001806020018060200183810383528686828181526020019250602002808284376000838201819052601f909101601f1916909201858103845286518152865160209182019382890193509102908190849084905b83811015610f53578181015183820152602001610f3b565b50505050905001965050505050505060405180910390a350505050506001805460ff60b81b191690559695505050505050565b610f8e613d5d565b600180546001600160a01b0383166001600160a01b0319909116811790915560408051918252517f5be181178e61e61e33f79c396c7194b8f3c80f77899da7bd96fe537411300bcb9181900360200190a150565b6000610fec6125d9565b6001600160a01b031614611047576040805162461bcd60e51b815260206004820152601960248201527f696e69743a20416c726561647920696e697469616c697a656400000000000000604482015290519081900360640190fd5b61104f611ba9565b6001600160a01b031663c496f8e8836040518263ffffffff1660e01b815260040180826001600160a01b0316815260200191505060206040518083038186803b15801561109b57600080fd5b505afa1580156110af573d6000803e3d6000fd5b505050506040513d60208110156110c557600080fd5b5051611118576040805162461bcd60e51b815260206004820152601c60248201527f696e69743a204261642064656e6f6d696e6174696f6e20617373657400000000604482015290519081900360640190fd5b600080546001600160a01b0319166001600160a01b039390931692909217909155600255565b6111466133f7565b6001805460ff60b81b1916600160b81b179055611161613dca565b6001805460ff60b01b1916600160b01b17905561117c612969565b6001600160a01b0316846001600160a01b031614806111b3575061119e612921565b6001600160a01b0316846001600160a01b0316145b806111d657506111c1611fa2565b6001600160a01b0316846001600160a01b0316145b6112115760405162461bcd60e51b8152600401808060200182810382526023815260200180615c246023913960400191505060405180910390fd5b836001600160a01b0316631bee801e6112286132e8565b8585856040518563ffffffff1660e01b815260040180856001600160a01b03168152602001848152602001806020018281038252848482818152602001925080828437600081840152601f19601f82011690508083019250505095505050505050600060405180830381600087803b1580156112a357600080fd5b505af11580156112b7573d6000803e3d6000fd5b50506001805461ffff60b01b19169055505050505050565b7f000000000000000000000000000000000000000000000000000000000000000090565b60025490565b6060806113046133f7565b6001805460ff60b81b1916600160b81b17905560006113216132e8565b905061135f87878080602002602001604051908101604052809392919081815260200183836020028082843760009201919091525061344492505050565b61139a5760405162461bcd60e51b8152600401808060200182810382526039815260200180615c476039913960400191505060405180910390fd5b6113d685858080602002602001604051908101604052809392919081815260200183836020028082843760009201919091525061344492505050565b6114115760405162461bcd60e51b8152600401808060200182810382526035815260200180615e2f6035913960400191505060405180910390fd5b60015460408051630c4b973760e41b81529051611580926001600160a01b03169163c4b97370916004808301926000929190829003018186803b15801561145757600080fd5b505afa15801561146b573d6000803e3d6000fd5b505050506040513d6000823e601f3d908101601f19168201604052602081101561149457600080fd5b8101908080516040519392919084600160201b8211156114b357600080fd5b9083019060208201858111156114c857600080fd5b82518660208202830111600160201b821117156114e457600080fd5b82525081516020918201928201910280838360005b838110156115115781810151838201526020016114f9565b5050505090910160208d810282810182016040528e83529195508e94508d935083925085019084908082843760009201919091525050604080516020808c0282810182019093528b82529093508b92508a918291850190849080828437600092019190915250613e2992505050565b925061158a610ca8565b60015460408051637620630560e01b81526001600160a01b03928316600482018181526024830193845288516044840152885195909416946376206305949193899390916064909101906020808601910280838360005b838110156115f95781810151838201526020016115e1565b505050509050019350505050600060405180830381600087803b15801561161f57600080fd5b505af1158015611633573d6000803e3d6000fd5b505050506000611641611e42565b156116e957306001600160a01b031663f513c92660006040518263ffffffff1660e01b8152600401808215158152602001915050602060405180830381600087803b15801561168f57600080fd5b505af19250505080156116b457506040513d60208110156116af57600080fd5b505160015b6116e6576040517ff5939ff9a66cf6d21ec93b246060bc17f5c062847e28d967d3dd617636b238d490600090a16116e9565b90505b6001546000908190611707906001600160a01b0316858d84876134d8565b91509150855167ffffffffffffffff8111801561172357600080fd5b5060405190808252806020026020018201604052801561174d578160200160208202803683370190505b50945060005b86518110156118e2576117f782610e55858a858151811061177057fe5b602090810291909101810151600154604080516370a0823160e01b81526001600160a01b039283166004820152905191909216926370a082319260248082019391829003018186803b1580156117c557600080fd5b505afa1580156117d9573d6000803e3d6000fd5b505050506040513d60208110156117ef57600080fd5b5051906137ca565b86828151811061180357fe5b602002602001018181525050600086828151811061181d57fe5b602002602001015111156118da5760015487516001600160a01b039091169063495d753c9089908490811061184e57fe5b60200260200101518f89858151811061186357fe5b60200260200101516040518463ffffffff1660e01b815260040180846001600160a01b03168152602001836001600160a01b031681526020018281526020019350505050600060405180830381600087803b1580156118c157600080fd5b505af11580156118d5573d6000803e3d6000fd5b505050505b600101611753565b508b6001600160a01b0316846001600160a01b03167fbf88879a1555e4d7d38ebeffabce61fdf5e12ea0468abf855a72ec17b432bed5848989604051808481526020018060200180602001838103835285818151815260200191508051906020019060200280838360005b8381101561196557818101518382015260200161194d565b50505050905001838103825284818151815260200191508051906020019060200280838360005b838110156119a457818101518382015260200161198c565b505050509050019550505050505060405180910390a3505050506001805460ff60b81b191690559097909650945050505050565b60006119e2611e52565b6001600160a01b03166398a7c4c76040518163ffffffff1660e01b815260040160206040518083038186803b158015611a1a57600080fd5b505afa158015611a2e573d6000803e3d6000fd5b505050506040513d6020811015611a4457600080fd5b505160408051637da0a87760e01b815290516001600160a01b0390921691637da0a87791600480820192602092909190829003018186803b158015611a8857600080fd5b505afa158015611a9c573d6000803e3d6000fd5b505050506040513d6020811015611ab257600080fd5b5051905090565b611ac4610cd86132e8565b611ad4611acf6130c0565b61401b565b565b611ade613d5d565b611ae781614056565b50565b611af26140aa565b611afa6120ef565b6001600160a01b031663495d753c611b106112cf565b611b186130c0565b846040518463ffffffff1660e01b815260040180846001600160a01b03168152602001836001600160a01b031681526020018281526020019350505050600060405180830381600087803b158015611b6f57600080fd5b505af1158015611b83573d6000803e3d6000fd5b5050505050565b6001600160a01b0381166000908152600360205260409020545b919050565b7f000000000000000000000000000000000000000000000000000000000000000090565b6000806000611bda6112f3565b1190506000611be76132e8565b9050811580611c725750611bf9611e1e565b6001600160a01b03166354391f09826040518263ffffffff1660e01b815260040180826001600160a01b0316815260200191505060206040518083038186803b158015611c4557600080fd5b505afa158015611c59573d6000803e3d6000fd5b505050506040513d6020811015611c6f57600080fd5b50515b611cc3576040805162461bcd60e51b815260206004820152601f60248201527f6275795368617265734f6e426568616c663a20556e617574686f72697a656400604482015290519081900360640190fd5b611cd08686868585614101565b925050505b9392505050565b611ce4613d5d565b611cec613dca565b6001805460ff60b01b1916600160b01b179055611d076120ef565b6001600160a01b031663d5c20fa2826040518263ffffffff1660e01b8152600401600060405180830381600088803b158015611d4257600080fd5b5087f193505050508015611d54575060015b611d82576040517f8a7579328a911284dedef6a7e68bbb1eae7d59418f2699cb5a3c26f6e57e4d7790600090a15b611d8a612969565b6001600160a01b031663bd8e959a836040518263ffffffff1660e01b8152600401600060405180830381600088803b158015611dc557600080fd5b5087f193505050508015611dd7575060015b611e05576040517f681c534f5c2e473c9cc8ab1693257fb2b0e19a5c5ecd7d040201f1cf2a190c8790600090a15b611e0d614507565b50506001805460ff60b01b19169055565b7f000000000000000000000000000000000000000000000000000000000000000090565b600154600160a81b900460ff1690565b7f000000000000000000000000000000000000000000000000000000000000000090565b6001546001600160a01b03168063714ca2d1611e906132e8565b6040518263ffffffff1660e01b815260040180826001600160a01b0316815260200191505060206040518083038186803b158015611ecd57600080fd5b505afa158015611ee1573d6000803e3d6000fd5b505050506040513d6020811015611ef757600080fd5b5051611f345760405162461bcd60e51b8152600401808060200182810382526026815260200180615d846026913960400191505060405180910390fd5b6000611f40600161298d565b9050816001600160a01b0316631ff46bfa84611f5d858786614553565b846040518463ffffffff1660e01b8152600401808481526020018381526020018281526020019350505050600060405180830381600087803b158015610b1e57600080fd5b7f000000000000000000000000000000000000000000000000000000000000000090565b600080611fd28361298d565b9050611cd581611fe06120ef565b6001600160a01b03166318160ddd6040518163ffffffff1660e01b815260040160206040518083038186803b15801561201857600080fd5b505afa15801561202c573d6000803e3d6000fd5b505050506040513d602081101561204257600080fd5b505161204c6125d9565b6001600160a01b031663313ce5676040518163ffffffff1660e01b815260040160206040518083038186803b15801561208457600080fd5b505afa158015612098573d6000803e3d6000fd5b505050506040513d60208110156120ae57600080fd5b505160ff16600a0a6146d4565b60008060006120c86112f3565b11905060006120d56132e8565b90506120e48186868585614101565b925050505b92915050565b6001546001600160a01b031690565b612106613d5d565b60006121106120ef565b905081156122b5576000816001600160a01b03166370a08231836040518263ffffffff1660e01b815260040180826001600160a01b0316815260200191505060206040518083038186803b15801561216757600080fd5b505afa15801561217b573d6000803e3d6000fd5b505050506040513d602081101561219157600080fd5b5051905080156122b357816001600160a01b031663bfc77beb83846001600160a01b031663893d20e86040518163ffffffff1660e01b815260040160206040518083038186803b1580156121e457600080fd5b505afa1580156121f8573d6000803e3d6000fd5b505050506040513d602081101561220e57600080fd5b5051604080516001600160e01b031960e086901b1681526001600160a01b0393841660048201529290911660248301526044820185905251606480830192600092919082900301818387803b15801561226657600080fd5b505af115801561227a573d6000803e3d6000fd5b50506040805184815290517f8f9ec2c1cf1f95fcb5d89d3141949092850c5cfe04da4d9425dd840bf18cdc709350908190036020019150a15b505b806001600160a01b0316634ef0762e6122cc6125d9565b6040518263ffffffff1660e01b815260040180826001600160a01b03168152602001915050600060405180830381600087803b15801561230b57600080fd5b505af115801561231f573d6000803e3d6000fd5b5050505061232b612969565b6001600160a01b03166380d57063836040518263ffffffff1660e01b8152600401808215158152602001915050600060405180830381600087803b15801561237257600080fd5b505af1158015612386573d6000803e3d6000fd5b505050506123926123f5565b6001600160a01b03166380d57063836040518263ffffffff1660e01b8152600401808215158152602001915050600060405180830381600087803b1580156123d957600080fd5b505af11580156123ed573d6000803e3d6000fd5b505050505050565b7f000000000000000000000000000000000000000000000000000000000000000090565b7f000000000000000000000000000000000000000000000000000000000000000090565b6124463361332c565b60006124506130c0565b6001600160a01b0316146124955760405162461bcd60e51b8152600401808060200182810382526033815260200180615bf16033913960400191505060405180910390fd5b606061249f6120ef565b604080516001600160a01b0390921660248084019190915281518084039091018152604490920190526020810180516001600160e01b031663066ad14f60e21b179052905060006124ee611e52565b6001600160a01b0316630c0872f5836040518263ffffffff1660e01b81526004018080602001828103825283818151815260200191508051906020019080838360005b83811015612549578181015183820152602001612531565b50505050905090810190601f1680156125765780820380516001836020036101000a031916815260200191505b5092505050602060405180830381600087803b15801561259557600080fd5b505af11580156125a9573d6000803e3d6000fd5b505050506040513d60208110156125bf57600080fd5b505190506125cc81614056565b6125d58161401b565b5050565b6000546001600160a01b031690565b6125f0613d5d565b611ad4614507565b6060612605610cd86132e8565b61260d611e1e565b6001600160a01b0316638c500ea38686868660405180838380828437808301925050509250505060405180910390206040518463ffffffff1660e01b815260040180846001600160a01b03168152602001836001600160e01b0319168152602001828152602001935050505060206040518083038186803b15801561269157600080fd5b505afa1580156126a5573d6000803e3d6000fd5b505050506040513d60208110156126bb57600080fd5b505161270e576040805162461bcd60e51b815260206004820181905260248201527f7661756c7443616c6c4f6e436f6e74726163743a204e6f7420616c6c6f776564604482015290519081900360640190fd5b6127166120ef565b6001600160a01b031663a90cce4b8686868660405160200180846001600160e01b03191681526004018383808284378083019250505093505050506040516020818303038152906040526040518363ffffffff1660e01b815260040180836001600160a01b0316815260200180602001828103825283818151815260200191508051906020019080838360005b838110156127bb5781810151838201526020016127a3565b50505050905090810190601f1680156127e85780820380516001836020036101000a031916815260200191505b509350505050600060405180830381600087803b15801561280857600080fd5b505af115801561281c573d6000803e3d6000fd5b505050506040513d6000823e601f3d908101601f19168201604052602081101561284557600080fd5b8101908080516040519392919084600160201b82111561286457600080fd5b90830190602082018581111561287957600080fd5b8251600160201b81118282018810171561289257600080fd5b82525081516020918201929091019080838360005b838110156128bf5781810151838201526020016128a7565b50505050905090810190601f1680156128ec5780820380516001836020036101000a031916815260200191505b506040525050509050949350505050565b7f000000000000000000000000000000000000000000000000000000000000000090565b7f000000000000000000000000000000000000000000000000000000000000000090565b7f000000000000000000000000000000000000000000000000000000000000000090565b7f000000000000000000000000000000000000000000000000000000000000000090565b6000806129986120ef565b90506060816001600160a01b031663c4b973706040518163ffffffff1660e01b815260040160006040518083038186803b1580156129d557600080fd5b505afa1580156129e9573d6000803e3d6000fd5b505050506040513d6000823e601f3d908101601f191682016040526020811015612a1257600080fd5b8101908080516040519392919084600160201b821115612a3157600080fd5b908301906020820185811115612a4657600080fd5b82518660208202830111600160201b82111715612a6257600080fd5b82525081516020918201928201910280838360005b83811015612a8f578181015183820152602001612a77565b5050505090500160405250505090506060826001600160a01b031663b8b7f1476040518163ffffffff1660e01b815260040160006040518083038186803b158015612ad957600080fd5b505afa158015612aed573d6000803e3d6000fd5b505050506040513d6000823e601f3d908101601f191682016040526020811015612b1657600080fd5b8101908080516040519392919084600160201b821115612b3557600080fd5b908301906020820185811115612b4a57600080fd5b82518660208202830111600160201b82111715612b6657600080fd5b82525081516020918201928201910280838360005b83811015612b93578181015183820152602001612b7b565b50505050905001604052505050905081516000148015612bb257508051155b15612bc35760009350505050611ba4565b8415612c7e57612bd1610ca8565b6001600160a01b0316637620630584846040518363ffffffff1660e01b815260040180836001600160a01b0316815260200180602001828103825283818151815260200191508051906020019060200280838360005b83811015612c3f578181015183820152602001612c27565b505050509050019350505050600060405180830381600087803b158015612c6557600080fd5b505af1158015612c79573d6000803e3d6000fd5b505050505b6060825167ffffffffffffffff81118015612c9857600080fd5b50604051908082528060200260200182016040528015612cc2578160200160208202803683370190505b50905060005b8351811015612e2757838181518110612cdd57fe5b60200260200101516001600160a01b03166370a08231866040518263ffffffff1660e01b815260040180826001600160a01b0316815260200191505060206040518083038186803b158015612d3157600080fd5b505afa158015612d45573d6000803e3d6000fd5b505050506040513d6020811015612d5b57600080fd5b50518251839083908110612d6b57fe5b602002602001018181525050846001600160a01b0316639185349a858381518110612d9257fe5b6020026020010151848481518110612da657fe5b6020026020010151886040518463ffffffff1660e01b815260040180846001600160a01b03168152602001838152602001826001600160a01b03168152602001935050505060006040518083038186803b158015612e0357600080fd5b505afa158015612e17573d6000803e3d6000fd5b505060019092019150612cc89050565b50612e30611ba9565b6001600160a01b031663ae6f52ad8483612e486125d9565b6040518463ffffffff1660e01b8152600401808060200180602001846001600160a01b03168152602001838103835286818151815260200191508051906020019060200280838360005b83811015612eaa578181015183820152602001612e92565b50505050905001838103825285818151815260200191508051906020019060200280838360005b83811015612ee9578181015183820152602001612ed1565b5050505090500195505050505050602060405180830381600087803b158015612f1157600080fd5b505af1158015612f25573d6000803e3d6000fd5b505050506040513d6020811015612f3b57600080fd5b5051825190955015612f8a5760005b8251811015612f88576000612f71848381518110612f6457fe5b6020026020010151614700565b9050612f7d8782614c7c565b965050600101612f4a565b505b50505050919050565b612f9c3361332c565b60048054604080516305fd8c7160e41b815290516001600160a01b0390921692635fd8c71092828201926000929082900301818387803b158015612fdf57600080fd5b505af1158015612ff3573d6000803e3d6000fd5b50506001546001600160a01b03169150634ef0762e90506130126112cf565b6040518263ffffffff1660e01b815260040180826001600160a01b03168152602001915050600060405180830381600087803b15801561305157600080fd5b505af1158015613065573d6000803e3d6000fd5b5050600480546001600160a01b03191690555050604080516000815290517f66756eda85190d0bcec058815fd7e2154167d102e21d96cab701630af02f24739181900360200190a1565b611ae76130ba6120ef565b8261325e565b6004546001600160a01b031690565b600154600090600160b01b900460ff161561321d576130ec612921565b6001600160a01b0316836001600160a01b0316141561316557600482600a81111561311357fe5b148061312a5750600682600a81111561312857fe5b145b806131405750600782600a81111561313e57fe5b145b80613157575060055b82600a81111561315557fe5b145b15613160575060015b61321d565b61316d612969565b6001600160a01b0316836001600160a01b031614156131b857600282600a81111561319457fe5b14806131ab5750600182600a8111156131a957fe5b145b8061315757506003613149565b6131c0611fa2565b6001600160a01b0316836001600160a01b0316141561321d57600982600a8111156131e757fe5b14806131fe5750600882600a8111156131fc57fe5b145b806132145750600a82600a81111561321257fe5b145b1561321d575060015b806132595760405162461bcd60e51b8152600401808060200182810382526033815260200180615d226033913960400191505060405180910390fd5b505050565b600061326982611b8a565b9050801580613288575061327b6112f3565b6132854283614cd6565b10155b80613297575061329783614d33565b613259576040805162461bcd60e51b815260206004820152601860248201527f53686172657320616374696f6e2074696d656c6f636b65640000000000000000604482015290519081900360640190fd5b60006018361080159061331357506132fe6119d8565b6001600160a01b0316336001600160a01b0316145b15613327575060131936013560601c610cca565b503390565b6133346120ef565b6001600160a01b031663893d20e86040518163ffffffff1660e01b815260040160206040518083038186803b15801561336c57600080fd5b505afa158015613380573d6000803e3d6000fd5b505050506040513d602081101561339657600080fd5b50516001600160a01b03828116911614611ae7576040805162461bcd60e51b815260206004820152601860248201527f4f6e6c792066756e64206f776e65722063616c6c61626c650000000000000000604482015290519081900360640190fd5b600154600160b81b900460ff1615611ad4576040805162461bcd60e51b815260206004820152600b60248201526a52652d656e7472616e636560a81b604482015290519081900360640190fd5b6000600182511161345757506001611ba4565b815160005b818110156134ce57600181015b828110156134c55784818151811061347d57fe5b60200260200101516001600160a01b031685838151811061349a57fe5b60200260200101516001600160a01b031614156134bd5760009350505050611ba4565b600101613469565b5060010161345c565b5060019392505050565b6000806134e5878761325e565b60008790506000816001600160a01b03166370a08231896040518263ffffffff1660e01b815260040180826001600160a01b0316815260200191505060206040518083038186803b15801561353957600080fd5b505afa15801561354d573d6000803e3d6000fd5b505050506040513d602081101561356357600080fd5b505190506000198714156135795780935061357d565b8693505b600084116135bc5760405162461bcd60e51b8152600401808060200182810382526028815260200180615bc96028913960400191505060405180910390fd5b6135c888858888614e41565b6000826001600160a01b03166370a082318a6040518263ffffffff1660e01b815260040180826001600160a01b0316815260200191505060206040518083038186803b15801561361757600080fd5b505afa15801561362b573d6000803e3d6000fd5b505050506040513d602081101561364157600080fd5b5051905060001988141561365757809450613676565b818110156136765761367361366c8383614cd6565b8690614cd6565b94505b896001600160a01b031663d5c20fa26040518163ffffffff1660e01b8152600401600060405180830381600087803b1580156136b157600080fd5b505af11580156136c5573d6000803e3d6000fd5b505050506000861180156136dc57506136dc611e42565b156136eb576136eb8a8761503d565b826001600160a01b03166318160ddd6040518163ffffffff1660e01b815260040160206040518083038186803b15801561372457600080fd5b505afa158015613738573d6000803e3d6000fd5b505050506040513d602081101561374e57600080fd5b505160408051633b9e9f0160e21b81526001600160a01b038c81166004830152602482018990529151929650908c169163ee7a7c049160448082019260009290919082900301818387803b1580156137a557600080fd5b505af11580156137b9573d6000803e3d6000fd5b505050505050509550959350505050565b6000826137d9575060006120e9565b828202828482816137e657fe5b0414611cd55760405162461bcd60e51b8152600401808060200182810382526021815260200180615c806021913960400191505060405180910390fd5b6000808211613879576040805162461bcd60e51b815260206004820152601a60248201527f536166654d6174683a206469766973696f6e206279207a65726f000000000000604482015290519081900360640190fd5b81838161388257fe5b049392505050565b606060006138966125d9565b905060008667ffffffffffffffff811180156138b157600080fd5b506040519080825280602002602001820160405280156138db578160200160208202803683370190505b50925060005b87811015613b465761390e8787838181106138f857fe5b9050602002013583614c7c90919063ffffffff16565b915061aaaa89898381811061391f57fe5b905060200201356001600160a01b03166001600160a01b0316141561394357613b3e565b61394b611ba9565b6001600160a01b0316634c67e10684613985612710610e558c8c8881811061396f57fe5b905060200201358b6137ca90919063ffffffff16565b8c8c8681811061399157fe5b905060200201356001600160a01b03166040518463ffffffff1660e01b815260040180846001600160a01b03168152602001838152602001826001600160a01b031681526020019350505050602060405180830381600087803b1580156139f757600080fd5b505af1158015613a0b573d6000803e3d6000fd5b505050506040513d6020811015613a2157600080fd5b50518451859083908110613a3157fe5b6020026020010181815250506000848281518110613a4b57fe5b602002602001015111613a8f5760405162461bcd60e51b8152600401808060200182810382526038815260200180615b916038913960400191505060405180910390fd5b8a6001600160a01b031663495d753c8a8a84818110613aaa57fe5b905060200201356001600160a01b03168c878581518110613ac757fe5b60200260200101516040518463ffffffff1660e01b815260040180846001600160a01b03168152602001836001600160a01b031681526020018281526020019350505050600060405180830381600087803b158015613b2557600080fd5b505af1158015613b39573d6000803e3d6000fd5b505050505b6001016138e1565b506127108114613b875760405162461bcd60e51b815260040180806020018281038252603b815260200180615ac3603b913960400191505060405180910390fd5b5050979650505050505050565b613b9c6123f5565b6001600160a01b0316630442bad530600389898989898960405160200180876001600160a01b03168152602001866001600160a01b031681526020018581526020018060200180602001848152602001838103835286818151815260200191508051906020019060200280838360005b83811015613c24578181015183820152602001613c0c565b50505050905001838103825285818151815260200191508051906020019060200280838360005b83811015613c63578181015183820152602001613c4b565b50505050905001985050505050505050506040516020818303038152906040526040518463ffffffff1660e01b815260040180846001600160a01b03168152602001836009811115613cb157fe5b815260200180602001828103825283818151815260200191508051906020019080838360005b83811015613cef578181015183820152602001613cd7565b50505050905090810190601f168015613d1c5780820380516001836020036101000a031916815260200191505b50945050505050600060405180830381600087803b158015613d3d57600080fd5b505af1158015613d51573d6000803e3d6000fd5b50505050505050505050565b613d65611e1e565b6001600160a01b0316336001600160a01b031614611ad4576040805162461bcd60e51b815260206004820152601a60248201527f4f6e6c792046756e644465706c6f7965722063616c6c61626c65000000000000604482015290519081900360640190fd5b600154600160b01b900460ff1615611ad4576040805162461bcd60e51b815260206004820152601860248201527f5661756c7420616374696f6e2072652d656e7472616e63650000000000000000604482015290519081900360640190fd5b606080613e36858461520c565b9050835160001415613e49579050611cd5565b6060845167ffffffffffffffff81118015613e6357600080fd5b50604051908082528060200260200182016040528015613e8d578160200160208202803683370190505b5090506000805b8651811015613ef457613ec3878281518110613eac57fe5b60200260200101518561539890919063ffffffff16565b613eec576001838281518110613ed557fe5b911515602092830291909101909101526001909101905b600101613e94565b5080613f0557829350505050611cd5565b8251613f119082614c7c565b67ffffffffffffffff81118015613f2757600080fd5b50604051908082528060200260200182016040528015613f51578160200160208202803683370190505b50935060005b8351811015613fa057838181518110613f6c57fe5b6020026020010151858281518110613f8057fe5b6001600160a01b0390921660209283029190910190910152600101613f57565b50825160005b875181101561400f57838181518110613fbb57fe5b60200260200101511561400757878181518110613fd457fe5b6020026020010151868381518110613fe857fe5b6001600160a01b03909216602092830291909101909101526001909101905b600101613fa6565b50505050509392505050565b806001600160a01b031663d0e30db06040518163ffffffff1660e01b8152600401600060405180830381600087803b158015611b6f57600080fd5b600480546001600160a01b0383166001600160a01b0319909116811790915560408051918252517f66756eda85190d0bcec058815fd7e2154167d102e21d96cab701630af02f24739181900360200190a150565b6140b26130c0565b6001600160a01b0316336001600160a01b031614611ad45760405162461bcd60e51b8152600401808060200182810382526021815260200180615e0e6021913960400191505060405180910390fd5b600061410b6133f7565b6001805460ff60b81b1916600160b81b179055614126613dca565b6001805460ff60b01b1916600160b01b179055836141755760405162461bcd60e51b815260040180806020018281038252602a815260200180615cc7602a913960400191505060405180910390fd5b600061417f6120ef565b9050831580614194575061419281614d33565b155b6141cf5760405162461bcd60e51b8152600401808060200182810382526031815260200180615cf16031913960400191505060405180910390fd5b60006141db600161298d565b90506141e88888836153ee565b816001600160a01b031663d5c20fa26040518163ffffffff1660e01b8152600401600060405180830381600087803b15801561422357600080fd5b505af1158015614237573d6000803e3d6000fd5b50505050614243611e42565b1561425257614252828261503d565b600061426761425f6125d9565b86858b6154d3565b905060006142a883856001600160a01b03166318160ddd6040518163ffffffff1660e01b815260040160206040518083038186803b15801561201857600080fd5b905060006142c282610e5585670de0b6b3a76400006137ca565b90506000856001600160a01b03166370a082318d6040518263ffffffff1660e01b815260040180826001600160a01b0316815260200191505060206040518083038186803b15801561431357600080fd5b505afa158015614327573d6000803e3d6000fd5b505050506040513d602081101561433d57600080fd5b5051604080516329460cc560e11b81526001600160a01b038f811660048301526024820186905291519293509088169163528c198a9160448082019260009290919082900301818387803b15801561439457600080fd5b505af11580156143a8573d6000803e3d6000fd5b505050506143b88c8584886155c1565b61443b81876001600160a01b03166370a082318f6040518263ffffffff1660e01b815260040180826001600160a01b0316815260200191505060206040518083038186803b15801561440957600080fd5b505afa15801561441d573d6000803e3d6000fd5b505050506040513d602081101561443357600080fd5b505190614cd6565b96508987101561447c5760405162461bcd60e51b8152600401808060200182810382526031815260200180615afe6031913960400191505060405180910390fd5b881561449e576001600160a01b038c1660009081526003602052604090204290555b604080518581526020810184905280820189905290516001600160a01b038e16917f849165c18b9d0fb161bcb145e4ab523d350e5c98f1dbbb1960331e7ee3ca6767919081900360600190a25050505050506001805461ffff60b01b1916905595945050505050565b600154600160a01b900460ff16156145505760405162461bcd60e51b8152600401808060200182810382526026815260200180615ca16026913960400191505060405180910390fd5b30ff5b60008061455e6125d9565b9050600061460b84876001600160a01b03166318160ddd6040518163ffffffff1660e01b815260040160206040518083038186803b15801561459f57600080fd5b505afa1580156145b3573d6000803e3d6000fd5b505050506040513d60208110156145c957600080fd5b50516040805163313ce56760e01b815290516001600160a01b0387169163313ce567916004808301926020929190829003018186803b15801561208457600080fd5b90506000614625670de0b6b3a7640000610e5584896137ca565b905061462f611ba9565b6001600160a01b0316634c67e10684836146476128fd565b6040518463ffffffff1660e01b815260040180846001600160a01b03168152602001838152602001826001600160a01b031681526020019350505050602060405180830381600087803b15801561469d57600080fd5b505af11580156146b1573d6000803e3d6000fd5b505050506040513d60208110156146c757600080fd5b5051979650505050505050565b6000826146e2575080611cd5565b6146f883610e5586670de0b6b3a76400006137ca565b949350505050565b6000606080836001600160a01b03166380daddb86040518163ffffffff1660e01b8152600401600060405180830381600087803b15801561474057600080fd5b505af1158015614754573d6000803e3d6000fd5b505050506040513d6000823e601f3d908101601f19168201604090815281101561477d57600080fd5b8101908080516040519392919084600160201b82111561479c57600080fd5b9083019060208201858111156147b157600080fd5b82518660208202830111600160201b821117156147cd57600080fd5b82525081516020918201928201910280838360005b838110156147fa5781810151838201526020016147e2565b5050505090500160405260200180516040519392919084600160201b82111561482257600080fd5b90830190602082018581111561483757600080fd5b82518660208202830111600160201b8211171561485357600080fd5b82525081516020918201928201910280838360005b83811015614880578181015183820152602001614868565b5050505090500160405250505091509150600061489b611ba9565b6001600160a01b031663ae6f52ad84846148b36125d9565b6040518463ffffffff1660e01b8152600401808060200180602001846001600160a01b03168152602001838103835286818151815260200191508051906020019060200280838360005b838110156149155781810151838201526020016148fd565b50505050905001838103825285818151815260200191508051906020019060200280838360005b8381101561495457818101518382015260200161493c565b5050505090500195505050505050602060405180830381600087803b15801561497c57600080fd5b505af1158015614990573d6000803e3d6000fd5b505050506040513d60208110156149a657600080fd5b505160408051633b35962d60e21b8152905191925060609182916001600160a01b0389169163ecd658b49160048082019260009290919082900301818387803b1580156149f257600080fd5b505af1158015614a06573d6000803e3d6000fd5b505050506040513d6000823e601f3d908101601f191682016040908152811015614a2f57600080fd5b8101908080516040519392919084600160201b821115614a4e57600080fd5b908301906020820185811115614a6357600080fd5b82518660208202830111600160201b82111715614a7f57600080fd5b82525081516020918201928201910280838360005b83811015614aac578181015183820152602001614a94565b5050505090500160405260200180516040519392919084600160201b821115614ad457600080fd5b908301906020820185811115614ae957600080fd5b82518660208202830111600160201b82111715614b0557600080fd5b82525081516020918201928201910280838360005b83811015614b32578181015183820152602001614b1a565b50505050905001604052505050915091506000614b4d611ba9565b6001600160a01b031663ae6f52ad8484614b656125d9565b6040518463ffffffff1660e01b8152600401808060200180602001846001600160a01b03168152602001838103835286818151815260200191508051906020019060200280838360005b83811015614bc7578181015183820152602001614baf565b50505050905001838103825285818151815260200191508051906020019060200280838360005b83811015614c06578181015183820152602001614bee565b5050505090500195505050505050602060405180830381600087803b158015614c2e57600080fd5b505af1158015614c42573d6000803e3d6000fd5b505050506040513d6020811015614c5857600080fd5b5051905080841115614c7157614c6e8482614cd6565b96505b505050505050919050565b600082820183811015611cd5576040805162461bcd60e51b815260206004820152601b60248201527f536166654d6174683a206164646974696f6e206f766572666c6f770000000000604482015290519081900360640190fd5b600082821115614d2d576040805162461bcd60e51b815260206004820152601e60248201527f536166654d6174683a207375627472616374696f6e206f766572666c6f770000604482015290519081900360640190fd5b50900390565b6000614d3d612945565b6001600160a01b031663d0449d3d836040518263ffffffff1660e01b815260040180826001600160a01b0316815260200191505060206040518083038186803b158015614d8957600080fd5b505afa158015614d9d573d6000803e3d6000fd5b505050506040513d6020811015614db357600080fd5b5051806120e95750614dc3611e1e565b6001600160a01b0316636c579e57836040518263ffffffff1660e01b815260040180826001600160a01b0316815260200191505060206040518083038186803b158015614e0f57600080fd5b505afa158015614e23573d6000803e3d6000fd5b505050506040513d6020811015614e3957600080fd5b505192915050565b614e49613dca565b6001805460ff60b01b1916600160b01b179055614e64612969565b604080516001600160a01b038781166020830152818301879052851515606080840191909152835180840390910181526080830193849052631dd6705960e21b9093529290921691637759c1649160039185906084018084815260200180602001838152602001828103825284818151815260200191508051906020019080838360005b83811015614f00578181015183820152602001614ee8565b50505050905090810190601f168015614f2d5780820380516001836020036101000a031916815260200191505b50945050505050600060405180830381600087803b158015614f4e57600080fd5b505af1925050508015614f5f575060015b61502a573d808015614f8d576040519150601f19603f3d011682016040523d82523d6000602084013e614f92565b606091505b50846001600160a01b0316816040518082805190602001908083835b60208310614fcd5780518252601f199092019160209182019101614fae565b51815160209384036101000a6000190180199092169116179052604080519290940182900382208b835293519395507fb3ea7e5141baf21804d12f5a635e83e0cb869c8b06b88648364769f85aa73fc294509083900301919050a3505b50506001805460ff60b01b191690555050565b6000826001600160a01b03166370a08231615056612419565b6040518263ffffffff1660e01b815260040180826001600160a01b0316815260200191505060206040518083038186803b15801561509357600080fd5b505afa1580156150a7573d6000803e3d6000fd5b505050506040513d60208110156150bd57600080fd5b5051905060006150ce848385614553565b9050836001600160a01b0316631ff46bfa8383866040518463ffffffff1660e01b8152600401808481526020018381526020018281526020019350505050600060405180830381600087803b15801561512657600080fd5b505af1925050508015615137575060015b615206573d808015615165576040519150601f19603f3d011682016040523d82523d6000602084013e61516a565b606091505b50806040518082805190602001908083835b6020831061519b5780518252601f19909201916020918201910161517c565b51815160209384036101000a6000190180199092169116179052604080519290940182900382208983529082018890528184018a905292519294507f0917b727c8497d0fc305acafacb424e8c9b12715d2b9b19bee777ef9d134f08f935060609083900301919050a2505b50505050565b606081516000141561521f5750816120e9565b6060835167ffffffffffffffff8111801561523957600080fd5b50604051908082528060200260200182016040528015615263578160200160208202803683370190505b50845190915060005b85518110156152c5576152928587838151811061528557fe5b6020026020010151615398565b156152bd5760018382815181106152a557fe5b91151560209283029190910190910152600019909101905b60010161526c565b5084518114156152d757849250615390565b8015615390578067ffffffffffffffff811180156152f457600080fd5b5060405190808252806020026020018201604052801561531e578160200160208202803683370190505b5092506000805b865181101561538d5783818151811061533a57fe5b60200260200101516153855786818151811061535257fe5b602002602001015185838151811061536657fe5b6001600160a01b03909216602092830291909101909101526001909101905b600101615325565b50505b505092915050565b6000805b83518110156153e4578381815181106153b157fe5b60200260200101516001600160a01b0316836001600160a01b031614156153dc5760019150506120e9565b60010161539c565b5060009392505050565b6153f6612969565b604080516001600160a01b0386811660208301528183018690528251808303840181526060830193849052631dd6705960e21b9093529290921691637759c1649160019185906064018084815260200180602001838152602001828103825284818151815260200191508051906020019080838360005b8381101561548557818101518382015260200161546d565b50505050905090810190601f1680156154b25780820380516001836020036101000a031916815260200191505b50945050505050600060405180830381600087803b158015610b1e57600080fd5b600080856001600160a01b03166370a08231856040518263ffffffff1660e01b815260040180826001600160a01b0316815260200191505060206040518083038186803b15801561552357600080fd5b505afa158015615537573d6000803e3d6000fd5b505050506040513d602081101561554d57600080fd5b505190506155666001600160a01b0387168686866157ec565b6155b781876001600160a01b03166370a08231876040518263ffffffff1660e01b815260040180826001600160a01b0316815260200191505060206040518083038186803b15801561440957600080fd5b9695505050505050565b60006155cd8285614c7c565b90506155d7612969565b604080516001600160a01b0388811660208301528183018890526060808301889052835180840390910181526080830193849052631dd6705960e21b9093529290921691637759c1649160029185906084018084815260200180602001838152602001828103825284818151815260200191508051906020019080838360005b8381101561566f578181015183820152602001615657565b50505050905090810190601f16801561569c5780820380516001836020036101000a031916815260200191505b50945050505050600060405180830381600087803b1580156156bd57600080fd5b505af11580156156d1573d6000803e3d6000fd5b505050506156dd6123f5565b604080516001600160a01b0388811660208301528183018890526060820187905260808083018690528351808403909101815260a0830193849052630442bad560e01b9093523060a483018181529490911693630442bad5939192600092919060c40183815260200180602001828103825283818151815260200191508051906020019080838360005b8381101561577f578181015183820152602001615767565b50505050905090810190601f1680156157ac5780820380516001836020036101000a031916815260200191505b50945050505050600060405180830381600087803b1580156157cd57600080fd5b505af11580156157e1573d6000803e3d6000fd5b505050505050505050565b604080516001600160a01b0380861660248301528416604482015260648082018490528251808303909101815260849091019091526020810180516001600160e01b03166323b872dd60e01b1790526152069085906060615896826040518060400160405280602081526020017f5361666545524332303a206c6f772d6c6576656c2063616c6c206661696c6564815250856001600160a01b03166158f29092919063ffffffff16565b805190915015613259578080602001905160208110156158b557600080fd5b50516132595760405162461bcd60e51b815260040180806020018281038252602a815260200180615de4602a913960400191505060405180910390fd5b60606146f884846000858561590685615a18565b615957576040805162461bcd60e51b815260206004820152601d60248201527f416464726573733a2063616c6c20746f206e6f6e2d636f6e7472616374000000604482015290519081900360640190fd5b60006060866001600160a01b031685876040518082805190602001908083835b602083106159965780518252601f199092019160209182019101615977565b6001836020036101000a03801982511681845116808217855250505050505090500191505060006040518083038185875af1925050503d80600081146159f8576040519150601f19603f3d011682016040523d82523d6000602084013e6159fd565b606091505b5091509150615a0d828286615a1e565b979650505050505050565b3b151590565b60608315615a2d575081611cd5565b825115615a3d5782518084602001fd5b8160405162461bcd60e51b81526004018080602001828103825283818151815260200191508051906020019080838360005b83811015615a87578181015183820152602001615a6f565b50505050905090810190601f168015615ab45780820380516001836020036101000a031916815260200191505b509250505060405180910390fdfe5f5f7061796f7574537065636966696564417373657450657263656e74616765733a2050657263656e7473206d75737420746f74616c20313030255f5f6275795368617265733a20536861726573207265636569766564203c205f6d696e5368617265735175616e7469747972656465656d536861726573466f7253706563696669634173736574733a20556e657175616c2061727261797372656465656d536861726573466f7253706563696669634173736574733a204475706c6963617465207061796f75742061737365745f5f7061796f7574537065636966696564417373657450657263656e74616765733a205a65726f20616d6f756e7420666f722061737365745f5f72656465656d53686172657353657475703a204e6f2073686172657320746f2072656465656d6465706c6f7947617352656c61795061796d61737465723a205061796d617374657220616c7265616479206465706c6f79656463616c6c4f6e457874656e73696f6e3a205f657874656e73696f6e20696e76616c696472656465656d536861726573496e4b696e643a205f6164646974696f6e616c41737365747320636f6e7461696e73206475706c696361746573536166654d6174683a206d756c7469706c69636174696f6e206f766572666c6f775f5f73656c6644657374727563743a204f6e6c792064656c65676174652063616c6c61626c655f5f6275795368617265733a205f6d696e5368617265735175616e74697479206d757374206265203e305f5f6275795368617265733a2050656e64696e67206d6967726174696f6e206f72207265636f6e66696775726174696f6e5f5f6173736572745065726d697373696f6e65645661756c74416374696f6e3a20416374696f6e206e6f7420616c6c6f7765647072655472616e73666572536861726573486f6f6b3a204f6e6c79205661756c7450726f78792063616c6c61626c656275794261636b50726f746f636f6c4665655368617265733a20556e617574686f72697a65647065726d697373696f6e65645661756c74416374696f6e3a2043616e6e6f7420756e747261636b2064656e6f6d696e6174696f6e2061737365745361666545524332303a204552433230206f7065726174696f6e20646964206e6f7420737563636565644f6e6c79204761732052656c6179205061796d61737465722063616c6c61626c6572656465656d536861726573496e4b696e643a205f617373657473546f536b697020636f6e7461696e73206475706c696361746573a26469706673582212201481343778e8ecfce9de1297ba38d6762c32c750a635102a997880e1c337c31864736f6c634300060c0033",
  "linkReferences": {},
  "deployedLinkReferences": {}
}