{
  "_format": "hh-sol-artifact-1",
  "contractName": "AavePriceFeed",
  "sourceName": "contracts/release/infrastructure/price-feeds/derivatives/feeds/AavePriceFeed.sol",
  "abi": [
    {
      "inputs": [
        {
          "internalType": "address",
          "name": "_fundDeployer",
          "type": "address"
        },
        {
          "internalType": "address",
          "name": "_protocolDataProvider",
          "type": "address"
        }
      ],
      "stateMutability": "nonpayable",
      "type": "constructor"
    },
    {
      "anonymous": false,
      "inputs": [
        {
          "indexed": true,
          "internalType": "address",
          "name": "derivative",
          "type": "address"
        },
        {
          "indexed": true,
          "internalType": "address",
          "name": "underlying",
          "type": "address"
        }
      ],
      "name": "DerivativeAdded",
      "type": "event"
    },
    {
      "anonymous": false,
      "inputs": [
        {
          "indexed": true,
          "internalType": "address",
          "name": "derivative",
          "type": "address"
        }
      ],
      "name": "DerivativeRemoved",
      "type": "event"
    },
    {
      "inputs": [
        {
          "internalType": "address[]",
          "name": "_derivatives",
          "type": "address[]"
        },
        {
          "internalType": "address[]",
          "name": "_underlyings",
          "type": "address[]"
        }
      ],
      "name": "addDerivatives",
      "outputs": [],
      "stateMutability": "nonpayable",
      "type": "function"
    },
    {
      "inputs": [
        {
          "internalType": "address",
          "name": "_derivative",
          "type": "address"
        },
        {
          "internalType": "uint256",
          "name": "_derivativeAmount",
          "type": "uint256"
        }
      ],
      "name": "calcUnderlyingValues",
      "outputs": [
        {
          "internalType": "address[]",
          "name": "underlyings_",
          "type": "address[]"
        },
        {
          "internalType": "uint256[]",
          "name": "underlyingAmounts_",
          "type": "uint256[]"
        }
      ],
      "stateMutability": "nonpayable",
      "type": "function"
    },
    {
      "inputs": [],
      "name": "getFundDeployer",
      "outputs": [
        {
          "internalType": "address",
          "name": "fundDeployer_",
          "type": "address"
        }
      ],
      "stateMutability": "view",
      "type": "function"
    },
    {
      "inputs": [],
      "name": "getOwner",
      "outputs": [
        {
          "internalType": "address",
          "name": "owner_",
          "type": "address"
        }
      ],
      "stateMutability": "view",
      "type": "function"
    },
    {
      "inputs": [],
      "name": "getProtocolDataProvider",
      "outputs": [
        {
          "internalType": "address",
          "name": "protocolDataProvider_",
          "type": "address"
        }
      ],
      "stateMutability": "view",
      "type": "function"
    },
    {
      "inputs": [
        {
          "internalType": "address",
          "name": "_derivative",
          "type": "address"
        }
      ],
      "name": "getUnderlyingForDerivative",
      "outputs": [
        {
          "internalType": "address",
          "name": "underlying_",
          "type": "address"
        }
      ],
      "stateMutability": "view",
      "type": "function"
    },
    {
      "inputs": [
        {
          "internalType": "address",
          "name": "_asset",
          "type": "address"
        }
      ],
      "name": "isSupportedAsset",
      "outputs": [
        {
          "internalType": "bool",
          "name": "isSupported_",
          "type": "bool"
        }
      ],
      "stateMutability": "view",
      "type": "function"
    },
    {
      "inputs": [
        {
          "internalType": "address[]",
          "name": "_derivatives",
          "type": "address[]"
        }
      ],
      "name": "removeDerivatives",
      "outputs": [],
      "stateMutability": "nonpayable",
      "type": "function"
    }
  ],
  "bytecode": "0x60c060405234801561001057600080fd5b506040516110e43803806110e48339818101604052604081101561003357600080fd5b508051602091820151606082811b6001600160601b03191660805260408051918201905260328082529293919261007b926110b2908301398261009160201b610b781760201c565b60601b6001600160601b03191660a05250610172565b61014d82826040516024018080602001836001600160a01b03168152602001828103825284818151815260200191508051906020019080838360005b838110156100e55781810151838201526020016100cd565b50505050905090810190601f1680156101125780820380516001836020036101000a031916815260200191505b5060408051601f198184030181529190526020810180516001600160e01b0390811663319af33360e01b179091529094506101511692505050565b5050565b80516a636f6e736f6c652e6c6f67602083016000808483855afa5050505050565b60805160601c60a05160601c610f0d6101a5600039806107ae5250806108af5280610b125280610b395250610f0d6000f3fe608060405234801561001057600080fd5b50600436106100885760003560e01c8063893d20e81161005b578063893d20e8146102c55780638f72b136146102cd57806397c0ac87146103705780639be918e61461037857610088565b806339cbb63c1461008d57806366adb867146101b65780636ec376c2146101f8578063727212f614610200575b600080fd5b6101b4600480360360408110156100a357600080fd5b8101906020810181356401000000008111156100be57600080fd5b8201836020820111156100d057600080fd5b803590602001918460208302840111640100000000831117156100f257600080fd5b919080806020026020016040519081016040528093929190818152602001838360200280828437600092019190915250929594936020810193503591505064010000000081111561014257600080fd5b82018360208201111561015457600080fd5b8035906020019184602083028401116401000000008311171561017657600080fd5b9190808060200260200160405190810160405280939291908181526020018383602002808284376000920191909152509295506103b2945050505050565b005b6101dc600480360360208110156101cc57600080fd5b50356001600160a01b031661078e565b604080516001600160a01b039092168252519081900360200190f35b6101dc6107ac565b61022c6004803603604081101561021657600080fd5b506001600160a01b0381351690602001356107d0565b604051808060200180602001838103835285818151815260200191508051906020019060200280838360005b83811015610270578181015183820152602001610258565b50505050905001838103825284818151815260200191508051906020019060200280838360005b838110156102af578181015183820152602001610297565b5050505090500194505050505060405180910390f35b6101dc6108ab565b6101b4600480360360208110156102e357600080fd5b8101906020810181356401000000008111156102fe57600080fd5b82018360208201111561031057600080fd5b8035906020019184602083028401116401000000008311171561033257600080fd5b919080806020026020016040519081016040528093929190818152602001838360200280828437600092019190915250929550610937945050505050565b6101dc610af2565b61039e6004803603602081101561038e57600080fd5b50356001600160a01b0316610b5b565b604080519115158252519081900360200190f35b6103ba6108ab565b6001600160a01b0316336001600160a01b0316146104095760405162461bcd60e51b8152600401808060200182810382526049815260200180610d1f6049913960600191505060405180910390fd5b60008251116104495760405162461bcd60e51b8152600401808060200182810382526022815260200180610eb66022913960400191505060405180910390fd5b805182511461049f576040805162461bcd60e51b815260206004820152601e60248201527f61646444657269766174697665733a20556e657175616c206172726179730000604482015290519081900360640190fd5b60005b82518110156107895760006001600160a01b03168382815181106104c257fe5b60200260200101516001600160a01b03161415610526576040805162461bcd60e51b815260206004820181905260248201527f61646444657269766174697665733a20456d7074792064657269766174697665604482015290519081900360640190fd5b60006001600160a01b031682828151811061053d57fe5b60200260200101516001600160a01b031614156105a1576040805162461bcd60e51b815260206004820181905260248201527f61646444657269766174697665733a20456d70747920756e6465726c79696e67604482015290519081900360640190fd5b60006001600160a01b03166105c88483815181106105bb57fe5b602002602001015161078e565b6001600160a01b03161461060d5760405162461bcd60e51b8152600401808060200182810382526021815260200180610d686021913960400191505060405180910390fd5b610642604051806060016040528060378152602001610e7f6037913984838151811061063557fe5b6020026020010151610b78565b61066a604051806060016040528060378152602001610d896037913983838151811061063557fe5b61068b604051806060016040528060398152602001610e4660399139610c2f565b81818151811061069757fe5b60200260200101516000808584815181106106ae57fe5b60200260200101516001600160a01b03166001600160a01b0316815260200190815260200160002060006101000a8154816001600160a01b0302191690836001600160a01b0316021790555061071b6040518060600160405280602d8152602001610de9602d9139610c2f565b81818151811061072757fe5b60200260200101516001600160a01b031683828151811061074457fe5b60200260200101516001600160a01b03167faa4ae250fb435bb4b31ed0b95822bc179fc6c5dd0c727c3ffe08d444025efd9860405160405180910390a36001016104a2565b505050565b6001600160a01b039081166000908152602081905260409020541690565b7f000000000000000000000000000000000000000000000000000000000000000090565b60608060006107de8561078e565b90506001600160a01b0381166108255760405162461bcd60e51b8152600401808060200182810382526030815260200180610e166030913960400191505060405180910390fd5b6040805160018082528183019092529060208083019080368337019050509250808360008151811061085357fe5b6001600160a01b0392909216602092830291909101820152604080516001808252818301909252918281019080368337019050509150838260008151811061089757fe5b602002602001018181525050509250929050565b60007f00000000000000000000000000000000000000000000000000000000000000006001600160a01b031663893d20e86040518163ffffffff1660e01b815260040160206040518083038186803b15801561090657600080fd5b505afa15801561091a573d6000803e3d6000fd5b505050506040513d602081101561093057600080fd5b5051905090565b61093f6108ab565b6001600160a01b0316336001600160a01b03161461098e5760405162461bcd60e51b8152600401808060200182810382526049815260200180610d1f6049913960600191505060405180910390fd5b60008151116109ce5760405162461bcd60e51b8152600401808060200182810382526025815260200180610cfa6025913960400191505060405180910390fd5b60005b8151811015610aee5760006001600160a01b03166109f48383815181106105bb57fe5b6001600160a01b03161415610a50576040805162461bcd60e51b815260206004820181905260248201527f72656d6f766544657269766174697665733a2056616c7565206e6f7420736574604482015290519081900360640190fd5b600080838381518110610a5f57fe5b60200260200101516001600160a01b03166001600160a01b0316815260200190815260200160002060006101000a8154906001600160a01b030219169055818181518110610aa957fe5b60200260200101516001600160a01b03167fc15eb25d807b570f4567baf6e97c7b26d58a7d0512dc85e8db15375a056b860460405160405180910390a26001016109d1565b5050565b6000610b36604051806060016040528060298152602001610dc0602991397f0000000000000000000000000000000000000000000000000000000000000000610b78565b507f000000000000000000000000000000000000000000000000000000000000000090565b600080610b678361078e565b6001600160a01b0316141592915050565b610aee82826040516024018080602001836001600160a01b03168152602001828103825284818151815260200191508051906020019080838360005b83811015610bcc578181015183820152602001610bb4565b50505050905090810190601f168015610bf95780820380516001836020036101000a031916815260200191505b5060408051601f198184030181529190526020810180516001600160e01b031663319af33360e01b1790529350610cd892505050565b610cd5816040516024018080602001828103825283818151815260200191508051906020019080838360005b83811015610c73578181015183820152602001610c5b565b50505050905090810190601f168015610ca05780820380516001836020036101000a031916815260200191505b5060408051601f198184030181529190526020810180516001600160e01b031663104c13eb60e21b1790529250610cd8915050565b50565b80516a636f6e736f6c652e6c6f67602083016000808483855afa505050505056fe72656d6f766544657269766174697665733a20456d707479205f64657269766174697665736f6e6c7946756e644465706c6f7965724f776e65723a204f6e6c79207468652046756e644465706c6f796572206f776e65722063616e2063616c6c20746869732066756e6374696f6e61646444657269766174697665733a2056616c756520616c72656164792073657453696e676c65556e6465726c79696e674465726976617469766552656769737472794d6978696e205f756e6465726c79696e67733a257346756e644465706c6f7965724f776e65724d6978696e3a67657446756e644465706c6f7965723a257353696e676c65556e6465726c79696e674465726976617469766552656769737472794d6978696e20616164656463616c63556e6465726c79696e6756616c7565733a204e6f74206120737570706f72746564206465726976617469766553696e676c65556e6465726c79696e674465726976617469766552656769737472794d6978696e207061737365642076616c69646174696f6e53696e676c65556e6465726c79696e674465726976617469766552656769737472794d6978696e205f64657269766174697665733a257361646444657269766174697665733a20456d707479205f6465726976617469766573a264697066735822122031ccfd04a5cce78a8799aad7cdb4f9de58e1b80b2fe15eefd933b8e56e95d07064736f6c634300060c00334161766550726963654665656420636f6e7374727563746f72205f70726f746f636f6c4461746150726f76696465723a2573",
  "linkReferences": {},
  "deployedLinkReferences": {}
}