{
  "_format": "hh-sol-artifact-1",
  "contractName": "TestSingleUnderlyingDerivativeRegistry",
  "sourceName": "contracts/test/TestSingleUnderlyingDerivativeRegistry.sol",
  "abi": [
    {
      "inputs": [
        {
          "internalType": "address",
          "name": "_dispatcher",
          "type": "address"
        }
      ],
      "stateMutability": "nonpayable",
      "type": "constructor"
    },
    {
      "anonymous": false,
      "inputs": [
        {
          "indexed": true,
          "internalType": "address",
          "name": "derivative",
          "type": "address"
        },
        {
          "indexed": true,
          "internalType": "address",
          "name": "underlying",
          "type": "address"
        }
      ],
      "name": "DerivativeAdded",
      "type": "event"
    },
    {
      "anonymous": false,
      "inputs": [
        {
          "indexed": true,
          "internalType": "address",
          "name": "derivative",
          "type": "address"
        }
      ],
      "name": "DerivativeRemoved",
      "type": "event"
    },
    {
      "inputs": [
        {
          "internalType": "address[]",
          "name": "_derivatives",
          "type": "address[]"
        },
        {
          "internalType": "address[]",
          "name": "_underlyings",
          "type": "address[]"
        }
      ],
      "name": "addDerivatives",
      "outputs": [],
      "stateMutability": "nonpayable",
      "type": "function"
    },
    {
      "inputs": [],
      "name": "getFundDeployer",
      "outputs": [
        {
          "internalType": "address",
          "name": "fundDeployer_",
          "type": "address"
        }
      ],
      "stateMutability": "view",
      "type": "function"
    },
    {
      "inputs": [],
      "name": "getOwner",
      "outputs": [
        {
          "internalType": "address",
          "name": "owner_",
          "type": "address"
        }
      ],
      "stateMutability": "view",
      "type": "function"
    },
    {
      "inputs": [
        {
          "internalType": "address",
          "name": "_derivative",
          "type": "address"
        }
      ],
      "name": "getUnderlyingForDerivative",
      "outputs": [
        {
          "internalType": "address",
          "name": "underlying_",
          "type": "address"
        }
      ],
      "stateMutability": "view",
      "type": "function"
    },
    {
      "inputs": [
        {
          "internalType": "address[]",
          "name": "_derivatives",
          "type": "address[]"
        }
      ],
      "name": "removeDerivatives",
      "outputs": [],
      "stateMutability": "nonpayable",
      "type": "function"
    }
  ],
  "bytecode": "0x60a060405234801561001057600080fd5b50604051610cfa380380610cfa8339818101604052602081101561003357600080fd5b5051606081901b6001600160601b0319166080526001600160a01b0316610c896100716000398061067852806108db52806109025250610c896000f3fe608060405234801561001057600080fd5b50600436106100575760003560e01c806339cbb63c1461005c57806366adb86714610185578063893d20e8146101c75780638f72b136146101cf57806397c0ac8714610272575b600080fd5b6101836004803603604081101561007257600080fd5b81019060208101813564010000000081111561008d57600080fd5b82018360208201111561009f57600080fd5b803590602001918460208302840111640100000000831117156100c157600080fd5b919080806020026020016040519081016040528093929190818152602001838360200280828437600092019190915250929594936020810193503591505064010000000081111561011157600080fd5b82018360208201111561012357600080fd5b8035906020019184602083028401116401000000008311171561014557600080fd5b91908080602002602001604051908101604052809392919081815260200183836020028082843760009201919091525092955061027a945050505050565b005b6101ab6004803603602081101561019b57600080fd5b50356001600160a01b0316610656565b604080516001600160a01b039092168252519081900360200190f35b6101ab610674565b610183600480360360208110156101e557600080fd5b81019060208101813564010000000081111561020057600080fd5b82018360208201111561021257600080fd5b8035906020019184602083028401116401000000008311171561023457600080fd5b919080806020026020016040519081016040528093929190818152602001838360200280828437600092019190915250929550610700945050505050565b6101ab6108bb565b610282610674565b6001600160a01b0316336001600160a01b0316146102d15760405162461bcd60e51b8152600401808060200182810382526049815260200180610acb6049913960600191505060405180910390fd5b60008251116103115760405162461bcd60e51b8152600401808060200182810382526022815260200180610c326022913960400191505060405180910390fd5b8051825114610367576040805162461bcd60e51b815260206004820152601e60248201527f61646444657269766174697665733a20556e657175616c206172726179730000604482015290519081900360640190fd5b60005b82518110156106515760006001600160a01b031683828151811061038a57fe5b60200260200101516001600160a01b031614156103ee576040805162461bcd60e51b815260206004820181905260248201527f61646444657269766174697665733a20456d7074792064657269766174697665604482015290519081900360640190fd5b60006001600160a01b031682828151811061040557fe5b60200260200101516001600160a01b03161415610469576040805162461bcd60e51b815260206004820181905260248201527f61646444657269766174697665733a20456d70747920756e6465726c79696e67604482015290519081900360640190fd5b60006001600160a01b031661049084838151811061048357fe5b6020026020010151610656565b6001600160a01b0316146104d55760405162461bcd60e51b8152600401808060200182810382526021815260200180610b146021913960400191505060405180910390fd5b61050a604051806060016040528060378152602001610bfb603791398483815181106104fd57fe5b6020026020010151610924565b610532604051806060016040528060378152602001610b35603791398383815181106104fd57fe5b610553604051806060016040528060398152602001610bc2603991396109db565b81818151811061055f57fe5b602002602001015160008085848151811061057657fe5b60200260200101516001600160a01b03166001600160a01b0316815260200190815260200160002060006101000a8154816001600160a01b0302191690836001600160a01b031602179055506105e36040518060600160405280602d8152602001610b95602d91396109db565b8181815181106105ef57fe5b60200260200101516001600160a01b031683828151811061060c57fe5b60200260200101516001600160a01b03167faa4ae250fb435bb4b31ed0b95822bc179fc6c5dd0c727c3ffe08d444025efd9860405160405180910390a360010161036a565b505050565b6001600160a01b039081166000908152602081905260409020541690565b60007f00000000000000000000000000000000000000000000000000000000000000006001600160a01b031663893d20e86040518163ffffffff1660e01b815260040160206040518083038186803b1580156106cf57600080fd5b505afa1580156106e3573d6000803e3d6000fd5b505050506040513d60208110156106f957600080fd5b5051905090565b610708610674565b6001600160a01b0316336001600160a01b0316146107575760405162461bcd60e51b8152600401808060200182810382526049815260200180610acb6049913960600191505060405180910390fd5b60008151116107975760405162461bcd60e51b8152600401808060200182810382526025815260200180610aa66025913960400191505060405180910390fd5b60005b81518110156108b75760006001600160a01b03166107bd83838151811061048357fe5b6001600160a01b03161415610819576040805162461bcd60e51b815260206004820181905260248201527f72656d6f766544657269766174697665733a2056616c7565206e6f7420736574604482015290519081900360640190fd5b60008083838151811061082857fe5b60200260200101516001600160a01b03166001600160a01b0316815260200190815260200160002060006101000a8154906001600160a01b03021916905581818151811061087257fe5b60200260200101516001600160a01b03167fc15eb25d807b570f4567baf6e97c7b26d58a7d0512dc85e8db15375a056b860460405160405180910390a260010161079a565b5050565b60006108ff604051806060016040528060298152602001610b6c602991397f0000000000000000000000000000000000000000000000000000000000000000610924565b507f000000000000000000000000000000000000000000000000000000000000000090565b6108b782826040516024018080602001836001600160a01b03168152602001828103825284818151815260200191508051906020019080838360005b83811015610978578181015183820152602001610960565b50505050905090810190601f1680156109a55780820380516001836020036101000a031916815260200191505b5060408051601f198184030181529190526020810180516001600160e01b031663319af33360e01b1790529350610a8492505050565b610a81816040516024018080602001828103825283818151815260200191508051906020019080838360005b83811015610a1f578181015183820152602001610a07565b50505050905090810190601f168015610a4c5780820380516001836020036101000a031916815260200191505b5060408051601f198184030181529190526020810180516001600160e01b031663104c13eb60e21b1790529250610a84915050565b50565b80516a636f6e736f6c652e6c6f67602083016000808483855afa505050505056fe72656d6f766544657269766174697665733a20456d707479205f64657269766174697665736f6e6c7946756e644465706c6f7965724f776e65723a204f6e6c79207468652046756e644465706c6f796572206f776e65722063616e2063616c6c20746869732066756e6374696f6e61646444657269766174697665733a2056616c756520616c72656164792073657453696e676c65556e6465726c79696e674465726976617469766552656769737472794d6978696e205f756e6465726c79696e67733a257346756e644465706c6f7965724f776e65724d6978696e3a67657446756e644465706c6f7965723a257353696e676c65556e6465726c79696e674465726976617469766552656769737472794d6978696e20616164656453696e676c65556e6465726c79696e674465726976617469766552656769737472794d6978696e207061737365642076616c69646174696f6e53696e676c65556e6465726c79696e674465726976617469766552656769737472794d6978696e205f64657269766174697665733a257361646444657269766174697665733a20456d707479205f6465726976617469766573a264697066735822122033480ce6dc36f1cd4b45fe0249a602d8ac78ef3fae864bbef1ce940377c2f39464736f6c634300060c0033",
  "linkReferences": {},
  "deployedLinkReferences": {}
}