{
  "_format": "hh-sol-artifact-1",
  "contractName": "UniswapV3LiquidityPositionLib",
  "sourceName": "contracts/release/extensions/external-position-manager/external-positions/uniswap-v3-liquidity/UniswapV3LiquidityPositionLib.sol",
  "abi": [
    {
      "inputs": [
        {
          "internalType": "address",
          "name": "_nonFungibleTokenManager",
          "type": "address"
        },
        {
          "internalType": "address",
          "name": "_valueInterpreter",
          "type": "address"
        }
      ],
      "stateMutability": "nonpayable",
      "type": "constructor"
    },
    {
      "anonymous": false,
      "inputs": [
        {
          "indexed": false,
          "internalType": "address",
          "name": "token0",
          "type": "address"
        },
        {
          "indexed": false,
          "internalType": "address",
          "name": "token1",
          "type": "address"
        }
      ],
      "name": "Initialized",
      "type": "event"
    },
    {
      "anonymous": false,
      "inputs": [
        {
          "indexed": true,
          "internalType": "uint256",
          "name": "tokenId",
          "type": "uint256"
        }
      ],
      "name": "NFTPositionAdded",
      "type": "event"
    },
    {
      "anonymous": false,
      "inputs": [
        {
          "indexed": true,
          "internalType": "uint256",
          "name": "tokenId",
          "type": "uint256"
        }
      ],
      "name": "NFTPositionRemoved",
      "type": "event"
    },
    {
      "inputs": [],
      "name": "getDebtAssets",
      "outputs": [
        {
          "internalType": "address[]",
          "name": "assets_",
          "type": "address[]"
        },
        {
          "internalType": "uint256[]",
          "name": "amounts_",
          "type": "uint256[]"
        }
      ],
      "stateMutability": "pure",
      "type": "function"
    },
    {
      "inputs": [],
      "name": "getManagedAssets",
      "outputs": [
        {
          "internalType": "address[]",
          "name": "assets_",
          "type": "address[]"
        },
        {
          "internalType": "uint256[]",
          "name": "amounts_",
          "type": "uint256[]"
        }
      ],
      "stateMutability": "nonpayable",
      "type": "function"
    },
    {
      "inputs": [],
      "name": "getNftIds",
      "outputs": [
        {
          "internalType": "uint256[]",
          "name": "nftIds_",
          "type": "uint256[]"
        }
      ],
      "stateMutability": "view",
      "type": "function"
    },
    {
      "inputs": [],
      "name": "getNonFungibleTokenManager",
      "outputs": [
        {
          "internalType": "address",
          "name": "nonFungibleTokenManager_",
          "type": "address"
        }
      ],
      "stateMutability": "view",
      "type": "function"
    },
    {
      "inputs": [],
      "name": "getPair",
      "outputs": [
        {
          "internalType": "address",
          "name": "token0_",
          "type": "address"
        },
        {
          "internalType": "address",
          "name": "token1_",
          "type": "address"
        }
      ],
      "stateMutability": "view",
      "type": "function"
    },
    {
      "inputs": [],
      "name": "getToken0",
      "outputs": [
        {
          "internalType": "address",
          "name": "token0_",
          "type": "address"
        }
      ],
      "stateMutability": "view",
      "type": "function"
    },
    {
      "inputs": [],
      "name": "getToken1",
      "outputs": [
        {
          "internalType": "address",
          "name": "token1_",
          "type": "address"
        }
      ],
      "stateMutability": "view",
      "type": "function"
    },
    {
      "inputs": [],
      "name": "getValueInterpreter",
      "outputs": [
        {
          "internalType": "address",
          "name": "valueInterpreter_",
          "type": "address"
        }
      ],
      "stateMutability": "view",
      "type": "function"
    },
    {
      "inputs": [
        {
          "internalType": "bytes",
          "name": "_initArgs",
          "type": "bytes"
        }
      ],
      "name": "init",
      "outputs": [],
      "stateMutability": "nonpayable",
      "type": "function"
    },
    {
      "inputs": [
        {
          "internalType": "bytes",
          "name": "_actionData",
          "type": "bytes"
        }
      ],
      "name": "receiveCallFromVault",
      "outputs": [],
      "stateMutability": "nonpayable",
      "type": "function"
    }
  ],
  "bytecode": "0x60c06040523480156200001157600080fd5b5060405162002e3638038062002e36833981016040819052620000349162000066565b6001600160601b0319606092831b8116608052911b1660a052620000d1565b80516200006081620000b7565b92915050565b600080604083850312156200007a57600080fd5b600062000088858562000053565b92505060206200009b8582860162000053565b9150509250929050565b60006001600160a01b03821662000060565b620000c281620000a5565b8114620000ce57600080fd5b50565b60805160601c60a05160601c612d36620001006000398061039d52806105165250806102395250612d366000f3fe608060405234801561001057600080fd5b506004361061009e5760003560e01c8063875fb4b311610066578063875fb4b314610109578063ba94a31514610111578063c1f1b1b514610119578063e5c23a971461012f578063ecd658b4146101425761009e565b80634ddf47d4146100a35780636904481a146100b85780636f26a710146100d6578063804ff143146100de57806380daddb8146100f3575b600080fd5b6100b66100b1366004612414565b61014a565b005b6100c0610237565b6040516100cd9190612a28565b60405180910390f35b6100c061025b565b6100e661026a565b6040516100cd9190612a9e565b6100fb6102c2565b6040516100cd929190612a79565b6100c0610514565b6100c0610538565b610121610547565b6040516100cd929190612a36565b6100b661013d366004612414565b610562565b6100fb61075a565b6001546001600160a01b03161561017c5760405162461bcd60e51b815260040161017390612ad0565b60405180910390fd5b60008061018883610760565b600180546001600160a01b038085166001600160a01b031992831617909255600280549284169290911691909117905590925090506101db6101c8610237565b6001600160a01b0384169060001961078b565b6101f96101e6610237565b6001600160a01b0383169060001961078b565b7f3cd5ec01b1ae7cfec6ca1863e2cd6aa25d6d1702825803ff2b7cc95010fffdc2828260405161022a929190612a36565b60405180910390a1505050565b7f000000000000000000000000000000000000000000000000000000000000000090565b6002546001600160a01b031690565b606060008054806020026020016040519081016040528092919081815260200182805480156102b857602002820191906000526020600020905b8154815260200190600101908083116102a4575b5050505050905090565b60608060006102cf61026a565b90508051600014156102e15750610510565b60408051600280825260608201835290916020830190803683375050604080516002808252606082018352939650929150602083019080368337019050509150600061032b610538565b9050600061033761025b565b9050818560008151811061034757fe5b60200260200101906001600160a01b031690816001600160a01b031681525050808560018151811061037557fe5b6001600160a01b039283166020918202929092010152604051632633f08360e11b81526000917f00000000000000000000000000000000000000000000000000000000000000001690634c67e106906103de908590670de0b6b3a7640000908890600401612a51565b602060405180830381600087803b1580156103f857600080fd5b505af115801561040c573d6000803e3d6000fd5b505050506040513d601f19601f820116820180604052508101906104309190612496565b9050600061045c61045783610451600160c01b670de0b6b3a764000061089e565b90610900565b610967565b905060005b855181101561050957600080610492610478610237565b89858151811061048457fe5b6020026020010151866109b9565b915091506104bd828a6000815181106104a757fe5b60200260200101516109ec90919063ffffffff16565b896000815181106104ca57fe5b6020026020010181815250506104e7818a6001815181106104a757fe5b896001815181106104f457fe5b60209081029190910101525050600101610461565b5050505050505b9091565b7f000000000000000000000000000000000000000000000000000000000000000090565b6001546001600160a01b031690565b600080610552610538565b61055a61025b565b915091509091565b6000808280602001905181019061057991906124b4565b90925090508161062e57600080600080600080600061059788610a46565b60408051610160810182526001546001600160a01b03908116825260028054909116602083015262ffffff8a169282019290925287820b60608201529086900b608082015260a0810185905260c0810184905260e0810183905261010081018290523061012082015242610140820152969d50949b5092995090975095509350915061062290610a9e565b50505050505050610755565b600182141561069157600080600080600061064886610cdb565b945094509450945094506106876040518060c0016040528087815260200186815260200185815260200184815260200183815260200142815250610d21565b5050505050610755565b60028214156106f2576000806000806106a985610ef8565b93509350935093506106e96040518060a00160405280868152602001856001600160801b0316815260200184815260200183815260200142815250610f35565b50505050610755565b600482141561071e5760008060008061070a85610ef8565b93509350935093506106e984848484610fc9565b600382141561073d57610738610733826111e8565b611207565b610755565b60405162461bcd60e51b815260040161017390612ac0565b505050565b60608091565b60008082806020019051604081101561077857600080fd5b5080516020909101519092509050915091565b801580610811575060408051636eb1769f60e11b81523060048201526001600160a01b03848116602483015291519185169163dd62ed3e91604480820192602092909190829003018186803b1580156107e357600080fd5b505afa1580156107f7573d6000803e3d6000fd5b505050506040513d602081101561080d57600080fd5b5051155b61084c5760405162461bcd60e51b8152600401808060200182810382526036815260200180612ccb6036913960400191505060405180910390fd5b604080516001600160a01b038416602482015260448082018490528251808303909101815260649091019091526020810180516001600160e01b031663095ea7b360e01b1790526107559084906112b1565b6000826108ad575060006108fa565b828202828482816108ba57fe5b04146108f75760405162461bcd60e51b8152600401808060200182810382526021815260200180612c806021913960400191505060405180910390fd5b90505b92915050565b6000808211610956576040805162461bcd60e51b815260206004820152601a60248201527f536166654d6174683a206469766973696f6e206279207a65726f000000000000604482015290519081900360640190fd5b81838161095f57fe5b049392505050565b600060038211156109aa575080600160028204015b818110156109a45780915060028182858161099357fe5b04018161099c57fe5b04905061097c565b506109b4565b81156109b4575060015b919050565b6000806000806109ca878787611362565b915091506000806109db898961141e565b940195505050019050935093915050565b6000828201838110156108f7576040805162461bcd60e51b815260206004820152601b60248201527f536166654d6174683a206164646974696f6e206f766572666c6f770000000000604482015290519081900360640190fd5b60008060008060008060008780602001905160e0811015610a6657600080fd5b508051602082015160408301516060840151608085015160a086015160c090960151949e939d50919b50995097509195509350915050565b6000806000610aab610237565b6001600160a01b03166388316456856040518263ffffffff1660e01b8152600401610ad69190612b0a565b608060405180830381600087803b158015610af057600080fd5b505af1158015610b04573d6000803e3d6000fd5b505050506040513d601f19601f82011682018060405250810190610b289190612506565b600080546001810182559080527f290decd9548b62a8d60345a988386fc84ba6bc95484008f6362f93160ef3e5630184905560a0880151939650909450925050821015610c0557610c053385600001516001600160a01b03166370a08231306040518263ffffffff1660e01b8152600401610ba39190612a28565b60206040518083038186803b158015610bbb57600080fd5b505afa158015610bcf573d6000803e3d6000fd5b505050506040513d601f19601f82011682018060405250810190610bf39190612496565b86516001600160a01b031691906115d1565b8360c00151811015610caa57610caa3385602001516001600160a01b03166370a08231306040518263ffffffff1660e01b8152600401610c459190612a28565b60206040518083038186803b158015610c5d57600080fd5b505afa158015610c71573d6000803e3d6000fd5b505050506040513d601f19601f82011682018060405250810190610c959190612496565b60208701516001600160a01b031691906115d1565b60405183907fa831009a1dec500e6875fc241cfbe036162eb78da63101cbd7bfa24eaef48b3a90600090a250505050565b60008060008060008580602001905160a0811015610cf857600080fd5b508051602082015160408301516060840151608090940151929a91995097509195509350915050565b600080610d2c610237565b6001600160a01b031663219f5d17846040518263ffffffff1660e01b8152600401610d579190612afc565b606060405180830381600087803b158015610d7157600080fd5b505af1158015610d85573d6000803e3d6000fd5b505050506040513d601f19601f82011682018060405250810190610da99190612449565b92509250508260200151821015610e53576001546040516370a0823160e01b8152610e539133916001600160a01b03909116906370a0823190610df0903090600401612a28565b60206040518083038186803b158015610e0857600080fd5b505afa158015610e1c573d6000803e3d6000fd5b505050506040513d601f19601f82011682018060405250810190610e409190612496565b6001546001600160a01b031691906115d1565b8260400151811015610755576002546040516370a0823160e01b81526107559133916001600160a01b03909116906370a0823190610e95903090600401612a28565b60206040518083038186803b158015610ead57600080fd5b505afa158015610ec1573d6000803e3d6000fd5b505050506040513d601f19601f82011682018060405250810190610ee59190612496565b6002546001600160a01b031691906115d1565b600080600080848060200190516080811015610f1357600080fd5b5080516020820151604083015160609093015191989097509195509350915050565b610f3d610237565b6001600160a01b0316630c49ccbe826040518263ffffffff1660e01b8152600401610f689190612aee565b6040805180830381600087803b158015610f8157600080fd5b505af1158015610f95573d6000803e3d6000fd5b505050506040513d601f19601f82011682018060405250810190610fb99190612567565b50508051610fc690611207565b50565b6001600160801b038381161415610fe657610fe384611623565b92505b6001600160801b038316156110ab57610ffd610237565b6001600160a01b0316630c49ccbe6040518060a00160405280878152602001866001600160801b03168152602001858152602001848152602001428152506040518263ffffffff1660e01b81526004016110579190612aee565b6040805180830381600087803b15801561107057600080fd5b505af1158015611084573d6000803e3d6000fd5b505050506040513d601f19601f820116820180604052508101906110a89190612567565b50505b6110b484611207565b6110bc610237565b6001600160a01b03166342966c68856040518263ffffffff1660e01b81526004016110e79190612b19565b600060405180830381600087803b15801561110157600080fd5b505af1158015611115573d6000803e3d6000fd5b505060008054925090505b818110156111b557856000828154811061113657fe5b906000526020600020015414156111ad5760018203811015611187576000600183038154811061116257fe5b90600052602060002001546000828154811061117a57fe5b6000918252602090912001555b600080548061119257fe5b600190038181906000526020600020016000905590556111b5565b600101611120565b5060405185907fb308fd4e2abaef716bcb96e9c382d61e5917345fd816de0d20278a23fbe109c790600090a25050505050565b60008180602001905160208110156111ff57600080fd5b505192915050565b61120f610237565b604080516080810182528381523360208201526001600160801b038183018190526060820152905163fc6f786560e01b81526001600160a01b03929092169163fc6f78659161126091600401612ae0565b6040805180830381600087803b15801561127957600080fd5b505af115801561128d573d6000803e3d6000fd5b505050506040513d601f19601f820116820180604052508101906107559190612567565b6000611306826040518060400160405280602081526020017f5361666545524332303a206c6f772d6c6576656c2063616c6c206661696c6564815250856001600160a01b03166117199092919063ffffffff16565b8051909150156107555780806020019051602081101561132557600080fd5b50516107555760405162461bcd60e51b815260040180806020018281038252602a815260200180612ca1602a913960400191505060405180910390fd5b6000806000806000876001600160a01b03166399fbab88886040518263ffffffff1660e01b8152600401808281526020019150506101806040518083038186803b1580156113af57600080fd5b505afa1580156113c3573d6000803e3d6000fd5b505050506040513d6101808110156113da57600080fd5b5060a081015160c082015160e090920151909450909250905061140f8661140085611732565b61140985611732565b84611a64565b94509450505050935093915050565b6000806000806000806000806000806000808d6001600160a01b03166399fbab888e6040518263ffffffff1660e01b8152600401808281526020019150506101806040518083038186803b15801561147557600080fd5b505afa158015611489573d6000803e3d6000fd5b505050506040513d6101808110156114a057600080fd5b810190808051906020019092919080519060200190929190805190602001909291908051906020019092919080519060200190929190805190602001909291908051906020019092919080519060200190929190805190602001909291908051906020019092919080519060200190929190805190602001909291905050506001600160801b03169b506001600160801b03169b509b509b509b509b509b509b509b509b5050506115bc8e6040518061014001604052808d6001600160a01b031681526020018c6001600160a01b031681526020018b62ffffff1681526020018a60020b81526020018960020b8152602001886001600160801b0316815260200187815260200186815260200185815260200184815250611b00565b9b509b50505050505050505050509250929050565b604080516001600160a01b038416602482015260448082018490528251808303909101815260649091019091526020810180516001600160e01b031663a9059cbb60e01b1790526107559084906112b1565b6000806000611630610237565b6001600160a01b03166399fbab8860e01b856040516024016116529190612b19565b60408051601f198184030181529181526020820180516001600160e01b03166001600160e01b03199094169390931790925290516116909190612a1c565b600060405180830381855afa9150503d80600081146116cb576040519150601f19603f3d011682016040523d82523d6000602084013e6116d0565b606091505b50915091508181906116f55760405162461bcd60e51b81526004016101739190612aaf565b508080602001905181019061170a9190612597565b9b9a5050505050505050505050565b60606117288484600085611c1e565b90505b9392505050565b60008060008360020b12611749578260020b611751565b8260020b6000035b9050620d89e881111561178f576040805162461bcd60e51b81526020600482015260016024820152601560fa1b604482015290519081900360640190fd5b6000600182166117a357600160801b6117b5565b6ffffcb933bd6fad37aa2d162d1a5940015b70ffffffffffffffffffffffffffffffffff16905060028216156117e9576ffff97272373d413259a46990580e213a0260801c5b6004821615611808576ffff2e50f5f656932ef12357cf3c7fdcc0260801c5b6008821615611827576fffe5caca7e10e4e61c3624eaa0941cd00260801c5b6010821615611846576fffcb9843d60f6159c9db58835c9266440260801c5b6020821615611865576fff973b41fa98c081472e6896dfb254c00260801c5b6040821615611884576fff2ea16466c96a3843ec78b326b528610260801c5b60808216156118a3576ffe5dee046a99a2a811c461f1969c30530260801c5b6101008216156118c3576ffcbe86c7900a88aedcffc83b479aa3a40260801c5b6102008216156118e3576ff987a7253ac413176f2b074cf7815e540260801c5b610400821615611903576ff3392b0822b70005940c7a398e4b70f30260801c5b610800821615611923576fe7159475a2c29b7443b29c7fa6e889d90260801c5b611000821615611943576fd097f3bdfd2022b8845ad8f792aa58250260801c5b612000821615611963576fa9f746462d870fdf8a65dc1f90e061e50260801c5b614000821615611983576f70d869a156d2a1b890bb3df62baf32f70260801c5b6180008216156119a3576f31be135f97d08fd981231505542fcfa60260801c5b620100008216156119c4576f09aa508b5b7a84e1c677de54f3e99bc90260801c5b620200008216156119e4576e5d6af8dedb81196699c329225ee6040260801c5b62040000821615611a03576d2216e584f5fa1ea926041bedfe980260801c5b62080000821615611a20576b048a170391f7dc42444e8fa20260801c5b60008460020b1315611a3b578060001981611a3757fe5b0490505b640100000000810615611a4f576001611a52565b60005b60ff16602082901c0192505050919050565b600080836001600160a01b0316856001600160a01b03161115611a85579293925b846001600160a01b0316866001600160a01b031611611ab057611aa9858585611d7b565b9150611af7565b836001600160a01b0316866001600160a01b03161015611ae957611ad5868585611d7b565b9150611ae2858785611de4565b9050611af7565b611af4858585611de4565b90505b94509492505050565b600080600080611bbb611bac876001600160a01b031663c45a01556040518163ffffffff1660e01b815260040160206040518083038186803b158015611b4557600080fd5b505afa158015611b59573d6000803e3d6000fd5b505050506040513d6020811015611b6f57600080fd5b50516040805160608101825289516001600160a01b03908116825260208b810151909116908201528982015162ffffff1691810191909152611e27565b86606001518760800151611f0b565b91509150846101000151611be78660c0015184038760a001516001600160801b0316600160801b6121c8565b019350846101200151611c128660e0015183038760a001516001600160801b0316600160801b6121c8565b01925050509250929050565b606082471015611c5f5760405162461bcd60e51b8152600401808060200182810382526026815260200180612c5a6026913960400191505060405180910390fd5b611c6885612277565b611cb9576040805162461bcd60e51b815260206004820152601d60248201527f416464726573733a2063616c6c20746f206e6f6e2d636f6e7472616374000000604482015290519081900360640190fd5b600080866001600160a01b031685876040518082805190602001908083835b60208310611cf75780518252601f199092019160209182019101611cd8565b6001836020036101000a03801982511681845116808217855250505050505090500191505060006040518083038185875af1925050503d8060008114611d59576040519150601f19603f3d011682016040523d82523d6000602084013e611d5e565b606091505b5091509150611d6e82828661227d565b925050505b949350505050565b6000826001600160a01b0316846001600160a01b03161115611d9b579192915b836001600160a01b0316611dd4606060ff16846001600160801b0316901b8686036001600160a01b0316866001600160a01b03166121c8565b81611ddb57fe5b04949350505050565b6000826001600160a01b0316846001600160a01b03161115611e04579192915b611728826001600160801b03168585036001600160a01b0316600160601b6121c8565b600081602001516001600160a01b031682600001516001600160a01b031610611e4f57600080fd5b50805160208083015160409384015184516001600160a01b0394851681850152939091168385015262ffffff166060808401919091528351808403820181526080840185528051908301206001600160f81b031960a085015294901b6bffffffffffffffffffffffff191660a183015260b58201939093527fe34f199b19b2b4f47f68442619d555527d244f78a3297ea89325f843f87b8b5460d5808301919091528251808303909101815260f5909101909152805191012090565b6000806000856001600160a01b0316633850c7bd6040518163ffffffff1660e01b815260040160e06040518083038186803b158015611f4957600080fd5b505afa158015611f5d573d6000803e3d6000fd5b505050506040513d60e0811015611f7357600080fd5b50602001516040805163f30dba9360e01b8152600288900b6004820152905191925060009182916001600160a01b038a169163f30dba939160248082019261010092909190829003018186803b158015611fcc57600080fd5b505afa158015611fe0573d6000803e3d6000fd5b505050506040513d610100811015611ff757600080fd5b50604080820151606090920151815163f30dba9360e01b815260028a900b60048201529151929450925060009182916001600160a01b038c169163f30dba939160248082019261010092909190829003018186803b15801561205857600080fd5b505afa15801561206c573d6000803e3d6000fd5b505050506040513d61010081101561208357600080fd5b5060408101516060909101519092509050600289810b9086900b12156120b257818403965080830395506121bb565b8760020b8560020b12156121b05760008a6001600160a01b031663f30583996040518163ffffffff1660e01b815260040160206040518083038186803b1580156120fb57600080fd5b505afa15801561210f573d6000803e3d6000fd5b505050506040513d602081101561212557600080fd5b505160408051634614131960e01b815290519192506000916001600160a01b038e16916346141319916004808301926020929190829003018186803b15801561216d57600080fd5b505afa158015612181573d6000803e3d6000fd5b505050506040513d602081101561219757600080fd5b50519186900384900398505083900381900395506121bb565b838203965082810395505b5050505050935093915050565b60008080600019858709868602925082811090839003039050806121fe57600084116121f357600080fd5b50829004905061172b565b80841161220a57600080fd5b6000848688096000868103871696879004966002600389028118808a02820302808a02820302808a02820302808a02820302808a02820302808a02909103029181900381900460010186841190950394909402919094039290920491909117919091029150509392505050565b3b151590565b6060831561228c57508161172b565b82511561229c5782518084602001fd5b8160405162461bcd60e51b81526004018080602001828103825283818151815260200191508051906020019080838360005b838110156122e65781810151838201526020016122ce565b50505050905090810190601f1680156123135780820380516001836020036101000a031916815260200191505b509250505060405180910390fd5b600061233461232f84612b51565b612b27565b90508281526020810184848401111561234c57600080fd5b612357848285612bd4565b509392505050565b600061236d61232f84612b51565b90508281526020810184848401111561238557600080fd5b612357848285612be0565b80516108fa81612c18565b600082601f8301126123ac57600080fd5b8135611d73848260208601612321565b600082601f8301126123cd57600080fd5b8151611d7384826020860161235f565b80516108fa81612c2c565b80516108fa81612c35565b80516108fa81612c3e565b80516108fa81612c47565b80516108fa81612c50565b60006020828403121561242657600080fd5b813567ffffffffffffffff81111561243d57600080fd5b611d738482850161239b565b60008060006060848603121561245e57600080fd5b600061246a86866123e8565b935050602061247b868287016123fe565b925050604061248c868287016123fe565b9150509250925092565b6000602082840312156124a857600080fd5b6000611d7384846123fe565b600080604083850312156124c757600080fd5b60006124d385856123fe565b925050602083015167ffffffffffffffff8111156124f057600080fd5b6124fc858286016123bc565b9150509250929050565b6000806000806080858703121561251c57600080fd5b600061252887876123fe565b9450506020612539878288016123e8565b935050604061254a878288016123fe565b925050606061255b878288016123fe565b91505092959194509250565b6000806040838503121561257a57600080fd5b600061258685856123fe565b92505060206124fc858286016123fe565b600080600080600080600080610100898b0312156125b457600080fd5b60006125c08b8b612409565b98505060206125d18b828c01612390565b97505060406125e28b828c01612390565b96505060606125f38b828c01612390565b95505060806126048b828c016123f3565b94505060a06126158b828c016123dd565b93505060c06126268b828c016123dd565b92505060e06126378b828c016123e8565b9150509295985092959890939650565b60006126538383612667565b505060200190565b60006126538383612a13565b61267081612b8f565b82525050565b600061268182612b82565b61268b8185612b86565b935061269683612b7c565b8060005b838110156126c45781516126ae8882612647565b97506126b983612b7c565b92505060010161269a565b509495945050505050565b60006126da82612b82565b6126e48185612b86565b93506126ef83612b7c565b8060005b838110156126c4578151612707888261265b565b975061271283612b7c565b9250506001016126f3565b600061272882612b82565b61273281856109b4565b9350612742818560208601612be0565b9290920192915050565b61267081612b9a565b600061276082612b82565b61276a8185612b86565b935061277a818560208601612be0565b61278381612c0e565b9093019392505050565b600061279a602683612b86565b7f7265636569766543616c6c46726f6d5661756c743a20496e76616c69642061638152651d1a5bdb925960d21b602082015260400192915050565b60006127e2601983612b86565b7f696e69743a20416c726561647920696e697469616c697a656400000000000000815260200192915050565b8051608083019061281f8482612a13565b5060208201516128326020850182612667565b5060408201516128456040850182612a01565b5060608201516128586060850182612a01565b50505050565b805160a083019061286f8482612a13565b5060208201516128826020850182612a01565b5060408201516128956040850182612a13565b5060608201516128a86060850182612a13565b5060808201516128586080850182612a13565b805160c08301906128cc8482612a13565b5060208201516128df6020850182612a13565b5060408201516128f26040850182612a13565b5060608201516129056060850182612a13565b5060808201516129186080850182612a13565b5060a082015161285860a0850182612a13565b805161016083019061293d8482612667565b5060208201516129506020850182612667565b5060408201516129636040850182612a0a565b506060820151612976606085018261274c565b506080820151612989608085018261274c565b5060a082015161299c60a0850182612a13565b5060c08201516129af60c0850182612a13565b5060e08201516129c260e0850182612a13565b506101008201516129d7610100850182612a13565b506101208201516129ec610120850182612667565b50610140820151612858610140850182612a13565b61267081612ba0565b61267081612bb8565b61267081612bc0565b600061172b828461271d565b602081016108fa8284612667565b60408101612a448285612667565b61172b6020830184612667565b60608101612a5f8286612667565b612a6c6020830185612a13565b611d736040830184612667565b60408082528101612a8a8185612676565b9050818103602083015261172881846126cf565b6020808252810161172b81846126cf565b6020808252810161172b8184612755565b602080825281016108fa8161278d565b602080825281016108fa816127d5565b608081016108fa828461280e565b60a081016108fa828461285e565b60c081016108fa82846128bb565b61016081016108fa828461292b565b602081016108fa8284612a13565b60405181810167ffffffffffffffff81118282101715612b4957612b49612c0c565b604052919050565b600067ffffffffffffffff821115612b6b57612b6b612c0c565b506020601f91909101601f19160190565b60200190565b5190565b90815260200190565b60006108fa82612bac565b60020b90565b6001600160801b031690565b6001600160a01b031690565b62ffffff1690565b90565b6bffffffffffffffffffffffff1690565b82818337506000910152565b60005b83811015612bfb578181015183820152602001612be3565b838111156128585750506000910152565bfe5b601f01601f191690565b612c2181612b8f565b8114610fc657600080fd5b612c2181612b9a565b612c2181612ba0565b612c2181612bb8565b612c2181612bc0565b612c2181612bc356fe416464726573733a20696e73756666696369656e742062616c616e636520666f722063616c6c536166654d6174683a206d756c7469706c69636174696f6e206f766572666c6f775361666545524332303a204552433230206f7065726174696f6e20646964206e6f7420737563636565645361666545524332303a20617070726f76652066726f6d206e6f6e2d7a65726f20746f206e6f6e2d7a65726f20616c6c6f77616e6365a2646970667358221220da0f60198d08687122eee281ca7f5ff409512926246d116d58e5875b340caf2164736f6c63430007060033",
  "linkReferences": {},
  "deployedLinkReferences": {}
}