{
  "_format": "hh-sol-artifact-1",
  "contractName": "ValueInterpreter",
  "sourceName": "contracts/release/infrastructure/value-interpreter/ValueInterpreter.sol",
  "abi": [
    {
      "inputs": [
        {
          "internalType": "address",
          "name": "_fundDeployer",
          "type": "address"
        },
        {
          "internalType": "address",
          "name": "_wethToken",
          "type": "address"
        },
        {
          "internalType": "uint256",
          "name": "_chainlinkStaleRateThreshold",
          "type": "uint256"
        }
      ],
      "stateMutability": "nonpayable",
      "type": "constructor"
    },
    {
      "anonymous": false,
      "inputs": [
        {
          "indexed": true,
          "internalType": "address",
          "name": "derivative",
          "type": "address"
        },
        {
          "indexed": false,
          "internalType": "address",
          "name": "priceFeed",
          "type": "address"
        }
      ],
      "name": "DerivativeAdded",
      "type": "event"
    },
    {
      "anonymous": false,
      "inputs": [
        {
          "indexed": true,
          "internalType": "address",
          "name": "derivative",
          "type": "address"
        }
      ],
      "name": "DerivativeRemoved",
      "type": "event"
    },
    {
      "anonymous": false,
      "inputs": [
        {
          "indexed": false,
          "internalType": "address",
          "name": "prevEthUsdAggregator",
          "type": "address"
        },
        {
          "indexed": false,
          "internalType": "address",
          "name": "nextEthUsdAggregator",
          "type": "address"
        }
      ],
      "name": "EthUsdAggregatorSet",
      "type": "event"
    },
    {
      "anonymous": false,
      "inputs": [
        {
          "indexed": true,
          "internalType": "address",
          "name": "primitive",
          "type": "address"
        },
        {
          "indexed": false,
          "internalType": "address",
          "name": "aggregator",
          "type": "address"
        },
        {
          "indexed": false,
          "internalType": "enum ChainlinkPriceFeedMixin.RateAsset",
          "name": "rateAsset",
          "type": "uint8"
        },
        {
          "indexed": false,
          "internalType": "uint256",
          "name": "unit",
          "type": "uint256"
        }
      ],
      "name": "PrimitiveAdded",
      "type": "event"
    },
    {
      "anonymous": false,
      "inputs": [
        {
          "indexed": true,
          "internalType": "address",
          "name": "primitive",
          "type": "address"
        }
      ],
      "name": "PrimitiveRemoved",
      "type": "event"
    },
    {
      "inputs": [
        {
          "internalType": "address[]",
          "name": "_derivatives",
          "type": "address[]"
        },
        {
          "internalType": "address[]",
          "name": "_priceFeeds",
          "type": "address[]"
        }
      ],
      "name": "addDerivatives",
      "outputs": [],
      "stateMutability": "nonpayable",
      "type": "function"
    },
    {
      "inputs": [
        {
          "internalType": "address[]",
          "name": "_primitives",
          "type": "address[]"
        },
        {
          "internalType": "address[]",
          "name": "_aggregators",
          "type": "address[]"
        },
        {
          "internalType": "enum ChainlinkPriceFeedMixin.RateAsset[]",
          "name": "_rateAssets",
          "type": "uint8[]"
        }
      ],
      "name": "addPrimitives",
      "outputs": [],
      "stateMutability": "nonpayable",
      "type": "function"
    },
    {
      "inputs": [
        {
          "internalType": "address",
          "name": "_baseAsset",
          "type": "address"
        },
        {
          "internalType": "uint256",
          "name": "_amount",
          "type": "uint256"
        },
        {
          "internalType": "address",
          "name": "_quoteAsset",
          "type": "address"
        }
      ],
      "name": "calcCanonicalAssetValue",
      "outputs": [
        {
          "internalType": "uint256",
          "name": "value_",
          "type": "uint256"
        }
      ],
      "stateMutability": "nonpayable",
      "type": "function"
    },
    {
      "inputs": [
        {
          "internalType": "address[]",
          "name": "_baseAssets",
          "type": "address[]"
        },
        {
          "internalType": "uint256[]",
          "name": "_amounts",
          "type": "uint256[]"
        },
        {
          "internalType": "address",
          "name": "_quoteAsset",
          "type": "address"
        }
      ],
      "name": "calcCanonicalAssetsTotalValue",
      "outputs": [
        {
          "internalType": "uint256",
          "name": "value_",
          "type": "uint256"
        }
      ],
      "stateMutability": "nonpayable",
      "type": "function"
    },
    {
      "inputs": [
        {
          "internalType": "address",
          "name": "_primitive",
          "type": "address"
        }
      ],
      "name": "getAggregatorForPrimitive",
      "outputs": [
        {
          "internalType": "address",
          "name": "aggregator_",
          "type": "address"
        }
      ],
      "stateMutability": "view",
      "type": "function"
    },
    {
      "inputs": [],
      "name": "getEthUsdAggregator",
      "outputs": [
        {
          "internalType": "address",
          "name": "ethUsdAggregator_",
          "type": "address"
        }
      ],
      "stateMutability": "view",
      "type": "function"
    },
    {
      "inputs": [],
      "name": "getFundDeployer",
      "outputs": [
        {
          "internalType": "address",
          "name": "fundDeployer_",
          "type": "address"
        }
      ],
      "stateMutability": "view",
      "type": "function"
    },
    {
      "inputs": [],
      "name": "getOwner",
      "outputs": [
        {
          "internalType": "address",
          "name": "owner_",
          "type": "address"
        }
      ],
      "stateMutability": "view",
      "type": "function"
    },
    {
      "inputs": [
        {
          "internalType": "address",
          "name": "_derivative",
          "type": "address"
        }
      ],
      "name": "getPriceFeedForDerivative",
      "outputs": [
        {
          "internalType": "address",
          "name": "priceFeed_",
          "type": "address"
        }
      ],
      "stateMutability": "view",
      "type": "function"
    },
    {
      "inputs": [
        {
          "internalType": "address",
          "name": "_primitive",
          "type": "address"
        }
      ],
      "name": "getRateAssetForPrimitive",
      "outputs": [
        {
          "internalType": "enum ChainlinkPriceFeedMixin.RateAsset",
          "name": "rateAsset_",
          "type": "uint8"
        }
      ],
      "stateMutability": "view",
      "type": "function"
    },
    {
      "inputs": [],
      "name": "getStaleRateThreshold",
      "outputs": [
        {
          "internalType": "uint256",
          "name": "staleRateThreshold_",
          "type": "uint256"
        }
      ],
      "stateMutability": "view",
      "type": "function"
    },
    {
      "inputs": [
        {
          "internalType": "address",
          "name": "_primitive",
          "type": "address"
        }
      ],
      "name": "getUnitForPrimitive",
      "outputs": [
        {
          "internalType": "uint256",
          "name": "unit_",
          "type": "uint256"
        }
      ],
      "stateMutability": "view",
      "type": "function"
    },
    {
      "inputs": [],
      "name": "getWethToken",
      "outputs": [
        {
          "internalType": "address",
          "name": "wethToken_",
          "type": "address"
        }
      ],
      "stateMutability": "view",
      "type": "function"
    },
    {
      "inputs": [
        {
          "internalType": "address",
          "name": "_asset",
          "type": "address"
        }
      ],
      "name": "isSupportedAsset",
      "outputs": [
        {
          "internalType": "bool",
          "name": "isSupported_",
          "type": "bool"
        }
      ],
      "stateMutability": "view",
      "type": "function"
    },
    {
      "inputs": [
        {
          "internalType": "address",
          "name": "_asset",
          "type": "address"
        }
      ],
      "name": "isSupportedDerivativeAsset",
      "outputs": [
        {
          "internalType": "bool",
          "name": "isSupported_",
          "type": "bool"
        }
      ],
      "stateMutability": "view",
      "type": "function"
    },
    {
      "inputs": [
        {
          "internalType": "address",
          "name": "_asset",
          "type": "address"
        }
      ],
      "name": "isSupportedPrimitiveAsset",
      "outputs": [
        {
          "internalType": "bool",
          "name": "isSupported_",
          "type": "bool"
        }
      ],
      "stateMutability": "view",
      "type": "function"
    },
    {
      "inputs": [
        {
          "internalType": "address[]",
          "name": "_derivatives",
          "type": "address[]"
        }
      ],
      "name": "removeDerivatives",
      "outputs": [],
      "stateMutability": "nonpayable",
      "type": "function"
    },
    {
      "inputs": [
        {
          "internalType": "address[]",
          "name": "_primitives",
          "type": "address[]"
        }
      ],
      "name": "removePrimitives",
      "outputs": [],
      "stateMutability": "nonpayable",
      "type": "function"
    },
    {
      "inputs": [
        {
          "internalType": "address",
          "name": "_nextEthUsdAggregator",
          "type": "address"
        }
      ],
      "name": "setEthUsdAggregator",
      "outputs": [],
      "stateMutability": "nonpayable",
      "type": "function"
    },
    {
      "inputs": [
        {
          "internalType": "address[]",
          "name": "_derivatives",
          "type": "address[]"
        },
        {
          "internalType": "address[]",
          "name": "_priceFeeds",
          "type": "address[]"
        }
      ],
      "name": "updateDerivatives",
      "outputs": [],
      "stateMutability": "nonpayable",
      "type": "function"
    },
    {
      "inputs": [
        {
          "internalType": "address[]",
          "name": "_primitives",
          "type": "address[]"
        },
        {
          "internalType": "address[]",
          "name": "_aggregators",
          "type": "address[]"
        },
        {
          "internalType": "enum ChainlinkPriceFeedMixin.RateAsset[]",
          "name": "_rateAssets",
          "type": "uint8[]"
        }
      ],
      "name": "updatePrimitives",
      "outputs": [],
      "stateMutability": "nonpayable",
      "type": "function"
    }
  ],
  "bytecode": "0x60e06040523480156200001157600080fd5b506040516200304a3803806200304a833981016040819052620000349162000079565b6001600160601b0319606093841b811660805260a091909152911b1660c05262000107565b80516200006681620000e2565b92915050565b80516200006681620000fc565b6000806000606084860312156200008f57600080fd5b60006200009d868662000059565b9350506020620000b08682870162000059565b9250506040620000c3868287016200006c565b9150509250925092565b60006001600160a01b03821662000066565b90565b620000ed81620000cd565b8114620000f957600080fd5b50565b620000ed81620000df565b60805160601c60a05160c05160601c612f0662000144600039806103895250806108d8525080610535528061066152806106885250612f066000f3fe608060405234801561001057600080fd5b50600436106101375760003560e01c806397c0ac87116100b8578063b54fbdaa1161007c578063b54fbdaa1461025f578063c496f8e814610267578063cf0399c81461027a578063e106264f1461028d578063e2dd0978146102a0578063e35e318e146102b357610137565b806397c0ac871461020b5780639be918e614610213578063a98acadc14610226578063ae6f52ad14610239578063b3d3af3b1461024c57610137565b80636d3b9410116100ff5780636d3b9410146101c257806374626f87146101d5578063787f2568146101dd578063893d20e8146101f05780638f72b136146101f857610137565b806339cbb63c1461013c5780634c252f91146101515780634c67e1061461016f57806364b01dc11461018f57806368e81c6d146101af575b600080fd5b61014f61014a366004611ea5565b6102d3565b005b610159610387565b6040516101669190612a03565b60405180910390f35b61018261017d366004611e17565b6103ab565b6040516101669190612c7b565b6101a261019d366004611ddb565b61043f565b6040516101669190612a6f565b6101596101bd366004611ddb565b61045e565b61014f6101d0366004611f13565b61047c565b6101596104d4565b6101826101eb366004611ddb565b6104e3565b610159610531565b61014f610206366004611e64565b6105c9565b610159610641565b6101a2610221366004611ddb565b6106aa565b61014f610234366004611ddb565b6106ca565b610182610247366004612018565b61070e565b61014f61025a366004611ea5565b610862565b6101826108d6565b6101a2610275366004611ddb565b6108fa565b61014f610288366004611f13565b610929565b61014f61029b366004611e64565b610961565b6101596102ae366004611ddb565b6109a3565b6102c66102c1366004611ddb565b6109c1565b6040516101669190612a7d565b6102db610531565b6001600160a01b0316336001600160a01b0316146103145760405162461bcd60e51b815260040161030b90612afb565b60405180910390fd5b61038184848080602002602001604051908101604052809392919081815260200183836020028082843760009201919091525050604080516020808802828101820190935287825290935087925086918291850190849080828437600092019190915250610a1292505050565b50505050565b7f000000000000000000000000000000000000000000000000000000000000000090565b6000816001600160a01b0316846001600160a01b031614806103cb575082155b156103d7575081610438565b6103e0826108fa565b156103f7576103f0848484610b9f565b9050610438565b6104008261043f565b80156104105750610410846108fa565b15610420576103f0848484610c2c565b60405162461bcd60e51b815260040161030b90612b1b565b9392505050565b60008061044b8361045e565b6001600160a01b0316141590505b919050565b6001600160a01b039081166000908152602081905260409020541690565b610484610531565b6001600160a01b0316336001600160a01b0316146104b45760405162461bcd60e51b815260040161030b90612afb565b6104be8686610d06565b6104cc868686868686610e52565b505050505050565b6001546001600160a01b031690565b60006104ed610387565b6001600160a01b0316826001600160a01b031614156105155750670de0b6b3a7640000610459565b506001600160a01b031660009081526003602052604090205490565b60007f00000000000000000000000000000000000000000000000000000000000000006001600160a01b031663893d20e86040518163ffffffff1660e01b815260040160206040518083038186803b15801561058c57600080fd5b505afa1580156105a0573d6000803e3d6000fd5b505050506040513d601f19601f820116820180604052508101906105c49190611df9565b905090565b6105d1610531565b6001600160a01b0316336001600160a01b0316146106015760405162461bcd60e51b815260040161030b90612afb565b61063d82828080602002602001604051908101604052809392919081815260200183836020028082843760009201919091525061126b92505050565b5050565b6000610685604051806060016040528060298152602001612dab602991397f0000000000000000000000000000000000000000000000000000000000000000611356565b507f000000000000000000000000000000000000000000000000000000000000000090565b60006106b5826108fa565b806106c457506106c48261043f565b92915050565b6106d2610531565b6001600160a01b0316336001600160a01b0316146107025760405162461bcd60e51b815260040161030b90612afb565b61070b8161139b565b50565b600082518451146107315760405162461bcd60e51b815260040161030b90612b8b565b61073a826108fa565b6107565760405162461bcd60e51b815260040161030b90612adb565b60005b845181101561085a57600061079586838151811061077357fe5b602002602001015186848151811061078757fe5b602002602001015186610b9f565b90506107a1838261143b565b92506107d86040518060600160405280602d8152602001612e4d602d91398784815181106107cb57fe5b6020026020010151611356565b61080d604051806060016040528060298152602001612ea86029913986848151811061080057fe5b6020026020010151611460565b61082f6040518060600160405280602e8152602001612e7a602e913985611356565b610851604051806060016040528060288152602001612e016028913982611460565b50600101610759565b509392505050565b61086a610531565b6001600160a01b0316336001600160a01b03161461089a5760405162461bcd60e51b815260040161030b90612afb565b61031484848080602002602001604051908101604052809392919081815260200183836020028082843760009201919091525061126b92505050565b7f000000000000000000000000000000000000000000000000000000000000000090565b6000610904610387565b6001600160a01b0316826001600160a01b031614806106c45750600061044b836109a3565b610931610531565b6001600160a01b0316336001600160a01b0316146104be5760405162461bcd60e51b815260040161030b90612afb565b610969610531565b6001600160a01b0316336001600160a01b0316146109995760405162461bcd60e51b815260040161030b90612afb565b61063d8282610d06565b6001600160a01b039081166000908152600260205260409020541690565b60006109cb610387565b6001600160a01b0316826001600160a01b031614156109ec57506000610459565b506001600160a01b0316600090815260026020526040902054600160a01b900460ff1690565b8051825114610a335760405162461bcd60e51b815260040161030b90612c4b565b60005b8251811015610b9a5760006001600160a01b0316610a66848381518110610a5957fe5b602002602001015161045e565b6001600160a01b031614610a8c5760405162461bcd60e51b815260040161030b90612bdb565b610abc838281518110610a9b57fe5b6020026020010151838381518110610aaf57fe5b60200260200101516114a5565b818181518110610ac857fe5b6020026020010151600080858481518110610adf57fe5b60200260200101516001600160a01b03166001600160a01b0316815260200190815260200160002060006101000a8154816001600160a01b0302191690836001600160a01b03160217905550828181518110610b3757fe5b60200260200101516001600160a01b03167faa4ae250fb435bb4b31ed0b95822bc179fc6c5dd0c727c3ffe08d444025efd98838381518110610b7557fe5b6020026020010151604051610b8a9190612a03565b60405180910390a2600101610a36565b505050565b6000816001600160a01b0316846001600160a01b03161480610bbf575082155b15610bcb575081610438565b610bd4846108fa565b15610be4576103f084848461153d565b6000610bef8561045e565b90506001600160a01b03811615610c1457610c0c818686866115af565b915050610438565b60405162461bcd60e51b815260040161030b90612c3b565b600080826001600160a01b031663313ce5676040518163ffffffff1660e01b815260040160206040518083038186803b158015610c6857600080fd5b505afa158015610c7c573d6000803e3d6000fd5b505050506040513d601f19601f82011682018060405250810190610ca09190612128565b60ff16600a0a90506000610cb38461045e565b90506000610cc38286858a6115af565b90506127108111610ce65760405162461bcd60e51b815260040161030b90612c5b565b610cfb610cf482600161143b565b84886116df565b979650505050505050565b60005b81811015610b9a576000610d37848484818110610d2257fe5b90506020020160208101906102ae9190611ddb565b6001600160a01b03161415610d5e5760405162461bcd60e51b815260040161030b90612bfb565b60026000848484818110610d6e57fe5b9050602002016020810190610d839190611ddb565b6001600160a01b031681526020810191909152604001600090812080546001600160a81b0319169055600390848484818110610dbb57fe5b9050602002016020810190610dd09190611ddb565b6001600160a01b03166001600160a01b0316815260200190815260200160002060009055828282818110610e0057fe5b9050602002016020810190610e159190611ddb565b6001600160a01b03167fb100e8178a081ba9130260173ee2ebe0db3a6c3b6751a7801111ab3017df0e9760405160405180910390a2600101610d09565b848314610e715760405162461bcd60e51b815260040161030b90612c2b565b848114610e905760405162461bcd60e51b815260040161030b90612b7b565b60005b85811015611262576000610eac888884818110610d2257fe5b6001600160a01b031614610ed25760405162461bcd60e51b815260040161030b90612c6b565b610f316040518060400160405280601e81526020017f6265666f7265205f5f76616c696461746541676772656761746f723a25730000815250868684818110610f1757fe5b9050602002016020810190610f2c9190611ddb565b611356565b610f5a858583818110610f4057fe5b9050602002016020810190610f559190611ddb565b6116fd565b610f9f6040518060400160405280601d81526020017f6166746572205f5f76616c696461746541676772656761746f723a2573000000815250868684818110610f1757fe5b6040518060400160405280868684818110610fb657fe5b9050602002016020810190610fcb9190611ddb565b6001600160a01b03168152602001848484818110610fe557fe5b9050602002016020810190610ffa9190612095565b600181111561100557fe5b90526002600089898581811061101757fe5b905060200201602081019061102c9190611ddb565b6001600160a01b0390811682526020808301939093526040909101600020835181546001600160a01b031916921691909117808255918301519091829060ff60a01b1916600160a01b83600181111561108157fe5b02179055509050506110b16040518060600160405280602d8152602001612dd4602d9139868684818110610f1757fe5b60008787838181106110bf57fe5b90506020020160208101906110d49190611ddb565b6001600160a01b031663313ce5676040518163ffffffff1660e01b815260040160206040518083038186803b15801561110c57600080fd5b505afa158015611120573d6000803e3d6000fd5b505050506040513d601f19601f820116820180604052508101906111449190612128565b60ff16600a0a9050611174604051806060016040528060248152602001612e2960249139878785818110610f1757fe5b80600360008a8a8681811061118557fe5b905060200201602081019061119a9190611ddb565b6001600160a01b031681526020810191909152604001600020558787838181106111c057fe5b90506020020160208101906111d59190611ddb565b6001600160a01b03167f742bdf00da3d8f16c0fab93ce38eb6a536a019c9e283888dd44c3a08c0148c0287878581811061120b57fe5b90506020020160208101906112209190611ddb565b86868681811061122c57fe5b90506020020160208101906112419190612095565b8460405161125193929190612a2c565b60405180910390a250600101610e93565b50505050505050565b60005b815181101561063d5760006001600160a01b0316611291838381518110610a5957fe5b6001600160a01b031614156112b85760405162461bcd60e51b815260040161030b90612b9b565b6000808383815181106112c757fe5b60200260200101516001600160a01b03166001600160a01b0316815260200190815260200160002060006101000a8154906001600160a01b03021916905581818151811061131157fe5b60200260200101516001600160a01b03167fc15eb25d807b570f4567baf6e97c7b26d58a7d0512dc85e8db15375a056b860460405160405180910390a260010161126e565b61063d828260405160240161136c929190612a8b565b60408051601f198184030181529190526020810180516001600160e01b031663319af33360e01b1790526117a1565b60006113a56104d4565b9050806001600160a01b0316826001600160a01b031614156113d95760405162461bcd60e51b815260040161030b90612acb565b6113e2826116fd565b600180546001600160a01b0319166001600160a01b0384161790556040517f98b60a60ba6130248e985ae4140dc3109d9c2980c7e435fed385e2756bc944619061142f9083908590612a11565b60405180910390a15050565b6000828201838110156104385760405162461bcd60e51b815260040161030b90612b0b565b61063d8282604051602401611476929190612aab565b60408051601f198184030181529190526020810180516001600160e01b03166309710a9d60e41b1790526117a1565b604051634df48c7360e11b81526001600160a01b03821690639be918e6906114d1908590600401612a03565b60206040518083038186803b1580156114e957600080fd5b505afa1580156114fd573d6000803e3d6000fd5b505050506040513d601f19601f820116820180604052508101906115219190612077565b61063d5760405162461bcd60e51b815260040161030b90612c1b565b600080611549856117c2565b90506000811361156b5760405162461bcd60e51b815260040161030b90612bbb565b6000611576846117c2565b9050600081136115985760405162461bcd60e51b815260040161030b90612beb565b6115a586868487856118b5565b9695505050505050565b6000606080866001600160a01b031663727212f687876040518363ffffffff1660e01b81526004016115e2929190612a54565b600060405180830381600087803b1580156115fc57600080fd5b505af1158015611610573d6000803e3d6000fd5b505050506040513d6000823e601f3d908101601f191682016040526116389190810190611fb1565b91509150600082511161165d5760405162461bcd60e51b815260040161030b90612bab565b805182511461167e5760405162461bcd60e51b815260040161030b90612b3b565b60005b82518110156116d45760006116bd84838151811061169b57fe5b60200260200101518484815181106116af57fe5b602002602001015188610b9f565b90506116c9858261143b565b945050600101611681565b505050949350505050565b60006116f5846116ef8486611a1a565b90611a54565b949350505050565b600080826001600160a01b031663feaf968c6040518163ffffffff1660e01b815260040160a06040518083038186803b15801561173957600080fd5b505afa15801561174d573d6000803e3d6000fd5b505050506040513d601f19601f8201168201806040525081019061177191906120b3565b50935050925050600082136117985760405162461bcd60e51b815260040161030b90612c0b565b610b9a81611a86565b80516a636f6e736f6c652e6c6f67602083016000808483855afa5050505050565b60006117cc610387565b6001600160a01b0316826001600160a01b031614156117f45750670de0b6b3a7640000610459565b60006117ff836109a3565b90506001600160a01b0381166118275760405162461bcd60e51b815260040161030b90612aeb565b6000816001600160a01b031663feaf968c6040518163ffffffff1660e01b815260040160a06040518083038186803b15801561186257600080fd5b505afa158015611876573d6000803e3d6000fd5b505050506040513d601f19601f8201168201806040525081019061189a91906120b3565b509195509092506118ae9150829050611a86565b5050919050565b6000806118c1876109c1565b905060006118ce856109c1565b905060006118db896104e3565b905060006118e8876104e3565b90508260018111156118f657fe5b84600181111561190257fe5b14156119205761191589838a848a611ab7565b945050505050611a11565b60008061192b6104d4565b6001600160a01b031663feaf968c6040518163ffffffff1660e01b815260040160a06040518083038186803b15801561196357600080fd5b505afa158015611977573d6000803e3d6000fd5b505050506040513d601f19601f8201168201806040525081019061199b91906120b3565b50935050925050600082136119c25760405162461bcd60e51b815260040161030b90612b5b565b6119cb81611a86565b60008660018111156119d957fe5b14156119fa576119ed8b858c868c87611ada565b9650505050505050611a11565b611a088b858c868c87611b15565b96505050505050505b95945050505050565b600082611a29575060006106c4565b82820282848281611a3657fe5b04146104385760405162461bcd60e51b815260040161030b90612bcb565b6000808211611a755760405162461bcd60e51b815260040161030b90612b4b565b818381611a7e57fe5b049392505050565b611a98611a916108d6565b4290611b44565b81101561070b5760405162461bcd60e51b815260040161030b90612b6b565b60006115a5611ac68684611a1a565b6116ef85611ad48a89611a1a565b90611a1a565b600080611af7670de0b6b3a76400006116ef85611ad48c8b611a1a565b9050611b09846116ef8981858a611a1a565b98975050505050505050565b600080611b2a836116ef87611ad48c8b611a1a565b9050611b09846116ef898185670de0b6b3a7640000611a1a565b600082821115611b665760405162461bcd60e51b815260040161030b90612b2b565b50900390565b80356106c481612d65565b80516106c481612d65565b60008083601f840112611b9457600080fd5b5081356001600160401b03811115611bab57600080fd5b602083019150836020820283011115611bc357600080fd5b9250929050565b600082601f830112611bdb57600080fd5b8135611bee611be982612caf565b612c89565b91508181835260208401935060208101905083856020840282011115611c1357600080fd5b60005b83811015611c3f5781611c298882611b6c565b8452506020928301929190910190600101611c16565b5050505092915050565b600082601f830112611c5a57600080fd5b8151611c68611be982612caf565b91508181835260208401935060208101905083856020840282011115611c8d57600080fd5b60005b83811015611c3f5781611ca38882611b77565b8452506020928301929190910190600101611c90565b600082601f830112611cca57600080fd5b8135611cd8611be982612caf565b91508181835260208401935060208101905083856020840282011115611cfd57600080fd5b60005b83811015611c3f5781611d138882611dba565b8452506020928301929190910190600101611d00565b600082601f830112611d3a57600080fd5b8151611d48611be982612caf565b91508181835260208401935060208101905083856020840282011115611d6d57600080fd5b60005b83811015611c3f5781611d838882611daf565b8452506020928301929190910190600101611d70565b80516106c481612d79565b80356106c481612d82565b80516106c481612d8f565b80356106c481612d8f565b80516106c481612da1565b80516106c481612d98565b600060208284031215611ded57600080fd5b60006116f58484611b6c565b600060208284031215611e0b57600080fd5b60006116f58484611b77565b600080600060608486031215611e2c57600080fd5b6000611e388686611b6c565b9350506020611e4986828701611dba565b9250506040611e5a86828701611b6c565b9150509250925092565b60008060208385031215611e7757600080fd5b82356001600160401b03811115611e8d57600080fd5b611e9985828601611b82565b92509250509250929050565b60008060008060408587031215611ebb57600080fd5b84356001600160401b03811115611ed157600080fd5b611edd87828801611b82565b945094505060208501356001600160401b03811115611efb57600080fd5b611f0787828801611b82565b95989497509550505050565b60008060008060008060608789031215611f2c57600080fd5b86356001600160401b03811115611f4257600080fd5b611f4e89828a01611b82565b965096505060208701356001600160401b03811115611f6c57600080fd5b611f7889828a01611b82565b945094505060408701356001600160401b03811115611f9657600080fd5b611fa289828a01611b82565b92509250509295509295509295565b60008060408385031215611fc457600080fd5b82516001600160401b03811115611fda57600080fd5b611fe685828601611c49565b92505060208301516001600160401b0381111561200257600080fd5b61200e85828601611d29565b9150509250929050565b60008060006060848603121561202d57600080fd5b83356001600160401b0381111561204357600080fd5b61204f86828701611bca565b93505060208401356001600160401b0381111561206b57600080fd5b611e4986828701611cb9565b60006020828403121561208957600080fd5b60006116f58484611d99565b6000602082840312156120a757600080fd5b60006116f58484611da4565b600080600080600060a086880312156120cb57600080fd5b60006120d78888611dc5565b95505060206120e888828901611daf565b94505060406120f988828901611daf565b935050606061210a88828901611daf565b925050608061211b88828901611dc5565b9150509295509295909350565b60006020828403121561213a57600080fd5b60006116f58484611dd0565b61214f81612cdc565b82525050565b61214f81612ce7565b61214f81612d1a565b600061217282612ccf565b61217c8185612cd3565b935061218c818560208601612d25565b61219581612d51565b9093019392505050565b60006121ac602883612cd3565b7f5f5f73657445746855736441676772656761746f723a2056616c756520616c728152671958591e481cd95d60c21b602082015260400192915050565b60006121f6603683612cd3565b7f63616c6343616e6f6e6963616c417373657473546f74616c56616c75653a20558152751b9cdd5c1c1bdc9d19590817dc5d5bdd19505cdcd95d60521b602082015260400192915050565b600061224e602d83612cd3565b7f5f5f6765744c617465737452617465446174613a205072696d6974697665206481526c1bd95cc81b9bdd08195e1a5cdd609a1b602082015260400192915050565b600061229d604983612cd3565b7f6f6e6c7946756e644465706c6f7965724f776e65723a204f6e6c79207468652081527f46756e644465706c6f796572206f776e65722063616e2063616c6c207468697360208201526810333ab731ba34b7b760b91b604082015260600192915050565b600061230e601b83612cd3565b7f536166654d6174683a206164646974696f6e206f766572666c6f770000000000815260200192915050565b6000612347602f83612cd3565b7f63616c6343616e6f6e6963616c417373657456616c75653a20556e737570706f81526e393a32b21031b7b73b32b939b4b7b760891b602082015260400192915050565b6000612398601e83612cd3565b7f536166654d6174683a207375627472616374696f6e206f766572666c6f770000815260200192915050565b60006123d1602d83612cd3565b7f5f5f63616c634465726976617469766556616c75653a2041727261797320756e81526c657175616c206c656e6774687360981b602082015260400192915050565b6000612420601a83612cd3565b7f536166654d6174683a206469766973696f6e206279207a65726f000000000000815260200192915050565b6000612459602783612cd3565b7f5f5f63616c63436f6e76657273696f6e416d6f756e743a2042616420657468558152667364207261746560c81b602082015260400192915050565b60006124a2602d83612cd3565b7f5f5f76616c69646174655261746549734e6f745374616c653a205374616c652081526c1c985d194819195d1958dd1959609a1b602082015260400192915050565b60006124f1604283612cd3565b7f5f5f6164645072696d6974697665733a20556e657175616c205f7072696d697481527f6976657320616e64205f72617465417373657473206172726179206c656e6774602082015261687360f01b604082015260600192915050565b600061255b603583612cd3565b7f63616c6343616e6f6e6963616c417373657473546f74616c56616c75653a2041815274727261797320756e657175616c206c656e6774687360581b602082015260400192915050565b60006125b2602b83612cd3565b7f72656d6f766544657269766174697665733a2044657269766174697665206e6f81526a1d081e595d08185919195960aa1b602082015260400192915050565b60006125ff602583612cd3565b7f5f5f63616c634465726976617469766556616c75653a204e6f20756e6465726c81526479696e677360d81b602082015260400192915050565b6000612646602d83612cd3565b7f5f5f63616c6343616e6f6e6963616c56616c75653a20496e76616c696420626181526c7365206173736574207261746560981b602082015260400192915050565b6000612695602183612cd3565b7f536166654d6174683a206d756c7469706c69636174696f6e206f766572666c6f8152607760f81b602082015260400192915050565b60006126d8601f83612cd3565b7f5f5f61646444657269766174697665733a20416c726561647920616464656400815260200192915050565b6000612711602e83612cd3565b7f5f5f63616c6343616e6f6e6963616c56616c75653a20496e76616c696420717581526d6f7465206173736574207261746560901b602082015260400192915050565b6000612761602b83612cd3565b7f5f5f72656d6f76655072696d6974697665733a205072696d6974697665206e6f81526a1d081e595d08185919195960aa1b602082015260400192915050565b60006127ae602683612cd3565b7f5f5f76616c696461746541676772656761746f723a204e6f20726174652064658152651d1958dd195960d21b602082015260400192915050565b60006127f6603583612cd3565b7f5f5f76616c6964617465446572697661746976655072696365466565643a20558152746e737570706f72746564206465726976617469766560581b602082015260400192915050565b600061284d604383612cd3565b7f5f5f6164645072696d6974697665733a20556e657175616c205f7072696d697481527f6976657320616e64205f61676772656761746f7273206172726179206c656e6760208201526274687360e81b604082015260600192915050565b60006128b8602883612cd3565b7f5f5f63616c63417373657456616c75653a20556e737570706f72746564205f62815267185cd9505cdcd95d60c21b602082015260400192915050565b6000612902604483612cd3565b7f5f5f61646444657269766174697665733a20556e657175616c205f646572697681527f61746976657320616e64205f70726963654665656473206172726179206c656e6020820152636774687360e01b604082015260600192915050565b600061296e603383612cd3565b7f5f5f63616c635072696d6974697665546f4465726976617469766556616c75658152723a20496e73756666696369656e74207261746560681b602082015260400192915050565b60006129c3602283612cd3565b7f5f5f6164645072696d6974697665733a2056616c756520616c72656164792073815261195d60f21b602082015260400192915050565b61214f81612cf6565b602081016106c48284612146565b60408101612a1f8285612146565b6104386020830184612146565b60608101612a3a8286612146565b612a47602083018561215e565b6116f560408301846129fa565b60408101612a628285612146565b61043860208301846129fa565b602081016106c48284612155565b602081016106c4828461215e565b60408082528101612a9c8185612167565b90506104386020830184612146565b60408082528101612abc8185612167565b905061043860208301846129fa565b602080825281016106c48161219f565b602080825281016106c4816121e9565b602080825281016106c481612241565b602080825281016106c481612290565b602080825281016106c481612301565b602080825281016106c48161233a565b602080825281016106c48161238b565b602080825281016106c4816123c4565b602080825281016106c481612413565b602080825281016106c48161244c565b602080825281016106c481612495565b602080825281016106c4816124e4565b602080825281016106c48161254e565b602080825281016106c4816125a5565b602080825281016106c4816125f2565b602080825281016106c481612639565b602080825281016106c481612688565b602080825281016106c4816126cb565b602080825281016106c481612704565b602080825281016106c481612754565b602080825281016106c4816127a1565b602080825281016106c4816127e9565b602080825281016106c481612840565b602080825281016106c4816128ab565b602080825281016106c4816128f5565b602080825281016106c481612961565b602080825281016106c4816129b6565b602081016106c482846129fa565b6040518181016001600160401b0381118282101715612ca757600080fd5b604052919050565b60006001600160401b03821115612cc557600080fd5b5060209081020190565b5190565b90815260200190565b60006106c482612cf9565b151590565b8061045981612d5b565b90565b6001600160a01b031690565b60ff1690565b69ffffffffffffffffffff1690565b60006106c482612cec565b60005b83811015612d40578181015183820152602001612d28565b838111156103815750506000910152565b601f01601f191690565b6002811061070b57fe5b612d6e81612cdc565b811461070b57600080fd5b612d6e81612ce7565b6002811061070b57600080fd5b612d6e81612cf6565b612d6e81612d05565b612d6e81612d0b56fe46756e644465706c6f7965724f776e65724d6978696e3a67657446756e644465706c6f7965723a25736166746572205f5f76616c696461746541676772656761746f722041676772656761746f72496e666f203a257363616c6343616e6f6e6963616c417373657473546f74616c56616c75653a76616c7565203a2025646166746572205f5f76616c696461746541676772656761746f72204552433230203a257363616c6343616e6f6e6963616c417373657473546f74616c56616c75653a62617365206173736574203a20257363616c6343616e6f6e6963616c417373657473546f74616c56616c75653a71756f7461206173736574203a20257363616c6343616e6f6e6963616c417373657473546f74616c56616c75653a616d6f756e74203a202564a2646970667358221220df0ac575028f3db48b15002b828789f77cf007908b54c3715680af6fec52aafc64736f6c634300060c0033",
  "linkReferences": {},
  "deployedLinkReferences": {}
}