{
  "_format": "hh-sol-artifact-1",
  "contractName": "IdleAdapter",
  "sourceName": "contracts/release/extensions/integration-manager/integrations/adapters/IdleAdapter.sol",
  "abi": [
    {
      "inputs": [
        {
          "internalType": "address",
          "name": "_integrationManager",
          "type": "address"
        },
        {
          "internalType": "address",
          "name": "_idlePriceFeed",
          "type": "address"
        }
      ],
      "stateMutability": "nonpayable",
      "type": "constructor"
    },
    {
      "inputs": [],
      "name": "CLAIM_REWARDS_SELECTOR",
      "outputs": [
        {
          "internalType": "bytes4",
          "name": "",
          "type": "bytes4"
        }
      ],
      "stateMutability": "view",
      "type": "function"
    },
    {
      "inputs": [],
      "name": "LEND_AND_STAKE_SELECTOR",
      "outputs": [
        {
          "internalType": "bytes4",
          "name": "",
          "type": "bytes4"
        }
      ],
      "stateMutability": "view",
      "type": "function"
    },
    {
      "inputs": [],
      "name": "LEND_SELECTOR",
      "outputs": [
        {
          "internalType": "bytes4",
          "name": "",
          "type": "bytes4"
        }
      ],
      "stateMutability": "view",
      "type": "function"
    },
    {
      "inputs": [],
      "name": "REDEEM_SELECTOR",
      "outputs": [
        {
          "internalType": "bytes4",
          "name": "",
          "type": "bytes4"
        }
      ],
      "stateMutability": "view",
      "type": "function"
    },
    {
      "inputs": [],
      "name": "STAKE_SELECTOR",
      "outputs": [
        {
          "internalType": "bytes4",
          "name": "",
          "type": "bytes4"
        }
      ],
      "stateMutability": "view",
      "type": "function"
    },
    {
      "inputs": [],
      "name": "TAKE_ORDER_SELECTOR",
      "outputs": [
        {
          "internalType": "bytes4",
          "name": "",
          "type": "bytes4"
        }
      ],
      "stateMutability": "view",
      "type": "function"
    },
    {
      "inputs": [],
      "name": "UNSTAKE_AND_REDEEM_SELECTOR",
      "outputs": [
        {
          "internalType": "bytes4",
          "name": "",
          "type": "bytes4"
        }
      ],
      "stateMutability": "view",
      "type": "function"
    },
    {
      "inputs": [],
      "name": "UNSTAKE_SELECTOR",
      "outputs": [
        {
          "internalType": "bytes4",
          "name": "",
          "type": "bytes4"
        }
      ],
      "stateMutability": "view",
      "type": "function"
    },
    {
      "inputs": [
        {
          "internalType": "address",
          "name": "_vaultProxy",
          "type": "address"
        },
        {
          "internalType": "bytes",
          "name": "_actionData",
          "type": "bytes"
        },
        {
          "internalType": "bytes",
          "name": "_assetData",
          "type": "bytes"
        }
      ],
      "name": "claimRewards",
      "outputs": [],
      "stateMutability": "nonpayable",
      "type": "function"
    },
    {
      "inputs": [],
      "name": "getIdlePriceFeed",
      "outputs": [
        {
          "internalType": "address",
          "name": "idlePriceFeed_",
          "type": "address"
        }
      ],
      "stateMutability": "view",
      "type": "function"
    },
    {
      "inputs": [],
      "name": "getIntegrationManager",
      "outputs": [
        {
          "internalType": "address",
          "name": "integrationManager_",
          "type": "address"
        }
      ],
      "stateMutability": "view",
      "type": "function"
    },
    {
      "inputs": [
        {
          "internalType": "address",
          "name": "_vaultProxy",
          "type": "address"
        },
        {
          "internalType": "bytes",
          "name": "",
          "type": "bytes"
        },
        {
          "internalType": "bytes",
          "name": "_assetData",
          "type": "bytes"
        }
      ],
      "name": "lend",
      "outputs": [],
      "stateMutability": "nonpayable",
      "type": "function"
    },
    {
      "inputs": [
        {
          "internalType": "address",
          "name": "_vaultProxy",
          "type": "address"
        },
        {
          "internalType": "bytes4",
          "name": "_selector",
          "type": "bytes4"
        },
        {
          "internalType": "bytes",
          "name": "_actionData",
          "type": "bytes"
        }
      ],
      "name": "parseAssetsForAction",
      "outputs": [
        {
          "internalType": "enum IIntegrationManager.SpendAssetsHandleType",
          "name": "spendAssetsHandleType_",
          "type": "uint8"
        },
        {
          "internalType": "address[]",
          "name": "spendAssets_",
          "type": "address[]"
        },
        {
          "internalType": "uint256[]",
          "name": "spendAssetAmounts_",
          "type": "uint256[]"
        },
        {
          "internalType": "address[]",
          "name": "incomingAssets_",
          "type": "address[]"
        },
        {
          "internalType": "uint256[]",
          "name": "minIncomingAssetAmounts_",
          "type": "uint256[]"
        }
      ],
      "stateMutability": "view",
      "type": "function"
    },
    {
      "inputs": [
        {
          "internalType": "address",
          "name": "_vaultProxy",
          "type": "address"
        },
        {
          "internalType": "bytes",
          "name": "_actionData",
          "type": "bytes"
        },
        {
          "internalType": "bytes",
          "name": "_assetData",
          "type": "bytes"
        }
      ],
      "name": "redeem",
      "outputs": [],
      "stateMutability": "nonpayable",
      "type": "function"
    }
  ],
  "bytecode": "0x60c060405234801561001057600080fd5b506040516121d53803806121d58339818101604052604081101561003357600080fd5b5080516020909101516001600160601b0319606092831b8116608052911b1660a05260805160601c60a05160601c612143610092600039806107d75280611a3e5250806105d55280610828528061093e5280610b7552506121436000f3fe608060405234801561001057600080fd5b50600436106100ea5760003560e01c8063a21f9a2c1161008c578063c29fa9dd11610066578063c29fa9dd14610306578063c54efee5146103d4578063e7c4569014610596578063f7d882b51461059e576100ea565b8063a21f9a2c1461020c578063b23228cf14610230578063b9dfbacc14610238576100ea565b8063257cb1a3116100c8578063257cb1a3146101ec5780633ffc1591146101f457806340da225d146101fc578063863e5ad014610204576100ea565b8063080456c1146100ef578063099f751514610114578063131461c0146101e4575b600080fd5b6100f76105a6565b604080516001600160e01b03199092168252519081900360200190f35b6101e26004803603606081101561012a57600080fd5b6001600160a01b038235169190810190604081016020820135600160201b81111561015457600080fd5b82018360208201111561016657600080fd5b803590602001918460018302840111600160201b8311171561018757600080fd5b919390929091602081019035600160201b8111156101a457600080fd5b8201836020820111156101b657600080fd5b803590602001918460018302840111600160201b831117156101d757600080fd5b5090925090506105ca565b005b6100f7610721565b6100f7610745565b6100f7610769565b6100f761078d565b6100f76107b1565b6102146107d5565b604080516001600160a01b039092168252519081900360200190f35b6100f76107f9565b6101e26004803603606081101561024e57600080fd5b6001600160a01b038235169190810190604081016020820135600160201b81111561027857600080fd5b82018360208201111561028a57600080fd5b803590602001918460018302840111600160201b831117156102ab57600080fd5b919390929091602081019035600160201b8111156102c857600080fd5b8201836020820111156102da57600080fd5b803590602001918460018302840111600160201b831117156102fb57600080fd5b50909250905061081d565b6101e26004803603606081101561031c57600080fd5b6001600160a01b038235169190810190604081016020820135600160201b81111561034657600080fd5b82018360208201111561035857600080fd5b803590602001918460018302840111600160201b8311171561037957600080fd5b919390929091602081019035600160201b81111561039657600080fd5b8201836020820111156103a857600080fd5b803590602001918460018302840111600160201b831117156103c957600080fd5b509092509050610933565b610461600480360360608110156103ea57600080fd5b6001600160a01b03823516916001600160e01b031960208201351691810190606081016040820135600160201b81111561042357600080fd5b82018360208201111561043557600080fd5b803590602001918460018302840111600160201b8311171561045657600080fd5b509092509050610ab1565b6040518086600281111561047157fe5b815260200180602001806020018060200180602001858103855289818151815260200191508051906020019060200280838360005b838110156104be5781810151838201526020016104a6565b50505050905001858103845288818151815260200191508051906020019060200280838360005b838110156104fd5781810151838201526020016104e5565b50505050905001858103835287818151815260200191508051906020019060200280838360005b8381101561053c578181015183820152602001610524565b50505050905001858103825286818151815260200191508051906020019060200280838360005b8381101561057b578181015183820152602001610563565b50505050905001995050505050505050505060405180910390f35b610214610b73565b6100f7610b97565b7f8334eb99be0145865eba9889fca2ee920288090caefff4cc776038e20ad9259a81565b336001600160a01b037f000000000000000000000000000000000000000000000000000000000000000016146106315760405162461bcd60e51b8152600401808060200182810382526032815260200180611fbd6032913960400191505060405180910390fd5b8482828080601f01602080910402602001604051908101604052809392919081815260200183838082843760009201919091525050604080516020601f88018190048102820181019092528681526060935083925082916106ad91908990899081908401838280828437600092019190915250610bbb92505050565b9250925092506106fa816000815181106106c357fe5b6020026020010151846000815181106106d857fe5b6020026020010151846000815181106106ed57fe5b6020026020010151610d78565b505050606061070882610bbb565b925050506107168382610e1e565b505050505050505050565b7f29fa046e79524c3c5ac4c01df692c35e217802b2b13b21121b76cf0ef02b138c81565b7f099f75155f0e997bf83a7993a71d5e7e7540bd386fe1e84643a09ce6b412521981565b7ffa7dd04da627f433da73c4355ead9c75682a67a8fc84d3f6170ef0922f402d2481565b7fb9dfbaccbe5cd2a84fdcf1d15f23ef25d23086f5afbaa99516065ed4a5bbc7a381565b7f03e38a2bd7063d45c897edeafc330e71657502dd86434d3c37a489caf116af6981565b7f000000000000000000000000000000000000000000000000000000000000000090565b7f68e30677f607df46e87da13e15b637784cfa62374b653f35ab43d10361a2f83081565b336001600160a01b037f000000000000000000000000000000000000000000000000000000000000000016146108845760405162461bcd60e51b8152600401808060200182810382526032815260200180611fbd6032913960400191505060405180910390fd5b8482828080601f0160208091040260200160405190810160405280939291908181526020018383808284376000920182905250604080516020601f8c018190048102820181019092528a81529194506108fb93509091508990899081908401838280828437600092019190915250610f7992505050565b905061090681610f98565b610918886109138361100e565b610e1e565b5050606061092582610bbb565b505090506107168382610e1e565b336001600160a01b037f0000000000000000000000000000000000000000000000000000000000000000161461099a5760405162461bcd60e51b8152600401808060200182810382526032815260200180611fbd6032913960400191505060405180910390fd5b8482828080601f0160208091040260200160405190810160405280939291908181526020018383808284376000920182905250604080516020601f8c018190048102820181019092528a8152919450610a119350909150899089908190840183828082843760009201919091525061121692505050565b50509050610a9781826001600160a01b03166370a08231306040518263ffffffff1660e01b815260040180826001600160a01b0316815260200191505060206040518083038186803b158015610a6657600080fd5b505afa158015610a7a573d6000803e3d6000fd5b505050506040513d6020811015610a9057600080fd5b505161124a565b610aa4886109138361100e565b5050606061070882610bbb565b600060608080806001600160e01b03198816632e77eeb360e21b1415610aeb57610adc8988886112c0565b94509450945094509450610b68565b6001600160e01b0319881663099f751560e01b1415610b0e57610adc87876114a5565b6001600160e01b0319881663c29fa9dd60e01b1415610b3157610adc8787611658565b60405162461bcd60e51b81526004018080602001828103825260278152602001806120e76027913960400191505060405180910390fd5b945094509450945094565b7f000000000000000000000000000000000000000000000000000000000000000090565b7fc29fa9dde84204c2908778afd0613d802d31cf046179b88f6d2b4a4e507ea2d581565b6060806060838060200190516060811015610bd557600080fd5b8101908080516040519392919084600160201b821115610bf457600080fd5b908301906020820185811115610c0957600080fd5b82518660208202830111600160201b82111715610c2557600080fd5b82525081516020918201928201910280838360005b83811015610c52578181015183820152602001610c3a565b5050505090500160405260200180516040519392919084600160201b821115610c7a57600080fd5b908301906020820185811115610c8f57600080fd5b82518660208202830111600160201b82111715610cab57600080fd5b82525081516020918201928201910280838360005b83811015610cd8578181015183820152602001610cc0565b5050505090500160405260200180516040519392919084600160201b821115610d0057600080fd5b908301906020820185811115610d1557600080fd5b82518660208202830111600160201b82111715610d3157600080fd5b82525081516020918201928201910280838360005b83811015610d5e578181015183820152602001610d46565b505050509050016040525050509250925092509193909250565b610d838284836117a9565b60408051632befabbf60e01b81526004810183905260016024820152731ad1fc9964c551f456238dd88d6a38344b5319d7604482015290516001600160a01b03851691632befabbf9160648083019260209291908290030181600087803b158015610ded57600080fd5b505af1158015610e01573d6000803e3d6000fd5b505050506040513d6020811015610e1757600080fd5b5050505050565b6060815167ffffffffffffffff81118015610e3857600080fd5b50604051908082528060200260200182016040528015610e62578160200160208202803683370190505b50905060005b8251811015610f72576000838281518110610e7f57fe5b60200260200101519050806001600160a01b03166370a08231306040518263ffffffff1660e01b815260040180826001600160a01b0316815260200191505060206040518083038186803b158015610ed657600080fd5b505afa158015610eea573d6000803e3d6000fd5b505050506040513d6020811015610f0057600080fd5b50518351849084908110610f1057fe5b6020026020010181815250506000838381518110610f2a57fe5b60200260200101511115610f6957610f6985848481518110610f4857fe5b6020026020010151836001600160a01b03166119e89092919063ffffffff16565b50600101610e68565b5092915050565b6000818060200190516020811015610f9057600080fd5b505192915050565b806001600160a01b0316638b30b51660006040518263ffffffff1660e01b815260040180828152602001915050602060405180830381600087803b158015610fdf57600080fd5b505af1158015610ff3573d6000803e3d6000fd5b505050506040513d602081101561100957600080fd5b505050565b604080516350b28af760e01b8152600060048201819052915160609284926001600160a01b038416926350b28af792602480840193919291829003018186803b15801561105a57600080fd5b505afa15801561106e573d6000803e3d6000fd5b505050506040513d6000823e601f3d908101601f19168201604052602081101561109757600080fd5b8101908080516040519392919084600160201b8211156110b657600080fd5b9083019060208201858111156110cb57600080fd5b82518660208202830111600160201b821117156110e757600080fd5b82525081516020918201928201910280838360005b838110156111145781810151838201526020016110fc565b505050509050016040525050505167ffffffffffffffff8111801561113857600080fd5b50604051908082528060200260200182016040528015611162578160200160208202803683370190505b50915060005b825181101561120f57816001600160a01b031663746daa4e826040518263ffffffff1660e01b81526004018082815260200191505060206040518083038186803b1580156111b557600080fd5b505afa1580156111c9573d6000803e3d6000fd5b505050506040513d60208110156111df57600080fd5b505183518490839081106111ef57fe5b6001600160a01b0390921660209283029190910190910152600101611168565b5050919050565b600080600083806020019051606081101561123057600080fd5b508051602082015160409092015190969195509350915050565b816001600160a01b0316638b30b516826040518263ffffffff1660e01b815260040180828152602001915050602060405180830381600087803b15801561129057600080fd5b505af11580156112a4573d6000803e3d6000fd5b505050506040513d60208110156112ba57600080fd5b50505050565b6000606080606080600061130988888080601f016020809104026020016040519081016040528093929190818152602001838380828437600092019190915250610f7992505050565b9050600061131682611a3a565b6001600160a01b0316141561135c5760405162461bcd60e51b8152600401808060200182810382526033815260200180611fef6033913960400191505060405180910390fd5b6040805160018082528183019092529060208083019080368337019050509450808560008151811061138a57fe5b6001600160a01b0392909216602092830291909101820152604080516001808252818301909252918281019080368337019050509350806001600160a01b03166370a082318a6040518263ffffffff1660e01b815260040180826001600160a01b0316815260200191505060206040518083038186803b15801561140d57600080fd5b505afa158015611421573d6000803e3d6000fd5b505050506040513d602081101561143757600080fd5b50518451859060009061144657fe5b6020908102919091010152600285856000604051908082528060200260200182016040528015611480578160200160208202803683370190505b50604080516000815260208101909152939d929c50909a509850909650945050505050565b600060608060608060008060006114f18a8a8080601f01602080910402602001604051908101604052809392919081815260200183838082843760009201919091525061121692505050565b925092509250600061150284611a3a565b90506001600160a01b0381166115495760405162461bcd60e51b815260040180806020018281038252602b815260200180611f48602b913960400191505060405180910390fd5b6040805160018082528183019092529060208083019080368337019050509750808860008151811061157757fe5b6001600160a01b039290921660209283029190910182015260408051600180825281830190925291828101908036833701905050965082876000815181106115bb57fe5b60209081029190910101526040805160018082528183019092529081602001602082028036833701905050955083866000815181106115f657fe5b6001600160a01b0392909216602092830291909101820152604080516001808252818301909252918281019080368337019050509450818560008151811061163a57fe5b60200260200101818152505060029850505050509295509295909350565b600060608060608060008060006116a48a8a8080601f01602080910402602001604051908101604052809392919081815260200183838082843760009201919091525061121692505050565b92509250925060006116b584611a3a565b90506001600160a01b0381166116fc5760405162461bcd60e51b815260040180806020018281038252602d815260200180612022602d913960400191505060405180910390fd5b6040805160018082528183019092529060208083019080368337019050509750838860008151811061172a57fe5b6001600160a01b0392909216602092830291909101820152604080516001808252818301909252918281019080368337019050509650828760008151811061176e57fe5b60209081029190910101526040805160018082528183019092529081602001602082028036833701905050955080866000815181106115f657fe5b60408051636eb1769f60e11b81523060048201526001600160a01b038481166024830152915160009286169163dd62ed3e916044808301926020929190829003018186803b1580156117fa57600080fd5b505afa15801561180e573d6000803e3d6000fd5b505050506040513d602081101561182457600080fd5b50516040805160608101909152602680825291925061184b9161209d602083013982611ad3565b818110156119c757611874604051806060016040528060288152602001611f2060289139611b85565b801561192057836001600160a01b031663095ea7b38460006040518363ffffffff1660e01b815260040180836001600160a01b0316815260200182815260200192505050602060405180830381600087803b1580156118d257600080fd5b505af11580156118e6573d6000803e3d6000fd5b505050506040513d60208110156118fc57600080fd5b50506040805160608101909152602480825261192091906120c36020830139611b85565b836001600160a01b031663095ea7b3846000196040518363ffffffff1660e01b815260040180836001600160a01b0316815260200182815260200192505050602060405180830381600087803b15801561197957600080fd5b505af115801561198d573d6000803e3d6000fd5b505050506040513d60208110156119a357600080fd5b5050604080516060810190915260248082526119c791906120796020830139611b85565b6112ba604051806060016040528060248152602001611f9960249139611b85565b604080516001600160a01b038416602482015260448082018490528251808303909101815260649091019091526020810180516001600160e01b031663a9059cbb60e01b179052611009908490611c2e565b60007f00000000000000000000000000000000000000000000000000000000000000006001600160a01b03166366adb867836040518263ffffffff1660e01b815260040180826001600160a01b0316815260200191505060206040518083038186803b158015611aa957600080fd5b505afa158015611abd573d6000803e3d6000fd5b505050506040513d6020811015610f9057600080fd5b611b8182826040516024018080602001838152602001828103825284818151815260200191508051906020019080838360005b83811015611b1e578181015183820152602001611b06565b50505050905090810190601f168015611b4b5780820380516001836020036101000a031916815260200191505b5060408051601f198184030181529190526020810180516001600160e01b03166309710a9d60e41b1790529350611cdf92505050565b5050565b611c2b816040516024018080602001828103825283818151815260200191508051906020019080838360005b83811015611bc9578181015183820152602001611bb1565b50505050905090810190601f168015611bf65780820380516001836020036101000a031916815260200191505b5060408051601f198184030181529190526020810180516001600160e01b031663104c13eb60e21b1790529250611cdf915050565b50565b6060611c83826040518060400160405280602081526020017f5361666545524332303a206c6f772d6c6576656c2063616c6c206661696c6564815250856001600160a01b0316611d009092919063ffffffff16565b80519091501561100957808060200190516020811015611ca257600080fd5b50516110095760405162461bcd60e51b815260040180806020018281038252602a81526020018061204f602a913960400191505060405180910390fd5b80516a636f6e736f6c652e6c6f67602083016000808483855afa5050505050565b6060611d0f8484600085611d19565b90505b9392505050565b606082471015611d5a5760405162461bcd60e51b8152600401808060200182810382526026815260200180611f736026913960400191505060405180910390fd5b611d6385611e75565b611db4576040805162461bcd60e51b815260206004820152601d60248201527f416464726573733a2063616c6c20746f206e6f6e2d636f6e7472616374000000604482015290519081900360640190fd5b60006060866001600160a01b031685876040518082805190602001908083835b60208310611df35780518252601f199092019160209182019101611dd4565b6001836020036101000a03801982511681845116808217855250505050505090500191505060006040518083038185875af1925050503d8060008114611e55576040519150601f19603f3d011682016040523d82523d6000602084013e611e5a565b606091505b5091509150611e6a828286611e7b565b979650505050505050565b3b151590565b60608315611e8a575081611d12565b825115611e9a5782518084602001fd5b8160405162461bcd60e51b81526004018080602001828103825283818151815260200191508051906020019080838360005b83811015611ee4578181015183820152602001611ecc565b50505050905090810190601f168015611f115780820380516001836020036101000a031916815260200191505b509250505060405180910390fdfe5f5f617070726f766541737365744d617841734e65656465643a6265666f726520617070726f76655f5f7061727365417373657473466f724c656e643a20556e737570706f727465642069646c65546f6b656e416464726573733a20696e73756666696369656e742062616c616e636520666f722063616c6c5f5f617070726f766541737365744d617841734e65656465643a617070726f76656420334f6e6c792074686520496e746567726174696f6e4d616e616765722063616e2063616c6c20746869732066756e6374696f6e5f5f7061727365417373657473466f72436c61696d526577617264733a20556e737570706f727465642069646c65546f6b656e5f5f7061727365417373657473466f7252656465656d3a20556e737570706f727465642069646c65546f6b656e5361666545524332303a204552433230206f7065726174696f6e20646964206e6f7420737563636565645f5f617070726f766541737365744d617841734e65656465643a617070726f76656420325f5f617070726f766541737365744d617841734e65656465643a616c6c6f77616e63653a25645f5f617070726f766541737365744d617841734e65656465643a617070726f76656420317061727365417373657473466f72416374696f6e3a205f73656c6563746f7220696e76616c6964a264697066735822122012eb949d7b2113d5cf813d1a58cd45110ceda92264f76944f8a2735452c4751d64736f6c634300060c0033",
  "linkReferences": {},
  "deployedLinkReferences": {}
}